:020000040800F2
:10000000F00C002001010008613100082F280008D1
:100010005D3100080D020008593E00080000000094
:1000200000000000000000000000000013010008B4
:10003000C3020008000000001701000819010008B1
:100040001B0100081B0100081B0100081B01000820
:100050001B0100081B010008C50200081B01000865
:100060001B0100081B0100081B0100088502000895
:100070001B0100081B0100081B0100081B010008F0
:10008000950200081B0100081B0100081B01000865
:100090001B0100081B0100081B0100081B010008D0
:1000A0001B0100081B0100081B0100081B010008C0
:1000B0001B010008013700081B0100081B01000894
:1000C0001B0100081B0100081B0100081B010008A0
:1000D0001B0100081B0100088D3D00081B010008E2
:1000E0001B0100081B0100081B010008DFF80CD0F1
:1000F00000F04CF800480047D1400008F00C002008
:100100000648804706480047FEE7FEE7FEE7FEE7B1
:10011000FEE7FEE7FEE7FEE7FEE7FEE7FD36000846
:10012000ED000008202A04DB203A00FA02F100204A
:1001300070479140C2F1200320FA03F31943904025
:10014000704740EA01039B0703D009E008C9121F6A
:1001500008C0042AFAD203E011F8013B00F8013B81
:10016000521EF9D27047D2B201E000F8012B491EAD
:10017000FBD270470022F6E710B513460A46044644
:100180001946FFF7F0FF204610BD0000064C074D52
:1001900006E0E06840F0010394E807009847103457
:1001A000AC42F6D3FFF7A6FFA04C0008C04C0008F5
:1001B00070B5044600252068806800F0010018B37F
:1001C0002068806820F001002168886000F06AFDE6
:1001D000054613E000F066FD401B02280ED920689A
:1001E000806800F0010048B1A06A40F01000A062F1
:1001F000E06A40F00100E062012070BD2068806884
:1002000000F001000028E5D10020F6E700BFFEE77E
:100210001948406A00F0005018B1022017490870D0
:1002200026E01548406A00F0804018B103201349C9
:1002300008701DE01048406A00F0806018B101208D
:100240000E49087014E00C48406A00F0006018B1D4
:1002500000200A4908700BE00748406A00F080500F
:1002600018B104200549087002E005200349087010
:10027000012003490860704700100240020100207D
:10028000E004424210B5024800F002FA10BD00003E
:10029000F0010020704730B590F840500124AC4088
:1002A000C56B6C60046863604468102C04D10468FA
:1002B000A2600468E16003E00468A1600468E26091
:1002C00030BD704710B5012000F048FB10BD0000A4
:1002D00002A003F0C3FD72B600BFFEE74572726F65
:1002E0007200000038B5024600230020009000BFD5
:1002F00092F82400012801D1022038BD012082F8A3
:10030000240000BF4868072812D21068406B0C799F
:10031000641E04EB84051F24AC40A0430D796D1EC0
:1003200005EB85050C68AC4020431468606327E04A
:1003300048680D2812D21068006B0C79E41F04EB9A
:1003400084051F24AC40A0430D79ED1F05EB850506
:100350000C68AC4020431468206311E01068C06A48
:100360000C790D3C04EB84051F24AC40A0430D79AF
:100370000D3D05EB85050C68AC4020431468E06238
:1003800008680A2812D31068C0680C780A3C04EB8D
:1003900044050724AC40A0430D780A3D05EB450514
:1003A0008C68AC4020431468E0600FE0106800697E
:1003B0000C7804EB44050724AC40A0430D7805EB12
:1003C00045058C68AC4020431468206108681028FB
:1003D00002D00868112827D1174C1068A0421ED1FE
:1003E0001068806800F40000F0B91068806840F47C
:1003F00000001468A0600868102815D10F48006834
:100400000F4CB0FBF4F000EB80004000009002E0E5
:100410000098401E009000980028F9D104E0906AEE
:1004200040F020009062012300BF002082F82400E9
:1004300000BF184661E70000002401401C010020B5
:1004400040420F002DE9F041044600270025002618
:10045000A84614B90120BDE8F081A06810B1207D44
:1004600000B100BFA06A30B90020E06284F8240027
:10047000204600F089F82046FFF79AFE0746A06A5A
:1004800000F01000002873D1002F71D1A06A20F471
:10049000885040F00200A062E16960680843217B57
:1004A00040EA41000643A068B0F5807F02D0A06812
:1004B000012802D14FF4807000E000200543207D28
:1004C000012811D1207B38B9A069401E4FF400618A
:1004D00041EA4030054307E0A06A40F02000A062F6
:1004E000E06A40F00100E0622068406820F4694062
:1004F00028432168486020688068214908403043CB
:1005000021688860A068B0F5807F02D0A0680128CB
:1005100002D14FF4807000E00020B0F5807F03D15D
:10052000208A401E4FEA00582068C06A20F47000FC
:1005300040EA08002168C8622068806811490840C4
:10054000B04208D10020E062A06A20F0020040F032
:100550000100A06211E0A06A20F0020040F010004B
:10056000A062E06A40F00100E062012705E0FFE7D9
:10057000A06A40F01000A062012738466BE7000037
:10058000FDF7E1FFFE0E1FFF10B586B00446002008
:1005900002900390049005902149206888423DD143
:1005A00000BF2048806940F400701E4988610846F9
:1005B000806900F40070019000BF00BF00BF0846D2
:1005C000806940F0040088610846806900F00400FA
:1005D000019000BF00BFF02002900320039002A909
:1005E000114800F0C9F9114811490860002048601D
:1005F00000210F4881608021C160490001618900AC
:10060000416100218161C16100F010F908B1FFF77B
:100610005FFE00BF06482062446200BF06B010BD06
:100620000024014000100240000801400800024080
:10063000F00100200146002291F82100022808D094
:100640000420886300BF002081F8200000BF012043
:1006500070470868006820F00E000B681860086892
:10066000006820F001000B68186091F8403001200C
:100670009840CB6B5860012081F8210000BF00201A
:1006800081F8200000BF1046E2E70146886B704702
:1006900070B50446E06B05682068066894F8401061
:1006A000042088402840002846D006F00400002896
:1006B00042D02068006800F0200028B92068006857
:1006C00020F004002168086057492068884201D161
:1006D000042027E0544914312068884201D1402089
:1006E00020E0514928312068884201D1001519E0E5
:1006F0004D493C312068884202D14FF4804011E0DE
:10070000494950312068884202D14FF4802009E0E5
:10071000454964312068884202D14FF4800001E0ED
:100720004FF08060404908394860E06A00287AD07C
:100730002046E16A884776E094F84010022088401D
:100740002840A0B306F0020088B32068006800F0DB
:10075000200040B92068006820F00A002168086085
:10076000012084F8210030492068884201D102200C
:1007700028E02D4914312068884201D1202021E051
:10078000294928312068884201D140151AE02649BC
:100790003C312068884202D14FF4005012E02249D7
:1007A00050312068884203D14FF400300AE017E04E
:1007B0001D4964312068884202D14FF4001001E0E5
:1007C0004FF0007018490839486000BF002084F8D5
:1007D000200000BFA06A30B32046A16A884722E00B
:1007E00094F84010082088402840E0B106F0080046
:1007F000C8B12068006820F00E002168086094F8F5
:10080000401001208840E16B48600120A06384F81B
:10081000210000BF002084F8200000BF206B10B131
:100820002046216B884770BD080002400146002227
:1008300009B901207047164B0868C01A1423B0FB91
:10084000F3F08000086412480838C863022081F879
:1008500021000868026843F6F0708243D1E9010381
:100860001843CB6818430B6918434B6918438B69CD
:100870001843CB691843024308680260002088636C
:10088000012081F82100002081F8200000BFD1E77D
:10089000080002402DE9F04104460D4616461F4669
:1008A0004FF0000800BF94F82000012802D1022078
:1008B000BDE8F081012084F8200000BF94F82100F9
:1008C00001282CD1022084F821000020A063206898
:1008D000006820F00100216808603B463246294646
:1008E0002046FFF7D8FCE06A30B12068006840F08D
:1008F0000E00216808600BE02068006820F004000A
:10090000216808602068006840F00A0021680860DB
:100910002068006840F001002168086006E000BF20
:10092000002084F8200000BF4FF002084046BFE7D7
:1009300070B5044600F0B6F906462546681C10B1AD
:1009400004480078054400BF00F0ACF9801BA842C1
:10095000FAD370BD180100207047000010B504469E
:1009600004480068204020B1024804602046FFF798
:10097000F3FF10BD140401402DE9F847034600229F
:1009800094466EE14FF0010808FA02F4D1F80080B5
:1009900008EA0400A0427DD1DFF8DCA2D1F804808F
:1009A000A8EB0A09D0453AD014DCB8F1030F50D0B7
:1009B00009DCB8F1000F31D0B8F1010F1CD0B8F14B
:1009C000020F49D120E0B8F1110F18D0B8F1120F81
:1009D00042D11EE0B9F5881F25D006DCB9F5803F6D
:1009E00020D0B9F5801F37D11AE0B9F5001F18D013
:1009F000B9F5041F30D117E0D1F80CC02DE0D1F8C3
:100A00000C8008F1040C28E0D1F80C8008F1080CE7
:100A100023E0D1F80C8008F10C0C1EE000BF00BFF1
:100A200000BF00BF00BF00BFD1F80880B8F1000FC1
:100A300002D14FF0040C0BE0D1F80880B8F1010F9F
:100A400003D14FF0080C1C6102E04FF0080C5C6110
:100A500003E04FF0000C00E000BF00BFFF2801D80A
:100A6000984601E003F104084646FF2802D84FEA01
:100A7000820803E0A2F108084FEA88084746D6F842
:100A800000804FF00F0909FA07F928EA09080CFA63
:100A900007F900E088E048EA0908C6F80080D1F8C4
:100AA000048008F08058B8F1805F7DD100BFDFF886
:100AB000CC81D8F8188048F00108DFF8C091C9F857
:100AC0001880C846D8F8188008F00108CDF80080D2
:100AD00000BF00BF4FEAB9384FEA920958F82950D1
:100AE0004FEA82784FEA18794FF00F0808FA09F8B0
:100AF00025EA0805DFF88881434502D14FF0000858
:100B000016E0DFF88081434502D14FF001080FE085
:100B1000DFF87481434502D14FF0020808E0DFF8A6
:100B20006C81434502D14FF0030801E04FF0040807
:100B30004FEA82794FEA197908FA09F848EA050577
:100B4000DFF84C814FEA920948F82950D1F8048027
:100B500008F48018B8F5801F0AD1DFF83881D8F87A
:100B6000008048EA0008DFF82C91C9F8008009E00D
:100B7000DFF82081D8F8008028EA0008DFF8149117
:100B8000C9F80080D1F8048008F40018B8F5001FF7
:100B900010D1DFF8008108F10408D8F8008048EA95
:100BA0000008DFF8F09000E05AE009F10409C9F804
:100BB00000800DE0DFF8DC8008F10408D8F8008040
:100BC00028EA0008DFF8CC9009F10409C9F8008090
:100BD000D1F8048008F40038B8F5003F0ED1DFF8F2
:100BE000B480A8F10408D8F8008048EA0008DFF8CB
:100BF000A490A9F10409C9F800800DE0DFF8948001
:100C0000A8F10408D8F8008028EA0008DFF88490EA
:100C1000A9F10409C9F80080D1F8048008F48038EB
:100C2000B8F5803F0ED1DFF86C80A8F10808D8F83D
:100C3000008048EA0008DFF85C90A9F10809C9F8CB
:100C400000800DE0DFF84C80A8F10808D8F800809B
:100C500028EA0008DFF83C90A9F10809C9F80080EB
:100C6000521CD1F8008028FA02F8B8F1000F7FF486
:100C700089AEBDE8F88700000000111000100240A6
:100C800000080140000C0140001001400014014028
:100C900008000140080401400AB1016101E00B04B1
:100CA0000361704701480068704700001001002090
:100CB00070B504460CB9012070BD94F83D0028B908
:100CC000002084F83C00204600F04CFB242084F8EF
:100CD0003D002068006820F001002168086020685D
:100CE000006840F40040216808602068006820F433
:100CF00000402168086000F003FE05465C4960681A
:100D0000884206D85B48854201D2012007E00020D6
:100D100005E05948854201D2012000E00020012869
:100D200000D1C9E75548B5FBF0F62068406820F0CF
:100D30003F003043216848604D496068884201D8CF
:100D4000701C07E04FF4967070434FF47A71B0FB5B
:100D5000F1F0401C2168096A21F03F010843216835
:100D6000086243496068884214D8681E6168490077
:100D7000B0FBF1F0401CC0F30B00042801D20420AA
:100D80003DE0681E61684900B0FBF1F0401CC0F313
:100D90000B0034E0A06838B9681E616801EB4101BE
:100DA000B0FBF1F0401C0AE0681E616801EBC10273
:100DB00002EB0111B0FBF1F0401C40F48040C0F3A5
:100DC0000B0008B901201AE0A06848B9681E6168E4
:100DD00001EB4101B0FBF1F0401CC0F30B000CE053
:100DE000681E616801EBC10202EB0111B0FBF1F07A
:100DF000401CC0F30B0040F4804040F400402168E8
:100E0000C9694CF6FF72914308432168C861D4E96F
:100E1000070108432168096821F0C00108432168DF
:100E20000860D4E9031008432168896848F2FF325A
:100E30009143084321688860D4E90501084321688B
:100E4000C96821F0FF0108432168C8602068006874
:100E500040F001002168086000202064202084F810
:100E60003D000020206384F83E0000BF24E700001E
:100E7000A086010080841E0000093D0040420F0052
:100E80002DE9F8430446894616461F46DDF82080C2
:100E9000FFF708FF054694F83D0020287ED119236E
:100EA000012251492046009501F025FE10B1022093
:100EB000BDE8F88300BF94F83C00012801D102206E
:100EC000F6E7012084F83C0000BF2068006800F0CD
:100ED000010028B92068006840F00100216808601E
:100EE0002068006820F4006021680860212084F8F0
:100EF0003D00102084F83E00002020646662678573
:100F0000608D20853948E0622B464246494620469E
:100F100001F0AEFC08B10120CAE700BF002000903C
:100F200020684069009020688069009000BF00BF81
:100F300044E02A464146204601F0FEFE50B1206CB6
:100F4000042805D12068006840F40070216808601A
:100F50000120ADE7606A007821680861606A401C82
:100F60006062608D401E6085208D401E2085206857
:100F70004069C0F3800070B1208D60B1606A007874
:100F800021680861606A401C6062608D401E608557
:100F9000208D401E20852A46414600E022E0204662
:100FA00001F076FD50B1206C042805D1206800685E
:100FB00040F4007021680860012079E7208D002846
:100FC000B7D12068006840F40070216808602020D4
:100FD00084F83D00002084F83E0000BF84F83C0007
:100FE00000BF65E7022063E7020010000000FFFF7A
:100FF0002DE9FE4F04460F4690469946DDE90CABBD
:101000000E9E00200290FFF74DFE054694F83D002D
:10101000202872D119230122CE492046009501F0E3
:101020006AFD10B10220BDE8FE8F00BF94F83C00BD
:10103000012801D10220F6E7012084F83C0000BF1E
:101040002068006800F0010028B92068006840F0BE
:101050000100216808602068006820F400602168B1
:101060000860222084F83D00402084F83E000020E3
:101070002064C4F824A0A4F82AB0608D2085B64866
:10108000E0624B46424639462046CDE9006501F014
:101090004FFC08B10120C6E7208D88B900BF0020B1
:1010A000019020684069019020688069019000BF2C
:1010B00000BF2068006840F40070216808604BE0C1
:1010C000208D01281AD12068006820F480602168F2
:1010D000086072B600BF002001902068406901904E
:1010E00020688069019000BF00BF2068006840F45C
:1010F00000702168086062B62EE029E1208D022888
:1011000019D12068006840F400602168086072B658
:1011100000BF00200190206840690190206880692C
:10112000019000BF00BF2068006820F48060216843
:10113000086062B610E02068006840F480602168B2
:10114000086000BF0020019020684069019020687D
:101150008069019000BF00BFEBE0208D03287DD89F
:10116000208D012815D12A463146204601F09FFDE9
:1011700008B1012057E720680069616A0870606A59
:10118000401C6062208D401E2085608D401E608561
:10119000CFE0208D02282CD1334600226F49204613
:1011A000009501F0A8FC08B101203CE772B6206868
:1011B000006840F400702168086020680069616A76
:1011C0000870606A401C6062208D401E2085608D22
:1011D000401E608562B620680069616A0870606AB6
:1011E000401C6062208D401E2085608D401E608501
:1011F0009FE03346002259492046009501F07BFCD0
:1012000008B101200FE72068006820F480602168A1
:10121000086072B620680069616A0870606A401CE4
:101220006062208D401E2085608D401E60854C4888
:1012300000681921B0FBF1F04FF47A71B0FBF1F0C6
:10124000C0EBC00000EB8000029000BF0298401E7F
:1012500002900298A8B90020206300E039E0202025
:1012600084F83D00002084F83E00206C40F020000F
:10127000206462B600BF002084F83C0000BF01205B
:10128000D1E620684069C0F380000028DED02068E5
:10129000006840F400702168086020680069616A95
:1012A0000870606A401C6062208D401E2085608D41
:1012B000401E608562B620680069616A0870606AD5
:1012C000401C6062208D401E2085608D401E608520
:1012D0002FE02A463146204601F0E9FC08B1012002
:1012E000A1E620680069616A0870606A401C60625B
:1012F000208D401E2085608D401E608520684069DD
:10130000C0F38000A8B1208D032805D120680068B3
:1013100020F480602168086020680069616A0870B4
:10132000606A401C6062208D401E2085608D401EDA
:101330006085208D00287FF410AF202084F83D00C8
:10134000002084F83E0000BF84F83C0000BF6AE63D
:10135000022068E6020010000000FFFF0400010008
:101360001C01002010B586B00446002002900390B6
:101370000490059016492068884226D100BF154880
:10138000806940F00800134988610846806900F0D0
:101390000800019000BF00BF4FF44060029012208F
:1013A00003900320059002A90B48FFF7E5FA00BF60
:1013B0000848C06940F480000649C8610846C06911
:1013C00000F48000019000BF00BF06B010BD000017
:1013D0000058004000100240000C01400348006823
:1013E000034909780844014908607047100100204A
:1013F0001801002010B50848006840F010000649A8
:101400000860032000F0E2F80F2000F007F800F079
:101410005FF8002010BD0000002002402DE9F041DF
:1014200088B004460027B846002600BF2348C0699C
:1014300040F002002149C8610846C06900F002007E
:10144000019000BF00BF02A903A800F031FA069F77
:101450001FB900F055FA054602E000F051FA4500C8
:101460001748B5FBF0F0A0F10108164816490860CE
:1014700040F2E7311448C160C0F8048000210161E6
:101480008160816100F00AFD064696B90E4800F0C1
:101490004FFD06466EB91D2000F04AF8102C07D209
:1014A000002221461D2000F053F80848046000E0A7
:1014B0000126304608B0BDE8F0810000001002406F
:1014C00040420F0000040040A4030020140100204B
:1014D00008B500BF1448806940F0010012498861D6
:1014E0000846806900F00100009000BF00BF00BF07
:1014F0000846C06940F08050C8610846C06900F0E5
:101500008050009000BF00BF00220F21901E00F00D
:101510001FF800BF0549486820F0E06040F0007007
:10152000486000BF08BD00000010024000000140FC
:1015300001460846002809DB00F01F0301229A40FB
:1015400043099B0003F1E023C3F8002100BF70476B
:101550002DE9F05F80460D461646002702F08EFC0E
:10156000074639462A46334601F00700C0F1070A0C
:10157000BAF1040F02D94FF0040A01E0C0F1070AE2
:10158000D14600F1040ABAF1070F02D24FF0000A67
:1015900001E0A0F1030AD4464FF0010A0AFA09FA61
:1015A000AAF1010A0AEA020A0AFA0CFA4FF0010B40
:1015B0000BFA0CFBABF1010B0BEA030B4AEA0B0431
:1015C0002146404602F062FCBDE8F09F00BF00F0FB
:1015D0000702064B19684FF6FF031940044B0B43F3
:1015E00043EA0221014B196000BF70470CED00E097
:1015F0000000FA05F8B5044600260025207800F022
:10160000010000286BD000274348C06900F08050DB
:1016100070B900BF4048C06940F080503E49C86181
:101620000846C06900F08050009000BF00BF01274D
:101630003A48006800F48070B0B93848006840F457
:10164000807036490860FFF72DFB064606E0FFF77D
:1016500029FB801B642801D90320F8BD2F480068AE
:1016600000F480700028F2D02B48006A00F4407526
:101670002DB3A08800F44070A84220D02648006A0C
:1016800020F44075012026490860002008602248A7
:10169000056205F0010090B1FFF704FB064608E083
:1016A000FFF700FB801B41F28831884201D90320FB
:1016B000D3E71948006A00F002000028F0D016486D
:1016C000006A20F440706168084313490862012FE2
:1016D00004D10846C06920F08050C86100BF20785E
:1016E00000F00200022807D10B48406820F4404077
:1016F000A168084308494860207800F010001028CD
:1017000007D10548406820F48000E1680843024999
:1017100048600020A1E70000001002400070004077
:101720004004424270B504460D460CB9012070BD1C
:101730005A48006800F00700A8420ED257480068D7
:1017400020F007002843554908600846006800F06B
:101750000700A84201D00120E9E7207800F002004C
:1017600002281DD1207800F00400042805D14C483F
:10177000406840F4E0604A494860207800F0080082
:10178000082805D14648406840F460504449486004
:101790004348406820F0F000A16808434049486091
:1017A000207800F0010078B36068012806D13C4839
:1017B000006800F4003090B90120B8E760680228A2
:1017C00006D13748006800F0007040B90120AEE74C
:1017D0003348006800F0020008B90120A7E730484C
:1017E000406820F00300616808432D494860FFF716
:1017F00059FA064609E0FFF755FA801B41F2883195
:10180000884202D9032092E707E02548406800F0AB
:101810000C006168B0EB810FEDD12048006800F04A
:101820000700A8420ED91D48006820F00700284391
:101830001A4908600846006800F00700A84201D075
:10184000012074E7207800F00400042807D1144830
:10185000406820F4E060E16808431149486020785E
:1018600000F00800082808D10D48406820F46050B6
:10187000216940EAC1000A49486000F061F808495E
:101880004968C1F30311074A515CC8400649086022
:1018900006480068FFF7C2FD002048E7002002402C
:1018A000001002409F4300081C010020140100208A
:1018B0000F2202600D4A526802F0030242600B4A96
:1018C000526802F0F0028260084A526802F4E06254
:1018D000C260064A526802F46052D2080261044AA9
:1018E000126802F007020A60704700000010024010
:1018F0000020024001480068704700001C010020E1
:1019000000B5FFF7F7FF04494968C1F30221034A14
:10191000515CC84000BD000000100240AF43000809
:1019200000B5FFF7E7FF04494968C1F3C221034A44
:10193000515CC84000BD000000100240AF430008E9
:1019400070B500210022002400230020134D696897
:1019500001F00C05F5B1042D02D0082D19D101E0DC
:101960000F4819E00F4DC1F38346AB5D01F480359C
:1019700055B10A4D6D68C5F340450B4E725D084D7B
:101980005D43B5FBF2F402E0084D03FB05F420468D
:1019900002E000BF024800BF00BF70BD001002405F
:1019A00000127A008D4300089D43000800093D00A5
:1019B000F8B504460CB90120F8BD207800F001000C
:1019C000002878D0F848406800F00C0004280CD0BB
:1019D000F548406800F00C00082811D1F248406832
:1019E00000F48030B0F5803F0AD1EF48006800F481
:1019F000003000285FD0606800285CD10120DBE760
:101A000000BF6068B0F5803F06D1E748006840F449
:101A10008030E549086028E0606858B9E24800680D
:101A200020F48030E04908600846006820F48020F7
:101A300008601AE06068B0F5A02F0BD1DA480068A2
:101A400040F48020D84908600846006840F480309F
:101A500008600AE0D448006820F48030D249086069
:101A60000846006820F48020086000BF606888B1E4
:101A7000FFF718F9054606E0FFF714F9401B642844
:101A800001D9032098E7C848006800F40030002816
:101A9000F2D010E0FFF706F9054606E0FFF702F97D
:101AA000401B642801D9032086E7BF48006800F482
:101AB00000300028F2D1207800F00200022857D12F
:101AC000B948406800F00C0050B1B748406800F0D9
:101AD0000C00082818D1B448406800F4803098B948
:101AE000B148006800F0020020B12069012801D04F
:101AF000012061E7AC48006820F0F800616940EA25
:101B0000C100A949086033E02069E8B10120A74974
:101B10000860FFF7C7F8054606E0FFF7C3F8401B6B
:101B2000022801D9032047E79F48006800F002001F
:101B30000028F2D09C48006820F0F800616940EA73
:101B4000C1009949086013E0002098490860FFF738
:101B5000A9F8054606E0FFF7A5F8401B022801D9C1
:101B6000032029E79048006800F002000028F2D125
:101B7000207800F0080008282DD1A069B8B1012014
:101B80008B490860FFF78EF8054606E0FFF78AF8F4
:101B9000401B022801D903200EE78348406A00F069
:101BA00002000028F2D0012001F050FD13E00020D7
:101BB0007F490860FFF776F8054606E0FFF772F800
:101BC000401B022801D90320F6E67748406A00F05E
:101BD00002000028F2D1207800F00400042873D11C
:101BE00000277148C06900F0805070B900BF6E488E
:101BF000C06940F080506C49C8610846C06900F077
:101C00008050009000BF00BF01276A48006800F4C0
:101C10008070B0B96748006840F48070654908601A
:101C2000FFF740F8054606E0FFF73CF8401B642844
:101C300001D90320C0E65F48006800F480700028E6
:101C4000F2D000BFE068012806D15748006A40F092
:101C500001005549086227E0E06858B95248006A17
:101C600020F00100504908620846006A20F0040094
:101C7000086219E0E06805280BD14B48006A40F083
:101C80000400494908620846006A40F00100086201
:101C90000AE04548006A20F001004349086208460E
:101CA000006A20F00400086200BFE068A0B1FEF7FF
:101CB000F9FF054609E0FEF7F5FF401B41F28831C8
:101CC000884202D9032077E622E03748006A00F014
:101CD00002000028EFD012E0FEF7E4FF054608E01E
:101CE000FEF7E0FF401B41F28831884201D9032012
:101CF00062E62D48006A00F002000028F0D1012FB2
:101D000005D12948C06920F080502749C86100BF2B
:101D1000E069C8B32448406800F00C00082860D08F
:101D2000E069022848D1002020490866FEF7BAFF82
:101D3000054606E0FEF7B6FF401B022801D9032046
:101D40003AE61948006800F000700028F2D1206AD5
:101D5000B0F5803F07D11448406820F40030A168F6
:101D6000084311494860D4E9080108430E4949680D
:101D700021F4741108430C49486001200B4908669E
:101D8000FEF790FF054607E03DE0FEF78BFF401BA6
:101D9000022801D903200FE60348006800F0007014
:101DA0000028F2D02FE00000001002400000424264
:101DB0008004424200700040002014490866FEF78B
:101DC00071FF054606E0FEF76DFF401B022801D9B2
:101DD0000320F1E50E48006800F000700028F2D101
:101DE00011E0E069012800D1E6E50948466806F4FB
:101DF0008031206A814204D106F47011606A814208
:101E000001D00120D8E50020D6E5000000004242C4
:101E1000001002407047704730B502460B4600BFC5
:101E200092F83C00012801D1022030BD012082F847
:101E30003C0000BF022082F83D0010684468106832
:101E4000816824F070041868044310684460104DE1
:101E50001068A8420BD01068B0F1804F07D00D4D2C
:101E60001068A84203D00C4D1068A84205D121F09B
:101E700080015868014310688160012082F83D00AC
:101E800000BF002082F83C0000BF00BFCDE700008B
:101E9000002C0140000400400008004010B504463A
:101EA0000CB9012010BD94F83D0028B9002084F839
:101EB0003C00204600F026F8022084F83D00211D59
:101EC000206801F025FC012084F8460000BF84F85A
:101ED0003E0001213F200155402001554120015580
:101EE00000BF00BF012084F8420043200155442078
:101EF00001554520015500BF012084F83D00002018
:101F0000D0E7000008B50168B1F1804F0DD100BFE6
:101F10000649C96941F00101044AD1611146C96904
:101F200001F00101009100BF00BF08BD0010024098
:101F3000014691F83D00012801D0012070470220A0
:101F400081F83D000868C06840F001000B68D86067
:101F5000124B086898420BD00868B0F1804F07D048
:101F60000F4B0868984203D00E4B086898420CD17A
:101F70000868806800F00702062A0CD0086800682C
:101F800040F001000B68186005E00868006840F048
:101F900001000B6818600020D0E70000002C014011
:101FA00000040040000800402DE9F04104460D46C1
:101FB000002700BF94F83C00012802D10220BDE8B0
:101FC000F081012084F83C0000BF022084F83D002D
:101FD0002068866826F0770626F47F4620688660AB
:101FE0002868502833D00CDC202850D004DC00288E
:101FF0004BD0102851D149E0302849D040284CD14D
:1020000039E060282DD0702807D0B0F5805F03D06C
:10201000B0F5005F41D10DE041E0D5E902136A68F7
:10202000206801F0B7FB2068866846F077062068D4
:10203000866034E0D5E902136A68206801F0AAFBE3
:102040002068806840F480402168886027E0EA6862
:102050006968206801F06EFC5021206801F0A5FB42
:102060001DE0EA686968206801F077FC602120685B
:1020700001F09BFB13E0EA686968206801F05AFCF4
:102080004021206801F091FB09E000BF00BF00BFC4
:102090002968206801F089FB01E0012700BF00BF2B
:1020A000012084F83D0000BF002084F83C0000BF00
:1020B000384684E72DE9F04104460D4614B9012065
:1020C000BDE8F08194F83D0028B9002084F83C0078
:1020D000204600F051F8022084F83D002068806816
:1020E00044F20701884321688860211D206801F0BF
:1020F0000FFB2068D0F80880206886692068076A8E
:10210000286840EA080840F203308643A969A868B5
:1021100040EA0120064340F60C4086434FF2F000AF
:102120008643E969E86840EA01200643286900011E
:10213000296A40EA0130064327F022076969686886
:1021400040EA011007432068C0F8088020688661D3
:1021500020680762012084F8460084F83E000121CF
:102160003F200155012084F8420043200155012001
:1021700084F83D000020A3E710B586B00446002097
:10218000029003900490059015492068884224D15C
:1021900000BF1448806940F4006012498861084615
:1021A000806900F40060019000BF00BF00BF0846D6
:1021B000806940F0040088610846806900F00400EE
:1021C000019000BF00BF4FF44070029000200390C8
:1021D000049002A90448FEF7CFFB06B010BD000032
:1021E000002C01400010024000080140704770B50B
:1021F00004462068C5682068066906F002000228C7
:1022000019D105F00200022815D1401F216808618C
:10221000012020772068806900F0030018B1204673
:10222000FFF7E4FF05E0204600F0C2F8204600F08A
:1022300076F90020207706F00400042819D105F073
:102240000400042815D1C0432168086102202077CA
:102250002068806900F4407018B12046FFF7C6FF7F
:1022600005E0204600F0A4F8204600F058F90020D0
:10227000207706F00800082819D105F00800082882
:1022800015D1C04321680861042020772068C06907
:1022900000F0030018B12046FFF7A8FF05E0204634
:1022A00000F086F8204600F03AF90020207706F08A
:1022B0001000102819D105F01000102815D1C043C6
:1022C00021680861082020772068C06900F4407008
:1022D00018B12046FFF78AFF05E0204600F068F8B5
:1022E000204600F01CF90020207706F0010048B1DC
:1022F00005F0010030B16FF001002168086120464F
:1023000000F00EF906F08000802809D105F0800069
:10231000802805D1C043216808612046FFF77AFD77
:1023200006F04000402809D105F04000402805D1C2
:10233000C04321680861204600F0FEF806F0200046
:10234000202809D105F02000202805D1C0432168AC
:1023500008612046FFF75FFD70BD000010B586B034
:102360000446002002900390049005902068B0F18C
:10237000804F16D100BF0C48806940F004000A4924
:1023800088610846806900F00400019000BF00BF2A
:102390000120029002200390059002A90348FEF755
:1023A000EBFA06B010BD000000100240000801402A
:1023B00070472DE9F04104460D461646002700BF40
:1023C00094F83C00012802D10220BDE8F0810120F0
:1023D00084F83C0000BF36B1042E1BD0082E31D04B
:1023E0000C2E5ED145E02946206801F0E7F920680F
:1023F000806940F00800216888612068806920F0C9
:10240000040021688861206880692969084321687F
:10241000886148E02946206801F000FA2068806958
:1024200040F40060216888612068806920F4806041
:102430002168886120688069296940EA0120216853
:10244000886130E02946206801F01CFA2068C069E4
:1024500040F008002168C8612068C06920F00400CD
:102460002168C8612068C069296908432168C8617A
:1024700019E02946206801F039FA2068C06940F463
:1024800000602168C8612068C06920F4806021680C
:10249000C8612068C069296940EA01202168C861D3
:1024A00001E0012700BF00BF00BF002084F83C000E
:1024B00000BF384689E710B504460CB9012010BDAD
:1024C00094F83D0028B9002084F83C00204600F034
:1024D00025F8022084F83D00211D206801F018F93C
:1024E000012084F8460000BF84F83E0001213F200F
:1024F0000155402001554120015500BF00BF01207A
:1025000084F84200432001554420015545200155DF
:1025100000BF012084F83D000020D0E770477047DD
:1025200010B5044603492068884201D1FEF756FFE2
:1025300010BD0000000400407047704710B504460D
:1025400000BF00BF21680C3151E8001F21F49070DA
:1025500021680C3141E80002002AF3D100BF00BF1E
:1025600000BF2168143151E8001F21F001002168EB
:10257000143141E80002002AF3D100BF206B01288A
:102580000ED100BF00BF21680C3151E8001F21F0BF
:10259000100021680C3141E80002002AF3D100BF8D
:1025A0002068406900F0400000B300BF00BF216810
:1025B000143151E8001F21F040002168143141E836
:1025C0000002002AF3D100BFE06B78B10020E16B7C
:1025D0004863E06BFEF72EF840B1E06BFEF755F86C
:1025E000202803D110206064032010BD0020E08566
:1025F000202084F842000020206300BFF5E77047E8
:1026000010B504460CB9012010BDA06900B100E06E
:1026100000BF94F8410028B9002084F8400020460B
:1026200000F02AF8242084F841002068C06820F4D3
:1026300000502168C860204601F080FA20680069D7
:1026400020F49040216808612068406920F02A0049
:10265000216848612068C06840F400502168C86063
:1026600000206064202084F8410084F842000020AB
:10267000606300BFC8E7000010B586B004460020C4
:10268000029003900490059027492068884249D120
:1026900000BF2648C06940F400302449C86108469C
:1026A000C06900F40030019000BF00BF00BF0846C1
:1026B000806940F0040088610846806900F00400E9
:1026C000019000BF00BF042002900220039003206D
:1026D000059002A91648FEF74FF908200290002045
:1026E0000390049002A91248FEF746F911481249D6
:1026F00008600020486000210F4881608021C1608F
:102700000021016141618161C161FEF78FF808B16B
:10271000FDF7DEFD00BF08480849C86308460649C2
:10272000486200BF06B010BD0044004000100240E7
:10273000000801406C000240180300205C030020E8
:1027400070B504460D46164694F8420020280BD179
:1027500005B10EB9012070BD002020633246294624
:10276000204601F069FAF6E70220F4E77047704767
:102770002DE9F84F04460E46174699464FF0000AD9
:1027800094F84100202850D106B117B90120BDE8C6
:10279000F88F00206064212084F84100FEF782FA5F
:1027A0008246A784E784A068B0F5805F04D12069E1
:1027B00010B90025B04602E035464FF000081EE093
:1027C0005346002280212046CDF8009001F098FA6F
:1027D00020B1202084F841000320D8E745B9B8F89B
:1027E0000000C0F308002168486008F1020803E017
:1027F0002878216848606D1CE08C401EE084E08CE5
:102800000028DDD15346002240212046CDF800901B
:1028100001F076FA20B1202084F841000320B6E7C9
:10282000202084F841000020B1E70220AFE700BF7C
:10283000FEE7014608684069C0F38020B0B16FF43C
:1028400080600A68506100200863202081F83D0004
:10285000002081F83E00086C40F00400086400BFCE
:10286000002081F83C0000BF012070470020FCE7F9
:102870002DE9F84304460D4617469846E66A082EA9
:1028800004D0012E02D016F5803F06D120680068E2
:1028900040F480702168086008E0206B122805D1A0
:1028A0002068006840F48070216808603B46002280
:1028B0004FF001112046CDF8008000F01CF960B106
:1028C0002068006800F48070B0F5807F02D14FF47A
:1028D000007020640320BDE8F8832069B0F5804FC4
:1028E00004D105F0FE002168086112E005F4407093
:1028F000F02141EAE0102168086143463A460B495D
:10290000204600F057F908B10120E4E7E8B2216859
:10291000086143463A460549891F204600F04AF9B6
:1029200008B10120D7E70020D5E70000080001002A
:102930002DE9F84304460F4615469946DDE9088619
:102940002068006840F480602168086020680068A2
:1029500040F4807021680860434600224FF0011166
:102960002046009600F0C7F860B12068006800F4C7
:102970008070B0F5807F02D14FF400702064032096
:10298000BDE8F88307F0FE0021680861334642463F
:102990003E49204600F00EF908B10120F0E700BFE3
:1029A00000200090206840690090206880690090B5
:1029B00000BF00BF32464146204600F0BDF950B18D
:1029C000206C042805D12068006840F4007021685C
:1029D00008600120D4E7B9F1010F03D1E8B2216802
:1029E000086117E0C5F307202168086132464146B7
:1029F000204600F0A1F950B1206C042805D12068D0
:102A0000006840F40070216808600120B8E7E8B26F
:102A10002168086132464146204600F08DF950B1E8
:102A2000206C042805D12068006840F400702168FB
:102A300008600120A4E72068006840F480702168E5
:102A40000860434600224FF001112046009600F036
:102A500052F858B12068006800F48070B0F5807FAB
:102A600002D14FF400702064032089E7F8B240F0EF
:102A7000010021680861334642460449204600F0BF
:102A800099F808B101207BE7002079E702000100F6
:102A900070B504460D46164625E02046FFF7C9FEF0
:102AA00008B1012070BD681CE8B1FEF7FBF8801B7F
:102AB000A84200D8BDB920684069C0F3800090B931
:102AC00000202063202084F83D00002084F83E0090
:102AD000206C40F02000206400BF002084F83C00FF
:102AE00000BF0120DEE720684069C0F380000028B5
:102AF000D3D00020D6E72DE9F04104460D46174615
:102B00001E46DDF8188038E0701CA8B3FEF7CAF83E
:102B1000A0EB0800B04200D876BBC5F307400128FF
:102B20000AD120684069A9B20840A9B2884201D1FF
:102B300001200BE0002009E020688069A9B208406C
:102B4000A9B2884201D1012000E00020B84214D18E
:102B500000202063202084F83D00002084F83E00FF
:102B6000206C40F02000206400BF002084F83C006E
:102B700000BF0120BDE8F081FFE7C5F30740012851
:102B80000AD120684069A9B20840A9B2884201D19F
:102B900001200BE0002009E020688069A9B208400C
:102BA000A9B2884201D1012000E00020B842ABD098
:102BB0000020DFE72DE9F04104460D4616461F468A
:102BC00058E020684069C0F38020E8B120680068C0
:102BD00040F40070216808606FF4806021684861EB
:102BE00000202063202084F83D00002084F83E006F
:102BF000206C40F00400206400BF002084F83C00FA
:102C000000BF0120BDE8F081701C90B3FEF74AF8C8
:102C1000C01BB04200D866BBC5F3074001280AD1EB
:102C200020684069A9B20840A9B2884201D10120B8
:102C30000BE0002009E020688069A9B20840A9B231
:102C4000884201D1012000E0002090B900202063DB
:102C5000202084F83D00002084F83E00206C40F0E5
:102C60002000206400BF002084F83C0000BF012049
:102C7000C8E7FFE7C5F3074001280AD1206840698B
:102C8000A9B20840A9B2884201D101200BE000207E
:102C900009E020688069A9B20840A9B2884201D140
:102CA000012000E0002000288BD00020AAE770B5AA
:102CB00004460D46164637E020684069C0F3001010
:102CC000A0B16FF01000216848610020206320202F
:102CD00084F83D00002084F83E00206C206400BF92
:102CE000002084F83C0000BF012070BDFDF7DAFF32
:102CF000801BA84200D8BDB920684069C0F380108D
:102D000090B900202063202084F83D00002084F842
:102D10003E00206C40F02000206400BF002084F8BA
:102D20003C0000BF0120E0E720684069C0F380104C
:102D30000028C1D00020D8E770B504460D461646DD
:102D400025E02046FFF775FD08B1012070BD681C25
:102D5000E8B1FDF7A7FF801BA84200D8BDB92068E5
:102D60004069C0F3C01090B900202063202084F88F
:102D70003D00002084F83E00206C40F020002064DC
:102D800000BF002084F83C0000BF0120DEE720687F
:102D90004069C0F3C0100028D3D00020D6E700005F
:102DA0001FB500226B21D02000F010F84FF0FF304B
:102DB000012103AA0B46CDE9002102907522D02102
:102DC0000148FEF715F91FBD340200207CB504460A
:102DD0000E4615468DF804608DF805504FF0FF3013
:102DE000022301AA214600900148FEF749F87CBD64
:102DF000340200200EB5002000900190029023487C
:102E00002349086081152248816000210173017502
:102E10004FF46021C16100201D49486004211C4815
:102E20000161FDF70FFB08B1FDF752FA0420009095
:102E3000012001900020029069461548FDF752FAE2
:102E400008B1FDF745FA052000900220019069467F
:102E50000F48FDF747FA08B1FDF73AFA062000904F
:102E60000320019069460A48FDF73CFA08B1FDF7D6
:102E70002FFA072000900420019069460448FDF7CE
:102E800031FA08B1FDF724FA0EBD0000002401401C
:102E9000C001002008B500BF0A48406940F00100A9
:102EA000084948610846406900F00100009000BFF1
:102EB00000BF002205210B20FEF74AFB0B20FEF786
:102EC00037FB08BD0010024000B585B0002001901E
:102ED00002900390049000BF3148806940F01000D8
:102EE0002F4988610846806900F01000009000BFFB
:102EF00000BF00BF0846806940F020008861084696
:102F0000806900F02000009000BF00BF00BF0846AD
:102F1000806940F0040088610846806900F0040080
:102F2000009000BF00BF00BF0846806940F0080065
:102F300088610846806900F00800009000BF00BF6B
:102F4000002210211748FDF7A7FE0122E0211548B5
:102F5000FDF7A2FE4FF47040019000200290012086
:102F6000039001A90F48FDF707FD302001900120D3
:102F70000290002003900220049001A90948FDF767
:102F8000FBFCC02001901120029000200390032040
:102F9000049001A90348FDF7EFFC05B000BD000057
:102FA00000100240000C014010B50B480B490860AE
:102FB0000B484860002109488160C1604FF480419E
:102FC0000161002141618161C1610162FDF770FE13
:102FD00008B1FDF77DF910BD005800403402002013
:102FE000A086010000B58BB0242102A8FDF7C2F82D
:102FF000002000900190184818490860002048609F
:103000000021164881604FF6FF71C1600021016107
:103010004161816101200290002003900120049011
:10302000002005900690079001200890002009904C
:103030000A9002A90948FFF73DF808B1FDF748F9E1
:1030400000200090019069460448FEF7E5FE08B1B3
:10305000FDF73EF90BB000BD002C014088020020B6
:1030600000B58DB0002009900A900B900C9007904D
:1030700008901C216846FDF77DF84FF080402049FC
:1030800008604820486000211D48816044F62061A6
:10309000C160002101618161FEF700FF08B1FDF709
:1030A00017F94FF48050099009A91548FEF77CFFE5
:1030B00008B1FDF70DF91248FFF7FDF908B1FDF76A
:1030C00007F900200790089007A90D48FEF7A4FE15
:1030D00008B1FDF7FDF8602000904FF4FA70019000
:1030E000002002900490002269460548FFF761F92C
:1030F00008B1FDF7EDF80248FFF730F90DB000BD5B
:10310000D002002010B51348134908604FF4165040
:103110004860002110488160C16001610C2141615B
:1031200000218161C161FFF76BFA08B1FDF7D0F8AA
:10313000002208212620FEF70BFA2620FEF7F8F9D8
:1031400005480068C06840F0200003490968C8606D
:1031500010BD0000004400405C03002000BFFEE7FB
:1031600000BFFEE770B500240EE00021204600F00D
:10317000C2F9002504E0002000F058FA681CC5B22E
:10318000802DF8DB601CC4B2082CEEDB70BD0000A3
:103190002DE9F04F8FB006460F46904699464645BA
:1031A00006DA1898864201DA304607E0189805E0FA
:1031B0001898804501DA404600E018980690464588
:1031C00006DD1898864201DD304607E0189805E0D4
:1031D0001898804501DD404600E0189808904F455A
:1031E00006DA1998874201DA384607E0199805E0AF
:1031F0001998814501DA484600E0199805904F4535
:1032000006DD1998874201DD384607E0199805E088
:103210001998814501DD484600E019980790069C01
:103220006AE0059D64E0002C05DB802C03DA002DAC
:1032300001DB402D00DB5AE08DE8C0032946204623
:10324000DDE9182301F038F8B8B31A9820B1012845
:103250001CD0022849D131E02A4800EBC4002A469C
:103260000121D0E900AB0020CDE909010846099908
:10327000FCF758FF0A46C1430AEA010A2BEA020B8F
:10328000204800EBC400C0E900AB2EE01D4800EB75
:10329000C4002A460121D0E900BA0020CDE90B0183
:1032A00008460B99FCF73EFF4BEA00024AEA01038D
:1032B000144800EBC4000CC017E017E0114800EB05
:1032C000C4002A460121D0E900BA0020CDE90D0151
:1032D00008460D99FCF726FF8BEA00028AEA0103F3
:1032E000084800EBC4000CC000BF00BF00BF6D1C4D
:1032F0000798854297DD641C0898844291DD0FB0E1
:10330000BDE8F08FF00300202DE9FF4F83B00746A2
:103310008846914610AC94E8300C149E8DE87000FD
:103320004A4641463846069BFFF732FF2B46224667
:1033300041463846CDE900AB0296FFF729FF07B0BA
:10334000BDE8F08F10B5FFF7BFFD0122202109482D
:10335000FDF7A2FC002210210648FDF79DFC01228A
:1033600040210448FDF798FC012280210148FDF727
:1033700093FC10BD000C014070B50546002417E019
:1033800080202041284008B1012000E000200246B2
:1033900080210E48FDF780FC012240210B48FDF7FB
:1033A0007BFC002240210948FDF776FC601CC4B27A
:1033B000082CE5DB012240210448FDF76DFC0022CA
:1033C00040210248FDF768FC70BD0000000C014080
:1033D00010B5012280210948FDF75EFC0122402141
:1033E0000648FDF759FC002280210448FDF754FCF3
:1033F000002240210148FDF74FFC10BD000C0140A8
:1034000010B5002280210748FDF746FC012240212B
:103410000448FDF741FC012280210248FDF73CFCF5
:1034200010BD0000000C014070B5002406E000252E
:1034300000E06D1CB5F57A7FFBD3641CB4F57A7F90
:10344000F5D3FFF77FFFAE2000F0E0F8D52000F0C5
:10345000DDF8802000F0DAF8A82000F0D7F83F204F
:1034600000F0D4F8FFF7B4FF7820FFF785FF0020C5
:10347000FFF782FF2020FFF77FFF0020FFF77CFF90
:10348000FFF7BEFFD32000F0C1F8002000F0BEF827
:10349000402000F0BBF8A12000F0B8F8C82000F0F0
:1034A000B5F8DA2000F0B2F8122000F0AFF8812071
:1034B00000F0ACF8CF2000F0A9F8D92000F0A6F871
:1034C000F12000F0A3F8DB2000F0A0F8302000F09D
:1034D0009DF8A42000F09AF8A62000F097F88D201F
:1034E00000F094F8142000F091F8AF2000F08EF86E
:1034F000FFF738FE70BD70B505460C4645F0B000CC
:1035000000F084F8102141EA141000F07FF804F074
:103510000F0000F07BF870BD2DE9FC4105460E461A
:103520001746002000900190721ED206110E6A1EEE
:10353000D0B2FFF7E0FF00201FE0002119E01DF8E6
:1035400000205206120E0DF80020A7F12002134BA6
:1035500003EBC202C1F10703D25C012383401A408E
:103560002AB11DF8002042F001020DF800204A1C8B
:10357000D1B20829E3DB411CC8B20828DDDB0024F6
:1035800007E0C4F107011DF8010000F04FF8601CCE
:10359000C4B2082CF5DBBDE8FC810000A749000897
:1035A0002DE9F04107460E461546002407E02A5D46
:1035B0003019C1B23846FFF7AFFF601CC4B2285DB6
:1035C0000028F4D1BDE8F08170B500210820FFF794
:1035D00092FFFFF7FDFE7820FFF7CEFE4020FFF7B9
:1035E000CBFE00240BE0002506E0074901EBC501F6
:1035F000085DFFF7C1FE6D1C802DF6DB641C082CF6
:10360000F1DBFFF7FDFE70BDF003002010B50446AE
:10361000FFF7DEFE7820FFF7AFFE0020FFF7ACFEDD
:103620002046FFF7A9FEFFF7EBFE10BD10B50446DC
:10363000FFF7CEFE7820FFF79FFE4020FFF79CFEAD
:103640002046FFF799FEFFF7DBFE10BD08B50849DD
:103650000968C9084FF47A72B1FBF2F14143009155
:1036600000BF00BF00994A1E00920029F9D108BD91
:103670001C01002000B593B0282109A8FCF77AFDB1
:10368000142104A8FCF776FD002000900190029020
:103690000390092009904FF480300A9000200B908D
:1036A00001200D900F9002201090C10311914FF452
:1036B000E011129109A8FEF77BF908B1FCF708FEAA
:1036C0000F20049002200590002006904FF48060A7
:1036D000079000200890022104A8FEF723F808B103
:1036E000FCF7F6FD02200090800302906846FDF78B
:1036F00081FF08B1FCF7ECFD13B000BD704700007E
:1037000010B50248FEF773FD10BD0000A4030020B1
:1037100010B502681C4B984208D0B0F1804F05D01C
:103720001A4B984202D01A4B984203D122F07002F1
:103730004B681A43144B984208D0B0F1804F05D023
:10374000124B984202D0124B984203D122F440729D
:10375000CB681A4322F080034C6943EA04020260FA
:103760008B68C3620B688362074B984201D10B6977
:10377000036301234361036903F001031BB1036980
:1037800023F00103036110BD002C01400004004040
:103790000008004030B50C46816821F47F4142EAC0
:1037A000032525432943816030BD0A46816821F005
:1037B000700142F0070319438160704730B5026A17
:1037C000056A25F0010505624368846924F07004E8
:1037D00024F003040D682C4322F002028D682A4372
:1037E0000D4DA84206D100BF22F00802CD682A4341
:1037F00022F00402084DA84207D123F4807323F479
:1038000000734D692B438D692B43436084614D6880
:103810004563026230BD0000002C014030B5026AF1
:10382000056A25F0100505624368846924F4E044C4
:1038300024F440740D6844EA052422F020028D68C7
:1038400042EA05120E4DA84207D100BF22F08002C5
:10385000CD6842EA051222F04002094DA84209D182
:1038600023F4806323F400634D6943EA85038D6983
:1038700043EA8503436084614D688563026230BD1D
:10388000002C014030B5026A056A25F48075056296
:103890004368C46924F0700424F003040D682C43C9
:1038A00022F400728D6842EA05220F4DA84207D12A
:1038B00000BF22F40062CD6842EA052222F4806251
:1038C000094DA84209D123F4805323F400534D69D4
:1038D00043EA05138D6943EA05134360C4614D68EB
:1038E000C563026230BD0000002C014030B5036AA0
:1038F000056A25F4805505624468C26922F4E042F5
:1039000022F440720D6842EA052223F400538D68C8
:1039100043EA0533064DA84204D124F480444D699E
:1039200044EA85144460C2614D680564036230BD99
:10393000002C014030B50B461446026A056A25F09A
:1039400001050562816921F0F00141EA041122F0CC
:103950000A021A438161026230BD30B50B4614463B
:10396000026A056A25F010050562816921F470413B
:1039700041EA043122F0A00242EA031281610262AC
:1039800030BD70B506460025746A20684069C0F3F2
:10399000C01594F84100212805D125B10020E0840C
:1039A000204600F0B8F820684069C0F3801594F80C
:1039B0004200222805D125B10020E085204600F0F4
:1039C00074F8606C40F0100060642046FEF717FE4B
:1039D00070BD70B505466C6A2868006800F020006C
:1039E000002842D1E08500BF00BF21680C3151E8BA
:1039F000001F21F4807021680C3141E80002002A88
:103A0000F3D100BF00BF00BF2168143151E8001F8F
:103A100021F001002168143141E80002002AF3D1AD
:103A200000BF00BF00BF2168143151E8001F21F022
:103A300040002168143141E80002002AF3D100BFA0
:103A4000202084F84200206B01280ED100BF00BF67
:103A500021680C3151E8001F21F0100021680C3161
:103A600041E80002002AF3D100BF00206063206B10
:103A7000012804D1A18D2046FEF75FFD02E020461B
:103A8000FEF774FE70BD70B505466C6A0120606378
:103A9000206B012805D1A08D41082046FEF74DFD81
:103AA00002E02046FEF763FE70BD00BF00BF026863
:103AB0000C3252E8002F22F4907102680C3242E876
:103AC0000013002BF3D100BF00BF00BF0268143207
:103AD00052E8002F22F001010268143242E800137C
:103AE000002BF3D100BF016B01290ED100BF00BF35
:103AF00002680C3252E8002F22F0100102680C32EA
:103B000042E80013002BF3D100BF202180F84210BF
:103B100000210163704700BF00BF02680C3252E809
:103B2000002F22F0C00102680C3242E80013002B83
:103B3000F3D100BF202180F84110704770B50446D2
:103B40002168096921F44051E2681143226811613A
:103B50002269A1681143626941EA02052168C968C6
:103B600041F20C62914329432268D160216849697E
:103B700021F44071A2691143226851612D4A2168E4
:103B8000914202D1FDF7CCFE01E0FDF7B9FE00EB5A
:103B9000C00101EB001162689200B1FBF2F100EB91
:103BA000C00202EB001263689B00B2FBF3F26423D5
:103BB000B2FBF3F202EBC20303EB0212A1EB8201B0
:103BC000322202EB01116422B1FBF2F101F0F001AB
:103BD00000EBC00202EB001263689B00B2FBF3F241
:103BE0006423B2FBF3F201EB021200EBC00101EB24
:103BF000001163689B00B1FBF3F100EBC00303EB22
:103C000000136668B600B3FBF6F36426B3FBF6F365
:103C100003EBC30606EB0313A1EB8301322303EB93
:103C200001116423B1FBF3F101F00F01114422688B
:103C3000916070BD0038014077B581B004461546EB
:103C40000298A062A58500206064222084F84200CA
:103C50002848E16B88622848E16BC8622748E16B1D
:103C600008630020E16B486302AE32682368191DC7
:103C70002B46E06BFCF70EFE00BF00200090206892
:103C80000068009020684068009000BF00BF206975
:103C900070B100BF00BF21680C3151E8001F41F432
:103CA000807021680C3141E80002002AF3D100BF86
:103CB00000BF00BF2168143151E8001F41F001002E
:103CC0002168143141E80002002AF3D100BF00BF8F
:103CD00000BF2168143151E8001F41F04000216805
:103CE000143141E80002002AF3D100BF002004B0E3
:103CF00070BD0000D3390008873A000883390008F6
:103D00002DE9F84304460D4617469846089E31E0D3
:103D1000701C70B3FCF7C6FFA0EB0800B04200D8DF
:103D200016B90320BDE8F8832068C06800F00400DD
:103D3000F8B1802D1ED0402D1CD020680068C0F343
:103D4000C000B0B100BF0020009020680068009063
:103D500020684068009000BF00BF2046FFF7A5FE26
:103D60000820606400BF002084F8400000BF0120EC
:103D7000D8E7FFE7206800682840A84201D1012069
:103D800000E00020B842C3D00020CBE738B52D4872
:103D900000680068C0F3401018B301202A49087079
:103DA0006FF0200027490968086026480068C0684D
:103DB00020F0200023490968C86022480068406854
:103DC000C4B2224804707F22411C1E48FEF7B8FC92
:103DD0001C480068C06840F010001A490968C860B3
:103DE00000BF184800680068C0F3001040B301200D
:103DF000174908701348FEF7A1FB00BF0020009090
:103E000010480068006800900E4800684068009004
:103E100000BF00BF0B480068C06820F010000949CF
:103E20000968C86001231A460A490648FEF7A0FC43
:103E300004480068C06840F0200002490968C86072
:103E400038BD00005C0300200001002000000020BD
:103E5000010100200C01002000BFFEE70FB4054B5C
:103E600010B503A9044A029800F033F810BC5DF8BD
:103E700014FB0000D93F0008200100200248006820
:103E8000C0F30220704700000CED00E010B50028E0
:103E900004DB0A07130E054A135406E00A07140E42
:103EA000034A00F00F031B1FD45410BD00E400E0D0
:103EB00018ED00E002E008C8121F08C1002AFAD17C
:103EC00070477047002001E001C1121F002AFBD19A
:103ED00070472DE9F84F99469246884605460027D7
:103EE00006E025280AD051464A4690476D1C7F1CA3
:103EF00028780028F5D13846BDE8F88F002315F85A
:103F0000011F18462E2915D115F8011F04232A294F
:103F10000DD06FF02F022978A1F13004092C09D8B7
:103F200000EB800002EB400008446D1CF3E758F8FA
:103F3000040B6D1C2A78002ADDD0632A07D0732A6F
:103F40000FD0104651464A4690477F1C2AE018F889
:103F5000042B8DF8002000218DF801106E46012100
:103F600003E058F8046B4FF0FF315A074FF000049C
:103F700001D409E0641C84420BDA8C42FADB325D26
:103F8000002AF7D105E0641C8C42FCDB305D002880
:103F9000F9D1274404E016F8010B51464A469047F0
:103FA000641EF8D26D1CA3E72DE9F0410446DDE95B
:103FB0000667101BA7EB010C00FB0CF0A3EB010C38
:103FC000A6EB04080CFB1805002D02DA6842BDE8D8
:103FD000F0812846FBE70000F8B504460E46E0B243
:103FE00000900023012269463548FEF7C1FB0A2CE8
:103FF0000BD134480068012803D00F2031490860F4
:1040000015E000202F49086011E02F480078401E7D
:1040100000F007002D4A02EB00122A480068401EFB
:104020001454E2B2274801780820FFF775FA2548B2
:1040300000680F2805D223480068401C2149086009
:1040400022E0FFF78FF820480068401C1E490860F6
:1040500000201C49086010E000211B480078401E29
:1040600000F00700194A02EB0010164A126881544A
:1040700014480068401C13490860124800680F2863
:10408000EAD901200F4908600E480068012811D1C3
:1040900000250DE00C490978294401F007010B4B7C
:1040A00003EB0112691CC8B20121FFF779FA6D1CFC
:1040B000082DEFDB3220FCF73BFC2046F8BD00006A
:1040C0005C030020040100200801002040010020C2
:1040D00086B062B6FCF79CF8FDF78CF9FFF7CAFAD8
:1040E000FEF7F2FEFEF7D6FEFEF784FEFFF70AF8B3
:1040F000FEF778FFFEF7B4FFFEF756FFFFF794F9DF
:10410000FEF74EFE00BF6048C06940F080505E4937
:10411000C8610846C06900F08050049000BF00BF2D
:104120005A480078C0EB0010594A811859A0FFF78F
:1041300095FE2025012700264FF006084FF00009C4
:104140004FF0000A4FF0000B00BF00BF00BF00BFE0
:1041500000BF00BF00BF00BF00BF00BF92E04FF430
:1041600080615048FCF706F8012040210922CDE982
:10417000011200230092CDE9031019460820FFF731
:10418000C3F8002416E00121082000EB041080236E
:10419000092202EB0412CDE901230093CDE90301CA
:1041A000092000EB0413082000EB04110922FFF79B
:1041B000ABF8641C052CE6DBFCF774FD0599401A8E
:1041C0004FF47A71B1FBF0F0FCF76CFD0590FFF74E
:1041D000FBF935480078742802D1AAF1010A25E0DC
:1041E000314800786C2802D1A9F101091EE02E485F
:1041F00000786D281AD02C480078722802D109F175
:10420000010913E028480078622802D10AF1010A66
:104210000CE025480078612802D10BF1010B05E084
:1042200021480078632801D1ABF1010B00201E4921
:104230000870602D01DC202D00DA7F423D44142EF1
:1042400001DC002E01DAC8F1000846441748007866
:10425000012807D180211448FBF78CFF0020134967
:1042600008700FE01248007801280BD18022114914
:104270000D48FBF766FF80210E48FBF77BFF00200F
:104280000B4908706BE7000000100240020100209B
:1042900032430008526573657420666F722025737F
:1042A000200A0000F0030020800000200001002010
:1042B00001010020000000202DE9F04F85B00446E8
:1042C0000D4690469946DDF838A0DDE91067CDE946
:1042D00000675246494640460F9BFFF765FE049033
:1042E000CDE900675246294620460F9BFFF75CFE4A
:1042F00003902B46224649464046CDE90067FFF72A
:1043000053FE0290CDE900455246494640460F9B78
:10431000FFF74AFE8346DDE90210084400EB0B017B
:104320000498814203D1012005B0BDE8F08F002040
:10433000FAE752455345545F504F520000000000C9
:104340000052455345545F50494E000000000000A4
:1043500052455345545F49574447000000000052FE
:10436000455345545F5757444700000000005245ED
:104370005345545F534F46540000000000524553CC
:1043800045545F554E4B4E4F574E000008020304F4
:1043900005060708090A0B0C0D0E0F10100102008C
:1043A00000000000000000010203040607080900E5
:1043B00000000001020304000000000000000000F3
:1043C00000000000000000000000F80000000000F5
:1043D0000000333000000000100C06100C06000036
:1043E0000000000000000040C07840C07840000499
:1043F0003F04043F040400007088FC083000000003
:104400001820FF211E0000F008F000E01800000056
:10441000211C031E211E0000F00888700000001EF1
:104420002123241927211010160E0000000000007F
:1044300000000000000000000000E018040200007E
:104440000000071820400000020418E000000000EF
:1044500040201807000000404080F08040400002EB
:1044600002010F01020200000000F0000000000144
:1044700001011F0101010000000000000000008098
:10448000B07000000000000000000000000000000C
:104490000101010101010100000000000000000015
:1044A00030300000000000000000008060180400B0
:1044B0006018060100000000E010080810E000008D
:1044C0000F102020100F00001010F8000000000056
:1044D00020203F202000000070080808887000009D
:1044E000302824222130000030088888483000001D
:1044F00018202020110E000000C02010F80000003D
:10450000070424243F240000F808888808080000D5
:1045100019212020110E0000E010888818000000EA
:104520000F112020110E0000380808C838080000BC
:1045300000003F000000000070880808887000003C
:104540001C222121221C0000E010080810E00000BD
:1045500000312222110F00000000C0C00000000046
:10456000000030300000000000008000000000006B
:104570000080600000000000008040201008000063
:104580000102040810200040404040404040000428
:10459000040404040404000008102040800000000B
:1045A00020100804020100007048080808F000000C
:1045B00000003036010000C030C828E810E00007D5
:1045C00018272423140B000000C038E0000000204E
:1045D0003C23020227382008F888888870000020D1
:1045E0003F202020110E00C03008080808380007BE
:1045F0001820202010080008F808080810E0002003
:104600003F202020100F0008F88888E808100020BC
:104610003F20202320180008F88888E80810002090
:104620003F200003000000C03008080838000007E1
:10463000182020221E020008F808000008F80820B0
:104640003F210101213F20000808F8080800000070
:1046500020203F2020000000000808F8080800C0C3
:104660008080807F00000008F888C028180800209B
:104670003F20012638200008F80800000000002034
:104680003F20202020300008F8F800F8F80800202B
:104690003F003F003F200008F830C00008F8082025
:1046A0003F200007183F00E01008080810E0000F46
:1046B00010202020100F0008F808080808F000203B
:1046C0003F210101010000E01008080810E0000F80
:1046D00018242438504F0008F888888888700020F3
:1046E0003F2000030C3020007088080808380000C4
:1046F00038202121221C00180808F808081800009A
:1047000000203F2000000008F808000008F808001A
:104710001F202020201F000878880000C8380800CB
:104720000007380E010000F80800F80008F8000340
:104730003C0700073C0300081868808068180820C0
:10474000302C03032C30200838C800C8380800007B
:1047500000203F2000000010080808C8380800208A
:1047600038262120201800000000FE02020200006E
:1047700000007F40404000000C30C00000000000FE
:104780000000010638C00000020202FE0000000026
:104790004040407F000000000004020202040000CC
:1047A0000000000000000000000000000000008089
:1047B0008080808080808000020204000000000071
:1047C00000000000000000000080808080000000E9
:1047D00019242222223F2008F800808000000000D7
:1047E0003F112020110E000000008080800000009A
:1047F0000E112020201100000000808088F80000A9
:104800000E112020103F20000080808080000000DA
:104810001F222222221300008080F088888818003E
:1048200020203F2020000000008080808080000049
:104830006B94949493600008F800808080000020BE
:104840003F210000203F20008098980000000000D9
:1048500020203F20200000000000809898000000E9
:10486000C08080807F000008F800008080800020E9
:104870003F24022D302000000808F800000000004E
:1048800020203F20200000808080808080800020C9
:104890003F20003F20003F8080008080800000207B
:1048A0003F210000203F2000008080808000000029
:1048B0001F202020201F00808000808000000080BA
:1048C000FFA12020110E00000000808080800000E9
:1048D0000E112020A0FF808080800080808000203A
:1048E000203F2120000100000080808080800000A7
:1048F00033242424241900008080E08080000000FC
:1049000000001F2020000080800000008080000048
:104910001F202020103F20808080000080808000A9
:10492000010E300806010080800080008080800F2A
:10493000300C030C300F000080800080808000006D
:1049400020312E0E31200080808000008080808009
:10495000818E7018060100008080808080800000B9
:1049600021302C2221300000000000807C02020057
:10497000000000003F404000000000FF0000000079
:10498000000000FF0000000002027C800000000028
:1049900040403F0000000000060101020204040044
:1049A0000000000000000000000000000000000007
:1049B00000404040400040006666000000000000EB
:1049C000247E24247E240000107CA070287C080013
:1049D00062640810264600003048483054483400CD
:1049E0002020400000000000001020404020100067
:1049F00000402010102040000028107C10280000EB
:104A0000000010107C10100000000000004020008A
:104A10000000007E00000000000000000060600058
:104A2000000408102040803C7E666666667E3C1866
:104A300038181818183C3C3C7E660C38607E7E7C2A
:104A40007E063E3E067E7C6666667E7E0606067EA8
:104A50007E607C06067E7C3C7E607C66667E3C7E5C
:104A60007E060C181818183C66663C6666663C3C68
:104A70007E667E3E067E3C00000060600060600056
:104A80000000606000402000000010204020100066
:104A900000007E007E00000000004020102040004A
:104AA00030480810200020003C429DA5A5994218DE
:104AB0003C66667E6666667C66667C6666667C3C90
:104AC0007E626060627E3C7C6666666666667C7E50
:104AD0007E607C7C607E7E7E7E607C7C6060603CF4
:104AE0007E606E66667E3C6666667E7E6666663C58
:104AF0003C181818183C3C1E1E0C0C6C6C7C38665C
:104B00006C7870786C66666060606060607E7E6302
:104B1000777F6B6B63636366767E7E6E6666663CEC
:104B20007E666666667E3C7C7E667E7C6060603CFF
:104B30007E6666666E7E3E7C7E667E7C6666663CD3
:104B40007E603C0E067E3C7E7E181818181818668B
:104B500066666666667E3C66666666663C181863D0
:104B6000636B6B7F77636366663C18183C666666AA
:104B700066663C181818187E7E0C1830607E7E0021
:104B80000078404040407800804020100804020037
:104B90000078080808087800102844000000000089
:104BA000000000000000FF002040000000000000A6
:104BB00000380C3C6C3E006060786C6C6C780000D7
:104BC000003C6660663C000C0C3C6C6C6C3E00006B
:104BD000003C667E603C001C36307C30303000008B
:104BE000003E6C6C3C0C786060786C6C6C6C0018EF
:104BF00000381818183C000C000C0C0C6C6C386059
:104C000060666C786C66003818181818183C00003C
:104C100000667F6B6B63000000786C6C6C6C00004E
:104C2000003C6666663C000000786C6C7860600052
:104C3000003C6C6C3C0C0C0000786C606060000008
:104C4000003C603C067C0030307C3030361C00007C
:104C5000006C6C6C6C3E0000006666663C180000E0
:104C600000636B6B7F36000000663C183C660000FA
:104C7000006666663E063C00007E0C18307E000032
:104C8000001C2040201C00000000F8000000000074
:104C9000007008040870000000004A940000000042
:104CA000C04C00080000002024010000B43E0008B1
:104CB000E44D000824010020CC0B0000C43E000895
:104CC00031000000000000000000000000000000B3
:104CD00000000000000000000000000000000000D4
:104CE00000000000000000000000000000000000C4
:104CF00000000000000000000000000000000000B4
:104D000000000000000000000000000000000000A3
:104D10000000000000000000000000000000000093
:104D20000000000000000000000000000000000083
:104D30000000000000000000000000000000000073
:104D40003100000000000000000000000000000032
:104D50000000000000000000000000000000000053
:104D60000000000000000000000000000000000043
:104D70000000000000000000000000000000000033
:104D80000000000000000000000000000000000023
:104D90000000000000000000000000000000000013
:104DA0000000000000000000000000000000000003
:104DB00000000000000000000000000000000000F3
:104DC0000000050001000000050000005B0000007D
:104DD00000000000100000000100000000127A0036
:044DE00000000000CF
:04000005080000ED02
:00000001FF
