:020000040800F2
:10000000F010002001010008953B00086332000851
:10001000913B0008B90A00084D500008000000009C
:1000200000000000000000000000000013010008B4
:100030006F0B0008000000001701000819010008FC
:100040001B0100081B0100081B0100081B01000820
:100050001B0100081B010008710B00081B010008B0
:100060001B0100081B0100081B010008310B0008E0
:100070001B0100081B0100081B0100081B010008F0
:10008000410B00081B0100081B0100081B010008B0
:100090001B0100081B0100081B0100081B010008D0
:1000A0001B0100081B0100081B0100081B010008C0
:1000B0001B010008F54800081B0100081B0100088F
:1000C0001B0100081B0100081B0100081B010008A0
:1000D0001B0100081B010008814F00081B010008DC
:1000E0001B0100081B0100081B010008DFF80CD0F1
:1000F00000F0F6FB00480047A9590008F010002066
:100100000648804706480047FEE7FEE7FEE7FEE7B1
:10011000FEE7FEE7FEE7FEE7FEE7FEE7F148000840
:10012000ED000008202A04DB203A00FA02F100204A
:1001300070479140C2F1200320FA03F31943904025
:100140007047202A04DB203A21FA02F00021704790
:1001500021FA02F3D040C2F120029140084319462F
:10016000704740EA01039B0703D009E008C9121F4A
:1001700008C0042AFAD203E011F8013B00F8013B61
:10018000521EF9D27047D2B201E000F8012B491E8D
:10019000FBD270470022F6E710B513460A46044624
:1001A0001946FFF7F0FF204610BD421C10F8011B56
:1001B0000029FBD1801A7047F0B480EA0102D40F05
:1001C0004200B2EB410F02D20246084611464A00F5
:1001D00042D0C30DDDB2C1F3C752AD1A202D35DABE
:1001E000C1F3160141F4000204B15242C5F12006E8
:1001F00002FA06F12A411044B3EBD05F23D0C4B118
:10020000012DA0EBC35009DCF0BC4FF0004202EA24
:10021000C352DBB200F5000000F063BA400000F109
:10022000807000EBC350A0F1807040EAD1704900AB
:1002300009E0490841EAC071A0EBC35000F5000095
:10024000400800EBC350F0BC00F042BA614201220A
:1002500002EB4101001BF6E7F0BC704781F0004162
:10026000AAE780F00040A7E780EA010210B502F09B
:100270000043400022D04A001FD0010E01EB126162
:10028000C0F35600C2F3560240F4000042F40002EC
:10029000A0FB022000047F39140400D0401C50EA67
:1002A000124001D44000491EC2B20C0604EBD0102B
:1002B000401C4008802A02D003E0002010BD20F03E
:1002C0000100002900DA0020184310BD2DE9FE4F7F
:1002D000804681EA0300C00F0C46009021F00041E7
:1002E00023F00045B8EB0200A94105D24046214663
:1002F00090461C460B46024623F00040104347D070
:10030000270DC7F30A00C3F30A510290401A019067
:1003100040286BDAC3F3130040F4801B0098924628
:1003200020B10023D2EB030A63EB0B0B0198594673
:10033000C0F140025046FFF7F5FE06460D46504616
:100340005946019A00F0B2F910EB0800614100240F
:1003500087EA115284EAE7731A4340D0009A62B3E5
:10036000019A012A4FEA075215DC001B61EB0201DA
:100370004FF0004202EA0752CDE90042001C41F56D
:10038000801132462B4600F0E9F903B0BDE8F08F4A
:1003900040462146F9E7001B61EB0201001C41F5D4
:1003A000801300185B412018A2F5001747EB0301EA
:1003B00040EAD570B6196D4111E06D084FEA360676
:1003C00045EAC0754FEA0752001B61EB0201001CB1
:1003D00041F5801149084FEA300000195141324679
:1003E0002B4603B0BDE8F04F00F0A9B900980122F8
:1003F00040000023D0EB020263EBE073009821463B
:100400004FEAE074B8EB000061EB0401E9E783F028
:1004100000435BE781F0004158E72DE9FE4F81EA98
:10042000030404F0004421F0004100944FF0000B5D
:1004300023F0004350EA01045ED052EA03045BD08B
:10044000C3F30A54C1F30A552C44A4F2F3340194C3
:10045000A0FB0254C1F3130141F48011C3F3130351
:1004600043F4801301FB024400FB034E840A970A05
:1004700044EA815447EA8357A4FB076802958D0A32
:1004800005FB07854FEA932C04FB0C542705029DBE
:100490004FEA065847EA1637B5EB08056EEB070C2E
:1004A000870E920E47EA811742EA8312A7FB0201E8
:1004B000B6EB0B0164EB00042B0D43EA0C335E1822
:1004C00044EB1C50DA465146E7FB0201C5F3130426
:1004D0004FEA0B3343EA14534FEA0432019C43EAD8
:1004E0000603A4F10C040294009CCDE900B400F0D2
:1004F00035F903B0BDE8F08F00200146F9E72DE99A
:10050000F04D81EA030404F0004B21F0004514464D
:100510004FF0000A23F0004150EA050220D054EACF
:1005200001021DD0C5F30A570246C5F31303C1F3F8
:100530001300C1F30A5640F4801543F48013A7EB6F
:100540000608101BD64608F2FD3873EB050002D3EF
:1005500008F1010801E092185B41B8F1000F03DADD
:1005600000200146BDE8F08D00204FF480110646C2
:1005700084460EE0171B73EB050705D3121B63EBD4
:10058000050306434CEA010C49084FEA3000921873
:100590005B4150EA0107EDD152EA030012D082EA32
:1005A000040083EA0501084305D0101BAB4106D2C5
:1005B0000122002306E000224FF0004302E06FF02A
:1005C000010253101AEB06004CEB085110EB0A0025
:1005D00041EB0B01BDE8F04D00F0B1B8C10F80EA6E
:1005E000E0700844CA079623002100F07AB80EB5DF
:1005F000C10F80EAE0700844CA07002140F233438B
:100600008DE80E000A460B4600F0A8F803B000BDC6
:1006100070B5C1F30A5201F000450024C1F3130183
:1006200040F2FF3341F480119A4201DA002070BD9C
:1006300040F233439A42A2F2334203DC5242FFF7C4
:1006400080FD00E090402C43F1D0404270BD00F0AE
:10065000004230F000400AD0C10D01F56071C0F3D6
:10066000160042EA0151C2084007114370470020BA
:100670000146704701F0004330B421F0004150EAD8
:10068000010206D00A0DA2F56072C1F31301002A1F
:1006900002DC30BC00207047440F44EAC104C100B2
:1006A000E01830BC00EBC25000F012B8202A06DB84
:1006B000CB17203A41FA02F043EAE07306E041FA30
:1006C00002F3D040C2F1200291400843194670471E
:1006D0000029A8BF7047401C490008BF20F0010056
:1006E000704710B4B0FA80FC00FA0CF050EA010434
:1006F00004BF10BC704749B1CCF1200421FA04F4C6
:1007000011FA0CF118BF012121430843A3EB0C019E
:10071000CB1D4FEA00614FEA102042BF002010BC01
:10072000704700EBC35010440029A4BF10BC7047B1
:10073000401C490008BF20F0010010BC704710B5F4
:10074000141E73F1000408DA401C41F100019218F4
:100750005B411A4301D120F0010010BD2DE9F04D9D
:1007600092469B4611B1B1FA81F202E0B0FA80F2F2
:1007700020329046FFF7D6FC04460F4640EA0A00B6
:1007800041EA0B0153465A46084313D0114653EA37
:10079000010019D0C8F140025046FFF7D2FC0546CF
:1007A0000E46504659464246FFF7BCFC084305D06A
:1007B000012004E020463946BDE8F08D00200543C5
:1007C00046EAE0762C4337430A986305E40AA0EB37
:1007D00008000022FD0A44EA47540A3002D50020EE
:1007E0000146E9E7010510196941DDE908450019ED
:1007F0006941BDE8F04DA2E72DE9F041054621F041
:1008000000400C46284309D0C4F30A5040F233415B
:10081000884205DD28462146BDE8F0812846FBE7F1
:1008200040F2FE31884210DC0CDB4FEA043040EA33
:10083000155050EA053105D0104804F0004101433D
:100840000020E9E700200146E6E7A0F233404642F7
:10085000C6F1400228462146FFF764FC0746884659
:10086000284621463246FFF76CFC43463A46FFF7DE
:1008700066FF3246BDE8F041FFF754BC0000F03F90
:1008800030B5041E71F1000404DB4FF00044404217
:1008900064EB0101141E73F1000405DB1C464FF0EC
:1008A0000043524263EB04038B4208BF824230BDD7
:1008B00030B5041E71F1000404DB4FF000444042E7
:1008C00064EB0101141E73F1000405DB1C464FF0BC
:1008D0000043524263EB0403994208BF904230BD8B
:1008E000064C074D06E0E06840F0010394E807007D
:1008F00098471034AC42F6D3FFF7FCFB9068000831
:10090000B068000870B521F0004303430CD0C1F378
:100910000A550024D5EB040564EB0403D617AD1A81
:10092000B34102DB0020014670BD201841EB0251AB
:1009300070BD0EB540F2334102910021CDE90011A6
:100940000A460B46FFF70AFF03B000BD70B5044628
:1009500000252068806800F0010018B320688068D6
:1009600020F001002168886000F0B6FE054613E023
:1009700000F0B2FE401B02280ED92068806800F00B
:10098000010048B1A06A40F01000A062E06A40F0A7
:100990000100E062012070BD2068806800F0010065
:1009A0000028E5D10020F6E770B505466C6AA06A1C
:1009B00000F05000E0B9A06A40F40070A062206826
:1009C000806800F46020B0F5602F0DD1207B58B90D
:1009D000A06A20F48070A062A06A00F4805018B968
:1009E000A06A40F00100A062204600F081F903E017
:1009F000206A016B2846884770BD70B505466C6A51
:100A0000A06A40F04000A062E06A40F00400E062AA
:100A1000204600F06FF970BD70B50446656A28463F
:100A200000F067F970BD000038B5044600250020CD
:100A300000902068806800F0010078BB2068806822
:100A400040F0010021688860194800681949B0FB2E
:100A5000F1F0009002E00098401E009000980028FD
:100A6000F9D100F039FE054619E000F035FE401BD3
:100A7000022814D92068806800F0010078B9A06AC3
:100A800040F01000A062E06A40F00100E06200BFA8
:100A9000002084F8240000BF012038BD05E0206854
:100AA000806800F001000028DFD00020F5E700009A
:100AB0001C01002040420F0000BFFEE71948406AB9
:100AC00000F0005018B102201749087026E01548C0
:100AD000406A00F0804018B10320134908701DE0FF
:100AE0001048406A00F0806018B101200E4908707B
:100AF00014E00C48406A00F0006018B100200A4978
:100B000008700BE00748406A00F0805018B10420DC
:100B10000549087002E005200349087001200349D7
:100B2000086070470010024002010020E0044242C9
:100B300010B5024800F0C6FA10BD0000F001002018
:100B4000704730B590F840500124AC40C56B6C60E4
:100B5000046863604468102C04D10468A2600468CF
:100B6000E16003E00468A1600468E26030BD7047A2
:100B700010B5012000F00CFC10BD000002A004F034
:100B800067FA72B600BFFEE74572726F720000002E
:100B900038B5024600230020009000BF92F82400E0
:100BA000012801D1022038BD012082F8240000BFB5
:100BB0004868072812D21068406B0C79641E04EB59
:100BC00084051F24AC40A0430D796D1E05EB8505FF
:100BD0000C68AC4020431468606327E048680D2827
:100BE00012D21068006B0C79E41F04EB84051F24FB
:100BF000AC40A0430D79ED1F05EB85050C68AC40BA
:100C000020431468206311E01068C06A0C790D3C21
:100C100004EB84051F24AC40A0430D790D3D05EB8A
:100C200085050C68AC4020431468E06208680A2817
:100C300012D31068C0680C780A3C04EB4405072402
:100C4000AC40A0430D780A3D05EB45058C68AC40EF
:100C500020431468E0600FE0106800690C7804EB32
:100C600044050724AC40A0430D7805EB45058C688E
:100C7000AC402043146820610868102802D008683E
:100C8000112827D1174C1068A0421ED11068806827
:100C900000F40000F0B91068806840F400001468A7
:100CA000A0600868102815D10F4800680F4CB0FBF1
:100CB000F4F000EB80004000009002E00098401E3D
:100CC000009000980028F9D104E0906A40F02000DC
:100CD0009062012300BF002082F8240000BF184664
:100CE00061E70000002401401C01002040420F0089
:100CF00070477047704700002DE9F0410446002717
:100D000000250026A84614B90120BDE8F081A0689E
:100D100010B1207D00B100BFA06A30B90020E062B0
:100D200084F82400204600F089F82046FFF70EFEE4
:100D30000746A06A00F01000002873D1002F71D17F
:100D4000A06A20F4885040F00200A062E169606867
:100D50000843217B40EA41000643A068B0F5807F4C
:100D600002D0A068012802D14FF4807000E000207A
:100D70000543207D012811D1207B38B9A069401E90
:100D80004FF4006141EA4030054307E0A06A40F0BB
:100D90002000A062E06A40F00100E0622068406844
:100DA00020F4694028432168486020688068214910
:100DB0000840304321688860A068B0F5807F02D089
:100DC000A068012802D14FF4807000E00020B0F547
:100DD000807F03D1208A401E4FEA00582068C06AF5
:100DE00020F4700040EA08002168C862206880682A
:100DF00011490840B04208D10020E062A06A20F00A
:100E0000020040F00100A06211E0A06A20F00200A0
:100E100040F01000A062E06A40F00100E0620127AB
:100E200005E0FFE7A06A40F01000A0620127384605
:100E30006BE70000FDF7E1FFFE0E1FFF10B586B067
:100E400004460020029003900490059021492068F8
:100E500088423DD100BF2048806940F400701E499F
:100E600088610846806900F40070019000BF00BFEF
:100E700000BF0846806940F0040088610846806928
:100E800000F00400019000BF00BFF020029003209A
:100E9000039002A9114800F089FA1148114908602D
:100EA0000020486000210F4881608021C160490016
:100EB00001618900416100218161C16100F0D0F9C7
:100EC00008B1FFF75BFE00BF06482062446200BF26
:100ED00006B010BD0024014000100240000801408F
:100EE00008000240F00100202DE9F04104460D46C3
:100EF0001646002757492068884203D05649206883
:100F0000884205D15348001D006800F4702000E0BD
:100F1000002000287ED100BF94F82400012802D1CF
:100F20000220BDE8F081012084F8240000BF2046A3
:100F3000FFF77AFD0746002F6DD1A06A40F60161E8
:100F4000884340F48070A06243492068884209D1F8
:100F50004048001D006800F4702008B9012002E03C
:100F6000002000E0012078B1A06A20F48010A06287
:100F70002068406800F4806000B3A06A20F400504C
:100F800040F48050A06219E0A06A40F48010A06292
:100F900030492068884203D02F492068884205D113
:100FA0002C48001D006800F4806000E0002028B19B
:100FB000A06A20F4005040F48050A062A06A00F4BF
:100FC000805020B1E06A20F00600E06201E00020DD
:100FD000E06200BF002084F8240000BF1F48216A9F
:100FE00088621F48216AC8621E48216A08636FF040
:100FF0000200216808602068806840F480702168E1
:101000008860226802F14C0133462A46206A00F0CB
:101010005BF901E01AE014E02068806800F46020C9
:10102000B0F5602F06D12068806840F4A0002168E8
:1010300088600CE02068806840F480102168886037
:1010400005E000BF002084F8240000E001273846B6
:1010500067E700000024014000280140A9090008BA
:10106000190A0008FB0900080146002291F8210036
:10107000022808D00420886300BF002081F82000E7
:1010800000BF012070470868006820F00E000B6860
:1010900018600868006820F001000B68186091F87B
:1010A000403001209840CB6B5860012081F821002E
:1010B00000BF002081F8200000BF1046E2E7014693
:1010C000886B704770B50446E06B05682068066859
:1010D00094F84010042088402840002846D006F0AC
:1010E0000400002842D02068006800F0200028B9E1
:1010F0002068006820F004002168086057492068D3
:10110000884201D1042027E05449143120688842E4
:1011100001D1402020E0514928312068884201D186
:10112000001519E04D493C312068884202D14FF446
:10113000804011E0494950312068884202D14FF483
:10114000802009E0454964312068884202D14FF48B
:10115000800001E04FF08060404908394860E06A53
:1011600000287AD02046E16A884776E094F840105B
:10117000022088402840A0B306F0020088B320680F
:10118000006800F0200040B92068006820F00A00E4
:1011900021680860012084F82100304920688842D5
:1011A00001D1022028E02D4914312068884201D164
:1011B000202021E0294928312068884201D14015AA
:1011C0001AE026493C312068884202D14FF4005091
:1011D00012E0224950312068884203D14FF4003098
:1011E0000AE017E01D4964312068884202D14FF4BB
:1011F000001001E04FF0007018490839486000BF46
:10120000002084F8200000BFA06A30B32046A16A05
:10121000884722E094F84010082088402840E0B138
:1012200006F00800C8B12068006820F00E002168B0
:10123000086094F8401001208840E16B486001206C
:10124000A06384F8210000BF002084F8200000BFC4
:10125000206B10B12046216B884770BD080002400A
:101260000146002209B901207047164B0868C01AD0
:101270001423B0FBF3F08000086412480838C863F8
:10128000022081F821000868026843F6F07082436A
:10129000D1E901031843CB6818430B6918434B6924
:1012A00018438B691843CB691843024308680260EE
:1012B00000208863012081F82100002081F82000AF
:1012C00000BFD1E7080002402DE9F04104460D4679
:1012D00016461F464FF0000800BF94F82000012872
:1012E00002D10220BDE8F081012084F8200000BF77
:1012F00094F8210001282CD1022084F8210000203C
:10130000A0632068006820F00100216808603B4667
:10131000324629462046FFF714FCE06A30B12068C7
:10132000006840F00E00216808600BE0206800684B
:1013300020F00400216808602068006840F00A007E
:10134000216808602068006840F00100216808609A
:1013500006E000BF002084F8200000BF4FF0020824
:101360004046BFE770B5044600F0B6F9064625468C
:10137000681C10B104480078054400BF00F0ACF9C7
:10138000801BA842FAD370BD1801002070470000EE
:1013900010B5044604480068204020B102480460AB
:1013A0002046FFF7F3FF10BD140401402DE9F84774
:1013B0000346002294466EE14FF0010808FA02F459
:1013C000D1F8008008EA0400A0427DD1DFF8DCA259
:1013D000D1F80480A8EB0A09D0453AD014DCB8F162
:1013E000030F50D009DCB8F1000F31D0B8F1010F74
:1013F0001CD0B8F1020F49D120E0B8F1110F18D07C
:10140000B8F1120F42D11EE0B9F5881F25D006DCD5
:10141000B9F5803F20D0B9F5801F37D11AE0B9F572
:10142000001F18D0B9F5041F30D117E0D1F80CC057
:101430002DE0D1F80C8008F1040C28E0D1F80C80E4
:1014400008F1080C23E0D1F80C8008F10C0C1EE028
:1014500000BF00BF00BF00BF00BF00BFD1F80880C1
:10146000B8F1000F02D14FF0040C0BE0D1F8088066
:10147000B8F1010F03D14FF0080C1C6102E04FF0EE
:10148000080C5C6103E04FF0000C00E000BF00BFFF
:10149000FF2801D8984601E003F104084646FF28DA
:1014A00002D84FEA820803E0A2F108084FEA880850
:1014B0004746D6F800804FF00F0909FA07F928EAE5
:1014C00009080CFA07F900E088E048EA0908C6F8BC
:1014D0000080D1F8048008F08058B8F1805F7DD199
:1014E00000BFDFF8CC81D8F8188048F00108DFF899
:1014F000C091C9F81880C846D8F8188008F00108CB
:10150000CDF8008000BF00BF4FEAB9384FEA92091A
:1015100058F829504FEA82784FEA18794FF00F08AF
:1015200008FA09F825EA0805DFF88881434502D161
:101530004FF0000816E0DFF88081434502D14FF0FC
:1015400001080FE0DFF87481434502D14FF0020833
:1015500008E0DFF86C81434502D14FF0030801E059
:101560004FF004084FEA82794FEA197908FA09F82E
:1015700048EA0505DFF84C814FEA920948F82950FE
:10158000D1F8048008F48018B8F5801F0AD1DFF87C
:101590003881D8F8008048EA0008DFF82C91C9F8B3
:1015A000008009E0DFF82081D8F8008028EA0008F0
:1015B000DFF81491C9F80080D1F8048008F400180D
:1015C000B8F5001F10D1DFF8008108F10408D8F841
:1015D000008048EA0008DFF8F09000E05AE009F1E6
:1015E0000409C9F800800DE0DFF8DC8008F1040888
:1015F000D8F8008028EA0008DFF8CC9009F1040947
:10160000C9F80080D1F8048008F40038B8F5003F2C
:101610000ED1DFF8B480A8F10408D8F8008048EAB9
:101620000008DFF8A490A9F10409C9F800800DE0D2
:10163000DFF89480A8F10408D8F8008028EA0008B0
:10164000DFF88490A9F10409C9F80080D1F804807A
:1016500008F48038B8F5803F0ED1DFF86C80A8F12F
:101660000808D8F8008048EA0008DFF85C90A9F183
:101670000809C9F800800DE0DFF84C80A8F10808DF
:10168000D8F8008028EA0008DFF83C90A9F10809A2
:10169000C9F80080521CD1F8008028FA02F8B8F18D
:1016A000000F7FF489AEBDE8F8870000000011103C
:1016B0000010024000080140000C014000100140F1
:1016C0000014014008000140080401400AB1016112
:1016D00001E00B0403617047014800687047000097
:1016E0001001002070B504460CB9012070BD94F8BB
:1016F0003D0028B9002084F83C00204600F04CFB57
:10170000242084F83D002068006820F00100216852
:1017100008602068006840F4004021680860206884
:10172000006820F400402168086000F003FE0546D0
:101730005C496068884206D85B48854201D2012036
:1017400007E0002005E05948854201D2012000E071
:101750000020012800D1C9E75548B5FBF0F6206804
:10176000406820F03F003043216848604D49606880
:10177000884201D8701C07E04FF4967070434FF414
:101780007A71B0FBF1F0401C2168096A21F03F0139
:1017900008432168086243496068884214D8681E7B
:1017A00061684900B0FBF1F0401CC0F30B00042855
:1017B00001D204203DE0681E61684900B0FBF1F0F1
:1017C000401CC0F30B0034E0A06838B9681E6168A3
:1017D00001EB4101B0FBF1F0401C0AE0681E6168BA
:1017E00001EBC10202EB0111B0FBF1F0401C40F42F
:1017F0008040C0F30B0008B901201AE0A06848B986
:10180000681E616801EB4101B0FBF1F0401CC0F3C0
:101810000B000CE0681E616801EBC10202EB0111D4
:10182000B0FBF1F0401CC0F30B0040F4804040F4EA
:1018300000402168C9694CF6FF7291430843216852
:10184000C861D4E9070108432168096821F0C00193
:10185000084321680860D4E90310084321688968B7
:1018600048F2FF329143084321688860D4E90501BA
:1018700008432168C96821F0FF0108432168C86056
:101880002068006840F001002168086000202064A2
:10189000202084F83D000020206384F83E0000BF33
:1018A00024E70000A086010080841E0000093D009E
:1018B00040420F002DE9F8430446894616461F466C
:1018C000DDF82080FFF708FF054694F83D0020284A
:1018D0007ED11923012251492046009501F025FEB1
:1018E00010B10220BDE8F88300BF94F83C00012845
:1018F00001D10220F6E7012084F83C0000BF2068F7
:10190000006800F0010028B92068006840F001007C
:10191000216808602068006820F400602168086081
:10192000212084F83D00102084F83E00002020642F
:1019300066626785608D20853948E0622B464246A5
:101940004946204601F0AEFC08B10120CAE700BFBD
:101950000020009020684069009020688069009015
:1019600000BF00BF44E02A464146204601F0FEFE8B
:1019700050B1206C042805D12068006840F4007044
:10198000216808600120ADE7606A0078216808617D
:10199000606A401C6062608D401E6085208D401E24
:1019A000208520684069C0F3800070B1208D60B14F
:1019B000606A007821680861606A401C6062608D1E
:1019C000401E6085208D401E20852A46414600E04D
:1019D00022E0204601F076FD50B1206C042805D1AC
:1019E0002068006840F4007021680860012079E7F1
:1019F000208D0028B7D12068006840F4007021686D
:101A00000860202084F83D00002084F83E0000BFDC
:101A100084F83C0000BF65E7022063E70200100085
:101A20000000FFFF2DE9FE4F04460F469046994601
:101A3000DDE90CAB0E9E00200290FFF74DFE05463F
:101A400094F83D00202872D119230122CE49204666
:101A5000009501F06AFD10B10220BDE8FE8F00BFC5
:101A600094F83C00012801D10220F6E7012084F817
:101A70003C0000BF2068006800F0010028B9206821
:101A8000006840F00100216808602068006820F4C8
:101A9000006021680860222084F83D00402084F81E
:101AA0003E0000202064C4F824A0A4F82AB0608D71
:101AB0002085B648E0624B46424639462046CDE98D
:101AC000006501F04FFC08B10120C6E7208D88B900
:101AD00000BF002001902068406901902068806963
:101AE000019000BF00BF2068006840F400702168CA
:101AF00008604BE0208D01281AD12068006820F48E
:101B000080602168086072B600BF002001902068E4
:101B10004069019020688069019000BF00BF206883
:101B2000006840F400702168086062B62EE029E188
:101B3000208D022819D12068006840F400602168D7
:101B4000086072B600BF00200190206840690190D3
:101B500020688069019000BF00BF2068006820F401
:101B600080602168086062B610E02068006840F478
:101B700080602168086000BF0020019020684069F3
:101B8000019020688069019000BF00BFEBE0208DCC
:101B900003287DD8208D012815D12A4631462046BC
:101BA00001F09FFD08B1012057E720680069616AD4
:101BB0000870606A401C6062208D401E2085608D28
:101BC000401E6085CFE0208D02282CD133460022B4
:101BD0006F492046009501F0A8FC08B101203CE7C0
:101BE00072B62068006840F40070216808602068C0
:101BF0000069616A0870606A401C6062208D401E46
:101C00002085608D401E608562B620680069616A2B
:101C10000870606A401C6062208D401E2085608DC7
:101C2000401E60859FE033460022594920460095BA
:101C300001F07BFC08B101200FE72068006820F468
:101C400080602168086072B620680069616A087067
:101C5000606A401C6062208D401E2085608D401EA1
:101C600060854C4800681921B0FBF1F04FF47A719F
:101C7000B0FBF1F0C0EBC00000EB8000029000BFB1
:101C80000298401E02900298A8B90020206300E04C
:101C900039E0202084F83D00002084F83E00206CCC
:101CA00040F02000206462B600BF002084F83C00B1
:101CB00000BF0120D1E620684069C0F38000002801
:101CC000DED02068006840F4007021680860206859
:101CD0000069616A0870606A401C6062208D401E65
:101CE0002085608D401E608562B620680069616A4B
:101CF0000870606A401C6062208D401E2085608DE7
:101D0000401E60852FE02A463146204601F0E9FC5E
:101D100008B10120A1E620680069616A0870606A64
:101D2000401C6062208D401E2085608D401E6085B5
:101D300020684069C0F38000A8B1208D032805D138
:101D40002068006820F480602168086020680069CD
:101D5000616A0870606A401C6062208D401E2085A8
:101D6000608D401E6085208D00287FF410AF2020FC
:101D700084F83D00002084F83E0000BF84F83C0059
:101D800000BF6AE6022068E6020010000000FFFFC4
:101D9000040001001C01002010B586B0044600209C
:101DA000029003900490059016492068884226D13D
:101DB00000BF1548806940F0080013498861084653
:101DC000806900F00800019000BF00BF4FF4406040
:101DD0000290122003900320059002A90B48FFF700
:101DE000E5FA00BF0848C06940F480000649C861B0
:101DF0000846C06900F48000019000BF00BF06B033
:101E000010BD00000058004000100240000C0140CE
:101E1000034800680349097808440149086070478D
:101E2000100100201801002010B50848006840F09B
:101E3000100006490860032000F0E2F80F2000F0CF
:101E400007F800F05FF8002010BD000000200240FD
:101E50002DE9F04188B004460027B846002600BFAF
:101E60002348C06940F002002149C8610846C069A2
:101E700000F00200019000BF00BF02A903A800F01B
:101E800031FA069F1FB900F055FA054602E000F04E
:101E900051FA45001748B5FBF0F0A0F101081648CB
:101EA0001649086040F2E7311448C160C0F8048068
:101EB000002101618160816100F00AFD064696B94A
:101EC0000E4800F04FFD06466EB91D2000F04AF89E
:101ED000102C07D2002221461D2000F053F808489C
:101EE000046000E00126304608B0BDE8F081000043
:101EF0000010024040420F0000040040A4030020F4
:101F00001401002008B500BF1448806940F00100AA
:101F1000124988610846806900F00100009000BF06
:101F200000BF00BF0846C06940F08050C861084645
:101F3000C06900F08050009000BF00BF00220F2158
:101F4000901E00F01FF800BF0549486820F0E060CF
:101F500040F00070486000BF08BD00000010024063
:101F60000000014001460846002809DB00F01F037D
:101F700001229A4043099B0003F1E023C3F80021AA
:101F800000BF70472DE9F05F80460D4616460027DA
:101F900003F082F8074639462A46334601F0070027
:101FA000C0F1070ABAF1040F02D94FF0040A01E0A8
:101FB000C0F1070AD14600F1040ABAF1070F02D2B4
:101FC0004FF0000A01E0A0F1030AD4464FF0010AE5
:101FD0000AFA09FAAAF1010A0AEA020A0AFA0CFA4A
:101FE0004FF0010B0BFA0CFBABF1010B0BEA030BEF
:101FF0004AEA0B042146404603F056F8BDE8F09F3C
:1020000000BF00F00702064B19684FF6FF031940A6
:10201000044B0B4343EA0221014B196000BF704798
:102020000CED00E00000FA05F8B504460026002596
:10203000207800F0010000286BD000274348C069D9
:1020400000F0805070B900BF4048C06940F0805037
:102050003E49C8610846C06900F08050009000BF4A
:1020600000BF01273A48006800F48070B0B93848D2
:10207000006840F4807036490860FFF72DFB064683
:1020800006E0FFF729FB801B642801D90320F8BD77
:102090002F48006800F480700028F2D02B48006AB6
:1020A00000F440752DB3A08800F44070A84220D001
:1020B0002648006A20F44075012026490860002067
:1020C00008602248056205F0010090B1FFF704FBAB
:1020D000064608E0FFF700FB801B41F2883188428A
:1020E00001D90320D3E71948006A00F00200002854
:1020F000F0D01648006A20F4407061680843134924
:102100000862012F04D10846C06920F08050C861E0
:1021100000BF207800F00200022807D10B48406879
:1021200020F44040A168084308494860207800F046
:102130001000102807D10548406820F48000E168AD
:102140000843024948600020A1E700000010024057
:10215000007000404004424270B504460D460CB980
:10216000012070BD5A48006800F00700A8420ED256
:102170005748006820F00700284355490860084682
:10218000006800F00700A84201D00120E9E72078AC
:1021900000F0020002281DD1207800F0040004287D
:1021A00005D14C48406840F4E0604A4948602078D6
:1021B00000F00800082805D14648406840F4605007
:1021C000444948604348406820F0F000A168084353
:1021D00040494860207800F0010078B36068012829
:1021E00006D13C48006800F4003090B90120B8E7FF
:1021F0006068022806D13748006800F0007040B9D6
:102200000120AEE73348006800F0020008B9012061
:10221000A7E73048406820F00300616808432D4973
:102220004860FFF759FA064609E0FFF755FA801BA8
:1022300041F28831884202D9032092E707E025481D
:10224000406800F00C006168B0EB810FEDD12048D0
:10225000006800F00700A8420ED91D48006820F071
:10226000070028431A4908600846006800F0070084
:10227000A84201D0012074E7207800F0040004286F
:1022800007D11448406820F4E060E1680843114930
:102290004860207800F00800082808D10D48406800
:1022A00020F46050216940EAC1000A49486000F00A
:1022B00061F808494968C1F30311074A515CC840F5
:1022C0000649086006480068FFF7C2FD002048E79D
:1022D00000200240001002406D5E00081C0100203A
:1022E000140100200F2202600D4A526802F003021E
:1022F00042600B4A526802F0F0028260084A52685B
:1023000002F4E062C260064A526802F46052D208E7
:102310000261044A126802F007020A607047000076
:102320000010024000200240014800687047000091
:102330001C01002000B5FFF7F7FF04494968C1F30D
:102340000221034A515CC84000BD00000010024059
:102350007D5E000800B5FFF7E7FF04494968C1F357
:10236000C221034A515CC84000BD00000010024079
:102370007D5E000870B500210022002400230020AB
:10238000134D696801F00C05F5B1042D02D0082D3C
:1023900019D101E00F4819E00F4DC1F38346AB5D41
:1023A00001F4803555B10A4D6D68C5F340450B4EBB
:1023B000725D084D5D43B5FBF2F402E0084D03FB8E
:1023C00005F4204602E000BF024800BF00BF70BD18
:1023D0000010024000127A005B5E00086B5E00088D
:1023E00000093D00F8B504460CB90120F8BD20787D
:1023F00000F00100002878D0F848406800F00C0098
:1024000004280CD0F548406800F00C00082811D1D1
:10241000F248406800F48030B0F5803F0AD1EF48C0
:10242000006800F4003000285FD0606800285CD1AC
:102430000120DBE700BF6068B0F5803F06D1E748C8
:10244000006840F48030E549086028E0606858B9C9
:10245000E248006820F48030E049086008460068DF
:1024600020F4802008601AE06068B0F5A02F0BD13E
:10247000DA48006840F48020D849086008460068BF
:1024800040F4803008600AE0D448006820F48030CE
:10249000D24908600846006820F48020086000BF28
:1024A000606888B1FFF718F9054606E0FFF714F9F0
:1024B000401B642801D9032098E7C848006800F44D
:1024C00000300028F2D010E0FFF706F9054606E0DC
:1024D000FFF702F9401B642801D9032086E7BF48B3
:1024E000006800F400300028F2D1207800F00200EB
:1024F000022857D1B948406800F00C0050B1B748E5
:10250000406800F00C00082818D1B448406800F476
:10251000803098B9B148006800F0020020B120690D
:10252000012801D0012061E7AC48006820F0F800E4
:10253000616940EAC100A949086033E02069E8B157
:102540000120A7490860FFF7C7F8054606E0FFF736
:10255000C3F8401B022801D9032047E79F480068C1
:1025600000F002000028F2D09C48006820F0F8003B
:10257000616940EAC1009949086013E00020984968
:102580000860FFF7A9F8054606E0FFF7A5F8401B2D
:10259000022801D9032029E79048006800F00200D2
:1025A0000028F2D1207800F0080008282DD1A06979
:1025B000B8B101208B490860FFF78EF8054606E0A8
:1025C000FFF78AF8401B022801D903200EE7834851
:1025D000406A00F002000028F2D0012002F030F939
:1025E00013E000207F490860FFF776F8054606E013
:1025F000FFF772F8401B022801D90320F6E677485E
:10260000406A00F002000028F2D1207800F00400B7
:10261000042873D100277148C06900F0805070B958
:1026200000BF6E48C06940F080506C49C8610846E0
:10263000C06900F08050009000BF00BF01276A48C9
:10264000006800F48070B0B96748006840F480709A
:1026500065490860FFF740F8054606E0FFF73CF8DB
:10266000401B642801D90320C0E65F48006800F4DD
:1026700080700028F2D000BFE068012806D15748DA
:10268000006A40F001005549086227E0E06858B947
:102690005248006A20F00100504908620846006A6A
:1026A00020F00400086219E0E06805280BD14B48CF
:1026B000006A40F00400494908620846006A40F098
:1026C000010008620AE04548006A20F00100434921
:1026D00008620846006A20F00400086200BFE06853
:1026E000A0B1FEF7F9FF054609E0FEF7F5FF401B34
:1026F00041F28831884202D9032077E622E0374848
:10270000006A00F002000028EFD012E0FEF7E4FFBC
:10271000054608E0FEF7E0FF401B41F288318842A1
:1027200001D9032062E62D48006A00F0020000286B
:10273000F0D1012F05D12948C06920F080502749E8
:10274000C86100BFE069C8B32448406800F00C00CD
:10275000082860D0E069022848D100202049086696
:10276000FEF7BAFF054606E0FEF7B6FF401B02285B
:1027700001D903203AE61948006800F000700028EB
:10278000F2D1206AB0F5803F07D11448406820F4A8
:102790000030A168084311494860D4E908010843A2
:1027A0000E49496821F4741108430C49486001201E
:1027B0000B490866FEF790FF054607E03DE0FEF78F
:1027C0008BFF401B022801D903200FE60348006855
:1027D00000F000700028F2D02FE00000001002404E
:1027E0000000424280044242007000400020144930
:1027F0000866FEF771FF054606E0FEF76DFF401B19
:10280000022801D90320F1E50E48006800F00070AD
:102810000028F2D111E0E069012800D1E6E509487D
:10282000466806F48031206A814204D106F47011B2
:10283000606A814201D00120D8E50020D6E5000081
:1028400000004242001002407047704730B5024617
:102850000B4600BF92F83C00012801D1022030BD98
:10286000012082F83C0000BF022082F83D00106881
:1028700044681068816824F0700418680443106884
:102880004460104D1068A8420BD01068B0F1804F22
:1028900007D00D4D1068A84203D00C4D1068A84217
:1028A00005D121F080015868014310688160012042
:1028B00082F83D0000BF002082F83C0000BF00BF4E
:1028C000CDE70000002C014000040040000800405B
:1028D00010B504460CB9012010BD94F83D0028B98C
:1028E000002084F83C00204600F026F8022084F8FE
:1028F0003D00211D206802F005F8012084F8460003
:1029000000BF84F83E0001213F20015540200155C1
:102910004120015500BF00BF012084F84200432040
:102920000155442001554520015500BF012084F880
:102930003D000020D0E7000008B50168B1F1804FEC
:102940000DD100BF0649C96941F00101044AD161B6
:102950001146C96901F00101009100BF00BF08BD27
:1029600000100240014691F83D00012801D00120ED
:102970007047022081F83D000868C06840F00100FF
:102980000B68D860124B086898420BD00868B0F109
:10299000804F07D00F4B0868984203D00E4B086851
:1029A00098420CD10868806800F00702062A0CD013
:1029B0000868006840F001000B68186005E00868CE
:1029C000006840F001000B6818600020D0E70000AC
:1029D000002C014000040040000800402DE9F041B7
:1029E00004460D46002700BF94F83C00012802D1A0
:1029F0000220BDE8F081012084F83C0000BF0220E5
:102A000084F83D002068866826F0770626F47F4625
:102A1000206886602868502833D00CDC202850D0ED
:102A200004DC00284BD0102851D149E0302849D08F
:102A300040284CD139E060282DD0702807D0B0F55F
:102A4000805F03D0B0F5005F41D10DE041E0D5E9F2
:102A500002136A68206801F097FF2068866846F0D4
:102A600077062068866034E0D5E902136A6820683A
:102A700001F08AFF2068806840F480402168886007
:102A800027E0EA686968206802F04EF85021206863
:102A900001F085FF1DE0EA686968206802F057F8D8
:102AA0006021206801F07BFF13E0EA686968206814
:102AB00002F03AF84021206801F071FF09E000BF00
:102AC00000BF00BF2968206801F069FF01E001270D
:102AD00000BF00BF012084F83D0000BF002084F843
:102AE0003C0000BF384684E72DE9F04104460D461E
:102AF00014B90120BDE8F08194F83D0028B9002008
:102B000084F83C00204600F051F8022084F83D0093
:102B10002068806844F20701884321688860211D8D
:102B2000206801F0EFFE2068D0F8088020688669F0
:102B30002068076A286840EA080840F203308643A4
:102B4000A969A86840EA0120064340F60C40864384
:102B50004FF2F0008643E969E86840EA0120064345
:102B600028690001296A40EA0130064327F022075C
:102B70006969686840EA011007432068C0F8088066
:102B80002068866120680762012084F8460084F886
:102B90003E0001213F200155012084F842004320DE
:102BA0000155012084F83D000020A3E710B586B050
:102BB0000446002002900390049005901549206877
:102BC000884224D100BF1448806940F40060124953
:102BD00088610846806900F40060019000BF00BF72
:102BE00000BF0846806940F004008861084680699B
:102BF00000F00400019000BF00BF4FF4407002904D
:102C000000200390049002A90448FEF7CFFB06B011
:102C100010BD0000002C01400010024000080140DF
:102C2000704770B504462068C5682068066906F0DC
:102C30000200022819D105F00200022815D1401F18
:102C400021680861012020772068806900F0030076
:102C500018B12046FFF7E4FF05E0204600F0C2F877
:102C6000204600F076F90020207706F004000428C2
:102C700019D105F00400042815D1C043216808616A
:102C8000022020772068806900F4407018B1204647
:102C9000FFF7C6FF05E0204600F0A4F8204600F04C
:102CA00058F90020207706F00800082819D105F00F
:102CB0000800082815D1C043216808610420207746
:102CC0002068C06900F0030018B12046FFF7A8FF94
:102CD00005E0204600F086F8204600F03AF9002092
:102CE000207706F01000102819D105F010001028E8
:102CF00015D1C04321680861082020772068C06989
:102D000000F4407018B12046FFF78AFF05E0204626
:102D100000F068F8204600F01CF90020207706F04B
:102D2000010048B105F0010030B16FF001002168E9
:102D30000861204600F00EF906F08000802809D1D5
:102D400005F08000802805D1C04321680861204635
:102D5000FFF77AFD06F04000402809D105F0400059
:102D6000402805D1C04321680861204600F0FEF8E4
:102D700006F02000202809D105F02000202805D1E8
:102D8000C043216808612046FFF75FFD70BD000069
:102D900010B586B004460020029003900490059080
:102DA0002068B0F1804F16D100BF0C48806940F018
:102DB00004000A4988610846806900F00400019017
:102DC00000BF00BF0120029002200390059002A9DD
:102DD0000348FEF7EBFA06B010BD000000100240F9
:102DE0000008014070472DE9F04104460D461646A3
:102DF000002700BF94F83C00012802D10220BDE862
:102E0000F081012084F83C0000BF36B1042E1BD0B5
:102E1000082E31D00C2E5ED145E02946206801F005
:102E2000C7FD2068806940F008002168886120683B
:102E3000806920F004002168886120688069296920
:102E400008432168886148E02946206801F0E0FDD8
:102E50002068806940F4006021688861206880698A
:102E600020F480602168886120688069296940EACF
:102E700001202168886130E02946206801F0FCFDCE
:102E80002068C06940F008002168C8612068C069F6
:102E900020F004002168C8612068C06929690843DE
:102EA0002168C86119E02946206801F019FE2068F0
:102EB000C06940F400602168C8612068C06920F4DE
:102EC00080602168C8612068C069296940EA0120E2
:102ED0002168C86101E0012700BF00BF00BF0020DA
:102EE00084F83C0000BF384689E710B504460CB9A9
:102EF000012010BD94F83D0028B9002084F83C0062
:102F0000204600F025F8022084F83D00211D2068AD
:102F100001F0F8FC012084F8460000BF84F83E0070
:102F200001213F200155402001554120015500BF9E
:102F300000BF012084F84200432001554420015580
:102F40004520015500BF012084F83D000020D0E756
:102F50007047704710B5044603492068884201D184
:102F6000FEF756FF10BD0000000400407047704798
:102F700010B5044600BF00BF21680C3151E8001FA6
:102F800021F4907021680C3141E80002002AF3D14D
:102F900000BF00BF00BF2168143151E8001F21F0BD
:102FA00001002168143141E80002002AF3D100BF7A
:102FB000206B01280ED100BF00BF21680C3151E801
:102FC000001F21F0100021680C3141E80002002AA6
:102FD000F3D100BF2068406900F0400000B300BF9B
:102FE00000BF2168143151E8001F21F04000216822
:102FF000143141E80002002AF3D100BFE06B78B140
:103000000020E16B4863E06BFEF72EF840B1E06B07
:10301000FEF755F8202803D110206064032010BD6E
:103020000020E085202084F842000020206300BFBB
:10303000F5E7704710B504460CB9012010BDA06932
:1030400000B100E000BF94F8410028B9002084F8E6
:103050004000204600F02AF8242084F8410020682F
:10306000C06820F400502168C860204601F060FE6E
:103070002068006920F49040216808612068406958
:1030800020F02A00216848612068C06840F40050A0
:103090002168C86000206064202084F8410084F822
:1030A00042000020606300BFC8E7000010B586B092
:1030B0000446002002900390049005902749206860
:1030C000884249D100BF2648C06940F400302449F5
:1030D000C8610846C06900F40030019000BF00BF1D
:1030E00000BF0846806940F0040088610846806996
:1030F00000F00400019000BF00BF042002900220F5
:1031000003900320059002A91648FEF74FF9082006
:10311000029000200390049002A91248FEF746F99D
:103120001148124908600020486000210F48816062
:103130008021C1600021016141618161C161FEF7AF
:103140008FF808B1FDF71AFD00BF08480849C863A9
:1031500008460649486200BF06B010BD0044004062
:1031600000100240000801406C00024018030020DB
:103170005C03002070B504460D46164694F84200E4
:1031800020280BD105B10EB9012070BD00202063AD
:1031900032462946204601F049FEF6E70220F4E7D0
:1031A000704770472DE9F84F04460E46174699467A
:1031B0004FF0000A94F84100202850D106B117B909
:1031C0000120BDE8F88F00206064212084F84100D0
:1031D000FEF782FA8246A784E784A068B0F5805F94
:1031E00004D1206910B90025B04602E035464FF001
:1031F00000081EE05346002280212046CDF80090B2
:1032000001F078FE20B1202084F841000320D8E7A7
:1032100045B9B8F80000C0F308002168486008F11B
:10322000020803E02878216848606D1CE08C401E8D
:10323000E084E08C0028DDD1534600224021204666
:10324000CDF8009001F056FE20B1202084F8410016
:103250000320B6E7202084F841000020B1E70220D7
:10326000AFE700BFFEE7014608684069C0F3802071
:10327000B0B16FF480600A685061002008632020BC
:1032800081F83D00002081F83E00086C40F0040009
:10329000086400BF002081F83C0000BF0120704797
:1032A0000020FCE72DE9F84304460D4617469846F2
:1032B000E66A082E04D0012E02D016F5803F06D112
:1032C0002068006840F480702168086008E0206B86
:1032D000122805D12068006840F4807021680860D9
:1032E0003B4600224FF001112046CDF8008000F04F
:1032F0001CF960B12068006800F48070B0F5807F30
:1033000002D14FF4007020640320BDE8F8832069E7
:10331000B0F5804F04D105F0FE002168086112E08D
:1033200005F44070F02141EAE0102168086143464D
:103330003A460B49204600F057F908B10120E4E76E
:10334000E8B22168086143463A460549891F20468C
:1033500000F04AF908B10120D7E70020D5E70000C6
:10336000080001002DE9F84304460F46154699462A
:10337000DDE908862068006840F480602168086004
:103380002068006840F4807021680860434600228D
:103390004FF001112046009600F0C7F860B1206898
:1033A000006800F48070B0F5807F02D14FF40070A7
:1033B00020640320BDE8F88307F0FE00216808615F
:1033C000334642463E49204600F00EF908B101203E
:1033D000F0E700BF0020009020684069009020685E
:1033E0008069009000BF00BF32464146204600F091
:1033F000BDF950B1206C042805D12068006840F464
:103400000070216808600120D4E7B9F1010F03D1F1
:10341000E8B22168086117E0C5F307202168086158
:1034200032464146204600F0A1F950B1206C0428F4
:1034300005D12068006840F4007021680860012010
:10344000B8E7E8B22168086132464146204600F0FC
:103450008DF950B1206C042805D12068006840F433
:103460000070216808600120A4E72068006840F42B
:10347000807021680860434600224FF00111204609
:10348000009600F052F858B12068006800F480708F
:10349000B0F5807F02D14FF400702064032089E7EB
:1034A000F8B240F001002168086133464246044901
:1034B000204600F099F808B101207BE7002079E769
:1034C0000200010070B504460D46164625E0204670
:1034D000FFF7C9FE08B1012070BD681CE8B1FEF716
:1034E000FBF8801BA84200D8BDB920684069C0F332
:1034F000800090B900202063202084F83D00002047
:1035000084F83E00206C40F02000206400BF0020C2
:1035100084F83C0000BF0120DEE720684069C0F36A
:1035200080000028D3D00020D6E72DE9F0410446E2
:103530000D4617461E46DDF8188038E0701CA8B30B
:10354000FEF7CAF8A0EB0800B04200D876BBC5F37E
:10355000074001280AD120684069A9B20840A9B2F1
:10356000884201D101200BE0002009E02068806939
:10357000A9B20840A9B2884201D1012000E0002090
:10358000B84214D100202063202084F83D000020A0
:1035900084F83E00206C40F02000206400BF002032
:1035A00084F83C0000BF0120BDE8F081FFE7C5F3CF
:1035B000074001280AD120684069A9B20840A9B291
:1035C000884201D101200BE0002009E020688069D9
:1035D000A9B20840A9B2884201D1012000E0002030
:1035E000B842ABD00020DFE72DE9F04104460D469C
:1035F00016461F4658E020684069C0F38020E8B1B5
:103600002068006840F40070216808606FF48060F2
:103610002168486100202063202084F83D000020BC
:1036200084F83E00206C40F00400206400BF0020BD
:1036300084F83C0000BF0120BDE8F081701C90B30D
:10364000FEF74AF8C01BB04200D866BBC5F307407E
:1036500001280AD120684069A9B20840A9B288426D
:1036600001D101200BE0002009E020688069A9B2A7
:103670000840A9B2884201D1012000E0002090B9A1
:1036800000202063202084F83D00002084F83E00C4
:10369000206C40F02000206400BF002084F83C0033
:1036A00000BF0120C8E7FFE7C5F3074001280AD1A2
:1036B00020684069A9B20840A9B2884201D101201E
:1036C0000BE0002009E020688069A9B20840A9B297
:1036D000884201D1012000E0002000288BD000208A
:1036E000AAE770B504460D46164637E020684069E3
:1036F000C0F30010A0B16FF01000216848610020F5
:103700002063202084F83D00002084F83E00206CD7
:10371000206400BF002084F83C0000BF012070BD81
:10372000FDF7DAFF801BA84200D8BDB920684069C8
:10373000C0F3801090B900202063202084F83D0061
:10374000002084F83E00206C40F02000206400BF80
:10375000002084F83C0000BF0120E0E720684069B9
:10376000C0F380100028C1D00020D8E770B504460F
:103770000D46164625E02046FFF775FD08B10120ED
:1037800070BD681CE8B1FDF7A7FF801BA84200D8F8
:10379000BDB920684069C0F3C01090B90020206313
:1037A000202084F83D00002084F83E00206C40F08A
:1037B0002000206400BF002084F83C0000BF0120EE
:1037C000DEE720684069C0F3C0100028D3D0002095
:1037D000D6E700001FB500226B21D02000F010F8C2
:1037E0004FF0FF30012103AA0B46CDE900210290E2
:1037F0007522D0210148FEF715F91FBD34020020C3
:103800007CB504460E4615468DF804608DF80550CB
:103810004FF0FF30022301AA214600900148FEF735
:1038200049F87CBD340200200EB5002000900190C4
:1038300002902348234908608115224881600021B5
:10384000017301754FF46021C16100201D4948607A
:1038500004211C480161FDF74FFA08B1FDF78EF90C
:103860000420009001200190002002906946154834
:10387000FDF78EF908B1FDF781F9052000900220CF
:10388000019069460F48FDF783F908B1FDF776F915
:10389000062000900320019069460A48FDF778F958
:1038A00008B1FDF76BF907200090042001906946EC
:1038B0000448FDF76DF908B1FDF760F90EBD000091
:1038C00000240140C001002008B500BF0A4840693B
:1038D00040F00100084948610846406900F00100D5
:1038E000009000BF00BF002205210B20FEF74AFB1D
:1038F0000B20FEF737FB08BD0010024000B585B075
:103900000020019002900390049000BF314880692C
:1039100040F010002F4988610846806900F01000CF
:10392000009000BF00BF00BF0846806940F0200043
:1039300088610846806900F02000009000BF00BF49
:1039400000BF0846806940F004008861084680692D
:1039500000F00400009000BF00BF00BF084680696F
:1039600040F0080088610846806900F00800009077
:1039700000BF00BF002210211748FDF7A7FE01225B
:10398000E0211548FDF7A2FE4FF4704001900020A1
:1039900002900120039001A90F48FDF707FD302098
:1039A000019001200290002003900220049001A9C0
:1039B0000948FDF7FBFCC020019011200290002077
:1039C00003900320049001A90348FDF7EFFC05B024
:1039D00000BD000000100240000C014010B50B4873
:1039E0000B4908600B484860002109488160C160AC
:1039F0004FF480410161002141618161C161016237
:103A0000FDF770FE08B1FDF7B9F810BD0058004091
:103A100034020020A086010000B58BB0242102A84A
:103A2000FCF7B8FB00200090019018481849086086
:103A3000002048600021164881604FF6FF71C16088
:103A40000021016141618161012002900020039009
:103A50000120049000200590069007900120089016
:103A6000002009900A9002A90948FFF73DF808B123
:103A7000FDF784F800200090019069460448FEF7A5
:103A8000E5FE08B1FDF77AF80BB000BD002C01404F
:103A90008802002000B58DB0002009900A900B909C
:103AA0000C90079008901C216846FCF773FB4FF0C0
:103AB0008040204908604820486000211D488160FE
:103AC00044F62061C160002101618161FEF700FFC1
:103AD00008B1FDF753F84FF48050099009A9154833
:103AE000FEF77CFF08B1FDF749F81248FFF7FDF932
:103AF00008B1FDF743F800200790089007A90D488A
:103B0000FEF7A4FE08B1FDF739F8602000904FF4ED
:103B1000FA70019000200290049000226946054846
:103B2000FFF761F908B1FDF729F80248FFF730F90E
:103B30000DB000BDD002002010B513481349086035
:103B40004FF416504860002110488160C160016147
:103B50000C21416100218161C161FFF76BFA08B15D
:103B6000FDF70CF8002208212620FEF70BFA26208C
:103B7000FEF7F8F905480068C06840F020000349E6
:103B80000968C86010BD0000004400405C030020CC
:103B900000BFFEE700BFFEE72DE9F04385B0064613
:103BA0000F4690461C46DDE90C590020019002901A
:103BB00003900490681E0BE00A2194FBF1F201FBD4
:103BC0001241303101AA11540A2194FBF1F4401E34
:103BD0000028F1DA002001A9485501AB42463946D8
:103BE0003046CDF8009000F003F805B0BDE8F08352
:103BF0002DE9FF4F8FB005461C462046FCF7D5FA4D
:103C0000042101FB00500890ADE020782038059099
:103C10000026A2E000279CE05649059801EBC00071
:103C200010F806B04FF0000A3A464FF00108D146AE
:103C300040464946FCF776FA0BEA00020AEA010020
:103C400000235A40584002437ED01099C819FCF70F
:103C5000C5FC8246A819FCF7C1FC83461098001DDC
:103C6000FCF7BCFC04900898FCF7B8FC039006A88D
:103C700007A95B46CDE900A10290119ADDE9030195
:103C800001F0B4FF0798002808DB0798802805DAC0
:103C90000698002802DB0698402800DB58E01C98B4
:103CA00020B101281ED0022850D134E032480799B3
:103CB00000EBC100D0E900AB01210020069ACDE95C
:103CC000090108460999FCF72DFA0A46C1430AEA98
:103CD000010A2BEA020B2848079900EBC100C0E952
:103CE00000AB33E02448079900EBC100D0E900BAEB
:103CF00001210020069ACDE90B0108460B99FCF73B
:103D000011FA4BEA00024AEA01031B48079900EB4B
:103D1000C1000CC01AE01848079900EBC100D0E9B7
:103D200000BA01210020069ACDE90D0108460D993F
:103D3000FCF7F8F98BEA00028AEA01030E480799BA
:103D400000EBC1000CC000E001E000BF00BF00BFFD
:103D50007F1C082FFFF660AF761C082EFFF65AAFC7
:103D6000641C0A3500BF207800287FF44EAF13B0E2
:103D7000BDE8F08F75640008F00300202DE9FF4FC7
:103D80008DB006461098203805900024A2E000254A
:103D90009CE05349059801EBC00010F804B04FF0C7
:103DA000000A2A460127D04638464146FCF7BAF9B0
:103DB0000BEA00020AEA010A00214A408AEA010AE3
:103DC00052EA0A027ED00E994819FCF707FC824697
:103DD0003019FCF703FC83460E98001DFCF7FEFB30
:103DE0000490301DFCF7FAFB039006A807A95B4678
:103DF000CDE900A102900F9ADDE9030101F0F6FE82
:103E00000798002808DB0798802805DA069800281C
:103E100002DB0698402800DB57E01A9820B1012801
:103E20001DD002284DD133E02E48079900EBC10088
:103E3000D0E900AB4FF001090020069A08904846EF
:103E40000899FCF76FF9C2430AEA020A2BEA01005B
:103E50002449079A01EBC201C1E900A031E02148E1
:103E6000079900EBC100D0E900BA01210020069AB1
:103E7000CDE9090108460999FCF754F94BEA00021B
:103E80004AEA01031748079900EBC1000CC018E08B
:103E90001448079900EBC100D0E900BA01210020C5
:103EA000069ACDE90B0108460B99FCF73BF98BEA22
:103EB00000028AEA01030B48079900EBC1000CC01D
:103EC00000BF00E000E000BF00BF6D1C082DFFF642
:103ED00060AF641C082CFFF65AAF11B0BDE8F08F3C
:103EE00075640008F003002070B500240EE0002186
:103EF000204600F0F2FB002504E0002000F090FCDA
:103F0000681CC5B2802DF8DB601CC4B2082CEEDB47
:103F100070BD00002DE9F04F91B0044689469246ED
:103F20006042FCF75BFB0190FCF791FB0746A14A5E
:103F3000A14BFCF772FA0022A04BCDE90201FCF77D
:103F4000DEFA9C4A9C4BCDE90401FCF7BFF9CDE9B0
:103F5000060101F005FF05460022994BFCF75DFACA
:103F60000022984BCDE90801FCF7B0F9CDE90A0130
:103F7000FCF74EFB83466042FCF730FB0190FCF7F8
:103F800066FB07468B4A8C4BFCF747FA00228B4BAB
:103F9000CDE90201FCF7B3FA864A874BCDE904016B
:103FA000FCF794F9CDE9060101F034FC0022844BC2
:103FB000CDE90801FCF731FA05460022824BFCF7F7
:103FC00085F9CDE90A01FCF723FB1090C9F1000047
:103FD000FCF704FB0190FCF73AFB0546754A764B6B
:103FE000FCF71BFA0022794BCDE90201FCF787FAB6
:103FF000704A714BCDE90401FCF768F9CDE906017F
:1040000001F0AEFE0022724BCDE90801FCF705FA83
:10401000074600226B4BFCF759F9CDE90A01FCF782
:10402000F7FA0F90C9F10000FCF7D8FA0190FCF7FD
:104030000EFB604A604BCDE90201FCF7EEF9074642
:104040000022624BFCF75BFA5A4A5B4BCDE9040154
:10405000FCF73CF9054601F0DDFB00225C4BCDE9A5
:104060000601FCF7DAF90022574BCDE90801FCF70D
:104070002DF9CDE90A01FCF7CBFA0E90CAF1000048
:10408000FCF7ACFA0190FCF7E2FA0746494A4A4BC2
:10409000FCF7C3F9054600224C4BFCF730FA454AC1
:1040A000454BCDE90201FCF711F9CDE9040101F01E
:1040B00057FE0022474BCDE90601FCF7AEF900227E
:1040C000404BCDE90801FCF701F9CDE90A01FCF705
:1040D0009FFA0D90CAF10000FCF780FA0190FCF7FE
:1040E000B6FA344A344BCDE90201FCF796F90022C6
:1040F000364BCDE90401FCF702FA2E4A2E4BCDE9EE
:104100000601FCF7E3F8054601F084FB07460022B0
:10411000304BFCF782F900222B4BCDE90801FCF76C
:10412000D5F8CDE90A01FCF773FA0C9001201D23A4
:104130001E2220210090402000F060F90120009014
:104140005A4620214020109B00F048F801200090A2
:1041500020214020DDE90E3200F040F801200090DF
:1041600020214020DDE90C3200F038F80120302316
:10417000194A042100903C20FFF700FE012039235A
:10418000154A1C2100902420FFF7F8FD012033235D
:10419000114A1C2100905420FFF7F0FD0120362326
:1041A0000D4A342100903C20FFF7E8FD11B0BDE836
:1041B000F08F00004AD8124DFB2109400000184042
:1041C00000002440000050400000404000003E40FD
:1041D00000003440000039400000B4422DE9FF4F98
:1041E00091B006460F461398A0EB06081498A0EB72
:1041F00007091398B04201DD012001E04FF0FF30C4
:1042000004901498B84201DD012001E04FF0FF3026
:10421000039034463D46B8F1000F01DD404601E011
:10422000C8F100000290B9F1000F01DD484601E03D
:10423000C9F100000190DDE9010181426CDB002041
:10424000009064E0A01B00FB09F090FBF8F0C5199A
:10425000002C57DD802C55DC002D53DD402D51DC2A
:104260001E9820B101281CD002284AD131E06248B2
:1042700000EBC4002A460121D0E900AB0020CDE9C3
:10428000050108460599FBF74DFF0A46C1430AEAB6
:10429000010A2BEA020B584800EBC400C0E900AB4E
:1042A0002FE0554800EBC4002A460121D0E900ABBD
:1042B0000020CDE9070108460799FBF733FF4AEADA
:1042C000000A4BEA010B4C4800EBC400C0E900AB0C
:1042D00017E0494800EBC4002A460121D0E900BAA2
:1042E0000020CDE9090108460999FBF71BFF8BEA7D
:1042F00000028AEA010A404800EBC400C0E9002A33
:1043000000BF00BF049804440098401C009002992C
:104310000098884296DB6BE00020009064E0E81B88
:1043200000FB08F090FBF9F08419002C57DD802C7D
:1043300055DC002D53DD402D51DC1E9820B10128A5
:104340001CD002284AD131E02B4800EBC4002A4699
:104350000121D0E900AB0020CDE90B0108460B9903
:10436000FBF7E0FE0A46C1430AEA010A2BEA020B08
:10437000214800EBC400C0E900AB2FE01E4800EB71
:10438000C4002A460121D0E900BA0020CDE90D0180
:1043900008460D99FBF7C6FE4BEA00024AEA010AFD
:1043A000154800EBC400C0E9002A17E0124800EBF2
:1043B000C4002A460121D0E900AB0020CDE90F015D
:1043C00008460F99FBF7AEFE8AEA000A8BEA010B5A
:1043D000094800EBC400C0E900AB00BF00BF039870
:1043E00005440098401C0090DDE90001884296DBFE
:1043F00015B0BDE8F08F0000F00300202DE9FF4F5D
:1044000089B080460E46174608EB07000390A8EBDC
:1044100007000190F0190290F01B0090019C7AE0D7
:10442000009D74E0002C05DB802C03DA002D01DBFD
:10443000402D00DB6AE0A4EB08004043A91BAA1B47
:1044400001FB02010C98404381425EDBA4EB0800B3
:104450004043A91BAA1B01FB020107FB07F0814295
:1044600053DC002F51DD169820B101281CD0022802
:104470004AD131E02B4800EBC4002A464FF0010935
:10448000D0E900AB0020049048460499FBF74AFEAF
:104490000A46C1430AEA010A2BEA020B214800EB53
:1044A000C400C0E900AB2FE01E4800EBC4002A4660
:1044B0000121D0E900AB0020CDE9050108460599AE
:1044C000FBF730FE4AEA000A4BEA010B154800EB05
:1044D000C400C0E900AB17E0124800EBC4002A4654
:1044E0000121D0E900AB0020CDE90701084607997A
:1044F000FBF718FE8AEA000A8BEA010B094800EB79
:10450000C400C0E900AB00BF00BF00BF6D1C029833
:10451000854287DD641C0398844281DD0DB0BDE8CF
:10452000F08F0000F003002010B5FFF7E7F901223B
:1045300020210948FDF7CAF8002210210648FDF79E
:10454000C5F8012240210448FDF7C0F8012280216E
:104550000148FDF7BBF810BD000C014070B50546E1
:10456000002417E080202041284008B1012000E00D
:104570000020024680210E48FDF7A8F801224021C4
:104580000B48FDF7A3F8002240210948FDF79EF8EB
:10459000601CC4B2082CE5DB012240210448FDF771
:1045A00095F8002240210248FDF790F870BD000008
:1045B000000C014010B5012280210948FDF786F862
:1045C000012240210648FDF781F80022802104489D
:1045D000FDF77CF8002240210148FDF777F810BD77
:1045E000000C014010B5002280210748FDF76EF84D
:1045F000012240210448FDF769F801228021024888
:10460000FDF764F810BD0000000C014070B50024F7
:1046100006E0002500E06D1CB5F57A7FFBD3641C35
:10462000B4F57A7FF5D3FFF77FFFAE2000F0E8F80E
:10463000D52000F0E5F8802000F0E2F8A82000F096
:10464000DFF83F2000F0DCF8FFF7B4FF7820FFF739
:1046500085FF0020FFF782FF2020FFF77FFF00206B
:10466000FFF77CFFFFF7BEFFD32000F0C9F8002062
:1046700000F0C6F8402000F0C3F8A12000F0C0F818
:10468000C82000F0BDF8DA2000F0BAF8122000F0DF
:10469000B7F8812000F0B4F8CF2000F0B1F8D920AD
:1046A00000F0AEF8F12000F0ABF8DB2000F0A8F845
:1046B000302000F0A5F8A42000F0A2F8A62000F019
:1046C0009FF88D2000F09CF8142000F099F8AF209E
:1046D00000F096F8FFF708FC70BD70B505460C4673
:1046E00045F0B00000F08CF8102141EA141000F001
:1046F00087F804F00F0000F083F870BD2DE9FC414D
:1047000005460E461746002000900190721ED20604
:10471000110E6A1ED0B2FFF7E0FF00201FE000215B
:1047200019E01DF800205206120E0DF80020A7F126
:104730002002134B03EBC202C1F10703D25C012339
:1047400083401A402AB11DF8002042F001020DF802
:1047500000204A1CD1B20829E3DB411CC8B208285A
:10476000DDDB002407E0C4F107011DF8010000F0C3
:1047700057F8601CC4B2082CF5DBBDE8FC810000D2
:10478000756400082DE9F04107460E4615460024E1
:1047900007E02A5D3019C1B23846FFF7AFFF601C51
:1047A000C4B2285D0028F4D1BDE8F08170B50021C5
:1047B0000820FFF792FFFFF7FDFE7820FFF7CEFEFF
:1047C0004020FFF7CBFE002403E00020FFF7C6FEE9
:1047D000641C802CF9DB00240BE0002506E007496F
:1047E00001EBC501085DFFF7B9FE6D1C802DF6DBFE
:1047F000641C082CF1DBFFF7F5FE70BDF003002010
:1048000010B50446FFF7D6FE7820FFF7A7FE00207C
:10481000FFF7A4FE2046FFF7A1FEFFF7E3FE10BD61
:1048200010B50446FFF7C6FE7820FFF797FE40203C
:10483000FFF794FE2046FFF791FEFFF7D3FE10BD71
:1048400008B508490968C9084FF47A72B1FBF2F15A
:104850004143009100BF00BF00994A1E0092002909
:10486000F9D108BD1C01002000B593B0282109A88A
:10487000FBF790FC142104A8FBF78CFC00200090AF
:10488000019002900390092009904FF480300A9023
:1048900000200B9001200D900F9002201090C1037A
:1048A00011914FF4E011129109A8FDF79BFD08B199
:1048B000FCF764F90F200490022005900020069078
:1048C0004FF48060079000200890022104A8FDF7B3
:1048D00043FC08B1FCF752F90220009080030290DB
:1048E0006846FDF7A1FB08B1FCF748F913B000BD1D
:1048F0007047000010B50248FEF793F910BD0000A4
:10490000A403002010B502681C4B984208D0B0F1F7
:10491000804F05D01A4B984202D01A4B984203D1CF
:1049200022F070024B681A43144B984208D0B0F141
:10493000804F05D0124B984202D0124B984203D1BF
:1049400022F44072CB681A4322F080034C6943EA98
:10495000040202608B68C3620B688362074B984253
:1049600001D10B69036301234361036903F0010370
:104970001BB1036923F00103036110BD002C01404A
:10498000000400400008004030B50C46816821F466
:104990007F4142EA032525432943816030BD0A4611
:1049A000816821F0700142F007031943816070476C
:1049B00030B5026A056A25F001050562436884691D
:1049C00024F0700424F003040D682C4322F002024A
:1049D0008D682A430D4DA84206D100BF22F008027F
:1049E000CD682A4322F00402084DA84207D123F4DF
:1049F000807323F400734D692B438D692B4343600F
:104A000084614D684563026230BD0000002C0140A6
:104A100030B5026A056A25F01005056243688469AD
:104A200024F4E04424F440740D6844EA052422F0A0
:104A300020028D6842EA05120E4DA84207D100BF40
:104A400022F08002CD6842EA051222F04002094DB0
:104A5000A84209D123F4806323F400634D6943EA3B
:104A600085038D6943EA8503436084614D688563EE
:104A7000026230BD002C014030B5026A056A25F49F
:104A8000807505624368C46924F0700424F003044F
:104A90000D682C4322F400728D6842EA05220F4D06
:104AA000A84207D100BF22F40062CD6842EA052285
:104AB00022F48062094DA84209D123F4805323F4E3
:104AC00000534D6943EA05138D6943EA05134360BA
:104AD000C4614D68C563026230BD0000002C014016
:104AE00030B5036A056A25F4805505624468C269D9
:104AF00022F4E04222F440720D6842EA052223F4D7
:104B000000538D6843EA0533064DA84204D124F4CE
:104B100080444D6944EA85144460C2614D6805646F
:104B2000036230BD002C014030B50B461446026ACA
:104B3000056A25F001050562816921F0F00141EA6D
:104B4000041122F00A021A438161026230BD30B5BD
:104B50000B461446026A056A25F010050562816954
:104B600021F4704141EA043122F0A00242EA03122A
:104B70008161026230BD70B506460025746A206806
:104B80004069C0F3C01594F84100212805D125B132
:104B90000020E084204600F0B8F820684069C0F3A7
:104BA000801594F84200222805D125B10020E08527
:104BB000204600F074F8606C40F0100060642046FD
:104BC000FEF737FA70BD70B505466C6A2868006854
:104BD00000F02000002842D1E08500BF00BF21681E
:104BE0000C3151E8001F21F4807021680C3141E83C
:104BF0000002002AF3D100BF00BF00BF21681431BA
:104C000051E8001F21F001002168143141E8000241
:104C1000002AF3D100BF00BF00BF2168143151E862
:104C2000001F21F040002168143141E80002002AF1
:104C3000F3D100BF202084F84200206B01280ED160
:104C400000BF00BF21680C3151E8001F21F01000A7
:104C500021680C3141E80002002AF3D100BF002096
:104C60006063206B012804D1A18D2046FEF77FF9F7
:104C700002E02046FEF794FA70BD70B505466C6AF6
:104C800001206063206B012805D1A08D41082046DA
:104C9000FEF76DF902E02046FEF783FA70BD00BF13
:104CA00000BF02680C3252E8002F22F490710268B3
:104CB0000C3242E80013002BF3D100BF00BF00BF4D
:104CC0000268143252E8002F22F001010268143207
:104CD00042E80013002BF3D100BF016B01290ED174
:104CE00000BF00BF02680C3252E8002F22F0100112
:104CF00002680C3242E80013002BF3D100BF2021E0
:104D000080F8421000210163704700BF00BF0268B5
:104D10000C3252E8002F22F0C00102680C3242E847
:104D20000013002BF3D100BF202180F84110704701
:104D300070B504462168096921F44051E2681143C5
:104D4000226811612269A1681143626941EA020582
:104D50002168C96841F20C62914329432268D160FD
:104D60002168496921F44071A269114322685161A7
:104D70002D4A2168914202D1FDF7ECFA01E0FDF7DE
:104D8000D9FA00EBC00101EB001162689200B1FB9F
:104D9000F2F100EBC00202EB001263689B00B2FB71
:104DA000F3F26423B2FBF3F202EBC20303EB021251
:104DB000A1EB8201322202EB01116422B1FBF2F17C
:104DC00001F0F00100EBC00202EB001263689B00EF
:104DD000B2FBF3F26423B2FBF3F201EB021200EB3D
:104DE000C00101EB001163689B00B1FBF3F100EB24
:104DF000C00303EB00136668B600B3FBF6F364264A
:104E0000B3FBF6F303EBC30606EB0313A1EB83013D
:104E1000322303EB01116423B1FBF3F101F00F0125
:104E200011442268916070BD0038014077B581B0AF
:104E3000044615460298A062A585002060642220E1
:104E400084F842002848E16B88622848E16BC86218
:104E50002748E16B08630020E16B486302AE3268CB
:104E60002368191D2B46E06BFCF72EFA00BF0020CB
:104E7000009020680068009020684068009000BFA3
:104E800000BF206970B100BF00BF21680C3151E83C
:104E9000001F41F4807021680C3141E80002002AB3
:104EA000F3D100BF00BF00BF2168143151E8001FDB
:104EB00041F001002168143141E80002002AF3D1D9
:104EC00000BF00BF00BF2168143151E8001F41F04E
:104ED00040002168143141E80002002AF3D100BFEC
:104EE000002004B070BD0000C74B00087B4C0008D8
:104EF000774B00082DE9F84304460D4617469846BF
:104F0000089E31E0701C70B3FCF7E6FBA0EB0800D4
:104F1000B04200D816B90320BDE8F8832068C06805
:104F200000F00400F8B1802D1ED0402D1CD0206868
:104F30000068C0F3C000B0B100BF0020009020683E
:104F40000068009020684068009000BF00BF2046C5
:104F5000FFF7A5FE0820606400BF002084F8400031
:104F600000BF0120D8E7FFE7206800682840A8427A
:104F700001D1012000E00020B842C3D00020CBE7DF
:104F800038B52D4800680068C0F3401018B3012000
:104F90002A4908706FF020002749096808602648F0
:104FA0000068C06820F0200023490968C8602248D2
:104FB00000684068C4B2224804707F22411C1E4829
:104FC000FEF7D8F81C480068C06840F010001A4985
:104FD0000968C86000BF184800680068C0F3001086
:104FE00040B30120174908701348FDF7C1FF00BF07
:104FF0000020009010480068006800900E4800688B
:105000004068009000BF00BF0B480068C06820F0F7
:10501000100009490968C86001231A460A49064870
:10502000FEF7C0F804480068C06840F0200002495C
:105030000968C86038BD00005C0300200001002042
:1050400000000020010100200C01002000BFFEE74D
:105050000FB4054B10B503A9044A029800F06EFB8B
:1050600010BC5DF814FB0000B158000820010020BE
:10507000490050EAC12018BF04204A0D18BF40F073
:10508000010040F2FF72B2EB515F08BF40F0020036
:10509000012808BF0520704702480068C0F30220BD
:1050A000704700000CED00E010B5002804DB0A0793
:1050B000130E054A135406E00A07140E034A00F0C3
:1050C0000F031B1FD45410BD00E400E018ED00E0F6
:1050D0002DE9F74F144694B00021C4E90211159947
:1050E000079121F00045C9498D4206DC1599C4E9B4
:1050F000000117B00020BDE8F08FC549DFF814A308
:10510000A9423CDD0799C44E0029C44FC44A1599F1
:10511000534619DDFBF77BF9554506D0C14AC24B12
:10512000FBF775F9C4E900010AE04FF0D352BE4B1A
:10513000FBF76DF932463B46FBF769F9C4E900011C
:1051400017B00120BDE8F08FFBF7C0F8554506D039
:10515000B44AB54BFBF7BAF8C4E900010AE04FF0D6
:10516000D352B14BFBF7B2F832463B46FBF7AEF8F1
:10517000C4E9000117B04FF0FF30BDE8F08FAB4934
:10518000A942159978DB21F0004183468846A84A58
:10519000A84BFBF742F90022A74BFBF797F8FBF768
:1051A00037FA0990FBF723FA06460F469C4A534606
:1051B000FBF733F943465A46FBF72CF980468A46FB
:1051C000984A994B30463946FBF727F92A0D0125B5
:1051D0000B9242465346FBF71DF9032DC4E900012B
:1051E00039D00B98C1F30A51401A05EB451111391A
:1051F000814230DA9148C346784400EB0510CDF87F
:105200000CA00C90D0E9002330463946FBF705F995
:1052100002460B460491069058460399FBF7F7F8AF
:1052200080468A4602460B4658460399FBF7EFF83C
:10523000049B069AFBF7EBF883460C9803913946DA
:10524000D0E902233046FBF7E8F85A46039BFBF708
:10525000DEF86D1CBDE707980028A2BF099817B0BB
:10526000BDE8F08F616881F000416160099817B076
:105270004042BDE8F08FFFE784461598C1F3130163
:10528000C0F30A50A0F2F5304FEA601800F01F0694
:10529000C6F12000139000200690079041F4801E74
:1052A00005206D4676B1664A08EB00017A4452F853
:1052B000213002EB8101B3404A68139922FA01F1CF
:1052C000194305E05F4908EB0002794451F82210C8
:1052D000A1FB0E27A1FB0C131A449A4234BF0123F1
:1052E000002303EB070A05EB8003D3E901B70F4462
:1052F0008F4234BF0121002193448B4411B1934567
:1053000002D903E0934501D2012100E00021C3E965
:1053100001B7514445F82010011EA0F10100C1DC85
:105320000298059F00F10050800F12900298DDE96D
:1053300003568000FBF75BF9834628460D91FBF787
:10534000F8FA6FF01D02FBF7DDFACDE90E013046E9
:10535000FBF7EFFA6FF03D02FBF7D4FA80468A467E
:105360003846FBF7E6FA6FF05D02FBF7CBFA07462B
:10537000424653461191FAF7A9FFDDE90E23FAF7E9
:10538000A5FF5A460D9BFAF7A1FF00250E465A4687
:1053900028460D9BFBF73BF8DDE90E23FBF737F8BA
:1053A00042465346FBF733F83A46119BFBF732F877
:1053B000DFF898A0244A5346FBF72FF807468846A3
:1053C000234A244B31462846FBF727F83A46434602
:1053D000FAF77CFF074688464FF0A842534631460D
:1053E0002846FBF71AF83A464346FAF76FFF159A34
:1053F00012F0004F04D0129A81F0004152421292F2
:10540000C4E90001129817B0BDE8F08FFB21E93F15
:105410007CD90240FB21F93F7370032E8A19A33B0C
:10542000000040543163621A61B4D03DFB21394120
:1054300083C8C96D305FE43F0000E03FA415000061
:105440002015000002150000182D4454FB21F93DE1
:105450003326A611460B113C2DE9FF4D21F00048E3
:1054600007460C46B8F1795F08DAFBF7D1F8002857
:1054700001BF0020324904B0BDE8F08D3A46234612
:1054800010461946FAF7C9FF054602462D480E4652
:105490000B460621784400F05DF82A463346FAF7B9
:1054A000BCFFDDE9022382468B4638462146FAF7E7
:1054B000B4FF04460F4652465B4628463146FAF78B
:1054C000ACFF22463B46FAF7A2FF07468A464FF05A
:1054D000FF3228463146FBF715FA1B4A90450ADA97
:1054E0003A465346FAF793FF04B00022BDE8F04D68
:1054F000134BFAF78FBF154A4245A8BFA8F5001510
:105500004FF00004B8BF124D22462B46FAF77FFF3A
:105510000646884622462B4600200949FAF777FFBF
:1055200004460D463A46534630464146FAF76FFF69
:1055300004B022462B46BDE8F04DFAF76BBF0000E1
:105540000000F03FD81200003333D33F0000E93FA2
:105550000000D23F2DE9F0414F1E00EBC701044689
:10556000D1E9000115461E4637F006020DD02A4645
:105570003346FAF752FF7F1E04EBC703D3E900233B
:10558000FAF7A4FE37F00602F1D1022F25D0042F3E
:1055900013D0062F18BFBDE8F0812A463346FAF72C
:1055A0003CFFD4E90A23FAF791FE2A463346FAF77C
:1055B00034FFD4E90823FAF789FE2A463346FAF77E
:1055C0002CFFD4E90623FAF781FE2A463346FAF780
:1055D00024FFD4E90423FAF779FE2A463346FAF782
:1055E0001CFFD4E90223FAF771FE2A463346FAF784
:1055F00014FFD4E90023BDE8F041FAF767BE0000CC
:105600002DE9FF4D054621F0004084B00C46B0F175
:10561000795F0BDA2846FFF72BFD042808BF00F05E
:105620006FF8284608B02146BDE8F08D2A460B46A3
:105630001046FAF7F2FE06460F462A462346FAF7C8
:10564000ECFE804626488A4632463B460521784491
:10565000FFF780FF83461098029160B3214A224BE6
:1056600040465146FAF7D9FECDE900015A46404678
:105670005146029BFAF7D1FE82468846DDE90601D3
:105680004FF0FF32FBF73EF952464346FAF7BFFEB2
:1056900032463B46FAF7C1FEDDE90623FAF7B7FECC
:1056A000DDE90023FAF7B3FE08B02A462346BDE839
:1056B000F04DFAF7AFBE0B465A4630463946FAF778
:1056C000ACFE084A084BFAF701FE42465346FAF789
:1056D000A4FE08B02A462346BDE8F04DFAF7F6BD11
:1056E00016120000495555555555C5BF0122FBF707
:1056F00009B90022134610461146FAF700BF000010
:10570000024A00201107FBF7FDB8000001FDFFFF72
:1057100002E008C8121F08C1002AFAD1704770477A
:10572000002001E001C1121F002AFBD170470000D8
:105730000149086070470000240100202DE9F84F5E
:105740009946924688460546002706E025280AD055
:1057500051464A4690476D1C7F1C28780028F5D199
:105760003846BDE8F88F002315F8011F18462E298A
:1057700015D115F8011F04232A290DD06FF02F022F
:105780002978A1F13004092C09D800EB800002EB44
:10579000400008446D1CF3E758F8040B6D1C2A7890
:1057A000002ADDD0632A07D0732A0FD01046514655
:1057B0004A4690477F1C2AE018F8042B8DF80020F9
:1057C00000218DF801106E46012103E058F8046BAA
:1057D0004FF0FF315A074FF0000401D409E0641C78
:1057E00084420BDA8C42FADB325D002AF7D105E005
:1057F000641C8C42FCDB305D0028F9D1274404E0B6
:1058000016F8010B51464A469047641EF8D26D1CAB
:10581000A3E7000000B5244B21F0004287B09A4274
:10582000DCBF0022134629DD204B9A4208D140B943
:105830004FF00100FFF77CFFFFF75BFF07B000BDF3
:1058400003DBFFF753FF07B000BD02AAFFF740FCE0
:1058500010F0030104BF0DF1080C9CE80F000DD0FF
:10586000012001290ED0022914D00DF1080C00905E
:105870009CE80F00FFF7C4FE07B000BDFFF7ECFD8A
:1058800007B000BD0DF1080C00909CE80F00FFF779
:10589000B7FE05E00DF1080C9CE80F00FFF7DCFDFA
:1058A00007B081F0004100BDFB21E93F0000F07F1F
:1058B000F8B504460E46E0B2009000230122694686
:1058C0003548FDF76FFC0A2C0BD1344800680128DD
:1058D00003D00F203149086015E000202F490860EF
:1058E00011E02F480078401E00F007002D4A02EB1F
:1058F00000122A480068401E1454E2B2274801787A
:105900000820FEF7FBFE254800680F2805D2234833
:105910000068401C2149086022E0FEF7E5FA2048B3
:105920000068401C1E49086000201C49086010E007
:1059300000211B480078401E00F00700194A02EBC6
:105940000010164A1268815414480068401C13491C
:105950000860124800680F28EAD901200F49086042
:105960000E480068012811D100250DE00C49097886
:10597000294401F007010B4B03EB0112691CC8B26B
:105980000121FEF7FFFE6D1C082DEFDB3220FBF737
:10599000E9FC2046F8BD00005C0300200401002063
:1059A00008010020400100208AB062B6FBF786F8AB
:1059B000FCF73AFAFEF758FFFDF7A0FFFDF784FF6A
:1059C000FDF732FFFEF7B8F8FEF726F8FEF762F8AB
:1059D000FEF704F8FEF71AFEFDF7FCFE00BF75485F
:1059E000C06940F080507349C8610846C06900F042
:1059F0008050029000BF00BF6F480078C0EB0010DD
:105A00006E4A81186EA0FFF723FB20264FF0010895
:105A100000274FF00609012401254FF0000A00BFBE
:105A200000BF00BF00BF00BF00BF00BF00BF00BF7E
:105A300000BF00BF0020069007904FF01E0B0390A0
:105A4000B7E00398421CD2B20392614A02EBC00154
:105A500004226048FBF748FA4FF480615E48FAF789
:105A600099FB012000232022402100902046FEF7D0
:105A7000B5FB01200221CDE900100022382110469B
:105A8000099BFEF789F85A4600200499FEF742FA6E
:105A9000FBF722FE0899401A4FF47A71B1FBF0F03F
:105AA0000990FBF719FE0890FEF780FE4B4800783E
:105AB000742803D1002D35DD6D1E33E04748007892
:105AC0006C280AD1002C2DDD04F11F00C11700EB5A
:105AD00091618911A0EB811424E0404800786D2881
