:020000040800F2
:10000000E004002045010008431B0008591A0008BD
:10001000411B0008A5030008111E00080000000095
:10002000000000000000000000000000471B000866
:10003000DF03000800000000451B0008491B000802
:100040005F0100085F0100085F0100085F01000810
:100050005F0100085F0100085F0100085F01000800
:100060005F0100085F0100085F010008A9030008A4
:100070005F0100085F0100085F0100085F010008E0
:100080005F0100085F010008550200085F010008D9
:100090005F0100085F0100085F0100085F010008C0
:1000A0005F0100085F0100085F0100085F010008B0
:1000B0005F0100085F0100085F0100085F010008A0
:1000C0005F0100085F0100085F0100085F01000890
:1000D0005F0100085F010008051E00085F010008BD
:1000E0005F0100085F0100085F0100085F01000870
:1000F0005F0100085F0100085F0100085F01000860
:100100005F0100085F0100085F0100085F0100084F
:100110005F0100085F0100085F0100085F0100083F
:100120005F0100085F0100085F0100085F0100082F
:10013000DFF80CD000F06CF800480047BD20000844
:10014000E00400200648804706480047FEE7FEE737
:10015000FEE7FEE7FEE7FEE7FEE7FEE7FEE7FEE777
:10016000B51B000831010008202A04DB203A21FADF
:1001700002F00021704721FA02F3D040C2F12002C0
:100180009140084319467047D2B201E000F8012BB4
:10019000491EFBD270470022F6E710B513460A4607
:1001A00004461946FFF7F0FF204610BD2DE9F05F29
:1001B0000546002092469B468846064681464024D6
:1001C0001BE02846414647462246FFF7CDFF5346EF
:1001D0005A46C01A914110D311461846224600F0E3
:1001E00029F82D1A67EB01084F462246012000210D
:1001F00000F020F817EB00094E41201EA4F1010485
:10020000DFDC484631462A464346BDE8F09F000001
:10021000064C074D06E0E06840F0010394E8070053
:1002200098471034AC42F6D3FFF786FF60210008F0
:1002300080210008202A04DB203A00FA02F1002085
:1002400070479140C2F1200320FA03F31943904014
:1002500070470000014800F048B90000200000206D
:1002600070B5044600688168C943C90717D1816821
:1002700021F00101816000F05FFE05460AE000BF49
:1002800000F05AFE401B022804D920688068C04351
:10029000C00706D020688068C043C007F0D00020A7
:1002A00070BDA06A40F01000A062E06A40F001005A
:1002B000E062012070BD10B50146406A826A12F00A
:1002C000500F05D0006A026BBDE810400846104789
:1002D000816A41F40071816201688968C1F3424119
:1002E00007290CD1017B51B9816A21F480718162A7
:1002F000816AC90403D4816A41F00101816200F07E
:10030000F1F810BD10B5406A816A41F04001816288
:10031000C16A41F00401C16200F0E6F810BD10B5F9
:10032000406A00F0E0F810BDF8B5002604460096DB
:1003300000688168C943C9072DD0816841F0010177
:100340008160164816490068B0FBF1F000E0401EDD
:1003500000900028FBD100F0EFFD054616E000BF3D
:1003600000F0EAFD401B022810D920688068C043D5
:10037000C0070BD0A06A40F01000A062E06A40F015
:100380000100E06284F824600120F8BD20688068E4
:10039000C043C007E4D10020F8BD000018000020D1
:1003A00040420F00FEE70000014800F02FBB0000B4
:1003B0005000002030B590F840500124AC40C56B8F
:1003C0006C60046863604368102B036803D0996015
:1003D0000068C26030BD9A600068C16030BD70477F
:1003E00072B6FEE770470000F8B50024009490F85C
:1003F00024202546012A12D0012280F824204A68B0
:100400001F23072A0DD20668776B521E02EB820269
:1004100093409F430B6893401F43776319E002208A
:10042000F8BD06680D2A0AD2376BD21F02EB820292
:1004300093409F430B6893401F43376309E0F76A7B
:100440000D3A02EB820293409F430B6893401F4397
:10045000F7620A68072306680A2A0AD3F7680A3A85
:1004600002EB420293409F438B6893401F43F76027
:1004700008E0376902EB420293409F438B68934048
:100480001F4337610A68102A01D0112A20D1124B6C
:1004900002689A4217D193681B0219D4936843F4F7
:1004A000000393600968102912D10C490C4A0968AD
:1004B000B1FBF2F101EB8101490000E0491E00911E
:1004C0000029FBD104E0816A41F02001816201240E
:1004D00080F824502046F8BD002401401800002078
:1004E00040420F0070477047704770B5044600687F
:1004F00006684568A90625D5B10723D5A16AC906AE
:1005000003D4A16A41F40071A1628168C1F3424140
:10051000072910D1217B71B9416821F02001416088
:10052000A06A20F48070A062A06AC00403D4A06A0C
:1005300040F00100A0622046FFF7D4FF21686FF071
:100540001200086028062ED570072CD5A06AC006B8
:1005500003D4A06A40F40050A06220688168C1F30F
:100560000231072909D04168490515D48168C1F3D2
:100570004241072910D1217B71B9416821F08001E6
:100580004160A06A20F48050A062A06AC00503D434
:10059000A06A40F00100A0622046FFF723FF216817
:1005A0006FF00C00086068060CD5F0070AD0A06A4E
:1005B00040F48030A062204600F096F821686FF089
:1005C0000100086070BD00002DE9F04104004FF00B
:1005D00000057FD0A06A002628B9E66284F824606E
:1005E000204600F083F82046FFF73AFEA16AC906CC
:1005F00000D420B1A06A40F01000A0626AE0A16AB5
:1006000021F4885141F00201A162334923688B42F1
:10061000E16904D1B1F5402F01D14FF40021277BCE
:100620004FF4807C41EA470261680A43A168614552
:1006300008D0012906D0002194F814E0BEF1010F82
:1006400002D00AE06146F7E7C7B1A76A47F0200782
:10065000A762E76A47F00107E7625F6827F4694726
:100660000F435F60236899681C4F394011439960BC
:10067000A16861450BD0012909D00CE0DFF860E0EA
:10068000A7690EEB47370F4347F40061E5E7218A7E
:100690000D05A5F580152168CB6A23F470032B4363
:1006A000CB62216889680F4B1940914208D1E662FC
:1006B000A16A21F0020141F00101A162BDE8F081CF
:1006C000A06A20F0020040F01000A062E06A40F052
:1006D0000100E0620120F1E7003C0140FDF7E1FF8D
:1006E00000E0FFFFFE0E1FFF7047000070B586B0F0
:1006F00000250646009501950295039500681D4961
:10070000884235D11C49886940F400708861886945
:1007100000F400700490886940F0040088618869E2
:10072000694600F0040004900320009001901348F3
:1007300000F006FB134C1248C4E900058020C4E910
:10074000025080002061800060612020C4E906051D
:10075000204600F07FFA08B1FFF742FE3462002223
:1007600011461220666200F053FC122000F042FC99
:1007700006B070BD00240140001002400008014096
:1007800008000240500000202DE9F0478946044649
:100790003B4900683B4F0E1D9046884201D0B8424D
:1007A00007D1306810F4702F03D001252846BDE82A
:1007B000F08794F8240001280CD0012084F824004C
:1007C0002046FFF7B1FD05004FF0000004D084F88B
:1007D0002400EBE70220EAE7A16A40F601629143B8
:1007E00041F48071A1622168B94218D1326812F4D3
:1007F000702F14D0A16A41F48011A16231684905BB
:1008000005D5A16A21F4005141F48051A162A16A89
:10081000C9040AD5E16A21F00601E16206E0A26A94
:1008200022F48012A2624968E9E7E06284F82400B9
:10083000216A15488862216A1448C862216A1448EE
:10084000086321686FF0020008602068816841F445
:1008500080718160216843464A464C31206A00F02D
:1008600037FA20688168C1F342410729816803D0C3
:1008700041F48011816099E741F4A001FAE700009A
:100880000024014000280140B70200081F030008AF
:100890000503000810B590F821100022022905D0A8
:1008A0000421816380F82020012010BD01680B68BD
:1008B00023F00E030B6001680B6823F001030B604B
:1008C00090F84030C46B012101FA03F3636080F8B3
:1008D000211080F82020104610BD00002DE9F05FA7
:1008E00090F821100024022903D0042181630124FF
:1008F00085E001680A6822F00E020A6001680A6851
:1009000022F001020A603F4E3E4FB215DFF8F4C0FC
:10091000DFF8F090DFF8ECA0DFF8E8B0DFF8E4E013
:100920000168783F13011502ACF1640CA9F150097C
:10093000AAF13C0AABF1280BAEF1140E4FF480186B
:10094000B14227D9B9420ED0614512D049451DD0D8
:10095000514518D0594518D0714501D1424615E08E
:10096000294EB14201D1012210E0274E1436B14286
:1009700001D110220AE0244E2836B14206D0224A84
:100980003C32914201D11A4600E02A461E49091F15
:100990000A602BE0B94213D0614517D0494522D0F7
:1009A00051451DD059451DD0714501D142461AE02F
:1009B000B14202D14FF0807215E0134EB14201D125
:1009C000012210E0104E1436B14201D110220AE08B
:1009D0000D4E2836B14206D00B4A3C32914201D12D
:1009E0001A4600E02A46074980394A60012180F80A
:1009F0002110002180F82010416B01B1884720466A
:100A0000BDE8F09F80000240080402402DE9F05F3D
:100A1000C16B0A6801680B68046C4FF0040808FA9F
:100A200004F8844D844E854FDFF814C2DFF8149229
:100A3000DFF814A2DFF814B2DFF814E218EA020FAC
:100A400065D05FEA437862D50A68920603D40A68E3
:100A500022F004020A60DFF8F0814FF4806201683E
:100A600008F1140813011402414524D9A9420DD0FC
:100A7000B1420FD0B9421AD0614515D0494515D0C1
:100A8000514501D1120312E0594501D104220EE073
:100A9000714501D140220AE06D4D1435A94206D0BE
:100AA0006B4A2832914201D11A4600E0224667493A
:100AB000091F0A6029E0A94213D0B14215D0B942FA
:100AC00020D061451BD049451BD0514502D14FF480
:100AD000800217E0414502D14FF0806212E0594593
:100AE00001D104220EE0714501D140220AE0584DA7
:100AF0001435A94206D0564A2832914201D11A46ED
:100B000000E022464B4908394A60C16A71E04FF063
:100B1000020808FA04F818EA020F70D05FEA837836
:100B20006DD50A68920606D40A6822F00A020A60A5
:100B3000012180F82110DFF810814FF40072016864
:100B400008F1140813011402414524D9A9420DD01B
:100B5000B1420FD0B9421AD0614515D0494515D0E0
:100B6000514501D1120312E0594501D102220EE094
:100B7000714501D120220AE0354D1435A94206D035
:100B8000334A2832914201D11A4600E022462F49C9
:100B9000091F0A6029E0A94213D0B14215D0B94219
:100BA00020D061451BD049451BD0514502D14FF49F
:100BB000001217E0414502D14FF0007212E0594592
:100BC00001D102220EE0714501D120220AE0204D20
:100BD0001435A94206D01E4A2832914201D11A4644
:100BE00000E02246134908394A60002180F82010AD
:100BF000816A00291CD0BDE8F05F0847FFE708259F
:100C0000A540154214D01A0712D50A6822F00E0228
:100C10000A6090F84020C36B012101FA02F25A6089
:100C2000816380F82110002180F82010016BE0E73B
:100C3000BDE8F09F080002401C0002403000024066
:100C400044000240580002406C0002400804024088
:100C50001C04024030B560B11A4B026814219A425C
:100C600009D2194B1344B3FBF1F189000164174910
:100C70000AE0012030BD134B5B421344B3FBF1F19A
:100C8000890001640F490839C163022180F82110ED
:100C9000136843F6F0718B43F0E901142143D0E966
:100CA00002452C432143046921434469214384695B
:100CB00021431943116000214163012242770177EA
:100CC000084630BD08040240F8FFFDBF00000240A6
:100CD00070B5044690F82000002501280CD00120B2
:100CE00084F8200094F821600020012E06D084F8BA
:100CF00020000225284670BD022070BD022684F81F
:100D00002160A0632068066826F001060660204680
:100D1000FFF750FBE06A00282068016802D041F02C
:100D20000E0106E021F0040101602068016841F035
:100D30000A0101602068016841F001010160D9E702
:100D40002DE9F84FDFF8C8910024A9F1040B2346E0
:100D50000F2709F1040AABF1040ED1E00125A540EB
:100D600006EA0502AA4276D1DFF8A8C14E68A6EBD2
:100D70000C0866452BD00DDC032E34D005DC36B3D1
:100D8000012E19D0022E2FD11BE0112E16D0122EBB
:100D90002AD119E0B8F5881F19D006DCB8F5803FD4
:100DA00015D0B8F5801F1FD111E0B8F5001F0ED087
:100DB000B8F5041F18D10AE0CB6815E0CB681B1DFD
:100DC00012E0CB6808330FE0CB680C330CE08B6883
:100DD0002BB1012B4FF0080303D0456104E004233D
:100DE00002E0056100E00023FF2A01D8064601E089
:100DF00000F104064FEA840501D9A5F12005D6F8D3
:100E0000008007FA05FC28EA0C0803FA05F548EA11
:100E10000508C6F800804D68ED0070D53E4DAE69FE
:100E200046F00106AE61AD6924F0030605F0010548
:100E300000953A4D06EB050CDCF80850A607360F76
:100E400007FA06F825EA0805DFF8D480404503D103
:100E50004FF0000825E052E0DFF8C880404502D19D
:100E60004FF001081DE0DFF8C080404502D14FF08F
:100E7000020816E0DFF8B480404502D14FF00308C5
:100E80000FE0DFF8AC80404502D14FF0040808E0E5
:100E9000DFF8A080404502D14FF0050801E04FF097
:100EA000060808FA06F848EA0508CCF808804D68F4
:100EB000D9F80060ED024D4601D5164300E0964397
:100EC0002E604D68DAF80060AD02554601D5164334
:100ED00000E096432E604D68DBF80060AD035D4690
:100EE00001D5164300E096432E604D68DEF80060A1
:100EF000ED03754601D5164300E096432E60641C51
:100F00000A681646E2407FF429AFBDE8F88F00007A
:100F100008040140000011100010024000000140D0
:100F200000080140000C0140001001400014014085
:100F300000180140001C0140014880687047000013
:100F40000C000020024881680278114481607047DB
:100F50000C000020074810B5016841F01001016045
:100F6000032000F075F80F2000F006F800F024F8D8
:100F7000002010BD0020024070B50D4D04464FF416
:100F80007A712878B1FBF0F00A490968B1FBF0F0FA
:100F900000F052FB48B9102C07D200222146501E07
:100FA00000F036F800206C6070BD012070BD0000BC
:100FB0000C000020180000200C4808B5816941F0A1
:100FC00001018161816901F001010091C16941F074
:100FD0008051C161C06900F08050009004484168B0
:100FE00021F0E06141F08061416008BD00100240E5
:100FF00000000140002809DB00F01F0201219140A0
:101000004009800000F1E020C0F8001170470000A6
:10101000F0B40E4B1B680C46C3F30223C3F1070563
:10102000042D00D90425191D072901D2002300E051
:10103000DB1E012606FA05F1491E214099409E401B
:10104000761E16403143F0BC00F0F4BE0CED00E01B
:10105000064900F0070208684FF6FF03184040EA0F
:101060000220034A10430860704700000CED00E0C6
:101070000000FA052DE9F84305460078354CC00715
:1010800054D0E0690026C00008D4E06940F08050E8
:10109000E061E069012600F0805000902E48016870
:1010A000C90512D40168804641F480710160FFF7E0
:1010B00043FF074605E000BFFFF73EFFC01B642863
:1010C00023D8D8F80000C005F6D5206A10F4407087
:1010D00021D0A98801F4407181421CD0206A1F49A7
:1010E000012220F440700A6000220A602062C007DA
:1010F00011D0FFF721FF074641F2883808E000BF12
:10110000FFF71AFFC11B414502D90320BDE8F88350
:10111000206A8007F4D5206A696820F4407008438B
:1011200020621EB1E06920F08050E06128788007DD
:1011300005D56068A96820F44040084360602878BD
:10114000C00605D56068696920F4800008436060C6
:101150000020DBE7001002400070004040044242E3
:101160002DE9F0470F46050061D0434E306800F08E
:101170000700B84209D2306820F0070038433060D9
:10118000306800F00700B84251D128683B4C810715
:1011900012D5400703D5606840F4E06060602878AD
:1011A000000703D5606840F4605060606068A9681B
:1011B00020F0F000084360602878C00728D06868F5
:1011C000012810D02168022810D0890700292EDAC2
:1011D000616821F0030101436160FFF7ADFE8046C5
:1011E00041F288390DE021688903EFE78901EDE7D5
:1011F000FFF7A2FEA0EB0801494502D90320BDE894
:10120000F0876068696800F00C00B0EB810FEFD1E7
:10121000306800F00700B8420BD9306820F00700B2
:1012200038433060306800F00700B84201D0012038
:10123000E5E72878400705D56068E96820F4E060B4
:10124000084360602878000706D56068296920F4A3
:10125000605040EAC100606000F038F86168084AF8
:10126000C1F30311515CC840064908600648006894
:10127000FFF782FE0020C2E700200240001002407B
:1012800046210008180000201000002004480549ED
:1012900000684968044AC1F30221515CC8407047A4
:1012A000180000200010024056210008044805499B
:1012B00000684968044AC1F3C221515CC8407047C4
:1012C0001800002000100240562100080E4A516804
:1012D0000E4801F00C03042B11D0082B0FD10C4841
:1012E000C1F38343C903C05C0AD55168084AC1F3FE
:1012F0004041921E515C054A5043B0FBF1F07047EB
:1013000004494843704700000010024000127A0070
:101310003621000800093D002DE9F84F040070D087
:101320002078C04DC00749D06868C0F3810001280B
:1013300007D06868C0F38100022809D16868C0033B
:1013400006D52868800339D560680028E7D035E0E5
:101350006068B0F5803F0BD010B1B0F5A02F11D070
:10136000286820F480302860286820F4802002E07B
:10137000286840F480302860606890B1FFF7DCFD99
:1013800006460AE0286840F480202860F0E700BFA5
:10139000FFF7D2FD801B642873D828688003F7D537
:1013A0000CE0FFF7C9FD064605E000BFFFF7C4FDEE
:1013B000801B6428F0D828688003F7D420789A4EE0
:1013C00080074FF001094FF0000839D5686810F028
:1013D0000C0F07D06868C0F38100022809D1686843
:1013E000C00306D42868800714D52069012808D1D5
:1013F00010E02069B0B1C6F80090FFF79DFD0746E8
:1014000005E00AE1FFF798FDC01B0228C4D8286850
:101410008007F7D52868616920F0F80040EAC1002C
:1014200028600DE0C6F80080FFF786FD074604E05F
:10143000FFF782FDC01B022823D828688007F7D455
:10144000207800072CD57948A169D9B1C0F800905F
:10145000FFF772FD074604E0FFF76EFDC01B022890
:101460000FD8686A8007F7D571484FF4FA510068C1
:10147000B0FBF1F0009000BF0098411E0091FAD23D
:101480000EE080E0C0F80080FFF756FD074604E05C
:10149000FFF752FDC01B022875D8686A8007F7D491
:1014A0002078400760D5E8690027C00008D4E869C3
:1014B00040F08050E861E869012700F0805000901A
:1014C0005C480168C90513D40168834641F4807102
:1014D0000160FFF731FD824606E000BFFFF72CFDFB
:1014E000A0EB0A0064284ED8DBF80000C005F5D553
:1014F000E06801280AD008B1052813D0286A20F036
:1015000001002862286A20F0040002E0286A40F006
:1015100001002862E06841F2883B98B1FFF70CFDBA
:1015200082460BE0286A40F004002862EEE700BF24
:10153000FFF702FDA0EB0A0159455AD8286A800737
:10154000F6D50CE0FFF7F8FC824605E0FFF7F4FC67
:10155000A0EB0A0159454CD8286A8007F6D41FB180
:10156000E86920F08050E861E06988B36968C1F3F8
:101570008101022944D00228C6F8608004D0FFF718
:10158000DBFC044638E034E0FFF7D6FC074604E015
:10159000FFF7D2FCC01B02282BD828688001F7D4A3
:1015A000206AB0F5803F05D16868A16820F400305A
:1015B00008436860D4E908010843696821F474119C
:1015C00008436860C6F86090FFF7B6FC044606E082
:1015D00025E000BFFFF7B0FC001B022809D82868EF
:1015E0008001F7D51BE000BFFFF7A6FC001B022817
:1015F00002D90320BDE8F88F28688001F4D40EE0FA
:101600000128F7D06868226A00F48031914204D141
:10161000616A00F47010884201D00120EAE70020DE
:10162000E8E700000010024000004242800442420D
:10163000180000200070004010B5401EB0F1807FFF
:1016400001D3012010BD4FF0E02460610F2160172D
:1016500000F0F0FB0020A06107202061002010BDF9
:1016600070477047F8B5016804460868CA684B6956
:1016700010F00F0F4FF0000559D003F0010602F4EF
:101680009077374365D0C10705D0D10503D5616C8C
:1016900041F001016164410705D5D90703D0616CB0
:1016A00041F002016164810705D5D90703D0616C5F
:1016B00041F004016164010707D502F020013143C4
:1016C00003D0616C41F008016164616C00293AD07B
:1016D000800604D5900602D5204600F09BFA2068CB
:1016E0004069616CC0F38010090700D460B32046E4
:1016F00000F069FA20684069400621D5206814305E
:1017000050E8001F21F0400140E80012002AF5D106
:10171000E06BA8B16D494163E06BFFF7DFF800288B
:1017200011D0E06B416B01B0BDE8F0400847830683
:101730000FD593060DD52046BDE8F84000F06ABAF3
:101740002046FFF78EFFF8BD2046FFF78AFF65644D
:10175000F8BD266B2023012E7CD1C6067AD5D6068D
:1017600078D508684868009048694FF0020640063E
:1017700040D5E16B086840680004000CE8D0A28DF9
:101780008242E5D9E085886920282DD020680C3078
:1017900050E8001F21F4807140E80012002AF5D1C2
:1017A0002068143050E8001F21F0010140E80012C9
:1017B000002AF5D12068143050E8001F21F04001C4
:1017C00040E80012002AF5D184F8423025632068F1
:1017D0000C3050E8001F21F0100140E80012002AF0
:1017E000F5D1E06BFFF756F86663A08DE18D401AE6
:1017F00081B22AE0A08DE18D401A81B2E08D0028EF
:10180000A6D00029A4D022680C3252E8000F20F4A0
:10181000907042E80007002FF5D12068143050E89E
:10182000002F22F0010240E80027002FF5D184F8B4
:101830004230256320680C3050E8002F22F010025F
:1018400040E80023002BF5D166632046FFF708FF30
:10185000F8BDFFE705062BD5150629D594F84100FC
:101860002128F5D1A068B0F5805F01D12069B0B121
:10187000206A411C2162216800784860E08C401E8B
:101880000004000CE084E3D12068C16821F08001ED
:10189000C1602068C16841F04001C160D8E7206A9A
:1018A0000088C0F308004860206A801C2062E5E7D9
:1018B0004006CDD55006CBD5CA68204622F040025E
:1018C000CA6084F8413000F0C6F8C1E7B71B0008D1
:1018D00070B5040004D094F84100002510B106E072
:1018E000012070BD84F84050204600F023F82420E9
:1018F00084F841002068C16821F40051C16020468D
:1019000000F0EAF92068016921F490410161206842
:10191000416921F02A0141612068C16841F4005108
:10192000C1606564202084F8410084F8420065634A
:10193000002070BD30B585B000240094019402945D
:1019400003940068184988422BD11848C16941F4B2
:101950000031C161C16901F400310491816941F034
:10196000040181618069124D00F00400049004209C
:101970000090022001900320039069462846FFF75B
:10198000DFF90820CDE90004694628460294FFF7F4
:10199000D7F9002211462620FFF73AFB2620FFF751
:1019A00029FB05B030BD000000440040001002409B
:1019B0000008014070472DE9F843044690F84100C3
:1019C000984616460D46202802D00220BDE8F8832E
:1019D00085B17EB100206064212084F84100FFF7CA
:1019E000ABFAA6848146E684A0682027B0F5805F24
:1019F00002D003E00120E9E7206910B12E4600255E
:101A00000EE000260CE08021204600F0C1F9A8B9C4
:101A1000C6B116F8010B21684860E08C401EE084D6
:101A2000E08C4B464FF00002CDF800800028EAD150
:101A30004FF04001204600F0ABF940B184F841700E
:101A40000320C3E735F8020BC0F30800E3E784F88E
:101A500041700020BAE77047FEE70000FEB50025A0
:101A60001648009501951449029501608915816019
:101A7000012404730575022606614FF46021456058
:101A8000C161FEF7A1FD08B1FEF7AAFCCDE9005443
:101A900069460A480294FEF7A7FC08B1FEF7A0FCCD
:101AA000CDE9004669460548FEF79EFC002801D0B6
:101AB000FEF796FCFEBD000000240140200000203F
:101AC000094808B5416941F00101416140690022BE
:101AD00000F00100009011460B20FFF799FABDE8D5
:101AE00008400B20FFF786BA00100240054808B5F1
:101AF000816941F004018161806900F00400009077
:101B000008BD0000001002400C4810B50A490160F1
:101B10004FF416514160002181600C22C160C0E980
:101B200004128161C161FFF7D3FE002803D0BDE834
:101B30001040FEF755BC10BD00440040940000204A
:101B4000FEE7FEE770477047FFF7FCB930B595B088
:101B500028216846FEF71FFB14210AA8FEF71BFB8D
:101B600018210FA8FEF717FB01200225049000950D
:101B700010200024059007946846FFF7CDFB08B1BC
:101B800072B6FEE70F20CDE90A040C940D940021F3
:101B90000AA80E94FFF7E4FA08B172B6FEE70FA8A0
:101BA0000F951194FFF766FA002801D072B6FEE790
:101BB00015B030BD704710B5406A0021C185C184A1
:101BC000FFF74FFD10BD01680C3151E8002F22F4E2
:101BD000907241E80023002BF5D10168143151E8DF
:101BE000002F22F0010241E80023002BF5D1016B08
:101BF000012909D101680C3151E8002F22F01002AF
:101C000041E80023002BF5D1202180F8421000216B
:101C10000163704708B590F84210222901D00220D4
:101C200008BD82684FF480539A4201D1016921B105
:101C3000816A9A421BD04AB10AE00268816A5268FE
:101C4000C2F308020A80816A891C08E0026972B145
:101C50000268526802F07F020A70816A491C816240
:101C6000C18D491E0904090CC18503D01BE002681F
:101C70005268F1E70168CA6822F02002CA60016870
:101C8000CA6822F48072CA6001684A6922F00102BF
:101C90004A61202180F8421000214163026B012A31
:101CA00003D0FFF787FE002008BD016301680C31F7
:101CB00051E8002F22F0100241E80023002BF5D15B
:101CC00001680A68D20602D50A6849680091818DC8
:101CD000FFF7C6FCE7E7000070B50446006801693D
:101CE000E26821F44051114301612169A068084371
:101CF000616908432168CA6841F20C639A43024350
:101D0000CA6020684169A26921F4407111434161B0
:101D10001E492068884202D1FFF7C8FA01E0FFF7A8
:101D2000B5FA00EBC00101EB00126068642180008D
:101D3000B2FBF0F3B3FBF1F36FF018067343B2FBA1
:101D4000F0F5B2FBF0F605EB8305322303EB051546
:101D5000B5FBF1F5B6FBF1F605F0F00505EB061560
:101D6000B2FBF0F6B2FBF0F0B0FBF1F06FF018024E
:101D7000504306EB800003EB0010B0FBF1F021684C
:101D800000F00F002844886070BD0000003801405A
:101D90002DE9F843984617460D460446089E24E070
:101DA000701C22D0FFF7C8F8A0EB0800B0421AD888
:101DB000CEB12068C168490717D5802D15D0402DB8
:101DC00013D00168C94309070FD401680025406892
:101DD00000902046FFF7F7FE0820606484F840502A
:101DE0000120BDE8F8830320FBE72068006835EA9E
:101DF000000004D00020B842D2D00020F1E701203A
:101E0000F9E700000148FFF72DBC00009400002016
:101E1000FEE700000FB4054B10B503A9044A029871
:101E200000F028F810BC5DF814FB0000A1200008A9
:101E30001C0000200907090E002804DB00F1E02047
:101E400080F80014704700F00F0000F1E02080F8E7
:101E5000141D704702E008C8121F08C1002AFAD1F9
:101E600070477047002001E001C1121F002AFBD11A
:101E7000704700002DE9FF4F8BB09A460F4604468D
:101E8000002606E025280BD052460D999047641C89
:101E9000761C20780028F5D10FB03046BDE8F08FD1
:101EA0000025A94601227D4900E0054314F8013FC1
:101EB000203B02FA03F00842F7D120782E2817D1F0
:101EC00014F8010F45F004052A280ED06FF02F02F8
:101ED0002078A0F1300109290AD809EB890102EB29
:101EE000410100EB0109641CF2E757F8049B641CF4
:101EF00020786C280DD004DC4C2812D06A2811D12F
:101F000004E074280DD07A280CD10AE045F40015BD
:101F100007E0617845F48015814202D1641C05F523
:101F20008015641C207869283ED006DC0028B3D0D8
:101F300063280BD0642804D136E0732810D07528AC
:101F40005CD052460D999047761CA5E017F8040B1B
:101F50008DF8000000208DF80100E846012003E024
:101F600057F8048B4FF0FF3069074FF0000501D49C
:101F70000AE06D1C4D450DDA8542FADB18F80510B4
:101F80000029F6D106E06D1C8542FCDB18F805102F
:101F90000029F8D12E4404E018F8010B52460D999F
:101FA00090476D1EF8D277E000200A90C5F30250EA
:101FB0004FF00A0B02280CD001CFC117021E71F19D
:101FC00000020CDA0023D0EB030063EB01012D22A9
:101FD00008E0FF1D27F00707F7E80201EEE72A05F2
:101FE00004D52B228DF82420012203E0EA070FD02C
:101FF0002022F7E70DF12008089218E000200A904F
:10200000C5F302504FF00A0B022803D001CF002184
:102010000022EFE7FF1D27F00707F7E80201F7E7C7
:102020005A460A9BFEF7C2F8303208F8012D50EAF2
:102030000102F5D1ADEB080000F1200B680701D4D7
:102040004FF00109D94502DDA9EB0B0000E00020AB
:102050008146002506E009A85246405D0D9990474B
:102060006D1C761C08988542F5DB04E03020524652
:102070000D999047761CB9F10001A9F10109F5DC31
:1020800005E018F8010B52460D999047761CBBF1FC
:102090000001ABF1010BF4DC641CFAE60928010035
:1020A00038B504468DF80000142301226946024821
:1020B000FFF781FC204638BD94000020FEF74AFF60
:1020C000FFF744FDFFF712FDFFF7FAFCFFF71CFDD9
:1020D000FFF7C4FC09A0FFF79DFE02220C490D4842
:1020E000FEF752FB0CA0FFF795FE094CA08882B2C8
:1020F000208881B20DA0FFF78DFEF7E75B44656293
:1021000075675D6D61696E3A626567696E0A0000A8
:1021100000000020200000205B44656275675D6D53
:1021200061696E3A736563656E640A00256C6420AC
:10213000256C6400010202030405060708090A0B66
:102140000C0D0E0F10100000000000000000010236
:102150000304060708090000000001020304000050
:10216000802100080000002020000000541E00080C
:10217000A021000820000020C0040000641E000808
:102180000400000005000000000000000100000045
:10219000100000000000000000127A0000000000A3
:0400000508000131BD
:00000001FF
