:020000040800F2
:10000000C01E0020DD010008FB160008D9140008FE
:10001000F9160008990200083B1F000800000000C4
:100020000000000000000000000000004501000882
:100030009B0200080000000089010008151C000850
:10004000F7010008F7010008F7010008F7010008B0
:10005000F7010008F7010008F7010008F7010008A0
:10006000F7010008F7010008F7010008F701000890
:10007000F7010008F7010008F7010008F701000880
:10008000F7010008F7010008F7010008F701000870
:10009000F7010008F7010008F7010008F701000860
:1000A000F7010008A51C0008F7010008F701000887
:1000B000F7010008B11C0008F7010008F70100086B
:1000C000F7010008F7010008F7010008F701000830
:1000D000F7010008F7010008F7010008F701000820
:1000E000F7010008F7010008F7010008F701000810
:1000F000F7010008F7010008F7010008F701000800
:10010000F7010008F7010008F7010008F7010008EF
:10011000F7010008F7010008F7010008F7010008DF
:10012000F7010008F7010008F7010008F7010008CF
:10013000DFF80CD000F09EF800480047CD21000801
:10014000C01E0020224B19680868B0E8F00F80F349
:100150000988BFF36F8F4FF0000080F311884EF0D5
:100160000D0E70470000000006480068006880F32C
:10017000088862B661B6BFF34F8FBFF36F8F00DFA1
:1001800000BF00BF08ED00E0EFF30980BFF36F8F01
:100190000F4B1A6820E9F00F106008B54FF05000BF
:1001A00080F31188BFF34F8FBFF36F8F02F0E2FF30
:1001B0004FF0000080F31188BDE808401968086816
:1001C000B0E8F00F80F30988BFF36F8F704700BF6E
:1001D0003C000020EFF30580704700000648804790
:1001E00006480047FEE7FEE7FEE7FEE7FEE7FEE71C
:1001F000FEE7FEE7FEE7FEE7A31C0008310100086A
:1002000040EA01039B0703D009E008C9121F08C098
:10021000042AFAD203E011F8013B00F8013B521E18
:10022000F9D27047D2B201E000F8012B491EFBD28F
:1002300070470022F6E710B513460A4604461946F1
:10024000FFF7F0FF204610BD30B50B4601460020F9
:100250002022012409E021FA02F59D4205D303FA88
:1002600002F5491B04FA02F52844151EA2F1010209
:10027000F1DC30BD064C074D06E0E06840F00103BC
:1002800094E8070098471034AC42F6D3FFF754FFC8
:100290006C4300088C430008FEE7704702A001F0A1
:1002A0004DFE72B6FEE700006572726F72000000CC
:1002B00070B5044600F010F90546601C02D00448F1
:1002C0000078044400F008F9401BA042FAD370BD46
:1002D0002C0000202DE9F84FDFF8C8910024A9F187
:1002E000040B23460F2709F1040AABF1040ED1E0F9
:1002F0000125A54006EA0502AA4276D1DFF8A8C189
:100300004E68A6EB0C0866452BD00DDC032E34D0CE
:1003100005DC36B3012E19D0022E2FD11BE0112E91
:1003200016D0122E2AD119E0B8F5881F19D006DC94
:10033000B8F5803F15D0B8F5801F1FD111E0B8F592
:10034000001F0ED0B8F5041F18D10AE0CB6815E0E5
:10035000CB681B1D12E0CB6808330FE0CB680C3371
:100360000CE08B682BB1012B4FF0080303D04561E3
:1003700004E0042302E0056100E00023FF2A01D825
:10038000064601E000F104064FEA840501D9A5F113
:100390002005D6F8008007FA05FC28EA0C0803FAC5
:1003A00005F548EA0508C6F800804D68ED0070D5EF
:1003B0003E4DAE6946F00106AE61AD6924F003061C
:1003C00005F0010500953A4D06EB050CDCF80850E8
:1003D000A607360F07FA06F825EA0805DFF8D480E5
:1003E000404503D14FF0000825E052E0DFF8C88017
:1003F000404502D14FF001081DE0DFF8C0804045C4
:1004000002D14FF0020816E0DFF8B480404502D177
:100410004FF003080FE0DFF8AC80404502D14FF009
:10042000040808E0DFF8A080404502D14FF005083D
:1004300001E04FF0060808FA06F848EA0508CCF88B
:1004400008804D68D9F80060ED024D4601D516438D
:1004500000E096432E604D68DAF80060AD02554624
:1004600001D5164300E096432E604D68DBF800602E
:10047000AD035D4601D5164300E096432E604D68FE
:10048000DEF80060ED03754601D5164300E09643A3
:100490002E60641C0A681646E2407FF429AFBDE86E
:1004A000F88F000008040140000011100010024005
:1004B0000000014000080140000C01400010014014
:1004C0000014014000180140001C01400AB1016104
:1004D00070470904FBE7000001488068704700008E
:1004E0002C00002002488168027811448160704726
:1004F0002C000020074810B5016841F01001016090
:10050000032000F0A7F80F2000F006F800F050F8E4
:10051000002010BD0020024030B505461F4887B0BE
:10052000C16941F00201C161C06906A900F0020081
:10053000009001A800F00EFA0498B0B100F02AFA79
:1005400040001749174AB0FBF1F11748491E0260F5
:10055000416040F2E7320021C0E9032181608161FE
:1005600000F068FD040003D015E000F013FAE8E79E
:100570000D4800F0ABFD04000DD11D2000F03CF84B
:10058000102D07D2002229461D2000F043F807480D
:10059000056000E0012407B0204630BD0010024095
:1005A00040420F0000040040A40100203000002061
:1005B0000F4808B5816941F001018161816901F04D
:1005C00001010091C16941F08051C161C0690022FF
:1005D00000F0805000900F21901E00F01BF805489D
:1005E000416821F0E06141F00071416008BD000008
:1005F0000010024000000140002809DB00F01F024B
:10060000012191404009800000F1E020C0F8001174
:1006100070470000F0B40E4B1B680C46C3F3022376
:10062000C3F10705042D00D90425191D072901D29E
:10063000002300E0DB1E012606FA05F1491E2140D9
:1006400099409E40761E16403143F0BC01F086BCB6
:100650000CED00E0064900F0070208684FF6FF03C2
:10066000184040EA0220034A104308607047000027
:100670000CED00E00000FA05014901200862704716
:1006800000000E4210B501460020284C04292FD04E
:100690000BDC012930D0022929D100F08BF96168E7
:1006A000C1F38131491C49001FE0082920D01029DD
:1006B0001DD161682268D20119D51D48C1F383425A
:1006C000C903805C0AD56168194AC1F34041921E92
:1006D000515C184AB2FBF1F1484301E01649484326
:1006E0006168490203D440000321B0FBF1F010BD62
:1006F000BDE8104000F06EB9226AC2F30121012961
:1007000003D1920701D5C80310BD022905D1626A41
:10071000920702D549F6404010BD0329FCD121685B
:100720008903F9D54FF2244010BD000000100240AB
:100730000843000800127A0000093D002DE9F84343
:1007400005460078354CC00754D0E0690026C0004B
:1007500008D4E06940F08050E061E069012600F0D3
:10076000805000902E480168C90512D40168804667
:1007700041F480710160FFF7AFFE074605E000BF5E
:10078000FFF7AAFEC01B642823D8D8F80000C005D4
:10079000F6D5206A10F4407021D0A98801F4407188
:1007A00081421CD0206A1F49012220F440700A6057
:1007B00000220A602062C00711D0FFF78DFE0746B5
:1007C00041F2883808E000BFFFF786FEC11B4145B3
:1007D00002D90320BDE8F883206A8007F4D5206A97
:1007E000696820F44070084320621EB1E06920F07F
:1007F0008050E0612878800705D56068A96820F4FA
:100800004040084360602878C00605D56068696983
:1008100020F48000084360600020DBE70010024005
:1008200000700040400442422DE9F0470F460500A9
:1008300061D0434E306800F00700B84209D23068FA
:1008400020F0070038433060306800F00700B842FD
:1008500051D128683B4C810712D5400703D5606809
:1008600040F4E06060602878000703D5606840F4D9
:10087000605060606068A96820F0F0000843606024
:100880002878C00728D06868012810D0216802287D
:1008900010D0890700292EDA616821F00301014395
:1008A0006160FFF719FE804641F288390DE021684A
:1008B0008903EFE78901EDE7FFF70EFEA0EB0801E2
:1008C000494502D90320BDE8F0876068696800F0F7
:1008D0000C00B0EB810FEFD1306800F00700B84298
:1008E0000BD9306820F0070038433060306800F0E2
:1008F0000700B84201D00120E5E72878400705D578
:100900006068E96820F4E0600843606028780007C8
:1009100006D56068296920F4605040EAC100606033
:1009200000F058F86168084AC1F30311515CC840EF
:100930000649086006480068FFF7EEFD0020C2E7A0
:100940000020024000100240184300083800002038
:10095000300000200F2202600C4A536803F00303AA
:100960004360536803F0F0038360536803F4E0636B
:10097000C36052684FF4E06303EAD20202610448A4
:10098000006800F007000860704700000010024097
:10099000002002400448054900684968044AC1F340
:1009A0000221515CC840704738000020001002400E
:1009B000284300080448054900684968044AC1F30F
:1009C000C221515CC840704738000020001002402E
:1009D000284300080E4A51680E4801F00C03042B0E
:1009E00011D0082B0FD10C48C1F38343C903C05C5D
:1009F0000AD55168084AC1F34041921E515C054A2C
:100A00005043B0FBF1F07047044948437047000081
:100A10000010024000127A00F642000800093D0072
:100A20002DE9F84F040070D02078C04DC00749D0A0
:100A30006868C0F38100012807D06868C0F38100AE
:100A4000022809D16868C00306D52868800339D513
:100A500060680028E7D035E06068B0F5803F0BD0D3
:100A600010B1B0F5A02F11D0286820F48030286094
:100A7000286820F4802002E0286840F48030286054
:100A8000606890B1FFF728FD06460AE0286840F448
:100A900080202860F0E700BFFFF71EFD801B642860
:100AA00073D828688003F7D50CE0FFF715FD0646DC
:100AB00005E000BFFFF710FD801B6428F0D8286810
:100AC0008003F7D420789A4E80074FF001094FF049
:100AD000000839D5686810F00C0F07D06868C0F3BB
:100AE0008100022809D16868C00306D428688007FD
:100AF00014D52069012808D110E02069B0B1C6F8EA
:100B00000090FFF7E9FC074605E00AE1FFF7E4FC87
:100B1000C01B0228C4D828688007F7D528686169F7
:100B200020F0F80040EAC10028600DE0C6F800801F
:100B3000FFF7D2FC074604E0FFF7CEFCC01B0228FB
:100B400023D828688007F7D4207800072CD5794867
:100B5000A169D9B1C0F80090FFF7BEFC074604E0D8
:100B6000FFF7BAFCC01B02280FD8686A8007F7D5C8
:100B700071484FF4FA510068B0FBF1F0009000BFEB
:100B80000098411E0091FAD20EE080E0C0F800808B
:100B9000FFF7A2FC074604E0FFF79EFCC01B0228FB
:100BA00075D8686A8007F7D42078400760D5E8696F
:100BB0000027C00008D4E86940F08050E861E86987
:100BC000012700F0805000905C480168C90513D4EB
:100BD0000168834641F480710160FFF77DFC824625
:100BE00006E000BFFFF778FCA0EB0A0064284ED8AF
:100BF000DBF80000C005F5D5E06801280AD008B18F
:100C0000052813D0286A20F001002862286A20F005
:100C1000040002E0286A40F001002862E06841F226
:100C2000883B98B1FFF758FC82460BE0286A40F0F9
:100C300004002862EEE700BFFFF74EFCA0EB0A01BC
:100C400059455AD8286A8007F6D50CE0FFF744FCCE
:100C5000824605E0FFF740FCA0EB0A0159454CD85D
:100C6000286A8007F6D41FB1E86920F08050E86157
:100C7000E06988B36968C1F38101022944D0022880
:100C8000C6F8608004D0FFF727FC044638E034E063
:100C9000FFF722FC074604E0FFF71EFCC01B0228FA
:100CA0002BD828688001F7D4206AB0F5803F05D1A1
:100CB0006868A16820F4003008436860D4E908013E
:100CC0000843696821F4741108436860C6F86090AD
:100CD000FFF702FC044606E025E000BFFFF7FCFB3F
:100CE000001B022809D828688001F7D51BE000BF47
:100CF000FFF7F2FB001B022802D90320BDE8F88FA2
:100D000028688001F4D40EE00128F7D06868226AD0
:100D100000F48031914204D1616A00F4701088427D
:100D200001D00120EAE70020E8E7000000100240BF
:100D3000000042428004424238000020007000401F
:100D400070B5040003D0607C002610B105E00120DE
:100D500070BD2674204600F03DF8022060742046E5
:100D600000F00AF9042550BB204600F047FE30BBD6
:100D70002068416821F007014160A06820B1144853
:100D8000016821F0010101601148001F0168A2689B
:100D900021F46071114301606068411C04D101209D
:100DA000FFF770FC58B1401E2268C0F30341916008
:100DB000216880B2C860204600F03AFE08B1657430
:100DC000C5E7E67301206073A0736074002070BDF6
:100DD000306C004008B50068084988420DD1FFF723
:100DE0004BFC0748C16941F00061C161C069054918
:100DF00000F0006000900120086008BD002800405D
:100E0000001002403C0442422DE9F0410D4604002E
:100E10003BD0C5B3207C01283AD04FF0010884F8BC
:100E2000108002206074E87872B300F0DEFDE07399
:100E3000687800F0DAFD6073A87800F0D6FDA07342
:100E4000C2B2617BE07B00F025FE20732870204653
:100E500000F010FE4FF46161B0FBF1F1002518299C
:100E60002DD91822B1FBF2F1A1EB011101EB4101E7
:100E7000C1EB011100EBC1163146204600F049FEDE
:100E80000427C8B90BE000E004E00120BDE8F081D0
:100E90000220FBE7E07368786073A878CFE720460C
:100EA00000F0E1FD411C0AD0B04208D206490144DD
:100EB000204600F01AFE10B167742574E5E784F847
:100EC000118025740020E1E7805101002DE9F041F7
:100ED0000D46040024D01DB3207C012823D04FF000
:100EE000010884F81080022060742878EAB100F0CC
:100EF0007CFD4FF4616100FB01F6687800F075FD40
:100F0000C0EB001006EB8006A87800F06EFD3518E7
:100F10002946204600F0FDFD0026042710BB0FE007
:100F20000120BDE8F0810220FBE74FF461614843F6
:100F30006978C1EB011100EB8100A9784518E7E75A
:100F40002068416821F005014160204600F08BFDDA
:100F5000411C0AD0A84208D206490144204600F0AC
:100F6000C4FD10B167742674DAE784F81180267422
:100F70000020D6E78051010070B504000AD0206837
:100F8000416821F008014160FFF7A6FA05464FF4D9
:100F90007A7608E0012070BDFFF79EFA401BB04250
:100FA00001D9032070BD206840680007F4D50020F7
:100FB00070BD70477047000070B590F83C20012A62
:100FC0002CD0012480F83C40022280F83D200368A8
:100FD0005A689D6822F070060A6832435A60104BC6
:100FE00002689A420ED00F4B9A420BD0B2F1804F5A
:100FF00008D00D4B9A4205D00C4B9A4202D00C4BB4
:101000009A4204D1496825F080031943916080F821
:101010003D40002180F83C10084670BD022070BDA4
:10102000002C014000340140000400400008004052
:10103000000C004010B5040003D094F83D0010B13E
:1010400007E0012010BD002084F83C00204600F09D
:101050001FF8022084F83D00211D206800F02EFEBC
:10106000012084F8460084F83E0084F83F0084F8AC
:10107000400084F8410084F8420084F8430084F87A
:10108000440084F8450084F83D00002010BD0000B5
:1010900008B500680B49884212D10B48816941F4B8
:1010A000006181618069002200F4006000900521E8
:1010B0001920FFF7AFFABDE808401920FFF79CBAE6
:1010C00008BD0000002C01400010024090F83D10C7
:1010D000012901D001207047022180F83D100168EC
:1010E000CA6842F00102CA6000680E4988420ED008
:1010F0000D4988420BD0B0F1804F08D00B4988428F
:1011000005D00B49884202D00A49884204D181683F
:1011100001F00701062903D0016841F001010160D7
:1011200000207047002C01400034014000040040C2
:1011300000080040000C004070B5044690F83C00E8
:101140000025012817D0012684F83C60022084F88D
:101150003D002068826822F0770222F47F4282609C
:101160000868502838D00DDC20284FD005DC90B31B
:10117000102811D14AE0022070BD302846D0402806
:101180000AD13BE060282FD070280DD0B0F5805FE9
:1011900003D0B0F5005F12D0012584F83D60002037
:1011A00084F83C00284670BDCB68D1E90121206855
:1011B00000F0D2FD2068816841F0770109E0CB683A
:1011C000D1E90121206800F0C7FD2068816841F461
:1011D00080418160E1E719E0CA684968206800F051
:1011E000CDFD5021206806E0CA684968206800F0FB
:1011F000D6FD6021206800F0B9FDCEE7CA684968D5
:10120000206800F0BBFD40212068F4E72268014619
:101210001046F0E770472DE9F04104460068C668C3
:1012200005694FF00007A90713D5B10711D5F91EBD
:10123000016101202077206880698007204602D064
:10124000FFF7E8FF04E000F07EF8204600F07CF8AD
:101250002777680716D5700714D521686FF004004A
:101260000861022020772068806910F4407F2046C2
:1012700002D0FFF7CFFF04E000F065F8204600F051
:1012800063F82777280715D5300713D521686FF045
:1012900008000861042020772068C0698007204684
:1012A00002D0FFF7B7FF04E000F04DF8204600F051
:1012B0004BF82777E80616D5F00614D521686FF0AD
:1012C00010000861082020772068C06910F4407F72
:1012D000204602D0FFF79EFF04E000F034F82046DD
:1012E00000F032F82777E80708D0F00706D0216829
:1012F0006FF001000861204600F028F8280608D5A4
:10130000300606D521686FF0800008612046FFF79F
:1013100050FE680608D5700606D521686FF04000BB
:101320000861204600F01CF8A8060AD5B00608D5CA
:1013300021686FF0200008612046BDE8F041FFF70A
:1013400039BEBDE8F081704770470000006803496E
:10135000884201D1FFF7C6B8704700000004004082
:10136000704770B5040004D094F84100002510B116
:1013700006E0012070BD84F84050204600F024F8BB
:10138000242084F841002068C16821F40051C16024
:10139000204600F03DFD2068016921F49041016183
:1013A0002068416921F02A0141612068C16841F447
:1013B0000051C1606564202084F8410084F8420037
:1013C0006563002070BD000030B585B00024009436
:1013D00001940294039400681449884223D114486C
:1013E000C16941F40031C161C16901F40031049166
:1013F000816941F00401816180690E4D00F00400B3
:10140000049004200090022001900320039069467C
:101410002846FEF75FFF0820CDE90004694628460C
:101420000294FEF757FF05B030BD000000440040B5
:1014300000100240000801402DE9F843044690F8EE
:101440004100984616460D46202802D00220BDE8ED
:10145000F88385B17EB100206064212084F84100CA
:10146000FFF73AF8A6848146E684A0682027B0F505
:10147000805F02D003E00120E9E7206910B12E4629
:1014800000250EE000260CE08021204600F01CFD27
:10149000A8B9C6B116F8010B21684860E08C401E5F
:1014A000E084E08C4B464FF00002CDF8008000282D
:1014B000EAD14FF04001204600F006FD40B184F82B
:1014C00041700320C3E735F8020BC0F30800E3E7DF
:1014D00084F841700020BAE7FEE7000010B5012152
:1014E000114A084600F002FF104C0F4A002120610B
:1014F000903A0F4800F03EFF0B4A20606C3A002102
:101500000C4800F037FF084A6060483A00210A485A
:1015100000F030FF044AA060243A0021074800F0A0
:1015200029FFE06010BD0000DC4200081800002028
:101530008D1B0008951B0008E51B00080D1C00080A
:1015400070B586B000242548009401940294039459
:10155000816941F010018161816901F010010491FC
:10156000816941F020018161816901F020010491CC
:10157000816941F004018161816901F004010491F4
:10158000816941F0080181618069154E00F0080011
:10159000049001224FF460613046FEF797FF00226D
:1015A000B1153046FEF792FF4FF44060009001AA5B
:1015B0001120022582E8310069463046FEF78AFE96
:1015C0004FF44070009001AA012082E83100694682
:1015D0003046FEF77FFE06B070BD000000100240EE
:1015E000000C01401CB500241848019416490094D1
:1015F0000160611E41604FF480718160FFF7A0FBC4
:1016000008B1FEF74BFE8DF804408DF805408DF8CB
:101610000640002201A90D48FFF758FC08B1FEF76B
:101620003DFE01208DF800008DF801008DF80200CC
:101630008DF80340002269460448FFF7E5FB0028C7
:1016400001D0FEF72BFE1CBD002800400001002049
:1016500010B586B0002419480094019402940394B4
:1016600004941549059401604821C0E9011442F22F
:101670001071C0E903148021C0E90541FFF7DAFCCD
:1016800008B1FEF70BFE4FF48050009069460B48FE
:10169000FFF752FD08B1FEF701FE049404A90748C4
:1016A0000594FFF789FC08B1FEF7F8FD0348FFF742
:1016B0000DFD06B010BD0000002C014014010020FB
:1016C0000C4810B50A4901604FF4165141600021E1
:1016D00081600C22C160C0E904128161C161FFF721
:1016E00040FE002803D0BDE81040FEF7D7BD10BD76
:1016F000004400405C010020FEE7FEE770B50024D6
:101700000021204600F0F6F80025002000F05CF9EA
:101710006D1CEDB2802DF8D3641CE4B2082CEFD31D
:1017200070BD000010B5FFF70BFF0B4C01225102FA
:101730002046FEF7CBFE0022A1152046FEF7C6FE8E
:10174000012291022046FEF7C1FE20460122BDE89B
:101750001040D102FEF7BABE000C01402DE9F0475F
:10176000164E002407464FF080084FF400693515E7
:1017700028FA04F0384201D0012200E00022494654
:101780003046FEF7A3FE012229463046FEF79EFEB4
:10179000002229463046FEF799FE641CE4B2082C6C
:1017A000E6D3012229463046FEF790FE2946304610
:1017B000BDE8F0470022FEF789BE0000000C0140A2
:1017C00070B501220B4DD40221462846FEF77EFE5D
:1017D0000122960231462846FEF778FE0022214675
:1017E0002846FEF773FE31462846BDE870400022C9
:1017F000FEF76CBE000C014070B50A4D4FF400645A
:10180000002221462846FEF761FE01229102284669
:10181000FEF75CFE21462846BDE870400122FEF737
:1018200055BE0000000C014010B500204FF47A7244
:101830000021491C9142FCD3401C9042F8D3FFF791
:1018400071FFAE2000F0AFF8D52000F0ACF880209A
:1018500000F0A9F8A82000F0A6F83F2000F0A3F8B7
:10186000FFF7AEFF7820FFF779FF0020FFF776FF44
:101870002020FFF773FF0020FFF770FFFFF7BCFF8A
:10188000D32000F090F8002000F08DF8402000F008
:101890008AF8A12000F087F8C82000F084F8DA2048
:1018A00000F081F8122000F07EF8812000F07BF833
:1018B000CF2000F078F8D92000F075F8F12000F082
:1018C00072F8DB2000F06FF8302000F06CF8A420F4
:1018D00000F069F8A62000F066F88D2000F063F8AB
:1018E000142000F060F8AF2000F05DF8BDE8104073
:1018F000FFF704BF10B50C4640F0B00000F053F8FD
:10190000102040EA141000F04EF804F00F00BDE87B
:10191000104000F048B800002DE9F0410746CE0025
:101920004000083E801E15464FF0FF38F1B2C0B2AD
:10193000FFF7E0FF1148002400EB05152819A0F57A
:10194000805090F8000E00F03FF8641CE4B2082CC0
:10195000F4D308EB4700F1B2C0B2FFF7CBFF00248D
:101960002819A0F5805090F8080E00F02DF8641C9E
:10197000E4B2082CF4D3BDE8F08100005C3C000820
:101980002DE9F04115460E460746002406E03019C1
:10199000C1B23846FFF7C0FF641CE4B22A5D002ADA
:1019A000F5D1BDE8F08110B50446FFF709FF7820B6
:1019B000FFF7D4FE0020FFF7D1FE2046FFF7CEFE52
:1019C000BDE81040FFF718BF10B50446FFF7F8FE5A
:1019D0007820FFF7C3FE4020FFF7C0FE2046FFF748
:1019E000BDFEBDE81040FFF707BF010901EB810113
:1019F00000F00F0000EB4100C0B2704770B5044624
:101A0000FEF76AFD05464FF47A7606E0FEF764FDC0
:101A1000401BB04201D9032070BD20684068800699
:101A2000F4D52068416841F010014160002070BD8C
:101A300070B504460068416821F010014160FEF76E
:101A40004BFD05464FF47A7607E000BFFEF744FDF4
:101A5000401BB04201D9032070BD20684068800659
:101A6000F4D5002070BD0168086A496A89B241EA6C
:101A700000407047006881698AB2C1698BB2816990
:101A800089B28A4203D0C06961F31F40704743EABC
:101A900002407047F0B56424C1EBC1030927A500DB
:101AA000072603EB01130329B3FBF7F100F5FA60F6
:101AB000114401440AD2401EB0FBF4F201EB900144
:101AC000B0FBF5F0891A0844001D08E0B0FBF4F201
:101AD00001EB9001B0FBF5F0891A0844801CB0FBC3
:101AE000F6F106FB1100C0B2F0BD70B50D4606461A
:101AF0000024FFF783FF48B93168280C0862316879
:101B0000A8B248623046FFF793FF00B10124204697
:101B100070BD70B50D4606460024FFF76FFF48B94B
:101B20003168280C88613168A8B2C8613046FFF777
:101B30007FFF00B10124204670BD00001CB5114894
:101B400000220178A1F26C718DF8031081788DF874
:101B5000011001798DF8021081798DF80010017A59
:101B60008DF80410817A8DF80510007B8DF8060041
:101B700069460548FFF748F9002201A90248FFF726
:101B8000A5F91CBD08000020000100200A2000F07B
:101B90006DFBFBE708B50C4C0C4E4FF0FF374FF0D8
:101BA00080553A466946206901F044FD08A000F0DE
:101BB000C5F99DF800100AA000F0C0F93560BFF328
:101BC0004F8FBFF36F8FECE71800002004ED00E0AB
:101BD00074686973206973207461736B320A000042
:101BE00025640A0008B50120074D8DF80000841E09
:101BF000002322466946286901F004FC9DF8000094
:101C0000401C8DF80000F3E7180000200A2000F0C7
:101C10002DFBFBE710B54FF0E020006901F054FE0A
:101C2000012803D0BDE8104001F034BB10BD70B5F1
:101C300096B028216846FEF7FCFA14210AA8FEF7A0
:101C4000F8FA18210FA8FEF7F4FA01240520002560
:101C50000090CDE902544FF48030019002260494A4
:101C6000CDE907604FF4E01009906846FEF7D8FE12
:101C700098B90F20CDE90A06A002CDE90C50022147
:101C80000AA80E95FEF7D0FD38B92002CDE90F4025
:101C90000FA8FEF753FD002801D0FEF7FFFA16B09B
:101CA00070BD70470148FFF7B6BA0000140100206C
:101CB0000148FFF7B0BA0000A4010020F0B50268A7
:101CC000204C214D214E224F224B4FF0804CA04200
:101CD00009D0984207D0604505D0A84203D0B04251
:101CE00001D0B84204D122F0700E4A6842EA0E02D6
:101CF000A04209D0984207D0604505D0A84203D041
:101D0000B04201D0B84203D122F44075CA682A43D8
:101D10004D6922F080022A4302608A68C2620A6822
:101D20008262A04201D0984201D109690163012178
:101D300041610169C90703D0016921F00101016115
:101D4000F0BD0000002C01400004004000080040ED
:101D5000000C00400034014010B5846842EA0322C0
:101D600024F47F440A432243826010BD826822F03B
:101D700070020A4342F007018160704710B5036AA0
:101D8000046A24F001040462846924F0F00444EA43
:101D9000021423F00A020A438461026210BD10B5E6
:101DA000036A046A24F010040462846923F0A00327
:101DB00024F4704444EA023243EA01118261016270
:101DC00010BD01680C3151E8002F22F4907241E8F7
:101DD0000023002BF5D10168143151E8002F22F0C7
:101DE000010241E80023002BF5D1016B012909D143
:101DF00001680C3151E8002F22F0100241E8002365
:101E0000002BF5D1202180F842100021016370479A
:101E100070B5044600680169E26821F4405111433D
:101E200001612169A0680843616908432168CA68A3
:101E300041F20C639A430243CA6020684169A26977
:101E400021F44071114341611E492068884202D14A
:101E5000FEF7B0FD01E0FEF79DFD00EBC00101EBD8
:101E60000012606864218000B2FBF0F3B3FBF1F371
:101E70006FF018067343B2FBF0F5B2FBF0F605EB1A
:101E80008305322303EB0515B5FBF1F5B6FBF1F63F
:101E900005F0F00505EB0615B2FBF0F6B2FBF0F02D
:101EA000B0FBF1F06FF01802504306EB800003EB3B
:101EB0000010B0FBF1F0216800F00F0028448860AA
:101EC00070BD0000003801402DE9F84398461746E0
:101ED0000D460446089E24E0701C22D0FEF7FCFA52
:101EE000A0EB0800B0421AD8CEB12068C1684907FB
:101EF00017D5802D15D0402D13D00168C94309078F
:101F00000FD401680025406800902046FFF759FF74
:101F10000820606484F840500120BDE8F883032065
:101F2000FBE72068006835EA000004D00020B842D2
:101F3000D2D00020F1E70120F9E7FEE70FB4054B0E
:101F400010B503A9044A029800F028F810BC5DF807
:101F500014FB0000F1200008BC0000200907090E56
:101F6000002804DB00F1E02080F80014704700F046
:101F70000F0000F1E02080F8141D704702E008C84F
:101F8000121F08C1002AFAD170477047002001E0F3
:101F900001C1121F002AFBD1704700002DE9FF4F3D
:101FA00089B09B460446002506E025280BD05A46FA
:101FB0000B999047641C6D1C20780028F5D10DB05A
:101FC0002846BDE8F08F0027B8460122474900E0C7
:101FD000074314F8013F203B02FA03F00842F7D10F
:101FE00020782E2819D114F8010F47F004072A2869
:101FF0000ED06FF02F022078A0F1300109290CD803
:1020000008EB880102EB410100EB0108641CF2E7D8
:102010000A98641C50F8048B0A9020780028CED0CF
:10202000642808D0692806D075281ED05A460B9916
:1020300090476D1C58E00A994FF00A0901C90A91AE
:10204000002802DA40422D2102E0390504D52B2177
:102050008DF82010012103E0F90704D02021F7E7D3
:102060008A4608AE0DE00021FAE70A994FF00A0906
:1020700001C90A91F7E74946FEF7E6F8303106F85C
:10208000011D0028F7D1ADEB060000F1200978070B
:1020900001D44FF00108C84502DDA8EB090000E0BB
:1020A00000208046002706E008A85A46C05D0B992C
:1020B00090476D1C7F1C5745F6DB04E030205A46E4
:1020C0000B9990476D1CB8F10001A8F10108F5DCEF
:1020D00005E016F8010B5A460B9990476D1CB9F1B3
:1020E0000001A9F10109F4DC641C65E7092801007D
:1020F0002DE9F843C7B206468DF80070002301228F
:1021000069462F48FFF798F92E4D2F4C4FF00008E5
:102110000A2E16D020793A46401E00F0030005EB47
:1021200000112068014401F8017CC1B20420FFF7CE
:10213000F3FB20680F2809D2401C2060012818D02A
:1021400034E02068012837D00F202060FFF7D6FA4E
:1021500060684146401CC4E90080401E00F0030056
:102160000A4605EB00104254491C0F29FBD90120F7
:1021700020602079012100F0030005EB00120846E1
:10218000FFF7FEFB20790121401C00F0030005EB66
:1021900000120220FFF7F4FB20790121801C00F0DF
:1021A000030005EB00120320FFF7EAFB3220FEF7E5
:1021B0007FF83046BDE8F8834046C4F80080BBE7AE
:1021C0005C010020C000002000000020FEF792F912
:1021D000FFF72DFDFFF7B4F9FFF704FAFFF770FAE8
:1021E000FFF736FAFFF720FBFEF776F901460BA062
:1021F000FFF7A4FE0FA0FFF7A1FE00F047F8FFF7DE
:102200006DF900F057F8FEF767F901460FA0FFF7E8
:1022100095FEFFF793FCFFF771FAFEE75B446562FA
:1022200075675D6D61696E3A626567696E202564E8
:102230000A0000005B44656275675D6D61696E3A16
:10224000656E7465722052544F530A005B44656298
:1022500075675D6D61696E3A656E74657220776849
:10226000696C65202564200A0000000010B5014655
:10227000EFF3058010B16FF0050404E0002411B104
:10228000084600F0B9FE204610BD0000EFF30580BF
:10229000002802D06FF0050070470548016811B1B1
:1022A0004FF0FF30704701210160002070470000AF
:1022B0008C00002010B5EFF30580002802D06FF0ED
:1022C000050010BD07480168012902D04FF0FF301A
:1022D00010BD054A002111700221016000F0FAFED4
:1022E000002010BD8C0000201FED00E0F8B58446F2
:1022F00014464FF00005EFF30580002838D1BCF1FB
:10230000000F35D0002933D0421EB4B1A06858B1B7
:10231000E368502B08D3236933B163690CFB01F6E2
:10232000B34201D3012209E040B9E06830B9206925
:1023300020B9606910B9002200E00022012A01D012
:102340004AB10DE0002000906046A368226900F0C9
:10235000D9FF054604E00022604600F0B1FF0546C3
:1023600035B10CB1216800E00021284600F00AFEDA
:102370002846F8BD2DE9F04385B00B464FF0000725
:102380000497EFF3058100294ED100284CD080241A
:102390004FF0180C8946491E52B3166806B1B14673
:1023A000956905B1AC46ACF10105382D03D215791C
:1023B00015F0010F03D005B00020BDE8F08355698A
:1023C00005B1AC08D2F80880B8F1000F07D0D66884
:1023D0005C2E04D3166916B10DB1012109E0B8F1E4
:1023E000000F06D1D56825B9156915B9002100E09F
:1023F0000021012901D061B116E0916812690192B2
:102400000291CDF800C02246494601F02DFA049011
:102410000AE004A90191A2B2CDF800C0494601F03A
:10242000EDF9012800D00497049805B0BDE8F083C9
:102430002DE9F04104460F46134EF5683068001D43
:1024400000F09CFCB4F1FF3F07D137B13068BDE824
:10245000F041011D0D4800F0E4BC2C44306844609C
:10246000AC4206D23068011DB06BBDE8F04100F00F
:10247000BDBC3068011D706B00F0B8FCB06A8442CE
:1024800000D2B462BDE8F0813C000020DC060020F0
:1024900070B5044600F0D2FC1C4DA868401CA86032
:1024A000286810B1686938B10CE02C60A868012870
:1024B00008D100F093F905E02868E16AC06A884213
:1024C00000D82C60686A401C68626064E06A296910
:1024D000884200D928610E4900EB800001EB8000A2
:1024E000211D00F09EFC00F0C9FC686900280CD09A
:1024F0002868E16AC06A884207D206494FF08050D6
:102500000860BFF34F8FBFF36F8F70BD3C0000209A
:102510002C02002004ED00E038B500F08FFC0F4CD9
:102520002068B8B90E4800F053FC0E4800F050FC8B
:102530000B48E0601430206100200B4B009003F149
:10254000500210210A2000F0DDFE206010B107A12A
:1025500000F018FDBDE8384000F090BC7800002085
:10256000E0070020F4070020F0060020546D7251AF
:102570000000000070B50D4C6068002815D00C4EAE
:1025800000F05CFCF068C568281D00F0F7FBA0684F
:10259000401EA0606068401E606000F06FFC28462E
:1025A00000F051F860680028EAD170BD3C000020BE
:1025B000C80600200B46026C002A0CD0C1681144EA
:1025C000C160D0F808C0614501D30168C160C1682D
:1025D0001846FDF715BE70472DE9F0410446164632
:1025E0000027A56B226C002A10D0C6B1E068FDF769
:1025F00007FEE168206C091AE1602268914202D26C
:10260000A168081AE060022E16D017E02068A8B969
:10261000A06801F0D3F907460020A0600EE06068D2
:10262000FDF7EEFD216C606808446060A168884297
:1026300004D32068606001E005B16D1E681CA063D2
:102640003846BDE8F08110B5044694F859100029C9
:102650000BD0012911D0022914D0502080F3118809
:10266000BFF34F8FBFF36F8FFEE7206B00F01CFCB2
:102670002046BDE8104000F017BC2046BDE81040E1
:1026800000F012BC10BD00000749CA68116800299B
:1026900004D00021016019B1002070470121F9E741
:1026A000D068006870470000780000204FF4406157
:1026B000104810F0070F06D0C01D20F007000D498C
:1026C000411AC1F540610C4A106000235360014477
:1026D000083921F00701183A11604B600B600B1AA2
:1026E000436001604068906050604FF0004050616E
:1026F00070470000C00E0020A8000020074E4FF0D9
:102700008054074DFFF736FF30680128FAD92C6056
:10271000BFF34F8FBFF36F8FF4E700002C02002050
:1027200004ED00E070B51D46049C002909D022602C
:10273000E06321640121204600F01CFE84F84C5027
:1027400070BD2460F4E72DE9F05F82460B9F0A9D7F
:102750000C9C0E4690469B464FEA8801A522206BB2
:10276000FDF760FD206BA8F1010100EB810020F076
:1027700007094FF0000866B100202218315C82F88A
:102780003410315C11B1401C1028F6D384F843801A
:1027900001E084F83480382D00D33725E562E56404
:1027A000C4F85080201D00F01EFB04F1180000F05A
:1027B0001AFB2461C5F13800A0616462C4F854803A
:1027C00084F858805A465146484600F0C5FA2060C1
:1027D000002F00D03C60BDE8F09F000070B50024E1
:1027E0000F4D04EB840005EB800000F0F1FA641C4F
:1027F000382CF6D30B4800F0EBFA0B4800F0E8FA5F
:102800000A4800F0E5FA0A4800F0E2FA094800F048
:10281000DFFA0948034941631431816370BD000048
:102820002C0200208C060020A0060020B406002008
:10283000C8060020DC0600203C00002010B414492B
:1028400000E011460A688242FBD34B6803EB010C9F
:10285000844503D140681844486008460C68D0F8A5
:1028600004C00CEB0003A3420CD10A4B1B689A4234
:1028700006D05268624442600A681268026002E050
:10288000036000E00260814200D0086010BC704725
:10289000A80000209000002010B5002441600061D5
:1028A000DFF838C091420BD8D11A8269914201D326
:1028B000012410E0011DDCF8100000F097FA0AE096
:1028C0009A4203D2994201D3012404E0011DDCF8AD
:1028D0000C0000F08BFA204610BD000078000020AC
:1028E00010B5044600F0AAFAA06B20B1002400F055
:1028F000C5FA204610BD0124F9E710B5044600F0E2
:102900009DFAA06BE16B884201D1012400E0002414
:1029100000F0B4FA204610BDF8B505460E4617483B
:10292000C068C068C468201D00F028FA94F8280028
:1029300010F0040F18D0A0692B46411932462046EA
:10294000FFF7AAFFA0B100200346014600902A46E7
:10295000204601F049F958B9502080F31188BFF39F
:102960004F8FBFF36F8FFEE720F0010084F828003F
:10297000216A01B02046BDE8F040084778000020F9
:1029800030B587B0414D002202A9286800F052FE00
:10299000002875D00298002803DA039A0599049854
:1029A00090470298002864DB049C606910B1201DE8
:1029B00000F0E4F901A800F0B3F8024602980A28F2
:1029C00057D2DFE800F00505052F364D05052F36F7
:1029D00094F8280040F0010084F828000398A169C9
:1029E000034601442046FFF757FF002841D0216AE3
:1029F0002046884794F8280010F0040F39D00020B2
:102A000000900398A169002342181946204601F05E
:102A1000EBF870BB502080F31188BFF34F8FBFF3EA
:102A20006F8FFEE794F8280020F0010084F828005A
:102A30001FE094F8280040F0010084F82800039873
:102A4000A06128B1811813462046FFF725FF10E04A
:102A5000502080F31188BFF34F8FBFF36F8FFEE7D5
:102A600094F8280010F0020F0CD020F0010084F838
:102A70002800002202A9286800F0DCFD002889D186
:102A800007B030BD204600F00FFAF2E778000020D2
:102A9000F8B505460C4600F065FB684600F040F8C6
:102AA0000646009810B101F005F8F8BD44B9B542EA
:102AB00006D800F0FFFF31462846FFF72DFFF8BD8E
:102AC0000C481CB10169096891B10024A91B224678
:102AD000006800F06BFA00F0EDFF0028EFD1064926
:102AE0004FF080500860BFF34F8FBFF36F8FF8BD7A
:102AF0000124EBE77800002004ED00E00749486B73
:102B00000068002805D0486BC068C06840688862CB
:102B100070474FF0FF308862704700003C00002093
:102B200070B5044600F0DEFE0546074EB0688542EB
:102B300004D200F00BF80120206001E000202060AA
:102B4000B560284670BD000078000020F8B51C4E26
:102B5000F0680068002826D00027F068C068056883
:102B6000C468201D00F00AF9216A2046884794F8BD
:102B7000280010F0040F12D0A0692844A84206D9FA
:102B800060602461211DF06800F030F907E0002347
:102B90002A4619462046009701F026F840B1F06811
:102BA00000680028D9D1F0683169F1603061F8BD62
:102BB000502080F31188BFF34F8FBFF36F8FFEE774
:102BC000780000200A484068B0F1FF3F07D050204D
:102BD00080F31188BFF34F8FBFF36F8FFEE7502054
:102BE00080F31188BFF34F8FBFF36F8FFEE70000B4
:102BF000B000002082B001A8FFF746FD0199FFF761
:102C000047FFFFF7BDFEF6E770B5044600F016F982
:102C100094F94550002D0CDD606A50B104F1240098
:102C200000F00CFF08B100F017FA681E45B2002D45
:102C3000F2DC4FF0FF3684F8456000F01FF900F039
:102C4000FDF894F94450002D0CDD206950B104F1D9
:102C5000100000F0F3FE08B100F0FEF9681E45B266
:102C6000002DF2DC84F84460BDE8704000F006B945
:102C70002DE9F0410546002600F074FA344F38681B
:102C800008B9FFF713FD7869054251D19DB10835A8
:102C900015F0070F0FD005F00700C0F1080005443C
:102CA00015F0070F07D0502080F31188BFF34F8F26
:102CB000BFF36F8FFEE7002D3AD07868854237D892
:102CC00024490846046801E0214604466068A84299
:102CD00002D220680028F7D13868844228D00868DA
:102CE00000F10806206808606068411B10290FD9B0
:102CF000601910F0070F07D0502080F31188BFF340
:102D00004F8FBFF36F8FFEE741606560FFF796FD61
:102D100061687868401A7860BA68904200D2B860FA
:102D200078690843606000202060F868401CF86003
:102D300000F0C0FE16F0070F07D0502080F3118876
:102D4000BFF34F8FBFF36F8FFEE73046BDE8F081D2
:102D500090000020A8000020001F4FF08073036047
:102D6000001F21F001010160001F034901601438B8
:102D70000260203870470000C52B000801694368D5
:102D800082689A60836842685A604A68824201D1C8
:102D900082684A60002202610868401E0860086874
:102DA00070470000034B036003F15C000860802063
:102DB0001060704708080020044B036003F15C00BA
:102DC00008604FF48070106070470000640A0020B3
:102DD00000F1080141604FF0FF328260C160016183
:102DE00000210160704700210161704710B4D1F8E3
:102DF00000C0BCF1FF3F02D000F1080202E002690E
:102E000004E01A4653681C686445FAD953684B605D
:102E100099608A60516008610168491C016010BCBA
:102E2000704742684A6093688B609368596091600C
:102E300008610168491C016070470000502080F360
:102E40001188BFF34F8FBFF36F8F0A494868401C4A
:102E5000486001280CD10848006810F0FF0F07D027
:102E6000502080F31188BFF34F8FBFF36F8FFEE7C1
:102E700070470000B000002004ED00E009494868F8
:102E8000002806D0401E4860002801D180F3118838
:102E90007047502080F31188BFF34F8FBFF36F8FBF
:102EA000FEE70000B000002070B500282AD0A0F195
:102EB0000804154D60686969084207D1502080F305
:102EC0001188BFF34F8FBFF36F8FFEE722683AB1CF
:102ED000502080F31188BFF34F8FBFF36F8FFEE751
:102EE0008843606000F03EF9606869680844686083
:102EF0002046FFF7A3FC2869401C2861BDE870400C
:102F000000F0D8BD70BD0000900000204FF0E02020
:102F100000210161816105494FF47A720968B1FBB2
:102F2000F2F1491E4161072101617047380000201C
:102F300010B5FDF74FF9114910280ED300F1E0202C
:102F400090F8F0030A78904207D2502080F311885D
:102F5000BFF34F8FBFF36F8FFEE7094800688968A2
:102F600000F4E060884207D9502080F31188BFF355
:102F70004F8FBFF36F8FFEE710BD0000B000002041
:102F80000CED00E00022084B53F832C0BCF1000FFA
:102F900003D0521C082AF7D3704743F8321003EBD2
:102FA000C201486070470000EC01002070B5044683
:102FB0000D461646FFF742FF94F94400B0F1FF3F7B
:102FC0004FF0000001D184F8440094F94510B1F1AC
:102FD000FF3F01D184F84500FFF750FFA06B28B9EF
:102FE0003246294604F1240000F056F82046BDE898
:102FF0007040FFF709BE000010B502460020002A0D
:1030000012D00F48006B38B1502080F31188BFF305
:103010004F8FBFF36F8FFEE700F0A4F8002110463A
:10302000FFF706FA00F046FD002807D105494FF0EA
:1030300080500860BFF34F8FBFF36F8F10BD00004B
:103040003C00002004ED00E002490A6A0260C96801
:10305000416070473C00002001490120C861704771
:103060003C00002010B50C4600280BD0094A12681D
:1030700002F11801FFF7BAFE2046BDE81040012119
:10308000FFF7D6B9502080F31188BFF34F8FBFF3FD
:103090006F8FFEE73C00002070B50D4614460028F7
:1030A0000DD00B4909681831FFF7BBFE0CB14FF08A
:1030B000FF3521462846BDE87040FFF7B9B95020DA
:1030C00080F31188BFF34F8FBFF36F8FFEE70000CF
:1030D0003C00002030B587B000250695059504AA70
:1030E00005A906A8FFF75EFE0698059901910290D2
:1030F0000023009517A11948049A00F0B5FB184C5D
:10310000E06208B1012000E00020012801D100F0B8
:1031100037FD01280AD0B0F1FF3F19D1502080F3CC
:103120001188BFF34F8FBFF36F8FFEE7502080F3FE
:103130001188BFF34F8FBFF36F8F4FF0FF30A06246
:1031400001206061E56007B0BDE8304000F048B89C
:1031500007B030BD49444C4500000000FD26000882
:103160003C0000200248016B491C016370470000CD
:103170003C000020184B186B002802D00120D861B9
:1031800070470020D8611869144900EB800251F89B
:1031900022203AB9C0B1401E00EB800251F8222033
:1031A000002AF7D000EB800201EB82014A685268E6
:1031B0004A6001F1080C624501D152684A604968D1
:1031C000C968196018617047502080F31188BFF3F7
:1031D0004F8FBFF36F8FFEE73C0000202C020020D2
:1031E00010B582B0284908780190FF20087008784F
:1031F00000909DF800009DF8002000F0F000904243
:1032000007D0502080F31188BFF34F8FBFF36F8F2B
:10321000FEE79DF800001D4C00F0500020700720D4
:10322000A0609DF8000010F0800F0BD0A068401E39
:10323000A0609DF80000400000909DF8000010F094
:10324000800FF3D1A068032807D0502080F31188A5
:10325000BFF34F8FBFF36F8FFEE74FF44070A06056
:10326000019808700A48016841F470010160016822
:1032700041F070410160FFF749FE00206060FCF7FB
:1032800073FF02B0002010BD00E400E0B000002099
:1032900020ED00E010B5502080F31188BFF34F8F70
:1032A000BFF36F8F00F024FB18B104494FF080503A
:1032B0000860002080F3118810BD000004ED00E0DC
:1032C000F8B505460E461746002D13D005FB06F04F
:1032D0005030FFF7CDFC044654B104F150020020F9
:1032E00084F846003B46314628460094FFF71AFA18
:1032F0002046F8BD502080F31188BFF34F8FBFF3F5
:103300006F8FFEE738B5049D002804D05BB102B191
:1033100089B1C2B120E0502080F31188BFF34F8FF4
:10332000BFF36F8FFEE7502080F31188BFF34F8FFC
:10333000BFF36F8FFEE7502080F31188BFF34F8FEC
:10334000BFF36F8FFEE739B1502080F31188BFF3D0
:103350004F8FBFF36F8FFEE74FF0500CCDF800C0DA
:103360001C46012384F846302B460094FFF7DAF917
:10337000204638BD70B504460D46002C25D0FFF719
:103380005DFD226CE16B206801FB0200A060002063
:10339000A06320686060E16B226C2068491E01FB1D
:1033A0000200E0604FF0FF3084F8440084F84500EC
:1033B0009DB104F11000FFF70BFD04F12400FFF7AD
:1033C00007FDFFF75BFD012070BD502080F31188E1
:1033D000BFF34F8FBFF36F8FFEE720690028F0D057
:1033E00004F1100000F02AFB0028EAD004494FF055
:1033F00080500860BFF34F8FBFF36F8FE1E700008D
:1034000004ED00E02DE9FF4782B004468A461F46DE
:103410000025002C03D0BAF1000F08D011E0502095
:1034200080F31188BFF34F8FBFF36F8FFEE7206CDF
:1034300038B1502080F31188BFF34F8FBFF36F8FE7
:10344000FEE7022F0AD1E06B012807D0502080F35D
:103450001188BFF34F8FBFF36F8FFEE700F034FA90
:1034600048B9049838B1502080F31188BFF34F8FCA
:10347000BFF36F8FFEE700264FF08058DFF8F09023
:10348000FFF7DCFCA06BE16B884205D3022F03D071
:10349000049808B335B329E03A4651462046FFF771
:1034A0009BF8616A59B104F1240000F0C7FA68B1D1
:1034B000C9F80080BFF34F8FBFF36F8F06E028B1CC
:1034C000C9F80080BFF34F8FBFF36F8FFFF7D6FCB3
:1034D00006B00120BDE8F087FFF7D0FC06B0002061
:1034E000BDE8F0876846FFF7AFFD0125FFF7C6FC92
:1034F000FFF738FEFFF7A2FC94F94400B0F1FF3F5C
:1035000001D184F8446094F94500B0F1FF3F01D146
:1035100084F84560FFF7B2FC04A9684600F02EF974
:1035200040B12046FFF770FB00F0C4FA06B000205F
:10353000BDE8F0872046FFF7E0F990B104F11000F4
:103540000499FFF78FFD2046FFF75EFB00F0B2FA0B
:10355000002895D1C9F80080BFF34F8FBFF36F8F5C
:103560008EE72046FFF750FB00F0A4FA88E7000042
:1035700004ED00E02DE9F0470446894617461E4653
:10358000002C03D0B9F1000F08D011E0502080F3D7
:103590001188BFF34F8FBFF36F8FFEE7206C38B1F8
:1035A000502080F31188BFF34F8FBFF36F8FFEE77A
:1035B000022E0AD1E06B012807D0502080F3118839
:1035C000BFF34F8FBFF36F8FFEE7FFF7B1FC5020C3
:1035D000EFF3118880F31188BFF34F8FBFF36F8F24
:1035E000A06BE16B884206D3022E04D0002088F342
:1035F0001188BDE8F08794F94550A06B32464946E2
:103600002046FEF7E9FFB5F1FF3F04D0681C84F8BF
:1036100045000120EBE7606A0028FAD004F124009D
:1036200000F00CFA0028F4D0002FF2D0012038600E
:10363000EFE700002DE9F74783B004468A460025EE
:10364000002C03D0BAF1000F08D011E0502080F315
:103650001188BFF34F8FBFF36F8FFEE7206C38B137
:10366000502080F31188BFF34F8FBFF36F8FFEE7B9
:1036700000F02AF948B9059838B1502080F3118834
:10368000BFF34F8FBFF36F8FFEE700274FF08058D7
:10369000DFF8E490FFF7D2FBA66BC6B15146204697
:1036A000FEF788FF701EA063206950B104F110007E
:1036B00000F0C4F928B1C9F80080BFF34F8FBFF301
:1036C0006F8FFFF7DBFB06B00120BDE8F0870598A0
:1036D00008B135B109E0FFF7D1FB06B00020BDE825
:1036E000F0876846FFF7B0FC0125FFF7C7FBFFF73F
:1036F00039FDFFF7A3FB94F94400B0F1FF3F01D17E
:1037000084F8447094F94500B0F1FF3F01D184F88A
:103710004570FFF7B3FB05A9684600F02FF868B1C4
:103720002046FFF771FA00F0C5F92046FFF7D8F8F8
:103730000028AFD006B00020BDE8F0872046FFF794
:10374000CFF890B104F124000599FFF78BFC2046D7
:10375000FFF75AFA00F0AEF900289BD1C9F80080B3
:10376000BFF34F8FBFF36F8F94E72046FFF74CFAFC
:1037700000F0A0F98EE7000004ED00E070B505460A
:103780000C46002D15D0E4B1FFF758FBDFF868C0F8
:10379000DCF80C006B68C11A2268B2F1FF3F18D048
:1037A0002E68DCF820C0664515D0834213D801246A
:1037B0001DE0502080F31188BFF34F8FBFF36F8F50
:1037C000FEE7502080F31188BFF34F8FBFF36F8F58
:1037D000FEE700240BE08A4206D9501A20602846F2
:1037E000FFF732FC002402E0002020600124FFF7F4
:1037F00045FB204670BD00003C0000202DE9F04F45
:1038000085B081460F9F0E9E8A4690469B464FEAA2
:103810008800FFF72DFA054628000AD05C20FFF744
:1038200027FA04460CB1256304E02846FFF73CFB69
:1038300000E000249CB1002084F8590003905B460E
:10384000424651460197009602944846FEF77BFF98
:103850002046FEF71DFE05B00120BDE8F08F05B043
:103860004FF0FF30BDE8F08F70B586B00646DDF84A
:1038700028C00C9C0B98002816D0ECB15C25049550
:103880002063022084F85900002005AD0390CDF894
:1038900000C0019502943046FEF755FF2046FEF722
:1038A000F7FD059806B070BD502080F31188BFF376
:1038B0004F8FBFF36F8FFEE7502080F31188BFF367
:1038C0004F8FBFF36F8FFEE705484169002903D092
:1038D000006B18B10020704701207047022070472C
:1038E0003C0000200148C068704700003C000020F8
:1038F0002DE9F04100262F4F386B002805D0B8691C
:10390000401CB8613046BDE8F081F868451CFD6098
:103910009DB9786B006838B1502080F31188BFF3EF
:103920004F8FBFF36F8FFEE7786BB96B7963B86326
:10393000386A401C3862FFF7E1F8B86ADFF878802F
:1039400085420DD3786B006838B1786BC068C46865
:103950006068854212D2B86202E04FF0FF30B86270
:103960003868C06A00EB800058F82000012800D9B0
:103970000126F8690028C5D00126C3E7201DFFF7FE
:10398000FDF9A06A18B104F11800FFF7F7F9E16A30
:103990003869814200D9396101EB810008EB800070
:1039A000211DFFF73EFAE06A3968C96A8842C9D327
:1039B0000126C7E73C0000202C02002070B5044619
:1039C0000021002833D01B4D2868844207D05020A6
:1039D00080F31188BFF34F8FBFF36F8FFEE7206D29
:1039E00038B1401E2065E36CE26A9A421FD040B1B4
:1039F0001DE0502080F31188BFF34F8FBFF36F8F0E
:103A0000FEE7201DFFF7BAF9E06CE062C0F1380074
:103A1000A061E06A2969884200D92861064900EB63
:103A2000800001EB8000211DFFF7FBF90121084612
:103A300070BD00003C0000202C02002070B5C06862
:103A4000C468002C14D004F11800FFF797F9164D44
:103A5000286BA8B104F118011448FFF7E2F9E06AF5
:103A60002968C96A88421CD901200121E96170BD19
:103A7000502080F31188BFF34F8FBFF36F8FFEE7A5
:103A8000201DFFF77BF9E06A2969884200D9286187
:103A9000074900EB800001EB8000211DFFF7C1F911
:103AA000DDE7002070BD00003C000020B4060020CF
:103AB0002C0200202DE9F047002400272D4D286B13
:103AC000002807D0FFF7BAF9286B401E2863286B3F
:103AD00040B149E0502080F31188BFF34F8FBFF30E
:103AE0006F8FFEE7A86800283ED0234E30684FF065
:103AF000010800B3A6F59169F068C46804F11800E4
:103B0000FFF73CF9201DFFF739F9E06A296988427F
:103B100000D9286100EB800009EB8000211DFFF730
:103B200080F9E06A2968C96A884201D3C5F81C8017
:103B300030680028E0D10CB1FEF7E0FFAC694CB171
:103B4000FFF7D6FE08B1C5F81C80641E002CF7D123
:103B50000020A861E86938B10127084938070860E2
:103B6000BFF34F8FBFF36F8FFFF788F93846BDE87B
:103B7000F08700003C000020B406002004ED00E0C7
:103B800030B587B00024FEF7C7FC134D2868B0B1EC
:103B900000200690059004AA05A906A8FFF70CF9D5
:103BA00005990698022200920191029000230BA130
:103BB0000C48049AFFF758FE686000B1012414B164
:103BC00007B0204630BD502080F31188BFF34F8FDF
:103BD000BFF36F8FFEE7000078000020546D722065
:103BE00053766300F52B0008F0B585B084460A9D36
:103BF00016461F460022BCF1000F14D0164C206858
:103C000000B300910196CDF808C006291BDAFFF732
:103C10005BFE02280FD000231A4669462068FFF792
:103C2000F1FB024615E0502080F31188BFF34F8F5F
:103C3000BFF36F8FFEE700232A4669462068FFF72F
:103C4000E1FB024605E000233A466946FFF792FC95
:103C5000024605B01046F0BD7800002000000000CC
:103C6000000000000000000000000000000000F85C
:103C700000000000000000333000000000100C06BF
:103C8000100C0600000000000000000040C078405A
:103C9000C0784000043F04043F040400007088FC26
:103CA00008300000001820FF211E0000F008F0007E
:103CB000E018000000211C031E211E0000F00888EF
:103CC000700000001E2123241927211010160E0059
:103CD000000000000000000000000000000000E004
:103CE0001804020000000007182040000002041819
:103CF000E00000000040201807000000404080F075
:103D0000804040000202010F01020200000000F0AA
:103D1000000000000101011F01010100000000007E
:103D20000000000080B070000000000000000000F3
:103D3000000000000001010101010101000000007C
:103D40000000000000303000000000000000000013
:103D500080601804006018060100000000E01008F0
:103D60000810E000000F102020100F00001010F8C5
:103D7000000000000020203F202000000070080804
:103D80000888700000302824222130000030088884
:103D9000884830000018202020110E000000C020AC
:103DA00010F8000000070424243F240000F80888CD
:103DB000880808000019212020110E0000E010885A
:103DC00088180000000F112020110E00003808088C
:103DD000C83808000000003F00000000007088089C
:103DE00008887000001C222121221C0000E010081D
:103DF0000810E0000000312222110F00000000C076
:103E0000C000000000000030300000000000008012
:103E10000000000000008060000000000000804002
:103E2000201008000001020408102000404040401B
:103E3000404040000404040404040400000810206E
:103E400040800000002010080402010000704808B3
:103E50000808F0000000003036010000C030C8281B
:103E6000E810E0000718272423140B000000C038D6
:103E7000E0000000203C23020227382008F8888850
:103E800088700000203F202020110E00C03008085C
:103E900008083800071820202010080008F8080833
:103EA0000810E000203F202020100F0008F888882C
:103EB000E8081000203F20202320180008F88888F8
:103EC000E8081000203F200003000000C030080870
:103ED0000838000007182020221E020008F80800F9
:103EE0000008F808203F210101213F20000808F8C0
:103EF000080800000020203F2020000000000808E3
:103F0000F8080800C08080807F00000008F888C0A2
:103F100028180800203F20012638200008F8080053
:103F200000000000203F20202020300008F8F8008A
:103F3000F8F80800203F003F003F200008F830C09C
:103F40000008F808203F200007183F00E01008088C
:103F50000810E0000F10202020100F0008F80808BB
:103F60000808F000203F210101010000E0100808CE
:103F70000810E0000F18242438504F0008F88888F3
:103F800088887000203F2000030C302000708808D3
:103F9000080838000038202121221C00180808F8E1
:103FA000080818000000203F2000000008F8080062
:103FB0000008F808001F202020201F000878880033
:103FC00000C83808000007380E010000F80800F8A3
:103FD0000008F800033C0700073C0300081868804D
:103FE0008068180820302C03032C30200838C800C3
:103FF000C83808000000203F200000001008080812
:10400000C83808002038262120201800000000FEB3
:10401000020202000000007F40404000000C30C05F
:1040200000000000000000010638C000000202028B
:10403000FE000000004040407F000000000004023D
:104040000202040000000000000000000000000068
:104050000000000080808080808080800002020458
:104060000000000000000000000000000000808050
:10407000808000000019242222223F2008F80080BE
:1040800080000000003F112020110E000000008081
:1040900080800000000E1120202011000000008010
:1040A0008088F800000E112020103F200000808042
:1040B00080800000001F222222221300008080F056
:1040C000888888180020203F202000000000808081
:1040D00080808000006B94949493600008F80080C6
:1040E00080800000203F210000203F200080989821
:1040F000000000000020203F202000000000008081
:104100009898000000C08080807F000008F80000C0
:1041100080808000203F24022D302000000808F815
:10412000000000000020203F2020000080808080D0
:1041300080808000203F20003F20003F8080008062
:1041400080800000203F210000203F200000808070
:1041500080800000001F202020201F008080008021
:104160008000000080FFA12020110E0000000080D0
:1041700080808000000E112020A0FF8080808000C1
:104180008080800020203F212000010000008080EE
:10419000808080000033242424241900008080E0E3
:1041A000808000000000001F2020000080800000B0
:1041B00000808000001F202020103F208080800091
:1041C0000080808000010E300806010080800080A1
:1041D000008080800F300C030C300F0000808000C6
:1041E000808080000020312E0E31200080808000F1
:1041F0000080808080818E701806010000808080A1
:10420000808080000021302C22213000000000003E
:10421000807C020200000000003F404000000000DF
:10422000FF00000000000000FF0000000002027C10
:10423000800000000040403F000000000006010137
:1042400002020404000000000000000060430008B7
:10425000000000000000000000000000000000005E
:104260000002000018000000000000000000000034
:104270003C430008000000000000000000000000B7
:104280000000000000020000080000000000000024
:10429000000000004843000800000000000000008B
:1042A0000000000000000000000200000800000004
:1042B000000000000000000054430008000000005F
:1042C00000000000000000000000000000020000EC
:1042D000080000000000000000000000304300085B
:1042E00000000000000000000000000000000000CE
:1042F00000000000010202030405060708090A0B7A
:104300000C0D0E0F10100102020304050607080928
:104310000A0B0C0D0E0F1010000000000000000032
:10432000010203040607080900000000010203045B
:104330006D79517565756530310000006D79546196
:10434000736B3032000000006D795461736B303351
:10435000000000006D795461736B30340000000080
:1043600064656661756C745461736B008C430008FE
:1043700000000020C00000007C1F00084C44000822
:10438000C0000020001E00008C1F0008010000007B
:1043900005000000EA07030014000500010000000A
:1043A000000000000000000000000000000000000D
:1043B00000000000000000000100000010000000EC
:1043C0000000000000127A00000000000000000061
:1043D00000000000000000000000000000000000DD
:1043E00000000000000000000000000000000000CD
:1043F00000000000000000000000000000000000BD
:1044000000000000000000000000000000000000AC
:10441000000000000000000000000000000000009C
:10442000000000000000000000000000000000008C
:10443000000000000000000000000000000000007C
:0C444000AAAAAAAA0000000000000000C8
:0400000508000131BD
:00000001FF
