:020000040800F2
:10000000883A002099010008514C0008073F000879
:100010004D4C0008490D0008017400080000000064
:1000200000000000000000000000000001010008C6
:100030005B0E00080000000045010008F56A00089A
:10004000B3010008B3010008B3010008B3010008C0
:10005000B3010008B30100085D0E0008B3010008F9
:10006000B3010008B3010008B30100081D0E000829
:10007000B3010008B3010008B3010008B301000890
:100080002D0E0008B3010008B3010008B3010008F9
:10009000B3010008B3010008B3010008B301000870
:1000A000B3010008B3010008B3010008B301000860
:1000B000B30100089D6B0008B3010008B3010008FC
:1000C000B3010008B3010008B3010008B301000840
:1000D000B3010008B301000835730008B30100083C
:1000E000B3010008B3010008B3010008DFF80CD029
:1000F00000F058FC00480047E5800008883A0020DE
:10010000224B19680868B0E8F00F80F30988BFF344
:100110006F8F4FF0000080F311884EF00D0E704786
:100120000000000006480068006880F3088862B696
:1001300061B6BFF34F8FBFF36F8F00DF00BF00BF0B
:1001400008ED00E0EFF30980BFF36F8F0F4B1A68E3
:1001500020E9F00F106008B54FF0500080F31188CF
:10016000BFF34F8FBFF36F8F09F054FC4FF00000C7
:1001700080F31188BDE8084019680868B0E8F00FFE
:1001800080F30988BFF36F8F704700BF64010020C0
:10019000EFF3058070470000064880470648004797
:1001A000FEE7FEE7FEE7FEE7FEE7FEE7FEE7FEE727
:1001B000FEE7FEE7996B0008ED000008202A04DB4B
:1001C000203A00FA02F1002070479140C2F120036A
:1001D00020FA03F3194390407047202A04DB203AA9
:1001E00021FA02F00021704721FA02F3D040C2F157
:1001F0002002914008431946704740EA01039B07DB
:1002000003D009E008C9121F08C0042AFAD203E08B
:1002100011F8013B00F8013B521EF9D27047D2B2EF
:1002200001E000F8012B491EFBD270470022F6E7DF
:1002300010B513460A4604461946FFF7F0FF20465C
:1002400010BD421C10F8011B0029FBD1801A704719
:10025000F0B480EA0102D40F4200B2EB410F02D2A7
:100260000246084611464A0042D0C30DDDB2C1F332
:10027000C752AD1A202D35DAC1F3160141F4000240
:1002800004B15242C5F1200602FA06F12A41104497
:10029000B3EBD05F23D0C4B1012DA0EBC35009DC78
:1002A000F0BC4FF0004202EAC352DBB200F500009E
:1002B00000F079BA400000F1807000EBC350A0F16B
:1002C000807040EAD170490009E0490841EAC071F4
:1002D000A0EBC35000F50000400800EBC350F0BC99
:1002E00000F058BA6142012202EB4101001BF6E71F
:1002F000F0BC704781F00041AAE780F00040A7E71A
:1003000080EA010210B502F00043400022D04A000A
:100310001FD0010E01EB1261C0F35600C2F356026A
:1003200040F4000042F40002A0FB022000047F39E8
:10033000140400D0401C50EA124001D44000491E71
:10034000C2B20C0604EBD010401C4008802A02D038
:1003500003E0002010BD20F00100002900DA002099
:10036000184310BD2DE9FE4F804681EA0300C00FFF
:100370000C46009021F0004123F00045B8EB02004C
:10038000A94105D24046214690461C460B460246EE
:1003900023F00040104347D0270DC7F30A00C3F3F2
:1003A0000A510290401A019040286BDAC3F31300FF
:1003B00040F4801B0098924620B10023D2EB030A40
:1003C00063EB0B0B01985946C0F140025046FFF712
:1003D000F5FE06460D4650465946019A00F0C8F90A
:1003E00010EB08006141002487EA115284EAE773A8
:1003F0001A4340D0009A62B3019A012A4FEA075289
:1004000015DC001B61EB02014FF0004202EA0752CB
:10041000CDE90042001C41F5801132462B4600F028
:10042000FFF903B0BDE8F08F40462146F9E7001B15
:1004300061EB0201001C41F5801300185B4120189C
:10044000A2F5001747EB030140EAD570B6196D41DC
:1004500011E06D084FEA360645EAC0754FEA0752CB
:10046000001B61EB0201001C41F5801149084FEAB5
:1004700030000019514132462B4603B0BDE8F04F21
:1004800000F0BFB90098012240000023D0EB020227
:1004900063EBE073009821464FEAE074B8EB00008C
:1004A00061EB0401E9E783F000435BE781F0004181
:1004B00058E72DE9FE4F81EA030404F0004421F0DF
:1004C000004100944FF0000B23F0004350EA010478
:1004D0005ED052EA03045BD0C3F30A54C1F30A5559
:1004E0002C44A4F2F3340194A0FB0254C1F3130191
:1004F00041F48011C3F3130343F4801301FB02445E
:1005000000FB034E840A970A44EA815447EA835762
:10051000A4FB076802958D0A05FB07854FEA932C1B
:1005200004FB0C542705029D4FEA065847EA16378C
:10053000B5EB08056EEB070C870E920E47EA8117A4
:1005400042EA8312A7FB0201B6EB0B0164EB000445
:100550002B0D43EA0C335E1844EB1C50DA4651462F
:10056000E7FB0201C5F313044FEA0B3343EA1453CC
:100570004FEA0432019C43EA0603A4F10C040294FE
:10058000009CCDE900B400F04BF903B0BDE8F08F5A
:1005900000200146F9E72DE9F04D81EA030404F05B
:1005A000004B21F0004514464FF0000A23F00041B3
:1005B00050EA050220D054EA01021DD0C5F30A57C3
:1005C0000246C5F31303C1F31300C1F30A5640F406
:1005D000801543F48013A7EB0608101BD64608F2DB
:1005E000FD3873EB050002D308F1010801E0921811
:1005F0005B41B8F1000F03DA00200146BDE8F08D41
:1006000000204FF48011064684460EE0171B73EB62
:10061000050705D3121B63EB050306434CEA010CE7
:1006200049084FEA300092185B4150EA0107EDD1CA
:1006300052EA030012D082EA040083EA050108436B
:1006400005D0101BAB4106D20122002306E0002298
:100650004FF0004302E06FF0010253101AEB060066
:100660004CEB085110EB0A0041EB0B01BDE8F04DDB
:1006700000F0C7B8C10F80EAE0700844CA079623AB
:10068000002100F090B80EB5C10F80EAE070084478
:10069000CA07002140F233438DE80E000A460B469C
:1006A00000F0BEF803B000BD70B5C1F30A5201F00E
:1006B00000450024C1F3130140F2FF3341F48011DF
:1006C0009A4201DA002070BD40F233439A42A2F20E
:1006D000334203DC5242FFF780FD00E090402C43A0
:1006E000F1D0404270BD00F0004230F000400AD02E
:1006F000C10D01F56071C0F3160042EA0151C20854
:1007000040071143704700200146704701F0004345
:1007100030B421F0004150EA010206D00A0DA2F5E2
:100720006072C1F31301002A02DC30BC0020704764
:10073000440F44EAC104C100E01830BC00EBC250D1
:1007400000F028B830B50B460146002020220124D5
:1007500009E021FA02F59D4205D303FA02F5491B8F
:1007600004FA02F52844151EA2F10102F1DC30BDA5
:10077000202A06DBCB17203A41FA02F043EAE07365
:1007800006E041FA02F3D040C2F120029140084352
:10079000194670470029A8BF7047401C490008BF90
:1007A00020F00100704710B4B0FA80FC00FA0CF0A1
:1007B00050EA010404BF10BC704749B1CCF12004D9
:1007C00021FA04F411FA0CF118BF01212143084366
:1007D000A3EB0C01CB1D4FEA00614FEA102042BF92
:1007E000002010BC704700EBC35010440029A4BF88
:1007F00010BC7047401C490008BF20F0010010BC2D
:10080000704710B5141E73F1000408DA401C41F162
:10081000000192185B411A4301D120F0010010BD84
:100820002DE9F04D92469B4611B1B1FA81F202E0FA
:10083000B0FA80F220329046FFF7C0FC04460F4623
:1008400040EA0A0041EA0B0153465A46084313D0D6
:10085000114653EA010019D0C8F140025046FFF793
:10086000BCFC05460E46504659464246FFF7A6FCDC
:10087000084305D0012004E020463946BDE8F08D4C
:100880000020054346EAE0762C4337430A98630587
:10089000E40AA0EB08000022FD0A44EA47540A30AB
:1008A00002D500200146E9E7010510196941DDE99B
:1008B000084500196941BDE8F04DA2E72DE9F04176
:1008C000054621F000400C46284309D0C4F30A50E5
:1008D00040F23341884205DD28462146BDE8F081DB
:1008E0002846FBE740F2FE31884210DC0CDB4FEA81
:1008F000043040EA155050EA053105D0104804F0A4
:10090000004101430020E9E700200146E6E7A0F2AC
:1009100033404642C6F1400228462146FFF74EFCCE
:1009200007468846284621463246FFF756FC43468E
:100930003A46FFF766FF3246BDE8F041FFF73EBC9E
:100940000000F03F30B5041E71F1000404DB4FF0ED
:100950000044404264EB0101141E73F1000405DB06
:100960001C464FF00043524263EB04038B4208BF26
:10097000824230BD30B5041E71F1000404DB4FF03B
:100980000044404264EB0101141E73F1000405DBD6
:100990001C464FF00043524263EB0403994208BFE8
:1009A000904230BD064C074D06E0E06840F0010380
:1009B00094E8070098471034AC42F6D3FFF79AFB4F
:1009C0008CBB0008ACBB000870B521F000430343AA
:1009D0000CD0C1F30A550024D5EB040564EB0403E5
:1009E000D617AD1AB34102DB0020014670BD2018B6
:1009F00041EB025170BD0EB540F23341029100212E
:100A0000CDE900110A460B46FFF70AFF03B000BD0F
:100A100030B58C1810F8012B12F00F0301D110F82B
:100A2000013B120906D110F8012B03E010F8015B1D
:100A300001F8015B5B1EF9D101E001F8013B521E98
:100A4000FBD1A142E6D3002030BD70B5044600259D
:100A50002068806800F0010018B32068806820F0EA
:100A600001002168886001F06BF9054613E001F090
:100A700067F9401B02280ED92068806800F0010049
:100A800048B1A06A40F01000A062E06A40F00100A6
:100A9000E062012070BD2068806800F0010000283D
:100AA000E5D10020F6E770B505466C6AA06A00F053
:100AB0005000E0B9A06A40F40070A062206880682D
:100AC00000F46020B0F5602F0DD1207B58B9A06AEA
:100AD00020F48070A062A06A00F4805018B9A06A67
:100AE00040F00100A062204600F05CFB03E0206AB9
:100AF000016B2846884770BD70B505466C6AA06AD0
:100B000040F04000A062E06A40F00400E06220464D
:100B100000F04AFB70BD70B50446656A284600F0D7
:100B200042FB70BD38B504460025002000902068C7
:100B3000806800F0010078BB2068806840F0010008
:100B400021688860194800681949B0FBF1F00090ED
:100B500002E00098401E009000980028F9D101F0B2
:100B6000EFF8054619E001F0EBF8401B022814D914
:100B70002068806800F0010078B9A06A40F0100099
:100B8000A062E06A40F00100E06200BF002084F84B
:100B9000240000BF012038BD05E02068806800F017
:100BA00001000028DFD00020F5E7000060010020F0
:100BB00040420F0008B500250024012600215A48B4
:100BC000006809F0ABFC00BF4FF0FF3156480068E9
:100BD00009F0A4FC00270020034601220F21009009
:100BE0005248006809F002F887B24FF4806150481B
:100BF000FFF71CFB042D38D101234EA2002108462B
:100C000004F06CFF01200090601E4C4931F9302047
:100C100006230021282004F0A1FE01200090601E80
:100C2000464901EBC000B0F902200623102128201C
:100C300004F094FE01200090601E404901EBC000CA
:100C4000B0F9042006232021282004F087FE01208B
:100C50000090601E394901EBC000B0F90620062360
:100C60003021282004F07AFE1BE0052D14D1721CDF
:100C70002146002004F038FA721C2146012004F0BD
:100C800033FA721C2146022004F02EFA721C21460F
:100C9000032004F029FA04E0721C2146284604F0DF
:100CA00023FA012003462A4630210090002004F058
:100CB00055FE05F019FC07F0080038B100231A466C
:100CC00019461F48006809F023FA7DE707F0010084
:100CD00020B10EB9012000E00020064607F0020016
:100CE00030B1681D062190FBF1F201FB120005B244
:100CF00007F0040030B1681C062190FBF1F201FB03
:100D0000120005B20D4800EBC40104220D4800F0AA
:100D100045FB601CC4B200231A461946024800680D
:100D200009F0F6F950E7000034010020100100201E
:100D3000882900204144433A00000000882D00200B
:100D40003C0100204002002000BFFEE700BF05F08C
:100D5000C5FD10480078012807D180210E48FFF713
:100D600065FA00200B4908700FE00C480078012854
:100D70000BD180220A490848FFF73FFA8021084832
:100D8000FFF754FA002005490870064801F0A5FB5A
:100D9000DDE70000000100208000002001010020AC
:100DA000000000206C0400201948406A00F0005048
:100DB00018B102201749087026E01548406A00F073
:100DC000804018B10320134908701DE01048406AA4
:100DD00000F0806018B101200E49087014E00C4842
:100DE000406A00F0006018B100200A4908700BE06A
:100DF0000748406A00F0805018B104200549087087
:100E000002E005200349087001200349086070478B
:100E10000010024002010020E004424210B50248E6
:100E200000F0AAFB10BD000070020020704730B532
:100E300090F840500124AC40C56B6C60046863605E
:100E40004468102C04D10468A2600468E16003E0E7
:100E50000468A1600468E26030BD704710B50120ED
:100E600000F0C2FD10BD000002A006F015FB72B636
:100E700000BFFEE74572726F720000000021074A52
:100E8000D1610749096941F00401054A1161114620
:100E9000096941F040011161704700009004002091
:100EA000002002400021074AD1610749096941F049
:100EB0000201054A116111464861096941F040018A
:100EC0001161704790040020002002400022054B71
:100ED000DA61054A126942F00102034B1A6101808E
:100EE00070470000900400200020024000201E49AE
:100EF000C96801F0100139B11C49C96941F002010A
:100F00001A4AD16140F010001749C96801F0040184
:100F100039B11649C96941F00101144AD16140F063
:100F200004001149C96901F0010169B10F49C9699A
:100F300041F004010D4AD16100BF0B49C96921F09C
:100F40000101094AD16100BF00BF40F2011188428E
:100F500006D10549C96921F00101034AD16101E0C7
:100F60000149C86000BF7047002002409004002083
:100F700070B5044600F0E4FE054609E0601C38B197
:100F800024B100F0DDFE401BA04201D9032070BD5A
:100F90001248C06800F001000028EFD10F48C06877
:100FA00000F0200020B100BF20200C49C86000BF25
:100FB0000A48C06800F0100048B90848C06900F04D
:100FC000010020B90548C06800F0040018B1FFF71F
:100FD0008DFF0120DBE70020D9E700000020024060
:100FE00086B072B6002005900190029003900490A4
:100FF00000F0E0FC6420FFF7BBFF002001901048E8
:1010000003900120049005A901A800F019FC00BF7D
:101010004FF47A70FFF7ACFF0028F9D141F6D362A4
:1010200000230749012000F06DFC00F061FC62B66E
:1010300004F044F800BF002008F0E8FAFBE70000E5
:1010400000FB000838B5024600230020009000BFD6
:1010500092F82400012801D1022038BD012082F835
:10106000240000BF4868072812D21068406B0C7932
:10107000641E04EB84051F24AC40A0430D796D1E53
:1010800005EB85050C68AC4020431468606327E0DD
:1010900048680D2812D21068006B0C79E41F04EB2D
:1010A00084051F24AC40A0430D79ED1F05EB850599
:1010B0000C68AC4020431468206311E01068C06ADB
:1010C0000C790D3C04EB84051F24AC40A0430D7942
:1010D0000D3D05EB85050C68AC4020431468E062CB
:1010E00008680A2812D31068C0680C780A3C04EB20
:1010F00044050724AC40A0430D780A3D05EB4505A7
:101100008C68AC4020431468E0600FE01068006910
:101110000C7804EB44050724AC40A0430D7805EBA4
:1011200045058C68AC40204314682061086810288D
:1011300002D00868112827D1174C1068A0421ED190
:101140001068806800F40000F0B91068806840F40E
:1011500000001468A0600868102815D10F480068C6
:101160000F4CB0FBF4F000EB80004000009002E078
:101170000098401E009000980028F9D104E0906A81
:1011800040F020009062012300BF002082F824007C
:1011900000BF184661E70000002401406001002004
:1011A00040420F0070477047704700002DE9F04142
:1011B0000446002700250026A84614B90120BDE8F2
:1011C000F081A06810B1207D00B100BFA06A30B9E5
:1011D0000020E06284F82400204600F089F82046D0
:1011E000FFF733FC0746A06A00F01000002873D117
:1011F000002F71D1A06A20F4885040F00200A06254
:10120000E16960680843217B40EA41000643A06829
:10121000B0F5807F02D0A068012802D14FF4807021
:1012200000E000200543207D012811D1207B38B942
:10123000A069401E4FF4006141EA4030054307E0D9
:10124000A06A40F02000A062E06A40F00100E06285
:101250002068406820F4694028432168486020687D
:10126000806821490840304321688860A068B0F553
:10127000807F02D0A068012802D14FF4807000E086
:101280000020B0F5807F03D1208A401E4FEA00582D
:101290002068C06A20F4700040EA08002168C86233
:1012A0002068806811490840B04208D10020E062FF
:1012B000A06A20F0020040F00100A06211E0A06AE4
:1012C00020F0020040F01000A062E06A40F001004F
:1012D000E062012705E0FFE7A06A40F01000A0628D
:1012E000012738466BE70000FDF7E1FFFE0E1FFF08
:1012F00010B586B00446002002900390049005903B
:101300002149206888423DD100BF2048806940F4CF
:1013100000701E4988610846806900F400700190E1
:1013200000BF00BF00BF0846806940F0040088612C
:101330000846806900F00400019000BF00BFF02063
:1013400002900320039002A9114800F05BFB1148B2
:10135000114908600020486000210F488160802109
:10136000C160490001618900416100218161C16161
:1013700000F0D0F908B1FFF777FD00BF0648206202
:10138000446200BF06B010BD0024014000100240BE
:101390000008014008000240700200202DE9F041E1
:1013A00004460D461646002757492068884203D058
:1013B00056492068884205D15348001D006800F452
:1013C000702000E0002000287ED100BF94F82400A7
:1013D000012802D10220BDE8F081012084F8240018
:1013E00000BF2046FFF79EFB0746002F6DD1A06A85
:1013F00040F60161884340F48070A0624349206850
:10140000884209D14048001D006800F4702008B9E6
:10141000012002E0002000E0012078B1A06A20F461
:101420008010A0622068406800F4806000B3A06A69
:1014300020F4005040F48050A06219E0A06A40F40B
:101440008010A06230492068884203D02F4920686C
:10145000884205D12C48001D006800F4806000E03F
:10146000002028B1A06A20F4005040F48050A0620F
:10147000A06A00F4805020B1E06A20F00600E0622B
:1014800001E00020E06200BF002084F8240000BFDB
:101490001F48216A88621F48216AC8621E48216A63
:1014A00008636FF00200216808602068806840F4DB
:1014B000807021688860226802F14C0133462A4618
:1014C000206A00F05BF901E01AE014E0206880680F
:1014D00000F46020B0F5602F06D12068806840F4E9
:1014E000A000216888600CE02068806840F48010CB
:1014F0002168886005E000BF002084F8240000E037
:101500000127384667E70000002401400028014019
:10151000A70A0008170B0008F90A00080146002274
:1015200091F82100022808D00420886300BF002021
:1015300081F8200000BF012070470868006820F093
:101540000E000B6818600868006820F001000B6846
:10155000186091F8403001209840CB6B5860012012
:1015600081F8210000BF002081F8200000BF104654
:10157000E2E70146886B704770B50446E06B05688A
:101580002068066894F8401004208840284000280D
:1015900046D006F00400002842D02068006800F021
:1015A000200028B92068006820F004002168086045
:1015B00057492068884201D1042027E0544914315A
:1015C0002068884201D1402020E05149283120681C
:1015D000884201D1001519E04D493C31206888420C
:1015E00002D14FF4804011E04949503120688842CF
:1015F00002D14FF4802009E04549643120688842D7
:1016000002D14FF4800001E04FF08060404908397A
:101610004860E06A00287AD02046E16A884776E090
:1016200094F84010022088402840A0B306F0020041
:1016300088B32068006800F0200040B92068006886
:1016400020F00A0021680860012084F82100304958
:101650002068884201D1022028E02D4914312068F9
:10166000884201D1202021E0294928312068884280
:1016700001D140151AE026493C312068884202D148
:101680004FF4005012E0224950312068884203D1C3
:101690004FF400300AE017E01D49643120688842A9
:1016A00002D14FF4001001E04FF0007018490839E2
:1016B000486000BF002084F8200000BFA06A30B35B
:1016C0002046A16A884722E094F84010082088400C
:1016D0002840E0B106F00800C8B12068006820F09A
:1016E0000E002168086094F8401001208840E16BEA
:1016F00048600120A06384F8210000BF002084F826
:10170000200000BF206B10B12046216B884770BDC0
:10171000080002400146002209B901207047164B1B
:101720000868C01A1423B0FBF3F080000864124864
:101730000838C863022081F821000868026843F66F
:10174000F0708243D1E901031843CB6818430B6959
:1017500018434B6918438B691843CB6918430243FC
:101760000868026000208863012081F821000020C1
:1017700081F8200000BFD1E7080002402DE9F041C8
:1017800004460D4616461F464FF0000800BF94F869
:101790002000012802D10220BDE8F081012084F858
:1017A000200000BF94F8210001282CD1022084F8E9
:1017B00021000020A0632068006820F0010021685B
:1017C00008603B46324629462046FFF730FBE06A78
:1017D00030B12068006840F00E00216808600BE01E
:1017E0002068006820F00400216808602068006814
:1017F00040F00A00216808602068006840F001009D
:101800002168086006E000BF002084F8200000BFC7
:101810004FF002084046BFE770B5044600F090FA6A
:1018200006462546681C10B104480078054400BFF0
:1018300000F086FA801BA842FAD370BD5C0100203C
:101840002DE9F04104460E460127002500BF264839
:10185000007E012802D10220BDE8F081012022494A
:10186000087600BF2068022813D14CF25030FFF7F1
:101870007FFB90BB0120FFF701FB4CF25030FFF7DC
:1018800077FB07461948006920F0040017490861F2
:1018900023E04CF25030FFF76BFBF0B94FF0FF3014
:1018A0003060A56812E02846FFF7FCFA4CF2503091
:1018B000FFF75EFB07460D48006920F002000B4968
:1018C00008610FB1356007E005F58065D4E90210C5
:1018D00001EB8020A842E6D800BF00BF00200249EB
:1018E000087600BF3846B7E7900400200020024089
:1018F0000348006940F080000149086100207047FA
:10190000002002402DE9FE4F05468B4617469846BB
:10191000012600240020029000BF2448007E0128F8
:1019200002D10220BDE8FE8F01202049087600BFC9
:101930004CF25030FFF71CFB064686BB012D02D14E
:101940000120029006E0022D02D10220029001E067
:101950000420029000241EE02201B946C2464846F7
:101960005146FEF73AFC80B20190022000FB04B021
:1019700000900199FFF7AAFA4CF25030FFF7F8FAFD
:1019800006460B48006920F001000949086106B1CC
:1019900004E0601CC4B202988442DDDB00BF00BFDB
:1019A00000200249087600BF3046BBE790040020C3
:1019B0000020024000200849096901F0800151B16E
:1019C0000649054A5160064951601146096901F00E
:1019D000800101B1012070470020024023016745CA
:1019E000AB89EFCD7047000010B50446044800688D
:1019F000204020B1024804602046FFF7F3FF10BDED
:101A0000140401402DE9F8470346002294466EE194
:101A10004FF0010808FA02F4D1F8008008EA040047
:101A2000A0427DD1DFF8DCA2D1F80480A8EB0A093E
:101A3000D0453AD014DCB8F1030F50D009DCB8F12E
:101A4000000F31D0B8F1010F1CD0B8F1020F49D10D
:101A500020E0B8F1110F18D0B8F1120F42D11EE0FA
:101A6000B9F5881F25D006DCB9F5803F20D0B9F53F
:101A7000801F37D11AE0B9F5001F18D0B9F5041F3F
:101A800030D117E0D1F80CC02DE0D1F80C8008F16E
:101A9000040C28E0D1F80C8008F1080C23E0D1F800
:101AA0000C8008F10C0C1EE000BF00BF00BF00BF9F
:101AB00000BF00BFD1F80880B8F1000F02D14FF08D
:101AC000040C0BE0D1F80880B8F1010F03D14FF0FE
:101AD000080C1C6102E04FF0080C5C6103E04FF061
:101AE000000C00E000BF00BFFF2801D8984601E0CD
:101AF00003F104084646FF2802D84FEA820803E0B3
:101B0000A2F108084FEA88084746D6F800804FF04F
:101B10000F0909FA07F928EA09080CFA07F900E0A1
:101B200088E048EA0908C6F80080D1F8048008F087
:101B30008058B8F1805F7DD100BFDFF8CC81D8F844
:101B4000188048F00108DFF8C091C9F81880C8462D
:101B5000D8F8188008F00108CDF8008000BF00BF59
:101B60004FEAB9384FEA920958F829504FEA82787B
:101B70004FEA18794FF00F0808FA09F825EA080526
:101B8000DFF88881434502D14FF0000816E0DFF806
:101B90008081434502D14FF001080FE0DFF87481E6
:101BA000434502D14FF0020808E0DFF86C8143455D
:101BB00002D14FF0030801E04FF004084FEA8279A8
:101BC0004FEA197908FA09F848EA0505DFF84C8167
:101BD0004FEA920948F82950D1F8048008F4801897
:101BE000B8F5801F0AD1DFF83881D8F8008048EABC
:101BF0000008DFF82C91C9F8008009E0DFF82081A7
:101C0000D8F8008028EA0008DFF81491C9F80080AD
:101C1000D1F8048008F40018B8F5001F10D1DFF8DF
:101C2000008108F10408D8F8008048EA0008DFF8CD
:101C3000F09000E05AE009F10409C9F800800DE0D5
:101C4000DFF8DC8008F10408D8F8008028EA0008F2
:101C5000DFF8CC9009F10409C9F80080D1F80480BC
:101C600008F40038B8F5003F0ED1DFF8B480A8F1D1
:101C70000408D8F8008048EA0008DFF8A490A9F129
:101C80000409C9F800800DE0DFF89480A8F1040889
:101C9000D8F8008028EA0008DFF88490A9F1040948
:101CA000C9F80080D1F8048008F48038B8F5803F86
:101CB0000ED1DFF86C80A8F10808D8F8008048EA57
:101CC0000008DFF85C90A9F10809C9F800800DE070
:101CD000DFF84C80A8F10808D8F8008028EA00084E
:101CE000DFF83C90A9F10809C9F80080521CD1F82E
:101CF000008028FA02F8B8F1000F7FF489AEBDE841
:101D0000F887000000001110001002400008014098
:101D1000000C014000100140001401400800014087
:101D200008040140024693680B400BB1012000E01B
:101D3000002070470AB1016101E00B0403617047A4
:101D400001480068704700005401002070B5044647
:101D50000CB9012070BD94F83D0028B9002084F82A
:101D60003C00204600F04CFB242084F83D00206815
:101D7000006820F00100216808602068006840F4D5
:101D80000040216808602068006820F40040216855
:101D9000086000F0C5FE05465C496068884206D8C8
:101DA0005B48854201D2012007E0002005E0594848
:101DB000854201D2012000E00020012800D1C9E7BE
:101DC0005548B5FBF0F62068406820F03F003043EE
:101DD000216848604D496068884201D8701C07E05E
:101DE0004FF4967070434FF47A71B0FBF1F0401CE1
:101DF0002168096A21F03F010843216808624349CC
:101E00006068884214D8681E61684900B0FBF1F030
:101E1000401CC0F30B00042801D204203DE0681EE2
:101E200061684900B0FBF1F0401CC0F30B0034E0E6
:101E3000A06838B9681E616801EB4101B0FBF1F0A0
:101E4000401C0AE0681E616801EBC10202EB01114F
:101E5000B0FBF1F0401C40F48040C0F30B0008B927
:101E600001201AE0A06848B9681E616801EB4101D1
:101E7000B0FBF1F0401CC0F30B000CE0681E616881
:101E800001EBC10202EB0111B0FBF1F0401CC0F309
:101E90000B0040F4804040F400402168C9694CF6D2
:101EA000FF72914308432168C861D4E907010843E0
:101EB0002168096821F0C001084321680860D4E95D
:101EC000031008432168896848F2FF3291430843B0
:101ED00021688860D4E9050108432168C96821F0B8
:101EE000FF0108432168C8602068006840F00100D5
:101EF0002168086000202064202084F83D00002034
:101F0000206384F83E0000BF24E70000A0860100A3
:101F100080841E0000093D0040420F002DE9F84377
:101F20000446894616461F46DDF82080FFF708FF65
:101F3000054694F83D0020287ED1192301225149FD
:101F40002046009502F043F910B10220BDE8F88365
:101F500000BF94F83C00012801D10220F6E70120DF
:101F600084F83C0000BF2068006800F0010028B938
:101F70002068006840F0010021680860206800685F
:101F800020F4006021680860212084F83D001020C2
:101F900084F83E000020206466626785608D20859D
:101FA0003948E0622B4642464946204601F0CCFFC4
:101FB00008B10120CAE700BF0020009020684069F6
:101FC000009020688069009000BF00BF44E02A466E
:101FD0004146204602F01CFA50B1206C042805D17D
:101FE0002068006840F40070216808600120ADE7B7
:101FF000606A007821680861606A401C6062608DD8
:10200000401E6085208D401E208520684069C0F3F9
:10201000800070B1208D60B1606A0078216808612D
:10202000606A401C6062608D401E6085208D401E8D
:1020300020852A46414600E022E0204602F094F83E
:1020400050B1206C042805D12068006840F400706D
:1020500021680860012079E7208D0028B7D1206829
:10206000006840F4007021680860202084F83D007A
:10207000002084F83E0000BF84F83C0000BF65E704
:10208000022063E7020010000000FFFF2DE9FE4F71
:1020900004460F4690469946DDE90CAB0E9E0020A3
:1020A0000290FFF74DFE054694F83D00202872D1BE
:1020B00019230122CE492046009502F088F810B17C
:1020C0000220BDE8FE8F00BF94F83C00012801D13A
:1020D0000220F6E7012084F83C0000BF2068006879
:1020E00000F0010028B92068006840F00100216874
:1020F00008602068006820F40060216808602220E1
:1021000084F83D00402084F83E0000202064C4F89C
:1021100024A0A4F82AB0608D2085B648E0624B4622
:10212000424639462046CDE9006501F06DFF08B111
:102130000120C6E7208D88B900BF002001902068EB
:102140004069019020688069019000BF00BF20684D
:10215000006840F40070216808604BE0208D012881
:102160001AD12068006820F480602168086072B687
:1021700000BF0020019020684069019020688069BC
:10218000019000BF00BF2068006840F40070216823
:10219000086062B62EE029E1208D022819D120685E
:1021A000006840F400602168086072B600BF00203B
:1021B000019020684069019020688069019000BF0B
:1021C00000BF2068006820F480602168086062B663
:1021D00010E02068006840F480602168086000BF5B
:1021E000002001902068406901902068806901907A
:1021F00000BF00BFEBE0208D03287DD8208D012893
:1022000015D12A463146204602F0BDF808B101201A
:1022100057E720680069616A0870606A401C606264
:10222000208D401E2085608D401E6085CFE0208D72
:1022300002282CD1334600226F492046009501F038
:10224000C6FF08B101203CE772B62068006840F480
:1022500000702168086020680069616A0870606A1F
:10226000401C6062208D401E2085608D401E608570
:1022700062B620680069616A0870606A401C60622A
:10228000208D401E2085608D401E60859FE0334676
:10229000002259492046009501F099FF08B101201C
:1022A0000FE72068006820F480602168086072B63B
:1022B00020680069616A0870606A401C6062208D55
:1022C000401E2085608D401E60854C4800681921A5
:1022D000B0FBF1F04FF47A71B0FBF1F0C0EBC0004D
:1022E00000EB8000029000BF0298401E029002980E
:1022F000A8B90020206300E039E0202084F83D00E8
:10230000002084F83E00206C40F02000206462B67B
:1023100000BF002084F83C0000BF0120D1E6206807
:102320004069C0F380000028DED02068006840F4D7
:1023300000702168086020680069616A0870606A3E
:10234000401C6062208D401E2085608D401E60858F
:1023500062B620680069616A0870606A401C606249
:10236000208D401E2085608D401E60852FE02A460E
:102370003146204602F007F808B10120A1E62068A6
:102380000069616A0870606A401C6062208D401EAE
:102390002085608D401E608520684069C0F3800004
:1023A000A8B1208D032805D12068006820F4806042
:1023B0002168086020680069616A0870606A401CD2
:1023C0006062208D401E2085608D401E6085208DBE
:1023D00000287FF410AF202084F83D00002084F80E
:1023E0003E0000BF84F83C0000BF6AE6022068E6B9
:1023F000020010000000FFFF040001006001002047
:1024000010B586B004460020029003900490059019
:1024100016492068884226D100BF1548806940F0DF
:102420000800134988610846806900F0080001909F
:1024300000BF00BF4FF440600290122003900320C1
:10244000059002A90B48FFF7DDFA00BF0848C069F4
:1024500040F480000649C8610846C06900F4800065
:10246000019000BF00BF06B010BD00000058004042
:1024700000100240000C014070B504460CB9012068
:1024800070BD4CF6CC402168086045F2555021687B
:102490000860D4E9001048602168A0688860FFF7F0
:1024A0004FFC05460DE0FFF74BFC401B41F23C3171
:1024B000884206D92068C06800F0030008B10320F4
:1024C000DEE72068C06800F003000028EBD14AF680
:1024D000AA20216808600020D2E701464AF6AA2017
:1024E0000A681060002070470348006803490978B3
:1024F0000844014908607047540100205C01002035
:1025000010B50848006840F0100006490860032034
:1025100000F0E2F80F2000F007F800F05FF800206C
:1025200010BD0000002002402DE9F04188B00446B3
:102530000027B846002600BF2348C06940F00200CB
:102540002149C8610846C06900F00200019000BF3F
:1025500000BF02A903A800F0BBFA069F1FB900F054
:10256000DFFA054602E000F0DBFA45001748B5FB4C
:10257000F0F0A0F1010816481649086040F2E73172
:102580001448C160C0F8048000210161816081614C
:1025900000F0F0FF064696B90E4801F035F8064601
:1025A0006EB91D2000F04AF8102C07D200222146F7
:1025B0001D2000F053F80848046000E00126304672
:1025C00008B0BDE8F08100000010024040420F005A
:1025D00000040040240400205801002008B500BF7A
:1025E0001448806940F001001249886108468069FA
:1025F00000F00100009000BF00BF00BF0846C069A6
:1026000040F08050C8610846C06900F080500090DA
:1026100000BF00BF00220F21901E00F01FF800BF76
:102620000549486820F0E06040F00070486000BF55
:1026300008BD0000001002400000014001460846AD
:10264000002809DB00F01F0301229A4043099B0088
:1026500003F1E023C3F8002100BF70472DE9F05FCC
:1026600080460D461646002704F04EFF07463946C1
:102670002A46334601F00700C0F1070ABAF1040FF9
:1026800002D94FF0040A01E0C0F1070AD14600F177
:10269000040ABAF1070F02D24FF0000A01E0A0F1DC
:1026A000030AD4464FF0010A0AFA09FAAAF1010A0C
:1026B0000AEA020A0AFA0CFA4FF0010B0BFA0CFBB9
:1026C000ABF1010B0BEA030B4AEA0B04214640462F
:1026D00004F022FFBDE8F09F00BF00F00702064BA8
:1026E00019684FF6FF031940044B0B4343EA0221DC
:1026F000014B196000BF70470CED00E00000FA05C7
:10270000002001490862704700000E420120014983
:102710000862704700000E422DE9F04706464FF070
:102720000008002500270024A146012E31D0022EEA
:1027300056D0102E5FD132484468006800F0807097
:1027400008B33048C4F38341475C04F4803078B167
:102750002B484068C0F340402B4911F8008004F436
:10276000803040B12948B0FBF8F000FB07F502E0EB
:10277000274807FB00F52248406800F48000B0F5C8
:10278000800F01D1A94603E068000321B0FBF1F9F5
:1027900032E01B48046A04F44070B0F5807F05D134
:1027A00004F0020010B14FF4004918E004F4407046
:1027B000B0F5007F07D11248406A00F0020010B166
:1027C00049F640490BE004F44070B0F5407F06D173
:1027D0000B48006800F4003008B14FF224490BE0C8
:1027E00000F0AEF906494968C1F38131491C49003E
:1027F000B0FBF1F900E000BF00BF4846BDE8F0873C
:10280000001002407AB000088AB0000800127A0076
:1028100000093D00F8B5044600260025207800F0A8
:10282000010000286BD000274348C06900F08050A9
:1028300070B900BF4048C06940F080503E49C8614F
:102840000846C06900F08050009000BF00BF01271B
:102850003A48006800F48070B0B93848006840F425
:10286000807036490860FFF76BFA064606E0FFF70E
:1028700067FA801B642801D90320F8BD2F4800683F
:1028800000F480700028F2D02B48006A00F44075F4
:102890002DB3A08800F44070A84220D02648006ADA
:1028A00020F4407501202649086000200860224875
:1028B000056205F0010090B1FFF742FA064608E014
:1028C000FFF73EFA801B41F28831884201D903208C
:1028D000D3E71948006A00F002000028F0D016483B
:1028E000006A20F440706168084313490862012FB0
:1028F00004D10846C06920F08050C86100BF20782C
:1029000000F00200022807D10B48406820F4404044
:10291000A168084308494860207800F0100010289A
:1029200007D10548406820F48000E1680843024967
:1029300048600020A1E70000001002400070004045
:102940004004424270B504460D460CB9012070BDEA
:102950005A48006800F00700A8420ED257480068A5
:1029600020F007002843554908600846006800F039
:102970000700A84201D00120E9E7207800F002001A
:1029800002281DD1207800F00400042805D14C480D
:10299000406840F4E0604A494860207800F0080050
:1029A000082805D14648406840F4605044494860D2
:1029B0004348406820F0F000A1680843404948605F
:1029C000207800F0010078B36068012806D13C4807
:1029D000006800F4003090B90120B8E76068022870
:1029E00006D13748006800F0007040B90120AEE71A
:1029F0003348006800F0020008B90120A7E730481A
:102A0000406820F00300616808432D494860FFF7E3
:102A100097F9064609E0FFF793F9801B41F28831E8
:102A2000884202D9032092E707E02548406800F079
:102A30000C006168B0EB810FEDD12048006800F018
:102A40000700A8420ED91D48006820F0070028435F
:102A50001A4908600846006800F00700A84201D043
:102A6000012074E7207800F00400042807D11448FE
:102A7000406820F4E060E16808431149486020782C
:102A800000F00800082808D10D48406820F4605084
:102A9000216940EAC1000A49486000F061F808492C
:102AA0004968C1F30311074A515CC84006490860F0
:102AB00006480068FFF738FD002048E70020024084
:102AC000001002408CB00008600100205801002076
:102AD0000F2202600D4A526802F0030242600B4A64
:102AE000526802F0F0028260084A526802F4E06222
:102AF000C260064A526802F46052D2080261044A77
:102B0000126802F007020A607047000000100240DD
:102B1000002002400148006870470000600100206A
:102B200000B5FFF7F7FF04494968C1F30221034AE2
:102B3000515CC84000BD0000001002409CB000087D
:102B400000B5FFF7E7FF04494968C1F3C221034A12
:102B5000515CC84000BD0000001002409CB000085D
:102B600070B500210022002400230020134D696865
:102B700001F00C05F5B1042D02D0082D19D101E0AA
:102B80000F4819E00F4DC1F38346AB5D01F480356A
:102B900055B10A4D6D68C5F340450B4E725D084D49
:102BA0005D43B5FBF2F402E0084D03FB05F420465B
:102BB00002E000BF024800BF00BF70BD001002402D
:102BC00000127A0068B0000878B0000800093D00E3
:102BD000F8B504460CB90120F8BD207800F00100DA
:102BE000002878D0F848406800F00C0004280CD089
:102BF000F548406800F00C00082811D1F248406800
:102C000000F48030B0F5803F0AD1EF48006800F44E
:102C1000003000285FD0606800285CD10120DBE72D
:102C200000BF6068B0F5803F06D1E748006840F417
:102C30008030E549086028E0606858B9E2480068DB
:102C400020F48030E04908600846006820F48020C5
:102C500008601AE06068B0F5A02F0BD1DA48006870
:102C600040F48020D84908600846006840F480306D
:102C700008600AE0D448006820F48030D249086037
:102C80000846006820F48020086000BF606888B1B2
:102C9000FFF756F8054606E0FFF752F8401B642898
:102CA00001D9032098E7C848006800F400300028E4
:102CB000F2D010E0FFF744F8054606E0FFF740F8D1
:102CC000401B642801D9032086E7BF48006800F450
:102CD00000300028F2D1207800F00200022857D1FD
:102CE000B948406800F00C0050B1B748406800F0A7
:102CF0000C00082818D1B448406800F4803098B916
:102D0000B148006800F0020020B12069012801D01C
:102D1000012061E7AC48006820F0F800616940EAF2
:102D2000C100A949086033E02069E8B10120A74942
:102D30000860FFF705F8054606E0FFF701F8401BBD
:102D4000022801D9032047E79F48006800F00200ED
:102D50000028F2D09C48006820F0F800616940EA41
:102D6000C1009949086013E0002098490860FEF707
:102D7000E7FF054606E0FEF7E3FF401B022801D906
:102D8000032029E79048006800F002000028F2D1F3
:102D9000207800F0080008282DD1A069B8B10120E2
:102DA0008B490860FEF7CCFF054606E0FEF7C8FF3A
:102DB000401B022801D903200EE78348406A00F037
:102DC00002000028F2D0012003F018FC13E00020DC
:102DD0007F490860FEF7B4FF054606E0FEF7B0FF46
:102DE000401B022801D90320F6E67748406A00F02C
:102DF00002000028F2D1207800F00400042873D1EA
:102E000000277148C06900F0805070B900BF6E485B
:102E1000C06940F080506C49C8610846C06900F044
:102E20008050009000BF00BF01276A48006800F48E
:102E30008070B0B96748006840F4807065490860E8
:102E4000FEF77EFF054606E0FEF77AFF401B64288A
:102E500001D90320C0E65F48006800F480700028B4
:102E6000F2D000BFE068012806D15748006A40F060
:102E700001005549086227E0E06858B95248006AE5
:102E800020F00100504908620846006A20F0040062
:102E9000086219E0E06805280BD14B48006A40F051
:102EA0000400494908620846006A40F001000862CF
:102EB0000AE04548006A20F00100434908620846DC
:102EC000006A20F00400086200BFE068A0B1FEF7CD
:102ED00037FF054609E0FEF733FF401B41F288311A
:102EE000884202D9032077E622E03748006A00F0E2
:102EF00002000028EFD012E0FEF722FF054608E0AE
:102F0000FEF71EFF401B41F28831884201D90320A1
:102F100062E62D48006A00F002000028F0D1012F7F
:102F200005D12948C06920F080502749C86100BFF9
:102F3000E069C8B32448406800F00C00082860D05D
:102F4000E069022848D1002020490866FEF7F8FE13
:102F5000054606E0FEF7F4FE401B022801D90320D7
:102F60003AE61948006800F000700028F2D1206AA3
:102F7000B0F5803F07D11448406820F40030A168C4
:102F8000084311494860D4E9080108430E494968DB
:102F900021F4741108430C49486001200B4908666C
:102FA000FEF7CEFE054607E03DE0FEF7C9FE401BFA
:102FB000022801D903200FE60348006800F00070E2
:102FC0000028F2D02FE00000001002400000424232
:102FD0008004424200700040002014490866FEF759
:102FE000AFFE054606E0FEF7ABFE401B022801D906
:102FF0000320F1E50E48006800F000700028F2D1CF
:1030000011E0E069012800D1E6E50948466806F4C8
:103010008031206A814204D106F47011606A8142D5
:1030200001D00120D8E50020D6E500000000424292
:103030000010024010B5034600220020024A02EBB5
:1030400081021468A0B210BD006C004010B50346A8
:103050000020034800EB810094B2046010BD000022
:10306000006C0040F8B505460C461646002000905E
:1030700005B10CB90120F8BD00226946284600F0D0
:103080001AF808B10120F6E7287B2070E87BE07091
:10309000687B6070A87BA0705EB1E07803F0CDFA29
:1030A000E070607803F0C9FA6070A07803F0C5FAA8
:1030B000A0700020DFE72DE9F04780460C469146DE
:1030C00000250026AA460027B8F1000F00D014B949
:1030D0000120BDE8F087D8F800004068C0F3800008
:1030E00008B10120F5E7404603F06EFB05464FF4BA
:1030F0006160B5FBF0F7B5FBF0F100FB11503C212E
:10310000B0FBF1F060704FF46160B5FBF0F100FBD3
:1031100011503C21B0FBF1F201FB1200A070182FFE
:1031200039D31820B7FBF0FAB7FBF0F100FB1170B0
:103130002070404603F03CFB0646701C18B1AE42BE
:1031400001D9761B01E04FF0FF360AEB4A00C000C0
:10315000C0EB4011C1EB0020A5EB0015294640460D
:1031600003F0A5FB08B10120B3E7701C38B12E4471
:103170003146404603F084FB40B10120A9E73146C7
:10318000404603F07DFB08B10120A2E751464046CE
:1031900003F060FA00E02770B9F1000F0BD020783F
:1031A00003F04BFA2070607803F047FA6070A07863
:1031B00003F043FAA07000208BE7000070B50446CE
:1031C00000250CB9012070BD607C20B9002020745E
:1031D000204600F053F802206074204600F066F9A3
:1031E00018B1042060740120EDE7204603F08DFA49
:1031F00018B1042060740120E5E72068406820F0E1
:10320000070021684860A06828B11B48006820F0CA
:103210000100194908601848001F006820F4607018
:10322000A16808431449091F08606068401C08B180
:10323000656809E00120FFF76FFA05461DB9042013
:1032400060740120BFE76D1EC5F3034021688860EC
:10325000A8B22168C860204603F074FA18B10420AF
:1032600060740120AFE70021E17301216173A17354
:10327000012060740020A6E7306C004038B5044699
:1032800012492068884220D100BF1148C06940F02F
:1032900080500F49C8610846C06900F08050009016
:1032A00000BF00BFFFF732FA00BF0948C06940F015
:1032B00000600749C8610846C06900F000600090DE
:1032C00000BF00BF01200349086038BD002800404E
:1032D000001002403C0442422DE9F04704460D46EE
:1032E000904600260027B14604B115B90120BDE87B
:1032F000F08700BF207C012801D10220F7E70120E0
:10330000207400BF02206074B8F1000F06D1E97884
:10331000E17369786173A978A1730BE0E87803F031
:1033200081F9E073687803F07DF96073A87803F0A1
:1033300079F9A073A27B617BE07B03F05FFA2073D5
:10334000207B2870204603F03FFA06464FF4616068
:10335000B6FBF0F9B9F1180F2FD91820B9FBF0F02E
:1033600000EB4000C000C0EB4011C1EB0020A6EB19
:1033700000163146204603F09AFA38B104206074F2
:1033800000BF0020207400BF0120B0E7204603F0FA
:103390000FFA0746781C80B1B7420ED20B4807449B
:1033A0003946204603F06CFA38B10420607400BF3F
:1033B0000020207400BF012099E70120607400BF45
:1033C0000020207400BF00BF91E700008051010081
:1033D0002DE9F04704460D4690460026002704B12B
:1033E00015B90120BDE8F08700BF207C012801D17C
:1033F0000220F7E70120207400BF02206074B8F1BA
:10340000000F0BD128784FF4616148436978C1EB14
:10341000011100EB8100A978461812E0287803F02A
:1034200001F94FF4616100FB01F9687803F0FAF8E3
:10343000C0EB001009EB8009A87803F0F3F809EB62
:1034400000063146204603F032FA38B10420607499
:1034500000BF0020207400BF0120C3E7206840683F
:1034600020F0050021684860204603F0A1F90746D6
:10347000781C80B1B7420ED20B480744394620462B
:1034800003F0FEF938B10420607400BF00202074FE
:1034900000BF0120A6E70120607400BF0020207457
:1034A00000BF00BF9EE700008051010070B50446D8
:1034B00000250CB9012070BD2068406820F008008C
:1034C00021684860FEF73CFC054607E0FEF738FC43
:1034D000401BB0F57A7F01D90320ECE720684068F3
:1034E00000F008000028F1D00020E4E770477047A2
:1034F00030B502460B4600BF92F83C00012801D1CE
:10350000022030BD012082F83C0000BF022082F87A
:103510003D00106844681068816824F070041868E1
:10352000044310684460104D1068A8420BD0106826
:10353000B0F1804F07D00D4D1068A84203D00C4D5C
:103540001068A84205D121F0800158680143106835
:103550008160012082F83D0000BF002082F83C001D
:1035600000BF00BFCDE70000002C01400004004078
:103570000008004010B504460CB9012010BD94F8B5
:103580003D0028B9002084F83C00204600F026F8D1
:10359000022084F83D00211D206803F007FB012074
:1035A00084F8460000BF84F83E0001213F20015509
:1035B000402001554120015500BF00BF012084F883
:1035C000420043200155442001554520015500BFCC
:1035D000012084F83D000020D0E7000008B5016814
:1035E000B1F1804F0DD100BF0649C96941F0010119
:1035F000044AD1611146C96901F00101009100BF7F
:1036000000BF08BD00100240014691F83D000128AE
:1036100001D001207047022081F83D000868C06891
:1036200040F001000B68D860124B086898420BD03C
:103630000868B0F1804F07D00F4B0868984203D05C
:103640000E4B086898420CD10868806800F00702A9
:10365000062A0CD00868006840F001000B6818606A
:1036600005E00868006840F001000B681860002061
:10367000D0E70000002C014000040040000800409A
:103680002DE9F04104460D46002700BF94F83C00A8
:10369000012802D10220BDE8F081012084F83C001D
:1036A00000BF022084F83D002068866826F0770677
:1036B00026F47F46206886602868502833D00CDCCA
:1036C000202850D004DC00284BD0102851D149E0EC
:1036D000302849D040284CD139E060282DD07028BE
:1036E00007D0B0F5805F03D0B0F5005F41D10DE0A9
:1036F00041E0D5E902136A68206803F099FA20686E
:10370000866846F077062068866034E0D5E90213C3
:103710006A68206803F08CFA2068806840F4804072
:103720002168886027E0EA686968206803F050FB38
:103730005021206803F087FA1DE0EA686968206874
:1037400003F059FB6021206803F07DFA13E0EA687A
:103750006968206803F03CFB4021206803F073FA9D
:1037600009E000BF00BF00BF2968206803F06BFAC2
:1037700001E0012700BF00BF012084F83D0000BF29
:10378000002084F83C0000BF384684E72DE9F04172
:1037900004460D4614B90120BDE8F08194F83D00BF
:1037A00028B9002084F83C00204600F051F802209F
:1037B00084F83D002068806844F20701884321684E
:1037C0008860211D206803F0F1F92068D0F8088096
:1037D000206886692068076A286840EA080840F27D
:1037E00003308643A969A86840EA0120064340F6F1
:1037F0000C4086434FF2F0008643E969E86840EAEE
:103800000120064328690001296A40EA0130064385
:1038100027F022076969686840EA011007432068B9
:10382000C0F808802068866120680762012084F85B
:10383000460084F83E0001213F200155012084F814
:10384000420043200155012084F83D000020A3E7F9
:1038500010B586B0044600200290039004900590B5
:1038600015492068884224D100BF1448806940F47B
:103870000060124988610846806900F40060019088
:1038800000BF00BF00BF0846806940F004008861A7
:103890000846806900F00400019000BF00BF4FF4AB
:1038A0004070029000200390049002A90448FEF7A3
:1038B000A9F806B010BD0000002C01400010024025
:1038C00000080140704770B504462068C56820684C
:1038D000066906F00200022819D105F0020002284C
:1038E00015D1401F21680861012020772068806978
:1038F00000F0030018B12046FFF7E4FF05E0204682
:1039000000F0C2F8204600F076F90020207706F09B
:103910000400042819D105F00400042815D1C0437F
:1039200021680861022020772068806900F44070D7
:1039300018B12046FFF7C6FF05E0204600F0A4F8C6
:10394000204600F058F90020207706F008000828EB
:1039500019D105F00800082815D1C0432168086175
:10396000042020772068C06900F0030018B12046C9
:10397000FFF7A8FF05E0204600F086F8204600F09B
:103980003AF90020207706F01000102819D105F030
:103990001000102815D1C043216808610820207745
:1039A0002068C06900F4407018B12046FFF78AFF14
:1039B00005E0204600F068F8204600F01CF90020E1
:1039C000207706F0010048B105F0010030B16FF03A
:1039D000010021680861204600F00EF906F0800021
:1039E000802809D105F08000802805D1C0432168D6
:1039F00008612046FFF77AFD06F04000402809D113
:103A000005F04000402805D1C043216808612046E8
:103A100000F0FEF806F02000202809D105F0200073
:103A2000202805D1C043216808612046FFF75FFDCB
:103A300070BD000010B586B00446002002900390CF
:103A4000049005902068B0F1804F16D100BF0C485B
:103A5000806940F004000A4988610846806900F0E6
:103A60000400019000BF00BF0120029002200390DB
:103A7000059002A90348FDF7C5FF06B010BD000080
:103A8000001002400008014070472DE9F041044653
:103A90000D461646002700BF94F83C00012802D1CD
:103AA0000220BDE8F081012084F83C0000BF36B15F
:103AB000042E1BD0082E31D00C2E5ED145E02946B5
:103AC000206803F0C9F82068806940F00800216888
:103AD00088612068806920F004002168886120687E
:103AE0008069296908432168886148E0294620687F
:103AF00003F0E2F82068806940F400602168886182
:103B00002068806920F4806021688861206880696D
:103B1000296940EA01202168886130E0294620684F
:103B200003F0FEF82068C06940F008002168C86111
:103B30002068C06920F004002168C8612068C0695D
:103B4000296908432168C86119E02946206803F003
:103B50001BF92068C06940F400602168C8612068D2
:103B6000C06920F480602168C8612068C069296943
:103B700040EA01202168C86101E0012700BF00BFC1
:103B800000BF002084F83C0000BF384689E710B52C
:103B900004460CB9012010BD94F83D0028B900205E
:103BA00084F83C00204600F025F8022084F83D000F
:103BB000211D206802F0FAFF012084F8460000BFB2
:103BC00084F83E0001213F2001554020015541204D
:103BD000015500BF00BF012084F842004320015579
:103BE000442001554520015500BF012084F83D00C7
:103BF0000020D0E77047704710B50446034920689D
:103C0000884201D1FEF770FC10BD000000040040A6
:103C10007047704710B5044600BF00BF21680C31E3
:103C200051E8001F21F4907021680C3141E8000236
:103C3000002AF3D100BF00BF00BF2168143151E852
:103C4000001F21F001002168143141E80002002A20
:103C5000F3D100BF206B01280ED100BF00BF216847
:103C60000C3151E8001F21F0100021680C3141E8AF
:103C70000002002AF3D100BF2068406900F0400034
:103C800000B300BF00BF2168143151E8001F21F0CC
:103C900040002168143141E80002002AF3D100BF3E
:103CA000E06B78B10020E16B4863E06BFDF736FC18
:103CB00040B1E06BFDF75DFC202803D1102060646B
:103CC000032010BD0020E085202084F84200002061
:103CD000206300BFF5E7704710B504460CB901201A
:103CE00010BDA06900B100E000BF94F8410028B900
:103CF000002084F84000204600F02AF8242084F8B0
:103D000041002068C06820F400502168C860204647
:103D100003F0E8F92068006920F490402168086108
:103D20002068406920F02A00216848612068C06846
:103D300040F400502168C86000206064202084F8AE
:103D4000410084F842000020606300BFC8E7000023
:103D500010B586B0044600200290039004900590B0
:103D600027492068884249D100BF2648C06940F4ED
:103D700000302449C8610846C06900F40030019051
:103D800000BF00BF00BF0846806940F004008861A2
:103D90000846806900F00400019000BF00BF0420C5
:103DA0000290022003900320059002A91648FDF717
:103DB00029FE0820029000200390049002A91248D6
:103DC000FDF720FE114812490860002048600021DC
:103DD0000F4881608021C1600021016141618161E2
:103DE000C161FDF797FC08B1FDF73EF800BF084838
:103DF0000849C86308460649486200BF06B010BDBE
:103E00000044004000100240000801406C000240E5
:103E100098030020DC03002070B504460D461646CA
:103E200094F8420020280BD105B10EB9012070BDD5
:103E30000020206332462946204603F0D1F9F6E7F8
:103E40000220F4E7704770472DE9F84F04460E460C
:103E5000174699464FF0000A94F84100202850D1A7
:103E600006B117B90120BDE8F88F00206064212059
:103E700084F84100FDF764FF8246A784E784A068C8
:103E8000B0F5805F04D1206910B90025B04602E08A
:103E900035464FF000081EE05346002280212046A0
:103EA000CDF8009003F000FA20B1202084F8410002
:103EB0000320D8E745B9B8F80000C0F3080021682E
:103EC000486008F1020803E02878216848606D1C0A
:103ED000E08C401EE084E08C0028DDD153460022B7
:103EE00040212046CDF8009003F0DEF920B12020DB
:103EF00084F841000320B6E7202084F84100002028
:103F0000B1E70220AFE700BFFEE70146086840695D
:103F1000C0F38020B0B16FF480600A685061002067
:103F20000863202081F83D00002081F83E00086CE5
:103F300040F00400086400BF002081F83C0000BF8E
:103F4000012070470020FCE72DE9F84304460D46A8
:103F500017469846E66A082E04D0012E02D016F5C0
:103F6000803F06D12068006840F4807021680860B6
:103F700008E0206B122805D12068006840F48070AA
:103F8000216808603B4600224FF001112046CDF821
:103F9000008000F01CF960B12068006800F48070B7
:103FA000B0F5807F02D14FF4007020640320BDE89B
:103FB000F8832069B0F5804F04D105F0FE00216838
:103FC000086112E005F44070F02141EAE010216838
:103FD000086143463A460B49204600F057F908B1BC
:103FE0000120E4E7E8B22168086143463A46054902
:103FF000891F204600F04AF908B10120D7E70020C8
:10400000D5E70000080001002DE9F84304460F46FB
:1040100015469946DDE908862068006840F480600E
:10402000216808602068006840F48070216808609A
:10403000434600224FF001112046009600F0C7F8D9
:1040400060B12068006800F48070B0F5807F02D114
:104050004FF4007020640320BDE8F88307F0FE00F1
:1040600021680861334642463E49204600F00EF979
:1040700008B10120F0E700BF0020009020684069EF
:10408000009020688069009000BF00BF3246414622
:10409000204600F0BDF950B1206C042805D12068FD
:1040A000006840F40070216808600120D4E7B9F18D
:1040B000010F03D1E8B22168086117E0C5F30720BA
:1040C0002168086132464146204600F0A1F950B10E
:1040D000206C042805D12068006840F40070216835
:1040E00008600120B8E7E8B221680861324641461D
:1040F000204600F08DF950B1206C042805D12068CD
:10410000006840F40070216808600120A4E720687E
:10411000006840F4807021680860434600224FF038
:1041200001112046009600F052F858B1206800684E
:1041300000F48070B0F5807F02D14FF400702064ED
:10414000032089E7F8B240F0010021680861334696
:1041500042460449204600F099F808B101207BE767
:10416000002079E70200010070B504460D461646AE
:1041700025E02046FFF7C9FE08B1012070BD681C8C
:10418000E8B1FDF7DDFD801BA84200D8BDB920686D
:104190004069C0F3800090B900202063202084F89B
:1041A0003D00002084F83E00206C40F02000206498
:1041B00000BF002084F83C0000BF0120DEE720683B
:1041C0004069C0F380000028D3D00020D6E72DE955
:1041D000F04104460D4617461E46DDF8188038E0CB
:1041E000701CA8B3FDF7ACFDA0EB0800B04200D8EE
:1041F00076BBC5F3074001280AD120684069A9B2FF
:104200000840A9B2884201D101200BE0002009E05A
:1042100020688069A9B20840A9B2884201D1012072
:1042200000E00020B84214D100202063202084F850
:104230003D00002084F83E00206C40F02000206407
:1042400000BF002084F83C0000BF0120BDE8F081E1
:10425000FFE7C5F3074001280AD120684069A9B2E9
:104260000840A9B2884201D101200BE0002009E0FA
:1042700020688069A9B20840A9B2884201D1012012
:1042800000E00020B842ABD00020DFE72DE9F0418C
:1042900004460D4616461F4658E020684069C0F3A4
:1042A0008020E8B12068006840F400702168086050
:1042B0006FF480602168486100202063202084F82A
:1042C0003D00002084F83E00206C40F00400206493
:1042D00000BF002084F83C0000BF0120BDE8F08151
:1042E000701C90B3FDF72CFDC01BB04200D866BB1C
:1042F000C5F3074001280AD120684069A9B20840E7
:10430000A9B2884201D101200BE0002009E0206819
:104310008069A9B20840A9B2884201D1012000E019
:10432000002090B900202063202084F83D00002068
:1043300084F83E00206C40F02000206400BF002084
:1043400084F83C0000BF0120C8E7FFE7C5F3074041
:1043500001280AD120684069A9B20840A9B2884260
:1043600001D101200BE0002009E020688069A9B29A
:104370000840A9B2884201D1012000E000200028B5
:104380008BD00020AAE770B504460D46164637E0EC
:1043900020684069C0F30010A0B16FF010002168E0
:1043A000486100202063202084F83D00002084F82C
:1043B0003E00206C206400BF002084F83C0000BF59
:1043C000012070BDFDF7BCFC801BA84200D8BDB920
:1043D00020684069C0F3801090B90020206320203D
:1043E00084F83D00002084F83E00206C40F020005E
:1043F000206400BF002084F83C0000BF0120E0E7FB
:1044000020684069C0F380100028C1D00020D8E7A0
:1044100070B504460D46164625E02046FFF775FDAB
:1044200008B1012070BD681CE8B1FDF789FC801B54
:10443000A84200D8BDB920684069C0F3C01090B947
:1044400000202063202084F83D00002084F83E00F6
:10445000206C40F02000206400BF002084F83C0065
:1044600000BF0120DEE720684069C0F3C0100028CB
:10447000D3D00020D6E700001FB500226B21D0204A
:1044800000F026F84FF0FF30012103AA0B46CDE9DA
:10449000002102907522D0210148FDF7F7FD1FBDD4
:1044A000B40200207FB504460D464FF0FF300121D5
:1044B00003AA0B46CDE9002102902A462146034873
:1044C000FDF7E4FD9DF80C0004B070BDB4020020BF
:1044D0007CB504460E4615468DF804608DF80550EF
:1044E0004FF0FF30022301AA214600900148FDF75A
:1044F00015FD7CBDB40200209CB05A4AD2E90010E0
:104500009268CDE91A02199100262827B0460024A6
:10451000302254490C310DA8FBF76FFE202105A86D
:10452000FBF784FEA14600BF4FF0FF314E48006804
:1045300005F0F4FF00250020034601223F210090F2
:104540004A48006805F052FB85B205F0010058B1F9
:1045500019A850F824004044401E19A951F824100D
:1045600090FBF1F201FB120805F0020028B1A01C3B
:10457000032190FBF1F201FB120405F0040028B1C5
:10458000601C032190FBF1F201FB120405F008000E
:1045900048B100F093FD00231A46194634480068DC
:1045A00005F0B6FDC0E705F0100040B119A850F8BD
:1045B000241008F1010090FBF1F201FB120805F054
:1045C000200020B1B9F1200F01DA09F101094FEA09
:1045D000C806282000EBC4070DA800EB041010F853
:1045E000080005A901F809004FF480612148FBF794
:1045F0001DFE012305AA0021084601F06FFA0123E0
:1046000009AA1021002001F069FA01231AA2282129
:10461000002000F0C7FC01231AA23021002000F086
:10462000C1FC01231CA23821002000F0BBFC0222A7
:1046300007F108000146CDE90116CDE9030206F1B4
:1046400008003B46024639460090304601F0EAFB3E
:1046500001F04AFF00231A4619460348006805F096
:1046600057FD61E72CB000084C010020100100202C
:104670003C01002088290020313233343536373868
:10468000393000006162636465666768696A6B6CF3
:104690006D6E6F70000000007172737475767778BC
:1046A000797A00001FB500212C48006805F036FF1C
:1046B00000BF4FF0FF312948006805F02FFF0024AC
:1046C000002003460122082100902548006805F0DB
:1046D0008DFA84B204F0080048B100F0EFFC00232A
:1046E0001A4619461F48006805F012FDE1E73B2114
:1046F000D020FFF7D7FE8DF80D003C21D020FFF72A
:10470000D1FE8DF80C003D21D020FFF7CBFE8DF8B7
:1047100009003E21D020FFF7C5FE8DF808003F219B
:10472000D020FFF7BFFE8DF805004021D020FFF715
:10473000B9FE8DF80400BDF90420BDF90810BDF9DB
:104740000C0001F08DFB01F0CFFE00231A46194644
:104750000248006805F0DCFCABE7000038010020EF
:10476000100100203C0100200EB5002000900190B7
:104770000290234823490860811522488160002166
:10478000017301754FF46021C16100201D4948602B
:1047900004211C480161FCF709FD08B1FCF764FB2A
:1047A00004200090012001900020029069461548E5
:1047B000FCF748FC08B1FCF757FB052000900220ED
:1047C000019069460F48FCF73DFC08B1FCF74CFB33
:1047D000062000900320019069460A48FCF732FC4D
:1047E00008B1FCF741FB07200090042001906946C6
:1047F0000448FCF727FC08B1FCF736FB0EBD0000AF
:10480000002401404002002008B500BF0A4840696A
:1048100040F00100084948610846406900F0010085
:10482000009000BF00BF002205210B20FDF716FFFE
:104830000B20FDF703FF08BD0010024010B5194A18
:104840000121084603F0EEFC17490860174A0121D0
:10485000084603F0E7FC16490860164A012108469D
:1048600003F0E0FC14490860144A0121084603F0F3
:10487000D9FC13490860134A0121084603F0D2FC11
:1048800011490860114A0121084603F0CBFC104988
:104890000860104A0021104803F02AFD0F49086003
:1048A00010BD000074AE00081C01002038AF0008E5
:1048B0003401002048AF00083801002058AF00083C
:1048C0003C0100208CAF000844010020C0AF00086C
:1048D0004C01002084AE0008D169000820010020AE
:1048E00000B585B00020019002900390049000BFB5
:1048F0003148806940F010002F498861084680697E
:1049000000F01000009000BF00BF00BF08468069A3
:1049100040F0200088610846806900F02000009087
:1049200000BF00BF00BF0846806940F004008861F6
:104930000846806900F00400009000BF00BF00BF7F
:104940000846806940F0080088610846806900F0E8
:104950000800009000BF00BF002210211748FDF79B
:10496000E9F90122E0211548FDF7E4F94FF4704020
:104970000190002002900120039001A90F48FDF74B
:1049800041F8302001900120029000200390022085
:10499000049001A90948FDF735F8C02001901120C5
:1049A0000290002003900320049001A90348FDF722
:1049B00029F805B000BD000000100240000C0140C5
:1049C00010B50B480B4908600B48486000210948A6
:1049D0008160C1604FF480410161002141618161CA
:1049E000C1610162FDF7B2F908B1FCF73DFA10BDF3
:1049F00000580040B4020020A086010010B507480E
:104A0000074908600420486040F6FF71044881604F
:104A1000FDF732FD08B1FCF727FA10BD0030004069
:104A20006C0400201CB50020019000902748284904
:104A300008604FF0FF3048604FF480712448816077
:104A4000FEF7BCFB08B1FCF70FFA01212048FEF786
:104A5000F1FA4AF2A551884236D000208DF80400C0
:104A60008DF805008DF80600012201A91848FEF70F
:104A7000AFFC08B1FCF7F8F901208DF80000042024
:104A80008DF801000F208DF802001A208DF8030028
:104A9000012269460E48FEF71FFC08B1FCF7E4F955
:104AA000FDF734FE4AF2A55201210948FEF7CEFA7D
:104AB000022405E0002221460548FEF7C7FA641CDF
:104AC0000A2CF7D9FDF71CFE1CBD00000028004091
:104AD0007804002000B58BB0242102A8FBF7A6FBC8
:104AE0000020009001901848184908600020486094
:104AF0000021164881604FF6FF71C16000210161FD
:104B00004161816101200290002003900120049006
:104B10000020059006900790012008900020099041
:104B20000A9002A90948FEF731FE08B1FCF79CF98A
:104B300000200090019069460448FEF7D9FC08B1B6
:104B4000FCF792F90BB000BD002C014008030020D7
:104B500000B58DB0002009900A900B900C90079042
:104B600008901C216846FBF761FB4FF0804020490C
:104B700008604820486000211D48816044F620619B
:104B8000C160002101618161FEF7F4FC08B1FCF70E
:104B90006BF94FF48050099009A91548FEF770FD94
:104BA00008B1FCF761F91248FEF7F1FF08B1FCF714
:104BB0005BF900200790089007A90D48FEF798FCC4
:104BC00008B1FCF751F9602000904FF4FA700190A1
:104BD000002002900490002269460548FEF755FF28
:104BE00008B1FCF741F90248FEF724FF0DB000BD03
:104BF0005003002010B51348134908604FF41650B5
:104C00004860002110488160C16001610C21416150
:104C100000218161C161FFF75FF808B1FCF724F959
:104C2000002208212620FDF719FD2620FDF706FDAC
:104C300005480068C06840F0200003490968C86062
:104C400010BD000000440040DC03002000BFFEE770
:104C500000BFFEE72DE9F04385B006460F469046BB
:104C60001C46DDE90C59002001900290039004904D
:104C7000681E0BE00A2194FBF1F201FB1241303176
:104C800001AA11540A2194FBF1F4401E0028F1DA24
:104C9000002001A9485501AB424639463046CDF8BF
:104CA000009000F003F805B0BDE8F0832DE9FF4F58
:104CB0008FB005461C462046FBF7C3FA042101FBD2
:104CC00000500890ADE02078203805900026A2E042
:104CD00000279CE05649059801EBC00010F806B08B
:104CE0004FF0000A3A464FF00108D1464046494687
:104CF000FBF764FA0BEA00020AEA010000235A40BB
:104D0000584002437ED01099C819FBF7B3FC824685
:104D1000A819FBF7AFFC83461098001DFBF7AAFC0F
:104D200004900898FBF7A6FC039006A807A95B4629
:104D3000CDE900A10290119ADDE9030104F066F9C2
:104D40000798002808DB0798802805DA06980028CD
:104D500002DB0698402800DB58E01C9820B10128AF
:104D60001ED0022850D134E03248079900EBC10030
:104D7000D0E900AB01210020069ACDE909010846DF
:104D80000999FBF71BFA0A46C1430AEA010A2BEA12
:104D9000020B2848079900EBC100C0E900AB33E0E3
:104DA0002448079900EBC100D0E900BA0121002096
:104DB000069ACDE90B0108460B99FBF7FFF94BEA80
:104DC00000024AEA01031B48079900EBC1000CC02E
:104DD0001AE01848079900EBC100D0E900BA012198
:104DE0000020069ACDE90D0108460D99FBF7E6F97A
:104DF0008BEA00028AEA01030E48079900EBC10022
:104E00000CC000E001E000BF00BF00BF7F1C082F06
:104E1000FFF660AF761C082EFFF65AAF641C0A3509
:104E200000BF207800287FF44EAF13B0BDE8F08FAC
:104E300094B60008882900202DE9FF4F8DB0064662
:104E40001098203805900024A2E000259CE05349EA
:104E5000059801EBC00010F804B04FF0000A2A4694
:104E60000127D04638464146FBF7A8F90BEA000275
:104E70000AEA010A00214A408AEA010A52EA0A02C1
:104E80007ED00E994819FBF7F5FB82463019FBF7E7
:104E9000F1FB83460E98001DFBF7ECFB0490301DE0
:104EA000FBF7E8FB039006A807A95B46CDE900A144
:104EB00002900F9ADDE9030104F0A8F80798002892
:104EC00008DB0798802805DA0698002802DB069898
:104ED000402800DB57E01A9820B101281DD0022895
:104EE0004DD133E02E48079900EBC100D0E900AB6B
:104EF0004FF001090020069A089048460899FBF7F0
:104F00005DF9C2430AEA020A2BEA01002449079A22
:104F100001EBC201C1E900A031E02148079900EB93
:104F2000C100D0E900BA01210020069ACDE90901AB
:104F300008460999FBF742F94BEA00024AEA0103E5
:104F40001748079900EBC1000CC018E014480799F6
:104F500000EBC100D0E900BA01210020069ACDE99A
:104F60000B0108460B99FBF729F98BEA00028AEA44
:104F700001030B48079900EBC1000CC000BF00E023
:104F800000E000BF00BF6D1C082DFFF660AF641C81
:104F9000082CFFF65AAF11B0BDE8F08F94B60008A8
:104FA000882900202DE9F04105460E4614461F468B
:104FB00007E022783B463146284600F007F8641C9B
:104FC000083520780028F4D1BDE8F0812DE9FF4FA5
:104FD00085B005460E461746002465E0089820B1C6
:104FE000012823D002285DD13FE02819314901EB87
:104FF000C000D0E900ABA7F120002F4901EBC000B1
:1050000010F8048000203246019040460199FBF7D9
:10501000D5F80A46C1430AEA010A2BEA020B28190D
:10502000244901EBC000C0E900AB3BE0281921494D
:1050300001EBC000D0E900ABA7F120001E4901EB55
:10504000C00010F8049000203246029048460299B1
:10505000FBF7B4F84AEA000A4BEA010B2819154994
:1050600001EBC000C0E900AB1CE02819114901EBBD
:10507000C000D0E900ABA7F120000F4901EBC00050
:10508000005D00213246CDE90310FBF797F88AEA6C
:10509000000A8BEA010B2819064901EBC000C0E9A0
:1050A00000AB00BF00BF641C082C97DB09B0BDE853
:1050B000F08F00008829002094B6000870B5002405
:1050C0000EE00021204601F0A1F9002504E00020B7
:1050D00001F083FA681CC5B2802DF8DB601CC4B2F5
:1050E000082CEEDB70BD00002DE9F74F82B00646BC
:1050F0000C46049801285DD1002559E0601900F1A3
:105100008007F81707EB10600012A7EB0020514949
:1051100001EBC00030F916804FEAE87008EB9060B0
:105120008011C0F140024FF0010A4FF000095046D3
:105130004946FBF743F8484A02EBC5030CCB104342
:105140001943454A02EBC50203C20120621902F16C
:105150008007FA1707EB12621212A7EB0222DFF8A0
:10516000F4C00CEBC202009032F916B04FEAEB72B9
:105170000BEB92629211C2F14003621902F17F08B7
:105180004FEAE87208EB12621212A8EB02220CEB53
:10519000C20232F916204FEAE27C019202EB9C62D5
:1051A0009211C2F14001681E2A4600F035FB6D1CC9
:1051B000802DA3DB0498022848D1002544E002207A
:1051C00000FB05494FEAE97009EB10600012A9EBFA
:1051D0000020204901EBC00030F9160004EBD47127
:1051E0004910A4EB4101019409B1012101E04FF004
:1051F000FF31022202FB05428F18F91707EB1161FC
:105200000912A7EB0121134A02EBC10131F9161073
:1052100000EB01084FEAE87008EB5060C011C0F1E4
:1052200040024FF0010A4FF0000B50465946FAF782
:10523000C5FF094A02EBC5030CCB10431943064ACC
:1052400002EBC50203C26D1C802DB8DB05B0BDE8C2
:10525000F08F0000882D0020882900202DE9F74FCD
:1052600096B00D4614462846FBF70DFA8246D64AFC
:10527000D64BFBF71EF907460022D54BFBF78BF9FF
:10528000CDE904011698FBF7FEF98246CE4ACF4BD2
:10529000FBF70FF90022CF4BCDE90001FBF77BF9BB
:1052A0000746C94AC94BFBF75DF8CDE90201DDE9C4
:1052B0000423FBF757F881F00041CDE90601FBF725
:1052C00025FA0990FBF70FFACDE90A0103F058FF20
:1052D0000022C14BCDE90C01FBF7EBF80022BF4BDC
:1052E000CDE90E01FBF73EF8CDE91001FBF7DCF943
:1052F00015902846FBF7C7F98246B34AB34BFBF734
:10530000D8F807460022B24BFBF745F9CDE9040176
:105310001698FBF7B8F9AC4AAC4BCDE90001FBF7A6
:10532000C8F882460022AB4BFBF735F90746A64A80
:10533000A64BFBF717F8CDE90201DDE90423FBF7E3
:1053400011F881F00041CDE90601FBF7DFF9099082
:10535000FBF7C9F9CDE90A0102F0EAFD00229E4BF4
:10536000CDE90C01FBF7A5F800229D4BCDE90E011C
:10537000FAF7F8FFCDE91001FBF796F914902046F3
:10538000FBF781F98246904A904BFBF792F807466B
:105390000022944BFBF7FFF8CDE904012846FBF708
:1053A00072F98246884A894BFBF783F800228E4BBC
:1053B000CDE90001FBF7EFF80746834A834BFAF784
:1053C000D1FFCDE90201DDE90423FAF7CBFF81F03B
:1053D0000041CDE90601FBF799F90990FBF783F944
:1053E000CDE90A0103F0CCFE0022804BCDE90C018F
:1053F000FBF75FF80022794BCDE90E01FAF7B2FF17
:10540000CDE91001FBF750F913902046FBF73BF96B
:1054100082466D4A6D4BFBF74CF807460022714BF4
:10542000FBF7B9F8CDE904012846FBF72CF9664AE9
:10543000664BCDE90001FBF73CF8824600226A4B3F
:10544000FBF7A9F80746604A604BFAF78BFFCDE9F6
:105450000201DDE90423FAF785FF81F00041CDE97F
:105460000601FBF753F90990FBF73DF9CDE90A0175
:1054700002F05EFD00225D4BCDE90C01FBF719F84F
:105480000022574BCDE90E01FAF76CFFCDE9100170
:10549000FBF70AF912906042FBF7ECF80790FBF774
:1054A00022F90746484A494BFBF703F88246002297
:1054B0004D4BFBF770F8444A444BCDE90801FAF72D
:1054C00051FFCDE90A0103F05BFE0022484BCDE914
:1054D0000C01FAF7EEFF0022404BCDE90E01FAF77E
:1054E00041FFCDE91001FBF7DFF806466042FBF70C
:1054F000C1F80790FBF7F7F80746334A334BFAF742
:10550000D8FF0022384BCDE90801FBF744F82E4ABA
:105510002E4BCDE90A01FAF725FF824602F008FD7D
:105520000022334BCDE90C01FAF7C3FF00222C4BCC
:10553000CDE90E01FAF716FFCDE91001FBF7B4F83B
:10554000814601201D231E2220210090402000F0D2
:105550002FFA0120009020214020DDE9143200F0D4
:105560004BF80120009020214020DDE9123200F0AC
:1055700043F801204B46324620210090402000F0A5
:105580003BF8012030231B4A042100903C20FFF708
:1055900053FC01203923174A1C2100902420FFF7D7
:1055A0004BFC01203323134A1C2100905420FFF7A9
:1055B00043FC012036230F4A342100903C20FFF7A2
:1055C0003BFC19B0BDE8F08F4AD8124DFB210940D1
:1055D0000080864000001840000024400000504039
:1055E000000040400020AC4000003E40000034403D
:1055F000000039400000B4422DE9FF4F91B006464B
:105600000F461398A0EB06081498A0EB070913980F
:10561000B04201DD012001E04FF0FF30049014980A
:10562000B84201DD012001E04FF0FF300390344625
:105630003D46B8F1000F01DD404601E0C8F1000031
:105640000290B9F1000F01DD484601E0C9F1000008
:105650000190DDE9010181426CDB0020009064E0F3
:10566000A01B00FB09F090FBF8F0C519002C57DDDA
:10567000802C55DC002D53DD402D51DC1E9820B1CF
:1056800001281CD002284AD131E0624800EBC40056
:105690002A460121D0E900AB0020CDE905010846EA
:1056A0000599FAF78BFD0A46C1430AEA010A2BEA7B
:1056B000020B584800EBC400C0E900AB2FE055488E
:1056C00000EBC4002A460121D0E900AB0020CDE95F
:1056D000070108460799FAF771FD4AEA000A4BEA02
:1056E000010B4C4800EBC400C0E900AB17E049488F
:1056F00000EBC4002A460121D0E900BA0020CDE920
:10570000090108460999FAF759FD8BEA00028AEA6D
:10571000010A404800EBC400C0E9002A00BF00BFF6
:10572000049804440098401C009002990098884214
:1057300096DB6BE00020009064E0E81B00FB08F0C3
:1057400090FBF9F08419002C57DD802C55DC002DDE
:1057500053DD402D51DC1E9820B101281CD00228B9
:105760004AD131E02B4800EBC4002A460121D0E9A0
:1057700000AB0020CDE90B0108460B99FAF71EFD9E
:105780000A46C1430AEA010A2BEA020B214800EB50
:10579000C400C0E900AB2FE01E4800EBC4002A465D
:1057A0000121D0E900BA0020CDE90D0108460D998C
:1057B000FAF704FD4BEA00024AEA010A154800EB39
:1057C000C400C0E9002A17E0124800EBC4002A46D2
:1057D0000121D0E900AB0020CDE90F0108460F9967
:1057E000FAF7ECFC8AEA000A8BEA010B094800EBA5
:1057F000C400C0E900AB00BF00BF03980544009897
:10580000401C0090DDE90001884296DB15B0BDE840
:10581000F08F0000882900202DE9FF4F8BB006464D
:105820000F460D98801B05900E98A0EB07080D9869
:10583000B04201DD012001E04FF0FF3004900E98EE
:10584000B84201DD012001E04FF0FF300390344603
:105850003D460598002801DD059801E00598404285
:105860000290B8F1000F01DD404601E0C8F10000F0
:105870000190DDE9010181426BDA0020009064E0D3
:10588000E81B0599484390FBF8F08419002C57DD7C
:10589000802C55DC002D53DD402D51DC189820B1B3
:1058A00001281CD002284AD131E02B4800EBC4006B
:1058B0002A464FF00109D0E900AB00200690484687
:1058C0000699FAF77BFC0A46C1430AEA010A2BEA69
:1058D000020B214800EBC400C0E900AB2FE01E48DA
:1058E00000EBC4002A460121D0E900AB0020CDE93D
:1058F000070108460799FAF761FC4AEA000A4BEAF1
:10590000010B154800EBC400C0E900AB17E01248DA
:1059100000EBC4002A460121D0E900AB0020CDE90C
:10592000090108460999FAF749FC8AEA000A8BEA54
:10593000010B094800EBC400C0E900AB00BF00BF89
:10594000039805440098401C0090DDE9000188425E
:1059500096DB0FB0BDE8F08F882900202DE9FF41CC
:1059600006460F4614461D46DDF8288000200090AC
:10597000019002900390681E0CE00A2194FBF1F262
:1059800001FB12413031C9B20DF800100A2194FB1D
:10599000F1F4401E0028F0DA00200DF8050043461F
:1059A0006A463946304600F099F8BDE8FF810000AC
:1059B0002DE9FF4F89B080460E46174608EB0700D9
:1059C0000390A8EB07000190F0190290F01B0090E3
:1059D000019C7AE0009D74E0002C05DB802C03DA4A
:1059E000002D01DB402D00DB6AE0A4EB0800404302
:1059F000A91BAA1B01FB02010C98404381425EDBFC
:105A0000A4EB08004043A91BAA1B01FB020107FBF2
:105A100007F0814253DC002F51DD169820B1012898
:105A20001CD002284AD131E02B4800EBC4002A46A2
:105A30004FF00109D0E900AB0020049048460499DA
:105A4000FAF7BCFB0A46C1430AEA010A2BEA020B39
:105A5000214800EBC400C0E900AB2FE01E4800EB7A
:105A6000C4002A460121D0E900AB0020CDE90501A0
:105A700008460599FAF7A2FB4AEA000A4BEA010B2D
:105A8000154800EBC400C0E900AB17E0124800EB7A
:105A9000C4002A460121D0E900AB0020CDE907016E
:105AA00008460799FAF78AFB8AEA000A8BEA010B93
:105AB000094800EBC400C0E900AB00BF00BF00BF55
:105AC0006D1C0298854287DD641C0398844281DD49
:105AD0000DB0BDE8F08F0000882900202DE9F041CD
