:020000040800F2
:10000000502A002099010008294300086738000899
:1000100025430008690C0008D959000800000000B9
:1000200000000000000000000000000001010008C6
:100030007B0D00080000000045010008E1510008A8
:10004000B3010008B3010008B3010008B3010008C0
:10005000B3010008B30100087D0D0008B3010008DA
:10006000B3010008B3010008B30100083D0D00080A
:10007000B3010008B3010008B3010008B301000890
:100080004D0D0008B3010008B3010008B3010008DA
:10009000B3010008B3010008B3010008B301000870
:1000A000B3010008B3010008B3010008B301000860
:1000B000B301000881520008B3010008B301000831
:1000C000B3010008B3010008B3010008B301000840
:1000D000B3010008B30100080D590008B30100087E
:1000E000B3010008B3010008B3010008DFF80CD029
:1000F00000F042FC004800471D640008502A002020
:10010000224B19680868B0E8F00F80F30988BFF344
:100110006F8F4FF0000080F311884EF00D0E704786
:100120000000000006480068006880F3088862B696
:1001300061B6BFF34F8FBFF36F8F00DF00BF00BF0B
:1001400008ED00E0EFF30980BFF36F8F0F4B1A68E3
:1001500020E9F00F106008B54FF0500080F31188CF
:10016000BFF34F8FBFF36F8F07F0EEFD4FF000002E
:1001700080F31188BDE8084019680868B0E8F00FFE
:1001800080F30988BFF36F8F704700BF50010020D4
:10019000EFF3058070470000064880470648004797
:1001A000FEE7FEE7FEE7FEE7FEE7FEE7FEE7FEE727
:1001B000FEE7FEE77F520008ED000008202A04DB7E
:1001C000203A00FA02F1002070479140C2F120036A
:1001D00020FA03F3194390407047202A04DB203AA9
:1001E00021FA02F00021704721FA02F3D040C2F157
:1001F0002002914008431946704740EA01039B07DB
:1002000003D009E008C9121F08C0042AFAD203E08B
:1002100011F8013B00F8013B521EF9D27047D2B2EF
:1002200001E000F8012B491EFBD270470022F6E7DF
:1002300010B513460A4604461946FFF7F0FF20465C
:1002400010BD421C10F8011B0029FBD1801A704719
:10025000F0B480EA0102D40F4200B2EB410F02D2A7
:100260000246084611464A0042D0C30DDDB2C1F332
:10027000C752AD1A202D35DAC1F3160141F4000240
:1002800004B15242C5F1200602FA06F12A41104497
:10029000B3EBD05F23D0C4B1012DA0EBC35009DC78
:1002A000F0BC4FF0004202EAC352DBB200F500009E
:1002B00000F063BA400000F1807000EBC350A0F181
:1002C000807040EAD170490009E0490841EAC071F4
:1002D000A0EBC35000F50000400800EBC350F0BC99
:1002E00000F042BA6142012202EB4101001BF6E735
:1002F000F0BC704781F00041AAE780F00040A7E71A
:1003000080EA010210B502F00043400022D04A000A
:100310001FD0010E01EB1261C0F35600C2F356026A
:1003200040F4000042F40002A0FB022000047F39E8
:10033000140400D0401C50EA124001D44000491E71
:10034000C2B20C0604EBD010401C4008802A02D038
:1003500003E0002010BD20F00100002900DA002099
:10036000184310BD2DE9FE4F804681EA0300C00FFF
:100370000C46009021F0004123F00045B8EB02004C
:10038000A94105D24046214690461C460B460246EE
:1003900023F00040104347D0270DC7F30A00C3F3F2
:1003A0000A510290401A019040286BDAC3F31300FF
:1003B00040F4801B0098924620B10023D2EB030A40
:1003C00063EB0B0B01985946C0F140025046FFF712
:1003D000F5FE06460D4650465946019A00F0B2F920
:1003E00010EB08006141002487EA115284EAE773A8
:1003F0001A4340D0009A62B3019A012A4FEA075289
:1004000015DC001B61EB02014FF0004202EA0752CB
:10041000CDE90042001C41F5801132462B4600F028
:10042000E9F903B0BDE8F08F40462146F9E7001B2B
:1004300061EB0201001C41F5801300185B4120189C
:10044000A2F5001747EB030140EAD570B6196D41DC
:1004500011E06D084FEA360645EAC0754FEA0752CB
:10046000001B61EB0201001C41F5801149084FEAB5
:1004700030000019514132462B4603B0BDE8F04F21
:1004800000F0A9B90098012240000023D0EB02023D
:1004900063EBE073009821464FEAE074B8EB00008C
:1004A00061EB0401E9E783F000435BE781F0004181
:1004B00058E72DE9FE4F81EA030404F0004421F0DF
:1004C000004100944FF0000B23F0004350EA010478
:1004D0005ED052EA03045BD0C3F30A54C1F30A5559
:1004E0002C44A4F2F3340194A0FB0254C1F3130191
:1004F00041F48011C3F3130343F4801301FB02445E
:1005000000FB034E840A970A44EA815447EA835762
:10051000A4FB076802958D0A05FB07854FEA932C1B
:1005200004FB0C542705029D4FEA065847EA16378C
:10053000B5EB08056EEB070C870E920E47EA8117A4
:1005400042EA8312A7FB0201B6EB0B0164EB000445
:100550002B0D43EA0C335E1844EB1C50DA4651462F
:10056000E7FB0201C5F313044FEA0B3343EA1453CC
:100570004FEA0432019C43EA0603A4F10C040294FE
:10058000009CCDE900B400F035F903B0BDE8F08F70
:1005900000200146F9E72DE9F04D81EA030404F05B
:1005A000004B21F0004514464FF0000A23F00041B3
:1005B00050EA050220D054EA01021DD0C5F30A57C3
:1005C0000246C5F31303C1F31300C1F30A5640F406
:1005D000801543F48013A7EB0608101BD64608F2DB
:1005E000FD3873EB050002D308F1010801E0921811
:1005F0005B41B8F1000F03DA00200146BDE8F08D41
:1006000000204FF48011064684460EE0171B73EB62
:10061000050705D3121B63EB050306434CEA010CE7
:1006200049084FEA300092185B4150EA0107EDD1CA
:1006300052EA030012D082EA040083EA050108436B
:1006400005D0101BAB4106D20122002306E0002298
:100650004FF0004302E06FF0010253101AEB060066
:100660004CEB085110EB0A0041EB0B01BDE8F04DDB
:1006700000F0B1B8C10F80EAE0700844CA079623C1
:10068000002100F07AB80EB5C10F80EAE07008448E
:10069000CA07002140F233438DE80E000A460B469C
:1006A00000F0A8F803B000BD70B5C1F30A5201F024
:1006B00000450024C1F3130140F2FF3341F48011DF
:1006C0009A4201DA002070BD40F233439A42A2F20E
:1006D000334203DC5242FFF780FD00E090402C43A0
:1006E000F1D0404270BD00F0004230F000400AD02E
:1006F000C10D01F56071C0F3160042EA0151C20854
:1007000040071143704700200146704701F0004345
:1007100030B421F0004150EA010206D00A0DA2F5E2
:100720006072C1F31301002A02DC30BC0020704764
:10073000440F44EAC104C100E01830BC00EBC250D1
:1007400000F012B8202A06DBCB17203A41FA02F05B
:1007500043EAE07306E041FA02F3D040C2F120021E
:1007600091400843194670470029A8BF7047401CB4
:10077000490008BF20F00100704710B4B0FA80FCB7
:1007800000FA0CF050EA010404BF10BC704749B1F4
:10079000CCF1200421FA04F411FA0CF118BF012164
:1007A00021430843A3EB0C01CB1D4FEA00614FEA44
:1007B000102042BF002010BC704700EBC350104413
:1007C0000029A4BF10BC7047401C490008BF20F09E
:1007D000010010BC704710B5141E73F1000408DA54
:1007E000401C41F1000192185B411A4301D120F0F5
:1007F000010010BD2DE9F04D92469B4611B1B1FAB2
:1008000081F202E0B0FA80F220329046FFF7D6FC87
:1008100004460F4640EA0A0041EA0B0153465A4695
:10082000084313D0114653EA010019D0C8F1400221
:100830005046FFF7D2FC05460E4650465946424602
:10084000FFF7BCFC084305D0012004E020463946F0
:10085000BDE8F08D0020054346EAE0762C4337439F
:100860000A986305E40AA0EB08000022FD0A44EAA6
:1008700047540A3002D500200146E9E70105101966
:100880006941DDE9084500196941BDE8F04DA2E77D
:100890002DE9F041054621F000400C46284309D0DF
:1008A000C4F30A5040F23341884205DD2846214610
:1008B000BDE8F0812846FBE740F2FE31884210DCBB
:1008C0000CDB4FEA043040EA155050EA053105D000
:1008D000104804F0004101430020E9E700200146F0
:1008E000E6E7A0F233404642C6F1400228462146E0
:1008F000FFF764FC07468846284621463246FFF744
:100900006CFC43463A46FFF766FF3246BDE8F041CD
:10091000FFF754BC0000F03F30B5041E71F1000435
:1009200004DB4FF00044404264EB0101141E73F1FC
:10093000000405DB1C464FF00043524263EB040306
:100940008B4208BF824230BD30B5041E71F10004F5
:1009500004DB4FF00044404264EB0101141E73F1CC
:10096000000405DB1C464FF00043524263EB0403D6
:10097000994208BF904230BD064C074D06E0E06842
:1009800040F0010394E8070098471034AC42F6D3D6
:10099000FFF7B0FBBC9D0008DC9D000870B521F09E
:1009A000004303430CD0C1F30A550024D5EB0405E2
:1009B00064EB0403D617AD1AB34102DB00200146F5
:1009C00070BD201841EB025170BD0EB540F23341AD
:1009D00002910021CDE900110A460B46FFF70AFFFC
:1009E00003B000BD30B58C1810F8012B12F00F03C6
:1009F00001D110F8013B120906D110F8012B03E0D8
:100A000010F8015B01F8015B5B1EF9D101E001F810
:100A1000013B521EFBD1A142E6D3002030BD70B590
:100A2000044600252068806800F0010018B32068A3
:100A3000806820F001002168886001F017F9054600
:100A400013E001F013F9401B02280ED920688068DA
:100A500000F0010048B1A06A40F01000A062E06A16
:100A600040F00100E062012070BD2068806800F065
:100A700001000028E5D10020F6E770B505466C6A54
:100A8000A06A00F05000E0B9A06A40F40070A062D3
:100A90002068806800F46020B0F5602F0DD1207BC5
:100AA00058B9A06A20F48070A062A06A00F4805057
:100AB00018B9A06A40F00100A062204600F008FBCF
:100AC00003E0206A016B2846884770BD70B5054673
:100AD0006C6AA06A40F04000A062E06A40F0040046
:100AE000E062204600F0F6FA70BD70B50446656A13
:100AF000284600F0EEFA70BD38B504460025002007
:100B000000902068806800F0010078BB2068806851
:100B100040F0010021688860194800681949B0FB5D
:100B2000F1F0009002E00098401E0090009800282C
:100B3000F9D101F09BF8054619E001F097F8401B48
:100B4000022814D92068806800F0010078B9A06AF2
:100B500040F01000A062E06A40F00100E06200BFD7
:100B6000002084F8240000BF012038BD05E0206883
:100B7000806800F001000028DFD00020F5E70000C9
:100B80004C01002040420F0086B0002002900390EC
:100B90000490059000212D48006807F025FE00BF55
:100BA0004FF0FF312948006807F01EFE00240020A6
:100BB00003460122082100902548006807F082F9C9
:100BC00084B24FF480612348FFF730FB012322A257
:100BD0000021084603F0DAFC0120009006230021E2
:100BE0002820029A03F0A9FC01200090062310217E
:100BF0002820039A03F0A1FC012000900623202165
:100C00002820049A03F099FC01200090062330214B
:100C10002820059A03F091FC04F090F904F00800F4
:100C200038B100231A4619460D48006807F0D6FB74
:100C3000B6E7042202A90B4800F046FB00231A463F
:100C400019460248006807F0C9FBA9E734010020F3
:100C500010010020502100204144433A00000000D0
:100C60003C0100202002002000BFFEE700BF04F08E
:100C700003FA10480078012807D180210E48FFF7B9
:100C8000D5FA00200B4908700FE00C4800780128C5
:100C90000BD180220A490848FFF7AFFA80210848A3
:100CA000FFF7C4FA002005490870064801F0ABFBC5
:100CB000DDE700000001002080000020010100208D
:100CC000000000204C0400201948406A00F0005049
:100CD00018B102201749087026E01548406A00F054
:100CE000804018B10320134908701DE01048406A85
:100CF00000F0806018B101200E49087014E00C4823
:100D0000406A00F0006018B100200A4908700BE04A
:100D10000748406A00F0805018B104200549087067
:100D200002E005200349087001200349086070476C
:100D30000010024002010020E004424210B50248C7
:100D400000F0B0FB10BD000050020020704730B52D
:100D500090F840500124AC40C56B6C60046863603F
:100D60004468102C04D10468A2600468E16003E0C8
:100D70000468A1600468E26030BD704710B50120CE
:100D800000F0C8FD10BD000002A004F071FE72B6B4
:100D900000BFFEE74572726F720000000021074A33
:100DA000D1610749096941F00401054A1161114601
:100DB000096941F0400111617047000058040020AA
:100DC000002002400021074AD1610749096941F02A
:100DD0000201054A116111464861096941F040016B
:100DE0001161704758040020002002400022054B8A
:100DF000DA61054A126942F00102034B1A6101806F
:100E000070470000580400200020024000201E49C6
:100E1000C96801F0100139B11C49C96941F00201EA
:100E20001A4AD16140F010001749C96801F0040165
:100E300039B11649C96941F00101144AD16140F044
:100E400004001149C96901F0010169B10F49C9697B
:100E500041F004010D4AD16100BF0B49C96921F07D
:100E60000101094AD16100BF00BF40F2011188426F
:100E700006D10549C96921F00101034AD16101E0A8
:100E80000149C86000BF704700200240580400209C
:100E900070B5044600F0EAFE054609E0601C38B172
:100EA00024B100F0E3FE401BA04201D9032070BD35
:100EB0001248C06800F001000028EFD10F48C06858
:100EC00000F0200020B100BF20200C49C86000BF06
:100ED0000A48C06800F0100048B90848C06900F02E
:100EE000010020B90548C06800F0040018B1FFF700
:100EF0008DFF0120DBE70020D9E700000020024041
:100F000086B072B600200590019002900390049084
:100F100000F0E6FC6420FFF7BBFF002001901348BF
:100F200003900120049005A901A800F01FFC00BF58
:100F30004FF47A70FFF7ACFF0028F9D141F6D36285
:100F400000230A49012000F073FC41F6D36200231C
:100F50000649012000F06CFC00F060FC62B603F072
:100F6000D7FA00BF002006F0EBFCFBE700FB00080F
:100F700038B5024600230020009000BF92F82400FC
:100F8000012801D1022038BD012082F8240000BFD1
:100F90004868072812D21068406B0C79641E04EB75
:100FA00084051F24AC40A0430D796D1E05EB85051B
:100FB0000C68AC4020431468606327E048680D2843
:100FC00012D21068006B0C79E41F04EB84051F2417
:100FD000AC40A0430D79ED1F05EB85050C68AC40D6
:100FE00020431468206311E01068C06A0C790D3C3E
:100FF00004EB84051F24AC40A0430D790D3D05EBA7
:1010000085050C68AC4020431468E06208680A2833
:1010100012D31068C0680C780A3C04EB440507241E
:10102000AC40A0430D780A3D05EB45058C68AC400B
:1010300020431468E0600FE0106800690C7804EB4E
:1010400044050724AC40A0430D7805EB45058C68AA
:10105000AC402043146820610868102802D008685A
:10106000112827D1174C1068A0421ED11068806843
:1010700000F40000F0B91068806840F400001468C3
:10108000A0600868102815D10F4800680F4CB0FB0D
:10109000F4F000EB80004000009002E00098401E59
:1010A000009000980028F9D104E0906A40F02000F8
:1010B0009062012300BF002082F8240000BF184680
:1010C00061E70000002401404C01002040420F0075
:1010D00070477047704700002DE9F0410446002733
:1010E00000250026A84614B90120BDE8F081A068BB
:1010F00010B1207D00B100BFA06A30B90020E062CD
:1011000084F82400204600F089F82046FFF787FC89
:101110000746A06A00F01000002873D1002F71D19B
:10112000A06A20F4885040F00200A062E169606883
:101130000843217B40EA41000643A068B0F5807F68
:1011400002D0A068012802D14FF4807000E0002096
:101150000543207D012811D1207B38B9A069401EAC
:101160004FF4006141EA4030054307E0A06A40F0D7
:101170002000A062E06A40F00100E0622068406860
:1011800020F469402843216848602068806821492C
:101190000840304321688860A068B0F5807F02D0A5
:1011A000A068012802D14FF4807000E00020B0F563
:1011B000807F03D1208A401E4FEA00582068C06A11
:1011C00020F4700040EA08002168C8622068806846
:1011D00011490840B04208D10020E062A06A20F026
:1011E000020040F00100A06211E0A06A20F00200BD
:1011F00040F01000A062E06A40F00100E0620127C8
:1012000005E0FFE7A06A40F01000A0620127384621
:101210006BE70000FDF7E1FFFE0E1FFF10B586B083
:101220000446002002900390049005902149206814
:1012300088423DD100BF2048806940F400701E49BB
:1012400088610846806900F40070019000BF00BF0B
:1012500000BF0846806940F0040088610846806944
:1012600000F00400019000BF00BFF02002900320B6
:10127000039002A9114800F05BFB11481149086076
:101280000020486000210F4881608021C160490032
:101290000161C900416100218161C16100F0D0F9A3
:1012A00008B1FFF771FD00BF06482062446200BF2D
:1012B00006B010BD002401400010024000080140AB
:1012C00008000240500200202DE9F04104460D467E
:1012D0001646002757492068884203D0564920689F
:1012E000884205D15348001D006800F4702000E0DA
:1012F000002000287ED100BF94F82400012802D1EC
:101300000220BDE8F081012084F8240000BF2046BF
:10131000FFF7F2FB0746002F6DD1A06A40F601618E
:10132000884340F48070A06243492068884209D114
:101330004048001D006800F4702008B9012002E058
:10134000002000E0012078B1A06A20F48010A062A3
:101350002068406800F4806000B3A06A20F4005068
:1013600040F48050A06219E0A06A40F48010A062AE
:1013700030492068884203D02F492068884205D12F
:101380002C48001D006800F4806000E0002028B1B7
:10139000A06A20F4005040F48050A062A06A00F4DB
:1013A000805020B1E06A20F00600E06201E00020F9
:1013B000E06200BF002084F8240000BF1F48216ABB
:1013C00088621F48216AC8621E48216A08636FF05C
:1013D0000200216808602068806840F480702168FD
:1013E0008860226802F14C0133462A46206A00F0E8
:1013F0005BF901E01AE014E02068806800F46020E6
:10140000B0F5602F06D12068806840F4A000216804
:1014100088600CE02068806840F480102168886053
:1014200005E000BF002084F8240000E001273846D2
:1014300067E7000000240140002801407B0A000803
:10144000EB0A0008CD0A00080146002291F82100AD
:10145000022808D00420886300BF002081F8200003
:1014600000BF012070470868006820F00E000B687C
:1014700018600868006820F001000B68186091F897
:10148000403001209840CB6B5860012081F821004A
:1014900000BF002081F8200000BF1046E2E70146AF
:1014A000886B704770B50446E06B05682068066875
:1014B00094F84010042088402840002846D006F0C8
:1014C0000400002842D02068006800F0200028B9FD
:1014D0002068006820F004002168086057492068EF
:1014E000884201D1042027E0544914312068884201
:1014F00001D1402020E0514928312068884201D1A3
:10150000001519E04D493C312068884202D14FF462
:10151000804011E0494950312068884202D14FF49F
:10152000802009E0454964312068884202D14FF4A7
:10153000800001E04FF08060404908394860E06A6F
:1015400000287AD02046E16A884776E094F8401077
:10155000022088402840A0B306F0020088B320682B
:10156000006800F0200040B92068006820F00A0000
:1015700021680860012084F82100304920688842F1
:1015800001D1022028E02D4914312068884201D180
:10159000202021E0294928312068884201D14015C6
:1015A0001AE026493C312068884202D14FF40050AD
:1015B00012E0224950312068884203D14FF40030B4
:1015C0000AE017E01D4964312068884202D14FF4D7
:1015D000001001E04FF0007018490839486000BF62
:1015E000002084F8200000BFA06A30B32046A16A22
:1015F000884722E094F84010082088402840E0B155
:1016000006F00800C8B12068006820F00E002168CC
:10161000086094F8401001208840E16B4860012088
:10162000A06384F8210000BF002084F8200000BFE0
:10163000206B10B12046216B884770BD0800024026
:101640000146002209B901207047164B0868C01AEC
:101650001423B0FBF3F08000086412480838C86314
:10166000022081F821000868026843F6F070824386
:10167000D1E901031843CB6818430B6918434B6940
:1016800018438B691843CB6918430243086802600A
:1016900000208863012081F82100002081F82000CB
:1016A00000BFD1E7080002402DE9F04104460D4695
:1016B00016461F464FF0000800BF94F8200001288E
:1016C00002D10220BDE8F081012084F8200000BF93
:1016D00094F8210001282CD1022084F82100002058
:1016E000A0632068006820F00100216808603B4684
:1016F000324629462046FFF72AFBE06A30B12068CF
:10170000006840F00E00216808600BE02068006867
:1017100020F00400216808602068006840F00A009A
:10172000216808602068006840F0010021680860B6
:1017300006E000BF002084F8200000BF4FF0020840
:101740004046BFE770B5044600F090FA06462546CD
:10175000681C10B104480078054400BF00F086FA08
:10176000801BA842FAD370BD480100202DE9F0414A
:1017700004460E460127002500BF2648007E0128AA
:1017800002D10220BDE8F08101202249087600BF85
:101790002068022813D14CF25030FFF779FB90BB40
:1017A0000120FFF7FBFA4CF25030FFF771FB0746C0
:1017B0001948006920F004001749086123E04CF241
:1017C0005030FFF765FBF0B94FF0FF303060A5688F
:1017D00012E02846FFF7F6FA4CF25030FFF758FBBC
:1017E00007460D48006920F002000B4908610FB15F
:1017F000356007E005F58065D4E9021001EB802033
:10180000A842E6D800BF00BF00200249087600BF0A
:101810003846B7E75804002000200240034800691A
:1018200040F080000149086100207047002002401C
:101830002DE9FE4F05468B461746984601260024A3
:101840000020029000BF2448007E012802D102201F
:10185000BDE8FE8F01202049087600BF4CF25030D1
:10186000FFF716FB064686BB012D02D10120029030
:1018700006E0022D02D10220029001E00420029035
:1018800000241EE02201B946C24648465146FEF7F2
:10189000A4FC80B20190022000FB04B000900199EA
:1018A000FFF7A4FA4CF25030FFF7F2FA06460B4865
:1018B000006920F001000949086106B104E0601CDC
:1018C000C4B202988442DDDB00BF00BF00200249A1
:1018D000087600BF3046BBE75804002000200240D5
:1018E00000200849096901F0800151B10649054A03
:1018F0005160064951601146096901F0800101B14A
:10190000012070470020024023016745AB89EFCDDD
:101910007047000010B5044604480068204020B11C
:10192000024804602046FFF7F3FF10BD1404014095
:101930002DE9F8470346002294466EE14FF0010876
:1019400008FA02F4D1F8008008EA0400A0427DD130
:10195000DFF8DCA2D1F80480A8EB0A09D0453AD020
:1019600014DCB8F1030F50D009DCB8F1000F31D00E
:10197000B8F1010F1CD0B8F1020F49D120E0B8F145
:10198000110F18D0B8F1120F42D11EE0B9F5881F1F
:1019900025D006DCB9F5803F20D0B9F5801F37D1BE
:1019A0001AE0B9F5001F18D0B9F5041F30D117E0BF
:1019B000D1F80CC02DE0D1F80C8008F1040C28E01F
:1019C000D1F80C8008F1080C23E0D1F80C8008F164
:1019D0000C0C1EE000BF00BF00BF00BF00BF00BF77
:1019E000D1F80880B8F1000F02D14FF0040C0BE0E1
:1019F000D1F80880B8F1010F03D14FF0080C1C6139
:101A000002E04FF0080C5C6103E04FF0000C00E0D6
:101A100000BF00BFFF2801D8984601E003F1040889
:101A20004646FF2802D84FEA820803E0A2F10808E0
:101A30004FEA88084746D6F800804FF00F0909FAA8
:101A400007F928EA09080CFA07F900E088E048EAF3
:101A50000908C6F80080D1F8048008F08058B8F171
:101A6000805F7DD100BFDFF8CC81D8F8188048F0C6
:101A70000108DFF8C091C9F81880C846D8F8188066
:101A800008F00108CDF8008000BF00BF4FEAB93868
:101A90004FEA920958F829504FEA82784FEA1879AC
:101AA0004FF00F0808FA09F825EA0805DFF88881E1
:101AB000434502D14FF0000816E0DFF8808143452E
:101AC00002D14FF001080FE0DFF87481434502D1E5
:101AD0004FF0020808E0DFF86C81434502D14FF077
:101AE000030801E04FF004084FEA82794FEA1979C0
:101AF00008FA09F848EA0505DFF84C814FEA92092F
:101B000048F82950D1F8048008F48018B8F5801FEF
:101B10000AD1DFF83881D8F8008048EA0008DFF8F9
:101B20002C91C9F8008009E0DFF82081D8F8008006
:101B300028EA0008DFF81491C9F80080D1F8048081
:101B400008F40018B8F5001F10D1DFF8008108F183
:101B50000408D8F8008048EA0008DFF8F09000E0B8
:101B60005AE009F10409C9F800800DE0DFF8DC80D3
:101B700008F10408D8F8008028EA0008DFF8CC90C3
:101B800009F10409C9F80080D1F8048008F400388C
:101B9000B8F5003F0ED1DFF8B480A8F10408D8F8FA
:101BA000008048EA0008DFF8A490A9F10409C9F808
:101BB00000800DE0DFF89480A8F10408D8F80080D8
:101BC00028EA0008DFF88490A9F10409C9F8008028
:101BD000D1F8048008F48038B8F5803F0ED1DFF8E2
:101BE0006C80A8F10808D8F8008048EA0008DFF8FF
:101BF0005C90A9F10809C9F800800DE0DFF84C807D
:101C0000A8F10808D8F8008028EA0008DFF83C901E
:101C1000A9F10809C9F80080521CD1F8008028FAFF
:101C200002F8B8F1000F7FF489AEBDE8F887000034
:101C3000000011100010024000080140000C01409B
:101C40000010014000140140080001400804014058
:101C5000024693680B400BB1012000E00020704762
:101C60000AB1016101E00B0403617047014800689B
:101C7000704700004001002070B504460CB90120F7
:101C800070BD94F83D0028B9002084F83C0020463F
:101C900000F04CFB242084F83D002068006820F010
:101CA0000100216808602068006840F40040216855
:101CB00008602068006820F400402168086000F097
:101CC0003BFE05465C496068884206D85B48854211
:101CD00001D2012007E0002005E05948854201D2E9
:101CE000012000E00020012800D1C9E75548B5FBDC
:101CF000F0F62068406820F03F00304321684860DB
:101D00004D496068884201D8701C07E04FF4967016
:101D100070434FF47A71B0FBF1F0401C2168096AFE
:101D200021F03F0108432168086243496068884206
:101D300014D8681E61684900B0FBF1F0401CC0F384
:101D40000B00042801D204203DE0681E61684900B0
:101D5000B0FBF1F0401CC0F30B0034E0A06838B9D0
:101D6000681E616801EB4101B0FBF1F0401C0AE024
:101D7000681E616801EBC10202EB0111B0FBF1F0DA
:101D8000401C40F48040C0F30B0008B901201AE069
:101D9000A06848B9681E616801EB4101B0FBF1F031
:101DA000401CC0F30B000CE0681E616801EBC1022F
:101DB00002EB0111B0FBF1F0401CC0F30B0040F44A
:101DC000804040F400402168C9694CF6FF7291439D
:101DD00008432168C861D4E90701084321680968FC
:101DE00021F0C001084321680860D4E903100843CA
:101DF0002168896848F2FF3291430843216888606E
:101E0000D4E9050108432168C96821F0FF010843AE
:101E10002168C8602068006840F0010021680860FF
:101E200000202064202084F83D000020206384F8F6
:101E30003E0000BF24E70000A086010080841E0051
:101E400000093D0040420F002DE9F8430446894651
:101E500016461F46DDF82080FFF708FF054694F878
:101E60003D0020287ED119230122514920460095AA
:101E700001F05DFE10B10220BDE8F88300BF94F8C8
:101E80003C00012801D10220F6E7012084F83C0043
:101E900000BF2068006800F0010028B920680068D1
:101EA00040F00100216808602068006820F40060AC
:101EB00021680860212084F83D00102084F83E004D
:101EC0000020206466626785608D20853948E06265
:101ED0002B4642464946204601F0E6FC08B1012067
:101EE000CAE700BF00200090206840690090206889
:101EF0008069009000BF00BF44E02A46414620466A
:101F000001F036FF50B1206C042805D1206800682C
:101F100040F40070216808600120ADE7606A007835
:101F200021680861606A401C6062608D401E6085A7
:101F3000208D401E208520684069C0F3800070B16C
:101F4000208D60B1606A007821680861606A401C79
:101F50006062608D401E6085208D401E20852A466F
:101F6000414600E022E0204601F0AEFD50B1206C79
:101F7000042805D12068006840F4007021680860DA
:101F8000012079E7208D0028B7D12068006840F44F
:101F9000007021680860202084F83D00002084F84B
:101FA0003E0000BF84F83C0000BF65E7022063E705
:101FB000020010000000FFFF2DE9FE4F04460F460F
:101FC00090469946DDE90CAB0E9E00200290FFF78B
:101FD0004DFE054694F83D00202872D119230122B8
:101FE000CE492046009501F0A2FD10B10220BDE8C7
:101FF000FE8F00BF94F83C00012801D10220F6E7D3
:10200000012084F83C0000BF2068006800F0010057
:1020100028B92068006840F0010021680860206845
:10202000006820F4006021680860222084F83D00E8
:10203000402084F83E0000202064C4F824A0A4F8C6
:102040002AB0608D2085B648E0624B46424639464C
:102050002046CDE9006501F087FC08B10120C6E704
:10206000208D88B900BF0020019020684069019050
:1020700020688069019000BF00BF2068006840F4BC
:102080000070216808604BE0208D01281AD120687B
:10209000006820F480602168086072B600BF0020EC
:1020A000019020684069019020688069019000BF1C
:1020B00000BF2068006840F400702168086062B6C4
:1020C0002EE029E1208D022819D12068006840F413
:1020D00000602168086072B600BF0020019020688F
:1020E0004069019020688069019000BF00BF2068AE
:1020F000006820F480602168086062B610E0206803
:10210000006840F480602168086000BF00200190F2
:1021100020684069019020688069019000BF00BF7D
:10212000EBE0208D03287DD8208D012815D12A468B
:102130003146204601F0D7FD08B1012057E720685D
:102140000069616A0870606A401C6062208D401EF0
:102150002085608D401E6085CFE0208D02282CD127
:10216000334600226F492046009501F0E0FC08B19B
:1021700001203CE772B62068006840F400702168D6
:10218000086020680069616A0870606A401C6062CB
:10219000208D401E2085608D401E608562B62068BF
:1021A0000069616A0870606A401C6062208D401E90
:1021B0002085608D401E60859FE03346002259498E
:1021C0002046009501F0B3FC08B101200FE720681C
:1021D000006820F480602168086072B62068006999
:1021E000616A0870606A401C6062208D401E208514
:1021F000608D401E60854C4800681921B0FBF1F0ED
:102200004FF47A71B0FBF1F0C0EBC00000EB80003E
:10221000029000BF0298401E02900298A8B90020C8
:10222000206300E039E0202084F83D00002084F89D
:102230003E00206C40F02000206462B600BF002009
:1022400084F83C0000BF0120D1E620684069C0F35B
:1022500080000028DED02068006840F4007021680B
:10226000086020680069616A0870606A401C6062EA
:10227000208D401E2085608D401E608562B62068DE
:102280000069616A0870606A401C6062208D401EAF
:102290002085608D401E60852FE02A46314620460D
:1022A00001F021FD08B10120A1E620680069616A02
:1022B0000870606A401C6062208D401E2085608D21
:1022C000401E608520684069C0F38000A8B1208D61
:1022D000032805D12068006820F480602168086028
:1022E00020680069616A0870606A401C6062208D25
:1022F000401E2085608D401E6085208D00287FF463
:1023000010AF202084F83D00002084F83E0000BF7C
:1023100084F83C0000BF6AE6022068E60200100074
:102320000000FFFF040001004C01002010B586B042
:1023300004460020029003900490059016492068FE
:10234000884226D100BF1548806940F00800134933
:1023500088610846806900F00800019000BF00BF56
:102360004FF440600290122003900320059002A9D0
:102370000B48FFF7DDFA00BF0848C06940F4800051
:102380000649C8610846C06900F48000019000BF9A
:1023900000BF06B010BD0000005800400010024011
:1023A000000C014070B504460CB9012070BD4CF61C
:1023B000CC402168086045F2555021680860D4E996
:1023C000001048602168A0688860FFF74FFC054650
:1023D0000DE0FFF74BFC401B41F23C31884206D92F
:1023E0002068C06800F0030008B10320DEE7206821
:1023F000C06800F003000028EBD14AF6AA2021684B
:1024000008600020D2E701464AF6AA200A68106058
:1024100000207047034800680349097808440149CF
:1024200008607047400100204801002010B50848AE
:10243000006840F0100006490860032000F0E2F850
:102440000F2000F007F800F05FF8002010BD00003A
:10245000002002402DE9F04188B004460027B8462C
:10246000002600BF2348C06940F002002149C8612E
:102470000846C06900F00200019000BF00BF02A939
:1024800003A800F031FA069F1FB900F055FA05467F
:1024900002E000F051FA45001748B5FBF0F0A0F15A
:1024A000010816481649086040F2E7311448C16037
:1024B000C0F80480002101618160816100F00AFDA3
:1024C000064696B90E4800F04FFD06466EB91D202F
:1024D00000F04AF8102C07D2002221461D2000F0FF
:1024E00053F80848046000E00126304608B0BDE813
:1024F000F08100000010024040420F000004004044
:10250000040400204401002008B500BF144880697D
:1025100040F00100124988610846806900F001001E
:10252000009000BF00BF00BF0846C06940F0805067
:10253000C8610846C06900F08050009000BF00BF2D
:1025400000220F21901E00F01FF800BF05494868C7
:1025500020F0E06040F00070486000BF08BD00005F
:10256000001002400000014001460846002809DB37
:1025700000F01F0301229A4043099B0003F1E0236E
:10258000C3F8002100BF70472DE9F05F80460D467B
:102590001646002703F090FA074639462A46334686
:1025A00001F00700C0F1070ABAF1040F02D94FF099
:1025B000040A01E0C0F1070AD14600F1040ABAF1A9
:1025C000070F02D24FF0000A01E0A0F1030AD4463F
:1025D0004FF0010A0AFA09FAAAF1010A0AEA020A04
:1025E0000AFA0CFA4FF0010B0BFA0CFBABF1010BE2
:1025F0000BEA030B4AEA0B042146404603F064FA57
:10260000BDE8F09F00BF00F00702064B19684FF6C7
:10261000FF031940044B0B4343EA0221014B1960AD
:1026200000BF70470CED00E00000FA05F8B5044665
:1026300000260025207800F0010000286BD000273C
:102640004348C06900F0805070B900BF4048C0697D
:1026500040F080503E49C8610846C06900F0805093
:10266000009000BF00BF01273A48006800F4807066
:10267000B0B93848006840F4807036490860FFF708
:10268000F5FA064606E0FFF7F1FA801B642801D947
:102690000320F8BD2F48006800F480700028F2D0B5
:1026A0002B48006A00F440752DB3A08800F44070F8
:1026B000A84220D02648006A20F44075012026490F
:1026C0000860002008602248056205F0010090B112
:1026D000FFF7CCFA064608E0FFF7C8FA801B41F284
:1026E0008831884201D90320D3E71948006A00F0F5
:1026F00002000028F0D01648006A20F4407061689B
:10270000084313490862012F04D10846C06920F02C
:102710008050C86100BF207800F00200022807D175
:102720000B48406820F44040A168084308494860CD
:10273000207800F01000102807D10548406820F4E8
:102740008000E1680843024948600020A1E70000DA
:1027500000100240007000404004424270B5044640
:102760000D460CB9012070BD5A48006800F0070002
:10277000A8420ED25748006820F007002843554968
:1027800008600846006800F00700A84201D0012058
:10279000E9E7207800F0020002281DD1207800F03F
:1027A0000400042805D14C48406840F4E0604A49E0
:1027B0004860207800F00800082805D146484068A5
:1027C00040F46050444948604348406820F0F000BD
:1027D000A168084340494860207800F0010078B3C0
:1027E0006068012806D13C48006800F4003090B9C8
:1027F0000120B8E76068022806D13748006800F079
:10280000007040B90120AEE73348006800F00200D4
:1028100008B90120A7E73048406820F0030061684C
:1028200008432D494860FFF721FA064609E0FFF703
:102830001DFA801B41F28831884202D9032092E7B9
:1028400007E02548406800F00C006168B0EB810F9C
:10285000EDD12048006800F00700A8420ED91D48BD
:10286000006820F0070028431A49086008460068FD
:1028700000F00700A84201D0012074E7207800F0A2
:102880000400042807D11448406820F4E060E1689F
:10289000084311494860207800F00800082808D152
:1028A0000D48406820F46050216940EAC1000A499F
:1028B000486000F061F808494968C1F30311074A0C
:1028C000515CC8400649086006480068FFF7C2FD31
:1028D000002048E70020024000100240FA92000861
:1028E0004C010020440100200F2202600D4A526872
:1028F00002F0030242600B4A526802F0F00282606A
:10290000084A526802F4E062C260064A526802F461
:102910006052D2080261044A126802F007020A609B
:10292000704700000010024000200240014800688B
:10293000704700004C01002000B5FFF7F7FF044985
:102940004968C1F30221034A515CC84000BD000040
:10295000001002400A93000800B5FFF7E7FF0449A2
:102960004968C1F3C221034A515CC84000BD000060
:10297000001002400A93000870B5002100220024D4
:1029800000230020134D696801F00C05F5B1042DFA
:1029900002D0082D19D101E00F4819E00F4DC1F305
:1029A0008346AB5D01F4803555B10A4D6D68C5F3C2
:1029B00040450B4E725D084D5D43B5FBF2F402E0FD
:1029C000084D03FB05F4204602E000BF024800BFAB
:1029D00000BF70BD0010024000127A00E8920008AB
:1029E000F892000800093D00F8B504460CB9012032
:1029F000F8BD207800F00100002878D0F848406841
:102A000000F00C0004280CD0F548406800F00C00E1
:102A1000082811D1F248406800F48030B0F5803FBA
:102A20000AD1EF48006800F4003000285FD06068E9
:102A300000285CD10120DBE700BF6068B0F5803F73
:102A400006D1E748006840F48030E549086028E096
:102A5000606858B9E248006820F48030E0490860B6
:102A60000846006820F4802008601AE06068B0F52D
:102A7000A02F0BD1DA48006840F48020D8490860C4
:102A80000846006840F4803008600AE0D4480068D6
:102A900020F48030D24908600846006820F4802085
:102AA000086000BF606888B1FFF7E0F8054606E0FF
:102AB000FFF7DCF8401B642801D9032098E7C848D9
:102AC000006800F400300028F2D010E0FFF7CEF8E4
:102AD000054606E0FFF7CAF8401B642801D9032029
:102AE00086E7BF48006800F400300028F2D1207863
:102AF00000F00200022857D1B948406800F00C00ED
:102B000050B1B748406800F00C00082818D1B4480C
:102B1000406800F4803098B9B148006800F00200C5
:102B200020B12069012801D0012061E7AC4800688C
:102B300020F0F800616940EAC100A949086033E06B
:102B40002069E8B10120A7490860FFF78FF8054622
:102B500006E0FFF78BF8401B022801D9032047E766
:102B60009F48006800F002000028F2D09C480068EE
:102B700020F0F800616940EAC1009949086013E05B
:102B8000002098490860FFF771F8054606E0FFF756
:102B90006DF8401B022801D9032029E790480068FE
:102BA00000F002000028F2D1207800F00800082888
:102BB0002DD1A069B8B101208B490860FFF756F804
:102BC000054606E0FFF752F8401B022801D9032012
:102BD0000EE78348406A00F002000028F2D001208E
:102BE00002F036FA13E000207F490860FFF73EF854
:102BF000054606E0FFF73AF8401B022801D90320FA
:102C0000F6E67748406A00F002000028F2D120780A
:102C100000F00400042873D100277148C06900F057
:102C2000805070B900BF6E48C06940F080506C4958
:102C3000C8610846C06900F08050009000BF00BF26
:102C400001276A48006800F48070B0B967480068DE
:102C500040F4807065490860FFF708F8054606E013
:102C6000FFF704F8401B642801D90320C0E65F4841
:102C7000006800F480700028F2D000BFE0680128EE
:102C800006D15748006A40F001005549086227E024
:102C9000E06858B95248006A20F0010050490862C3
:102CA0000846006A20F00400086219E0E068052880
:102CB0000BD14B48006A40F00400494908620846BD
:102CC000006A40F0010008620AE04548006A20F00E
:102CD0000100434908620846006A20F004000862C7
:102CE00000BFE068A0B1FEF7C1FF054609E0FEF7AE
:102CF000BDFF401B41F28831884202D9032077E6AC
:102D000022E03748006A00F002000028EFD012E00D
:102D1000FEF7ACFF054608E0FEF7A8FF401B41F2B6
:102D20008831884201D9032062E62D48006A00F00C
:102D300002000028F0D1012F05D12948C06920F0F8
:102D400080502749C86100BFE069C8B32448406883
:102D500000F00C00082860D0E069022848D100206B
:102D600020490866FEF782FF054606E0FEF77EFF73
:102D7000401B022801D903203AE61948006800F0F8
:102D800000700028F2D1206AB0F5803F07D11448C6
:102D9000406820F40030A168084311494860D4E934
:102DA000080108430E49496821F4741108430C498D
:102DB000486001200B490866FEF758FF054607E00A
:102DC0003DE0FEF753FF401B022801D903200FE628
:102DD0000348006800F000700028F2D02FE00000E7
:102DE0000010024000004242800442420070004055
:102DF000002014490866FEF739FF054606E0FEF795
:102E000035FF401B022801D90320F1E50E48006878
:102E100000F000700028F2D111E0E069012800D133
:102E2000E6E50948466806F48031206A814204D10B
:102E300006F47011606A814201D00120D8E50020BB
:102E4000D6E5000000004242001002407047704783
:102E500030B502460B4600BF92F83C00012801D174
:102E6000022030BD012082F83C0000BF022082F821
:102E70003D00106844681068816824F07004186888
:102E8000044310684460104D1068A8420BD01068CD
:102E9000B0F1804F07D00D4D1068A84203D00C4D03
:102EA0001068A84205D121F08001586801431068DC
:102EB0008160012082F83D0000BF002082F83C00C4
:102EC00000BF00BFCDE70000002C0140000400401F
:102ED0000008004010B504460CB9012010BD94F85C
:102EE0003D0028B9002084F83C00204600F026F878
:102EF000022084F83D00211D206802F0C9F901205C
:102F000084F8460000BF84F83E0001213F200155AF
:102F1000402001554120015500BF00BF012084F829
:102F2000420043200155442001554520015500BF72
:102F3000012084F83D000020D0E7000008B50168BA
:102F4000B1F1804F0DD100BF0649C96941F00101BF
:102F5000044AD1611146C96901F00101009100BF25
:102F600000BF08BD00100240014691F83D00012855
:102F700001D001207047022081F83D000868C06838
:102F800040F001000B68D860124B086898420BD0E3
:102F90000868B0F1804F07D00F4B0868984203D003
:102FA0000E4B086898420CD10868806800F0070250
:102FB000062A0CD00868006840F001000B68186011
:102FC00005E00868006840F001000B681860002008
:102FD000D0E70000002C0140000400400008004041
:102FE0002DE9F04104460D46002700BF94F83C004F
:102FF000012802D10220BDE8F081012084F83C00C4
:1030000000BF022084F83D002068866826F077061D
:1030100026F47F46206886602868502833D00CDC70
:10302000202850D004DC00284BD0102851D149E092
:10303000302849D040284CD139E060282DD0702864
:1030400007D0B0F5805F03D0B0F5005F41D10DE04F
:1030500041E0D5E902136A68206802F05BF9206854
:10306000866846F077062068866034E0D5E902136A
:103070006A68206802F04EF92068806840F4804059
:103080002168886027E0EA686968206802F012FA1F
:103090005021206802F049F91DE0EA68696820685B
:1030A00002F01BFA6021206802F03FF913E0EA68A1
:1030B0006968206802F0FEF94021206802F035F9C5
:1030C00009E000BF00BF00BF2968206802F02DF9A9
:1030D00001E0012700BF00BF012084F83D0000BFD0
:1030E000002084F83C0000BF384684E72DE9F04119
:1030F00004460D4614B90120BDE8F08194F83D0066
:1031000028B9002084F83C00204600F051F8022045
:1031100084F83D002068806844F2070188432168F4
:103120008860211D206802F0B3F82068D0F808807C
:10313000206886692068076A286840EA080840F223
:1031400003308643A969A86840EA0120064340F697
:103150000C4086434FF2F0008643E969E86840EA94
:103160000120064328690001296A40EA013006432C
:1031700027F022076969686840EA01100743206860
:10318000C0F808802068866120680762012084F802
:10319000460084F83E0001213F200155012084F8BB
:1031A000420043200155012084F83D000020A3E7A0
:1031B00010B586B00446002002900390049005905C
:1031C00015492068884224D100BF1448806940F422
:1031D0000060124988610846806900F4006001902F
:1031E00000BF00BF00BF0846806940F0040088614E
:1031F0000846806900F00400019000BF00BF4FF452
:103200004070029000200390049002A90448FEF749
:103210008FFB06B010BD0000002C014000100240E2
:1032200000080140704770B504462068C5682068F2
:10323000066906F00200022819D105F002000228F2
:1032400015D1401F2168086101202077206880691E
:1032500000F0030018B12046FFF7E4FF05E0204628
:1032600000F0C2F8204600F076F90020207706F042
:103270000400042819D105F00400042815D1C04326
:1032800021680861022020772068806900F440707E
:1032900018B12046FFF7C6FF05E0204600F0A4F86D
:1032A000204600F058F90020207706F00800082892
:1032B00019D105F00800082815D1C043216808611C
:1032C000042020772068C06900F0030018B1204670
:1032D000FFF7A8FF05E0204600F086F8204600F042
:1032E0003AF90020207706F01000102819D105F0D7
:1032F0001000102815D1C0432168086108202077EC
:103300002068C06900F4407018B12046FFF78AFFBA
:1033100005E0204600F068F8204600F01CF9002087
:10332000207706F0010048B105F0010030B16FF0E0
:10333000010021680861204600F00EF906F08000C7
:10334000802809D105F08000802805D1C04321687C
:1033500008612046FFF77AFD06F04000402809D1B9
:1033600005F04000402805D1C0432168086120468F
:1033700000F0FEF806F02000202809D105F020001A
:10338000202805D1C043216808612046FFF75FFD72
:1033900070BD000010B586B0044600200290039076
:1033A000049005902068B0F1804F16D100BF0C4802
:1033B000806940F004000A4988610846806900F08D
:1033C0000400019000BF00BF012002900220039082
:1033D000059002A90348FEF7ABFA06B010BD000045
:1033E000001002400008014070472DE9F0410446FA
:1033F0000D461646002700BF94F83C00012802D174
:103400000220BDE8F081012084F83C0000BF36B105
:10341000042E1BD0082E31D00C2E5ED145E029465B
:10342000206801F08BFF2068806940F00800216867
:1034300088612068806920F0040021688861206824
:103440008069296908432168886148E02946206825
:1034500001F0A4FF2068806940F400602168886161
:103460002068806920F48060216888612068806914
:10347000296940EA01202168886130E029462068F6
:1034800001F0C0FF2068C06940F008002168C861F1
:103490002068C06920F004002168C8612068C06904
:1034A000296908432168C86119E02946206801F0AC
:1034B000DDFF2068C06940F400602168C8612068B1
:1034C000C06920F480602168C8612068C0692969EA
:1034D00040EA01202168C86101E0012700BF00BF68
:1034E00000BF002084F83C0000BF384689E710B5D3
:1034F00004460CB9012010BD94F83D0028B9002005
:1035000084F83C00204600F025F8022084F83D00B5
:10351000211D206801F0BCFE012084F8460000BF98
:1035200084F83E0001213F200155402001554120F3
:10353000015500BF00BF012084F84200432001551F
:10354000442001554520015500BF012084F83D006D
:103550000020D0E77047704710B504460349206843
:10356000884201D1FEF756FF10BD00000004004064
:103570007047704710B5044600BF00BF21680C318A
:1035800051E8001F21F4907021680C3141E80002DD
:10359000002AF3D100BF00BF00BF2168143151E8F9
:1035A000001F21F001002168143141E80002002AC7
:1035B000F3D100BF206B01280ED100BF00BF2168EE
:1035C0000C3151E8001F21F0100021680C3141E856
:1035D0000002002AF3D100BF2068406900F04000DB
:1035E00000B300BF00BF2168143151E8001F21F073
:1035F00040002168143141E80002002AF3D100BFE5
:10360000E06B78B10020E16B4863E06BFDF71CFFD5
:1036100040B1E06BFDF743FF202803D11020606428
:10362000032010BD0020E085202084F84200002007
:10363000206300BFF5E7704710B504460CB90120C0
:1036400010BDA06900B100E000BF94F8410028B9A6
:10365000002084F84000204600F02AF8242084F856
:1036600041002068C06820F400502168C8602046EE
:1036700002F024F82068006920F490402168086175
:103680002068406920F02A00216848612068C068ED
:1036900040F400502168C86000206064202084F855
:1036A000410084F842000020606300BFC8E70000CA
:1036B00010B586B004460020029003900490059057
:1036C00027492068884249D100BF2648C06940F494
:1036D00000302449C8610846C06900F400300190F8
:1036E00000BF00BF00BF0846806940F00400886149
:1036F0000846806900F00400019000BF00BF04206C
:103700000290022003900320059002A91648FEF7BC
:103710000FF90820029000200390049002A912489B
:10372000FEF706F9114812490860002048600021A0
:103730000F4881608021C160002101614161816188
:10374000C161FDF77DFF08B1FDF71EFB00BF084812
:103750000849C86308460649486200BF06B010BD64
:103760000044004000100240000801406C0002408C
:1037700078030020BC03002070B504460D461646B1
:1037800094F8420020280BD105B10EB9012070BD7C
:103790000020206332462946204602F00DF8F6E765
:1037A0000220F4E7704770472DE9F84F04460E46B3
:1037B000174699464FF0000A94F84100202850D14E
:1037C00006B117B90120BDE8F88F00206064212000
:1037D00084F84100FEF74AFA8246A784E784A0688D
:1037E000B0F5805F04D1206910B90025B04602E031
:1037F00035464FF000081EE0534600228021204647
:10380000CDF8009002F03CF820B1202084F841006F
:103810000320D8E745B9B8F80000C0F308002168D4
:10382000486008F1020803E02878216848606D1CB0
:10383000E08C401EE084E08C0028DDD1534600225D
:1038400040212046CDF8009002F01AF820B1202047
:1038500084F841000320B6E7202084F841000020CE
:10386000B1E70220AFE700BFFEE701460868406904
:10387000C0F38020B0B16FF480600A68506100200E
:103880000863202081F83D00002081F83E00086C8C
:1038900040F00400086400BF002081F83C0000BF35
:1038A000012070470020FCE72DE9F84304460D464F
:1038B00017469846E66A082E04D0012E02D016F567
:1038C000803F06D12068006840F48070216808605D
:1038D00008E0206B122805D12068006840F4807051
:1038E000216808603B4600224FF001112046CDF8C8
:1038F000008000F01CF960B12068006800F480705E
:10390000B0F5807F02D14FF4007020640320BDE841
:10391000F8832069B0F5804F04D105F0FE002168DE
:10392000086112E005F44070F02141EAE0102168DE
:10393000086143463A460B49204600F057F908B162
:103940000120E4E7E8B22168086143463A460549A8
:10395000891F204600F04AF908B10120D7E700206E
:10396000D5E70000080001002DE9F84304460F46A2
:1039700015469946DDE908862068006840F48060B5
:10398000216808602068006840F480702168086041
:10399000434600224FF001112046009600F0C7F880
:1039A00060B12068006800F48070B0F5807F02D1BB
:1039B0004FF4007020640320BDE8F88307F0FE0098
:1039C00021680861334642463E49204600F00EF920
:1039D00008B10120F0E700BF002000902068406996
:1039E000009020688069009000BF00BF32464146C9
:1039F000204600F0BDF950B1206C042805D12068A4
:103A0000006840F40070216808600120D4E7B9F133
:103A1000010F03D1E8B22168086117E0C5F3072060
:103A20002168086132464146204600F0A1F950B1B4
:103A3000206C042805D12068006840F400702168DB
:103A400008600120B8E7E8B22168086132464146C3
:103A5000204600F08DF950B1206C042805D1206873
:103A6000006840F40070216808600120A4E7206825
:103A7000006840F4807021680860434600224FF0DF
:103A800001112046009600F052F858B120680068F5
:103A900000F48070B0F5807F02D14FF40070206494
:103AA000032089E7F8B240F001002168086133463D
:103AB00042460449204600F099F808B101207BE70E
:103AC000002079E70200010070B504460D46164655
:103AD00025E02046FFF7C9FE08B1012070BD681C33
:103AE000E8B1FEF7C3F8801BA84200D8BDB9206832
:103AF0004069C0F3800090B900202063202084F842
:103B00003D00002084F83E00206C40F0200020643E
:103B100000BF002084F83C0000BF0120DEE72068E1
:103B20004069C0F380000028D3D00020D6E72DE9FB
:103B3000F04104460D4617461E46DDF8188038E071
:103B4000701CA8B3FEF792F8A0EB0800B04200D8B2
:103B500076BBC5F3074001280AD120684069A9B2A5
:103B60000840A9B2884201D101200BE0002009E001
:103B700020688069A9B20840A9B2884201D1012019
:103B800000E00020B84214D100202063202084F8F7
:103B90003D00002084F83E00206C40F020002064AE
:103BA00000BF002084F83C0000BF0120BDE8F08188
:103BB000FFE7C5F3074001280AD120684069A9B290
:103BC0000840A9B2884201D101200BE0002009E0A1
:103BD00020688069A9B20840A9B2884201D10120B9
:103BE00000E00020B842ABD00020DFE72DE9F04133
:103BF00004460D4616461F4658E020684069C0F34B
:103C00008020E8B12068006840F4007021680860F6
:103C10006FF480602168486100202063202084F8D0
:103C20003D00002084F83E00206C40F00400206439
:103C300000BF002084F83C0000BF0120BDE8F081F7
:103C4000701C90B3FEF712F8C01BB04200D866BBE0
:103C5000C5F3074001280AD120684069A9B208408D
:103C6000A9B2884201D101200BE0002009E02068C0
:103C70008069A9B20840A9B2884201D1012000E0C0
:103C8000002090B900202063202084F83D0000200F
:103C900084F83E00206C40F02000206400BF00202B
:103CA00084F83C0000BF0120C8E7FFE7C5F30740E8
:103CB00001280AD120684069A9B20840A9B2884207
:103CC00001D101200BE0002009E020688069A9B241
:103CD0000840A9B2884201D1012000E0002000285C
:103CE0008BD00020AAE770B504460D46164637E093
:103CF00020684069C0F30010A0B16FF01000216887
:103D0000486100202063202084F83D00002084F8D2
:103D10003E00206C206400BF002084F83C0000BFFF
:103D2000012070BDFDF7A2FF801BA84200D8BDB9DD
:103D300020684069C0F3801090B9002020632020E3
:103D400084F83D00002084F83E00206C40F0200004
:103D5000206400BF002084F83C0000BF0120E0E7A1
:103D600020684069C0F380100028C1D00020D8E747
:103D700070B504460D46164625E02046FFF775FD52
:103D800008B1012070BD681CE8B1FDF76FFF801B12
:103D9000A84200D8BDB920684069C0F3C01090B9EE
:103DA00000202063202084F83D00002084F83E009D
:103DB000206C40F02000206400BF002084F83C000C
:103DC00000BF0120DEE720684069C0F3C010002872
:103DD000D3D00020D6E700001FB500226B21D020F1
:103DE00000F026F84FF0FF30012103AA0B46CDE981
:103DF000002102907522D0210148FEF7DDF81FBD99
:103E0000940200207FB504460D464FF0FF3001219B
:103E100003AA0B46CDE9002102902A462146034819
:103E2000FEF7CAF89DF80C0004B070BD94020020A3
:103E30007CB504460E4615468DF804608DF8055095
:103E40004FF0FF30022301AA214600900148FDF700
:103E5000FBFF7CBD940200201FB500212C480068A8
:103E600004F0C2FC00BF4FF0FF312948006804F0A5
:103E7000BBFC0024002003460122082100902548B5
:103E8000006804F01FF884B204F0080048B100F0A4
:103E90003FFB00231A4619461F48006804F09EFAAB
:103EA000E1E73B21D020FFF7ADFF8DF80D003C216D
:103EB000D020FFF7A7FF8DF80C003D21D020FFF7A1
:103EC000A1FF8DF809003E21D020FFF79BFF8DF860
:103ED00008003F21D020FFF795FF8DF80500402115
:103EE000D020FFF78FFF8DF80400BDF90420BDF945
:103EF0000810BDF90C0000F00BFD01F01FF80023C5
:103F00001A4619460248006804F068FAABE7000058
:103F100038010020100100203C0100200EB50020D7
:103F2000009001900290234823490860811522489F
:103F300081600021017301754FF46021C16100208F
:103F40001D49486004211C480161FDF7C5F808B10E
:103F5000FCF71AFF0420009001200190002002903D
:103F600069461548FDF704F808B1FCF70DFF052078
:103F700000900220019069460F48FCF7F9FF08B154
:103F8000FCF702FF062000900320019069460A48D2
:103F9000FCF7EEFF08B1FCF7F7FE072000900420C5
:103FA000019069460448FCF7E3FF08B1FCF7ECFE1A
:103FB0000EBD0000002401402002002008B500BF13
:103FC0000A48406940F001000849486108464069D4
:103FD00000F00100009000BF00BF002205210B206F
:103FE000FEF7D2FA0B20FEF7BFFA08BD0010024020
:103FF00010B5124A0121084602F0AEFA10490860D5
:10400000104A0121084602F0A7FA0F4908600F4A3A
:104010000121084602F0A0FA0D4908600D4A01216D
:10402000084602F099FA0C4908600C4A00210C4835
:1040300002F0F8FA0B49086010BD0000409100083A
:104040001C01002004920008340100201492000892
:1040500038010020249200083C0100205091000803
:104060000D5100082001002000B585B0002001900E
:1040700002900390049000BF3148806940F0100026
:104080002F4988610846806900F01000009000BF49
:1040900000BF00BF0846806940F0200088610846E4
:1040A000806900F02000009000BF00BF00BF0846FC
:1040B000806940F0040088610846806900F00400CF
:1040C000009000BF00BF00BF0846806940F00800B4
:1040D00088610846806900F00800009000BF00BFBA
:1040E000002210211748FDF7BBFD0122E0211548F1
:1040F000FDF7B6FD4FF470400190002002900120C2
:10410000039001A90F48FDF713FC30200190012016
:104110000290002003900220049001A90948FDF7B5
:1041200007FCC02001901120029000200390032082
:10413000049001A90348FDF7FBFB05B000BD00009A
:1041400000100240000C014010B50B480B490860FC
:104150000B484860002109488160C1604FF48041EC
:104160000161002141618161C1610162FDF784FD4E
:1041700008B1FCF709FE10BD005800409402002071
:10418000A086010010B50748074908600420486070
:1041900040F6FF7104488160FEF704F908B1FCF7AE
:1041A000F3FD10BD003000404C04002000B58BB082
:1041B000242102A8FCF73AF800200090019018484A
:1041C00018490860002048600021164881604FF6B9
:1041D000FF71C16000210161416181610120029094
:1041E0000020039001200490002005900690079085
:1041F00001200890002009900A9002A90948FEF7C2
:1042000075FF08B1FCF7C0FD0020009001906946E1
:104210000448FEF71DFE08B1FCF7B6FD0BB000BD6B
:10422000002C0140E802002000B58DB0002009906C
:104230000A900B900C90079008901C216846FBF7A1
:10424000F5FF4FF080402049086048204860002179
:104250001D48816044F62061C160002101618161D7
:10426000FEF738FE08B1FCF78FFD4FF4805009903F
:1042700009A91548FEF7B4FE08B1FCF785FD124800
:10428000FFF735F908B1FCF77FFD00200790089093
:1042900007A90D48FEF7DCFD08B1FCF775FD6020AD
:1042A00000904FF4FA7001900020029004900022D8
:1042B00069460548FFF799F808B1FCF765FD024823
:1042C000FFF768F80DB000BD3003002010B51348AB
:1042D000134908604FF4165048600021104881606F
:1042E000C16001610C21416100218161C161FFF761
:1042F000A3F908B1FCF748FD002208212620FEF7AB
:1043000043F92620FEF730F905480068C06840F000
:10431000200003490968C86010BD00000044004047
:10432000BC03002000BFFEE700BFFEE72DE9F0431D
:1043300085B006460F4690461C46DDE90C59002024
:104340000190029003900490681E0BE00A2194FBF8
:10435000F1F201FB1241303101AA11540A2194FB00
:10436000F1F4401E0028F1DA002001A9485501AB04
:10437000424639463046CDF8009000F003F805B0CB
:10438000BDE8F0832DE9FF4F8FB005461C4620465F
:10439000FBF757FF042101FB00500890ADE02078A7
:1043A000203805900026A2E000279CE05649059899
:1043B00001EBC00010F806B04FF0000A3A464FF08B
:1043C0000108D14640464946FBF7F8FE0BEA0002D9
:1043D0000AEA010000235A40584002437ED0109957
:1043E000C819FCF747F98246A819FCF743F9834638
:1043F0001098001DFCF73EF904900898FCF73AF974
:10440000039006A807A95B46CDE900A10290119A86
:10441000DDE9030102F094FF0798002808DB079804
:10442000802805DA0698002802DB0698402800DB81
:1044300058E01C9820B101281ED0022850D134E049
:104440003248079900EBC100D0E900AB0121002000
:10445000069ACDE9090108460999FBF7AFFE0A461D
:10446000C1430AEA010A2BEA020B2848079900EB2C
:10447000C100C0E900AB33E02448079900EBC1005C
:10448000D0E900BA01210020069ACDE90B010846C7
:104490000B99FBF793FE4BEA00024AEA01031B4823
:1044A000079900EBC1000CC01AE01848079900EB0F
:1044B000C100D0E900BA01210020069ACDE90D0122
:1044C00008460D99FBF77AFE8BEA00028AEA01039F
:1044D0000E48079900EBC1000CC000E001E000BFEE
:1044E00000BF00BF7F1C082FFFF660AF761C082EB0
:1044F000FFF65AAF641C0A3500BF207800287FF40D
:104500004EAF13B0BDE8F08F029900085021002093
:1045100070B500240EE00021204600F0A1FC00252B
:1045200004E0002000F083FD681CC5B2802DF8DB9C
:10453000601CC4B2082CEEDB70BD2DE9FF410646BD
:104540000F4614461D46DDF828800020009001909B
:1045500002900390681E0CE00A2194FBF1F201FB2B
:1045600012413031C9B20DF800100A2194FBF1F468
:10457000401E0028F0DA00200DF8050043466A4688
:104580003946304600F002F8BDE8FF812DE9F041E0
:1045900005460E4614461F4607E022783B46314644
:1045A000284600F0C3F8641C083520780028F4D1B0
:1045B000BDE8F0812DE9F04F8FB006460F469046DA
:1045C0009946464506DA1898864201DA304607E0F1
:1045D000189805E01898804501DA404600E01898E0
:1045E0000690464506DD1898864201DD304607E014
:1045F000189805E01898804501DD404600E01898BD
:1046000008904F4506DA1998874201DA384607E0E4
:10461000199805E01998814501DA484600E0199893
:1046200005904F4506DD1998874201DD384607E0C1
:10463000199805E01998814501DD484600E0199870
:104640000790069C6AE0059D64E0002C05DB802C49
:1046500003DA002D01DB402D00DB5AE08DE8C003BA
:1046600029462046DDE9182302F038F8B8B31A9835
:1046700020B101281CD0022849D131E02A4800EBA2
:10468000C4002A460121D0E900AB0020CDE9090190
:1046900008460999FBF792FD0A46C1430AEA010A56
:1046A0002BEA020B204800EBC400C0E900AB2EE06F
:1046B0001D4800EBC4002A460121D0E900BA0020C1
:1046C000CDE90B0108460B99FBF778FD4BEA000298
:1046D0004AEA0103144800EBC4000CC017E017E0DD
:1046E000114800EBC4002A460121D0E900BA00209D
:1046F000CDE90D0108460D99FBF760FD8BEA00023C
:104700008AEA0103084800EBC4000CC000BF00BFE8
:1047100000BF6D1C0798854297DD641C0898844291
:1047200091DD0FB0BDE8F08F502100202DE9FF4F43
:104730008BB005460E4617460024C0E00E9820B107
:10474000012844D0022841D17CE028195F4901EBBF
:10475000C000D0E900ABA7F120005D4901EB0010DB
:1047600010F8048000203246029040460299FBF780
:1047700025FD2AEA00002BEA010B2919534A02EB16
:10478000C101C1E9000B2819114601EBC000D0E9B5
:1047900000ABA7F120004E4901EB001104F1080025
:1047A00011F80090002006F1080201904846019996
:1047B000FBF704FD0A46C1430AEA010A2BEA020B91
:1047C0002819424901EBC000C0E900AB75E0281987
:1047D0003E4901EBC000D0E900ABA7F120003C4905
:1047E00001EB0010005D00213246CDE90510FBF71A
:1047F000E5FC4AEA000A4BEA010B2819334901EBB0
:10480000C000C0E900AB281901EBC000D0E900AB43
:10481000A7F120002E4901EB001104F10800085C0B
:10482000002106F10802CDE90310FBF7C7FC4AEAB4
:10483000000A4BEA010B2819244901EBC000C0E92A
:1048400000AB3AE02819214901EBC000D0E900ABE8
:10485000A7F120001E4901EB0010005D0021324647
:10486000CDE90910FBF7AAFC8AEA000A8BEA010BE2
:104870002819164901EBC000C0E900AB281901EB6B
:10488000C000D0E900ABA7F12000114901EB0011F5
:1048900004F10800085C002106F10802CDE90710C8
:1048A000FBF78CFC8AEA000A8BEA010B28190749FE
:1048B00001EBC000C0E900AB00BF00BF641C082CC6
:1048C000FFF63CAF0FB0BDE8F08F00005021002094
:1048D000129300082DE9FF4F83B0074688469146A2
:1048E00010AC94E8300C149E8DE870004A464146A6
:1048F0003846069BFFF75EFE2B4622464146384669
:10490000CDE900AB0296FFF755FE07B0BDE8F08F8A
:104910002DE9F74F84B0824689464FF0000B44F6EC
:10492000206206991144490191FBF2F0C11700EB96
:1049300091618911A0EB811426464FF0FF300746A4
:1049400080464FF480614848FBF770FC002584E006
:10495000BAF1000F3FDCB9F1000F0FDBA5EB460108
:1049600001FB09F191FBFAF12046E21704EB926298
:104970009211A4EB821201EB020B10E0A5F1800171
:1049800001EB460101FB09F191FBFAF12046E21728
:1049900004EB92629211A4EB821201EB020BBBF1C9
:1049A000000F00DA58E0BBF1400F07DD2E4901EBA4
:1049B000C500FF220821FBF732FC4CE0CBF140029E
:1049C00038464146CDE90087FBF7F8FB264A02EB63
:1049D000C50203C23FE0B9F1000F10DBA5EB4601B1
:1049E00001FB09F191FBFAF1C4F14000C21700EBA1
:1049F00092629211A0EB821201EB020B11E0A5F181
:104A0000800101EB460101FB09F191FBFAF1C4F1D0
:104A10004000C21700EB92629211A0EB821201EBF0
:104A2000020BBBF1000F07DA0F4901EBC500FF22B3
:104A30000821FBF7F4FB0EE0BBF1400F00DD0BE0BB
:104A40005A4638464146CDE90287FBF7C6FB064A7F
:104A500002EBC50203C200BF6D1C802DFFF678AFCC
:104A600007B0BDE8F08F00005021002010B5FFF71F
:104A7000FBFA012220210948FDF7F2F8002210215B
:104A80000648FDF7EDF8012240210448FDF7E8F85B
:104A9000012280210148FDF7E3F810BD000C014020
:104AA00070B50546002417E080202041284008B159
:104AB000012000E00020024680210E48FDF7D0F8DA
:104AC000012240210B48FDF7CBF800224021094884
:104AD000FDF7C6F8601CC4B2082CE5DB01224021BA
:104AE0000448FDF7BDF8002240210248FDF7B8F860
:104AF00070BD0000000C014010B501228021094862
:104B0000FDF7AEF8012240210648FDF7A9F8002282
:104B100080210448FDF7A4F8002240210148FDF758
:104B20009FF810BD000C014010B5002280210748FD
:104B3000FDF796F8012240210448FDF791F8012283
:104B400080210248FDF78CF810BD0000000C0140E8
:104B500070B5002406E0002500E06D1CB5F57A7FF5
:104B6000FBD3641CB4F57A7FF5D3FFF77FFFAE204B
:104B700000F04DFAD52000F04AFA802000F047FA04
:104B8000A82000F044FA3F2000F041FAFFF7B4FFFC
:104B90007820FFF785FF0020FFF782FF2020FFF736
:104BA0007FFF0020FFF77CFFFFF7BEFFD32000F060
:104BB0002EFA002000F02BFA402000F028FAA12065
:104BC00000F025FAC82000F022FADA2000F01FFADF
:104BD000122000F01CFA812000F019FACF2000F01A
:104BE00016FAD92000F013FAF12000F010FADB20B9
:104BF00000F00DFA302000F00AFAA42000F007FAC5
:104C0000A62000F004FA8D2000F001FA142000F034
:104C1000FEF9AF2000F0FBF9FFF77AFC70BD10B58C
:104C20000246012000E050430B1EA1F10101FAD120
:104C300010BD000086B000260024FFF769FC00BF0D
:104C40004FF480617D48FBF7F1FA4FF0FF317C486B
:104C5000006803F0C9FD0C2094FBF0F100FB11404B
:104C6000C0EB00107749451801232A4600210C208B
:104C7000FFF78CFC601C0C2190FBF1F201FB120091
:104C8000C0EB00106F49451801232A4610210C2063
:104C9000FFF77CFCA01C0C2190FBF1F201FB120041
:104CA000C0EB00106749451801232A4620210C203B
:104CB000FFF76CFCE01C0C2190FBF1F201FB1200F1
:104CC000C0EB00105F49451801232A4630210C2013
:104CD000FFF75CFC01233E2200210846FFF726FD7A
:104CE000012040210A22CDE90112CDE9031009205B
:104CF00000230246194600900A20FFF7EBFD012031
:104D000002213B460022CDE9001003216C20FFF771
:104D10000DFBFCF7ABFFA0EB08004FF47A71B1FB81
:104D2000F0F7FCF7A3FF804600250FE001222801E1
:104D300080232901CDE901130093CDE903022B0162
:104D4000290109221046FFF7C5FD6D1C052DEDDB7D
:104D500000F0F4F800260020034601220F21009005
:104D60003948006803F0AEF886B206F0010000286A
:104D700044D0FFF7CDFB0C2094FBF0F100FB114079
:104D800050B900231A4619463048006803F026FB44
:104D9000012002F0A7FD53E70C2094FBF0F100FB8B
:104DA000114001280AD100231A46194628480068F4
:104DB00003F014FB012002F095FD41E70C2094FB69
:104DC000F0F100FB114002280AD100231A461946CF
:104DD0002048006803F002FB012002F083FD2FE76A
:104DE0000C2094FBF0F100FB1140032806D1FFF7E3
:104DF0008FFB194A0021194801F014FC06F002004B
:104E000030B10CB90B2401E0601E84B2FFF780FBC7
:104E100006F0040018B1601C84B2FFF779FB06F0BD
:104E2000080010B10024FFF773FB00231A4619464F
:104E30000348006803F0D2FA02E700005021002086
:104E40003C010020349200081001002034010020B1
:104E5000380100201C0100201C910008010F0008EF
:104E600070B505460C4645F0B00000F0D0F81021B2
:104E700041EA141000F0CBF804F00F0000F0C7F87E
:104E800070BD00002DE9F04105460E461746721E22
:104E9000D206110E6A1E5206100EFFF7E1FF002423
:104EA00009E0A7F12001134A02EB0111085D00F0AF
:104EB000BEF8601CC4B2082CF3DB721ED206110EC1
:104EC0006A1E012303EB4202D0B2FFF7C9FF0024A0
:104ED0000BE0A7F12001074A02EB011204F10801DF
:104EE000505C00F0A4F8601CC4B2082CF1DBBDE8F3
:104EF000F0810000129300082DE9F04780460E462D
:104F000017461D46002415E0281B411E0A20FFF706
:104F100086FEB7FBF0F00A21B0FBF1F201FB1200B4
:104F200000F130093019C1B24A464046FFF7AAFFE6
:104F3000601CC4B2AC42E7DBBDE8F08770B500216D
:104F40000846FFF78DFF002403E0002000F06FF813
:104F5000641C802CF9DB00240BE0002506E00649E8
:104F600001EBC501085D00F062F86D1C802DF6DBD9
:104F7000641C082CF1DB70BD502100202DE9F041AC
:104F800005460F461646691E4906080E0021FFF722
:104F900067FF002404E0002000F049F8601CC4B260
:104FA000802CF8DB691E012202EB4101C8B200210E
:104FB000FFF756FF002404E0002000F038F8601CE2
:104FC000C4B2802CF8DB002407E0325D3819C1B28E
:104FD0002846FFF757FF601CC4B2305D08B10F2CA4
:104FE000F3DBBDE8F0812DE9F04107460E4615469A
:104FF000002407E02A5D3019C1B23846FFF742FFAE
:10500000601CC4B2285D0028F4D1BDE8F08110B561
:105010000446FFF771FD7820FFF742FD0020FFF7FF
:105020003FFD2046FFF73CFDFFF77EFD10BD10B5AC
:105030000446FFF761FD7820FFF732FD4020FFF7BF
:105040002FFD2046FFF72CFDFFF76EFD10BD000081
:1050500008B508490968C9084FF47A72B1FBF2F142
:105060004143009100BF00BF00994A1E00920029F1
:10507000F9D108BD4C01002010B500244FF4805137
:105080002048FCF7E5FD08B9601C84B24FF40051DC
:105090001C48FCF7DDFD08B9A01C84B24FF4804128
:1050A0001848FCF7D5FD08B9201D84B24FF4004123
:1050B0001448FCF7CDFD10B904F1080084B200BF1C
:1050C0004FF480510F48FCF7C3FD0028F8D04FF48F
:1050D00000510C48FCF7BCFD0028F1D04FF4804192
:1050E0000848FCF7B5FD0028EAD04FF40041054818
:1050F000FCF7AEFD0028E3D021460348006802F02B
:105100007AFE10BD000C01401001002002F064FE88
:105110001F4908601F4A00211F4801F083FA1F49F8
:1051200008601F4A00211F4801F07CFA1E490860F0
:105130001E4A00211E4801F075FA1E4908601E4AE9
:1051400000211E4801F06EFA1D4908601D4A002129
:105150001D4801F067FA1D49086000211C480068DD
:1051600003F042FB00211B48006803F03DFB0021D7
:105170001948006803F038FB00231A4619461748FF
:10518000006803F02BF900BF002002F0D9FBFBE719
:1051900010010020F8900008DD59000814010020DB
:1051A00074910008354C00082401002098910008F3
:1051B000890B000828010020BC910008593E000816
:1051C0002C010020E09100086D0C00083001002047
:1051D0001C01002034010020380100203C01002087
:1051E00010B54FF0E020006903F0B0FC012801D0B9
:1051F00002F090FF10BD00B593B0282109A8FBF77D
:1052000015F8142104A8FBF711F800200090019074
:1052100002900390092009904FF480300A900020FA
:105220000B9001200D900F9002201090C10311915E
:105230004FF4E011129109A8FDF7D6FB08B1FBF776
:10524000A3FD0F20049002200590002006904FF44B
:105250008060079000200890022104A8FDF77EFAE4
:1052600008B1FBF791FD0220009080030290684690
:10527000FDF7DCF908B1FBF787FD13B000BD7047FF
:1052800010B50248FDF7CFFF10BD00000404002058
:1052900010B502681C4B984208D0B0F1804F05D081
:1052A0001A4B984202D01A4B984203D122F0700256
:1052B0004B681A43144B984208D0B0F1804F05D088
:1052C000124B984202D0124B984203D122F4407202
:1052D000CB681A4322F080034C6943EA040202605F
:1052E0008B68C3620B688362074B984201D10B69DC
:1052F000036301234361036903F001031BB10369E5
:1053000023F00103036110BD002C014000040040A4
:105310000008004030B50C46816821F47F4142EA24
:10532000032525432943816030BD0A46816821F069
:10533000700142F0070319438160704730B5026A7B
:10534000056A25F0010505624368846924F070044C
:1053500024F003040D682C4322F002028D682A43D6
:105360000D4DA84206D100BF22F00802CD682A43A5
:1053700022F00402084DA84207D123F4807323F4DD
:1053800000734D692B438D692B43436084614D68E5
:105390004563026230BD0000002C014030B5026A56
:1053A000056A25F0100505624368846924F4E04429
:1053B00024F440740D6844EA052422F020028D682C
:1053C00042EA05120E4DA84207D100BF22F080022A
:1053D000CD6842EA051222F04002094DA84209D1E7
:1053E00023F4806323F400634D6943EA85038D69E8
:1053F00043EA8503436084614D688563026230BD82
:10540000002C014030B5026A056A25F480750562FA
:105410004368C46924F0700424F003040D682C432D
:1054200022F400728D6842EA05220F4DA84207D18E
:1054300000BF22F40062CD6842EA052222F48062B5
:10544000094DA84209D123F4805323F400534D6938
:1054500043EA05138D6943EA05134360C4614D684F
:10546000C563026230BD0000002C014030B5036A04
:10547000056A25F4805505624468C26922F4E04259
:1054800022F440720D6842EA052223F400538D682D
:1054900043EA0533064DA84204D124F480444D6903
:1054A00044EA85144460C2614D680564036230BDFE
:1054B000002C014030B50B461446026A056A25F0FF
:1054C00001050562816921F0F00141EA041122F031
:1054D0000A021A438161026230BD30B50B461446A0
:1054E000026A056A25F010050562816921F47041A0
:1054F00041EA043122F0A00242EA03128161026211
:1055000030BD70B506460025746A20684069C0F356
:10551000C01594F84100212805D125B10020E08470
:10552000204600F0B8F820684069C0F3801594F870
:105530004200222805D125B10020E085204600F058
:1055400074F8606C40F0100060642046FEF773F859
:1055500070BD70B505466C6A2868006800F02000D0
:10556000002842D1E08500BF00BF21680C3151E81E
:10557000001F21F4807021680C3141E80002002AEC
:10558000F3D100BF00BF00BF2168143151E8001FF4
:1055900021F001002168143141E80002002AF3D112
:1055A00000BF00BF00BF2168143151E8001F21F087
:1055B00040002168143141E80002002AF3D100BF05
:1055C000202084F84200206B01280ED100BF00BFCC
:1055D00021680C3151E8001F21F0100021680C31C6
:1055E00041E80002002AF3D100BF00206063206B75
:1055F000012804D1A18D2046FDF7BBFF02E0204623
:10560000FEF7D0F870BD70B505466C6A0120606386
:10561000206B012805D1A08D41082046FDF7A9FF88
:1056200002E02046FEF7BFF870BD00BF00BF026871
:105630000C3252E8002F22F4907102680C3242E8DA
:105640000013002BF3D100BF00BF00BF026814326B
:1056500052E8002F22F001010268143242E80013E0
:10566000002BF3D100BF016B01290ED100BF00BF99
:1056700002680C3252E8002F22F0100102680C324E
:1056800042E80013002BF3D100BF202180F8421024
:1056900000210163704700BF00BF02680C3252E86E
:1056A000002F22F0C00102680C3242E80013002BE8
:1056B000F3D100BF202180F84110704770B5044637
:1056C0002168096921F44051E2681143226811619F
:1056D0002269A1681143626941EA02052168C9682B
:1056E00041F20C62914329432268D16021684969E3
:1056F00021F44071A2691143226851612D4A216849
:10570000914202D1FDF728F901E0FDF715F900EB10
:10571000C00101EB001162689200B1FBF2F100EBF5
:10572000C00202EB001263689B00B2FBF3F2642339
:10573000B2FBF3F202EBC20303EB0212A1EB820114
:10574000322202EB01116422B1FBF2F101F0F0010F
:1057500000EBC00202EB001263689B00B2FBF3F2A5
:105760006423B2FBF3F201EB021200EBC00101EB88
:10577000001163689B00B1FBF3F100EBC00303EB86
:1057800000136668B600B3FBF6F36426B3FBF6F3CA
:1057900003EBC30606EB0313A1EB8301322303EBF8
:1057A00001116423B1FBF3F101F00F0111442268F0
:1057B000916070BD0038014077B581B00446154650
:1057C0000298A062A58500206064222084F842002F
:1057D0002848E16B88622848E16BC8622748E16B82
:1057E00008630020E16B486302AE32682368191D2C
:1057F0002B46E06BFBF758FF00BF002000902068AD
:105800000068009020684068009000BF00BF2069D9
:1058100070B100BF00BF21680C3151E8001F41F496
:10582000807021680C3141E80002002AF3D100BFEA
:1058300000BF00BF2168143151E8001F41F0010092
:105840002168143141E80002002AF3D100BF00BFF3
:1058500000BF2168143151E8001F41F04000216869
:10586000143141E80002002AF3D100BF002004B047
:1058700070BD000053550008075600080355000886
:105880002DE9F84304460D4617469846089E31E038
:10589000701C70B3FCF7EAF9A0EB0800B04200D826
:1058A00016B90320BDE8F8832068C06800F0040042
:1058B000F8B1802D1ED0402D1CD020680068C0F3A8
:1058C000C000B0B100BF00200090206800680090C8
:1058D00020684068009000BF00BF2046FFF7A5FE8B
:1058E0000820606400BF002084F8400000BF012051
:1058F000D8E7FFE7206800682840A84201D10120CE
:1059000000E00020B842C3D00020CBE738B52D48D6
:1059100000680068C0F3401018B301202A490870DD
:105920006FF0200027490968086026480068C068B1
:1059300020F0200023490968C860224800684068B8
:10594000C4B2224804707F22411C1E48FDF714FF98
:105950001C480068C06840F010001A490968C86017
:1059600000BF184800680068C0F3001040B3012071
:10597000174908701348FDF7FDFD00BF0020009097
:1059800010480068006800900E4800684068009069
:1059900000BF00BF0B480068C06820F01000094934
:1059A0000968C86001231A460A490648FDF7FCFE4B
:1059B00004480068C06840F0200002490968C860D7
:1059C00038BD0000BC0300200001002000000020C2
:1059D000010100200C01002000BFFEE708B500BF58
:1059E0004FF0FF311D48006802F0FEFE0024002049
:1059F00003460122082100901948006802F062FA6B
:105A000084B2184A01210846FFF7B8FA154A0F3246
:105A100001210220FFF7B2FA124A1E3201210320AF
:105A2000FFF7ACFA10480288052301210420FFF794
:105A300063FA04F0080048B1FEF76AFD00231A4635
:105A400019460A48006802F0C9FCC9E700231A4653
:105A500019460248006802F0C1FCC1E71C010020A1
:105A6000100100208000002000FB00083C01002005
:105A70000FB4054B10B503A9044A029800F072FB5D
:105A800010BC5DF814FB000005630008D001002085
:105A9000490050EAC12018BF04204A0D18BF40F049
:105AA000010040F2FF72B2EB515F08BF40F002000C
:105AB000012808BF0520704702480068C0F3022093
:105AC000704700000CED00E010B5002804DB0A0769
:105AD000130E054A135406E00A07140E034A00F099
