:020000040800F2
:10000000000D00200101000847130008A11200089C
:1000100045130008C50600083D1800080000000050
:10002000000000000000000000000000451600086D
:10003000D506000800000000431600084716000817
:100040001B0100081B0100081B0100081B01000820
:100050001B0100081B0100081B0100081B01000810
:100060001B0100081B0100081B0100081B01000800
:100070001B0100081B0100081B0100081B010008F0
:10008000C90600081B0100081B0100081B0100082D
:100090001B0100081B0100081B0100081B010008D0
:1000A0001B0100081B0100081B0100081B010008C0
:1000B0001B0100081B0100081B0100081B010008B0
:1000C0001B0100081B0100081B0100081B010008A0
:1000D0001B0100081B010008211800081B01000873
:1000E0001B0100081B0100081B010008DFF80CD0F1
:1000F00000F03AFA0048004725220008000D0020D1
:100100000648804706480047FEE7FEE7FEE7FEE7B1
:10011000FEE7FEE7FEE7FEE7FEE7FEE7A3160008C0
:10012000ED000008202A04DB203A21FA02F0002129
:10013000704721FA02F3D040C2F1200291400843F7
:1001400019467047D2B201E000F8012B491EFBD2DC
:1001500070470022F6E710B513460A4604461946D2
:10016000FFF7F0FF204610BD30B50B4601460020DA
:100170002022012409E021FA02F59D4205D303FA69
:1001800002F5491B04FA02F52844151EA2F10102EA
:10019000F1DC30BD2DE9F05F0546002092469B461C
:1001A00088460646814640241BE02846414647468D
:1001B0002246FFF7B7FF53465A46C01A914110D363
:1001C00011461846224600F0E1F92D1A67EB0108A6
:1001D0004F4622460120002100F0D8F917EB000914
:1001E0004E41201EA4F10104DFDC484631462A4678
:1001F0004346BDE8F09F2DE9FE4F804681EA0300AB
:10020000C00F0C46009021F0004123F00045B8EBF0
:100210000200A94105D24046214690461C460B46A5
:10022000024623F00040104347D0270DC7F30A00D1
:10023000C3F30A510290401A019040286BDAC3F3CD
:10024000130040F4801B0098924620B10023D2EBAB
:10025000030A63EB0B0B01985946C0F1400250466C
:1002600000F094F906460D4650465946019A00F0B2
:100270009CF910EB08006141002487EA115284EADE
:10028000E7731A4340D0009A62B3019A012A4FEAF9
:10029000075215DC001B61EB02014FF0004202EA3D
:1002A0000752CDE90042001C41F5801132462B4631
:1002B00000F09CF903B0BDE8F08F40462146F9E715
:1002C000001B61EB0201001C41F5801300185B412B
:1002D0002018A2F5001747EB030140EAD570B619C4
:1002E0006D4111E06D084FEA360645EAC0754FEAE8
:1002F0000752001B61EB0201001C41F58011490807
:100300004FEA30000019514132462B4603B0BDE898
:10031000F04F00F05CB90098012240000023D0EBC0
:10032000020263EBE073009821464FEAE074B8EBF9
:10033000000061EB0401E9E783F000435BE781F033
:10034000004158E72DE9FE4F81EA030404F0004420
:1003500021F0004100944FF0000B23F0004350EADD
:1003600001045ED052EA03045BD0C3F30A54C1F324
:100370000A552C44A4F2F3340194A0FB0254C1F3B7
:10038000130141F48011C3F3130343F4801301FB01
:10039000024400FB034E840A970A44EA815447EA68
:1003A0008357A4FB076802958D0A05FB07854FEA72
:1003B000932C04FB0C542705029D4FEA065847EA8C
:1003C0001637B5EB08056EEB070C870E920E47EA61
:1003D000811742EA8312A7FB0201B6EB0B0164EB23
:1003E00000042B0D43EA0C335E1844EB1C50DA4634
:1003F0005146E7FB0201C5F313044FEA0B3343EA0E
:1004000014534FEA0432019C43EA0603A4F10C049E
:100410000294009CCDE900B400F0E8F803B0BDE818
:10042000F08F00200146F9E72DE9F04D81EA030441
:1004300004F0004B21F0004514464FF0000A23F071
:10044000004150EA050220D054EA01021DD0C5F354
:100450000A570246C5F31303C1F31300C1F30A564A
:1004600040F4801543F48013A7EB0608101BD64612
:1004700008F2FD3873EB050002D308F1010801E032
:1004800092185B41B8F1000F03DA00200146BDE885
:10049000F08D00204FF48011064684460EE0171BB5
:1004A00073EB050705D3121B63EB050306434CEA08
:1004B000010C49084FEA300092185B4150EA0107ED
:1004C000EDD152EA030012D082EA040083EA05016A
:1004D000084305D0101BAB4106D20122002306E0E1
:1004E00000224FF0004302E06FF0010253101AEBBC
:1004F00006004CEB085110EB0A0041EB0B01BDE884
:10050000F04D00F064B8C1F30A52C1F3130140F298
:10051000FF3341F480119A4202DA0020014670470D
:1005200040F233439A42A2F2334202DC5242FFF7D6
:10053000F9BD00F02BB8000030B5041E71F10004C5
:1005400004DB4FF00044404264EB0101141E73F1E0
:10055000000405DB1C464FF00043524263EB0403EA
:10056000994208BF904230BD064C074D06E0E06856
:1005700040F0010394E8070098471034AC42F6D3EA
:10058000FFF7B8FD88290008A8290008202A04DB05
:10059000203A00FA02F1002070479140C2F1200396
:1005A00020FA03F3194390407047202A06DBCB174B
:1005B000203A41FA02F043EAE07306E041FA02F31E
:1005C000D040C2F12002914008431946704710B54F
:1005D000141E73F1000408DA401C41F10001921866
:1005E0005B411A4301D120F0010010BD2DE9F04D0F
:1005F00092469B4611B1B1FA81F202E0B0FA80F264
:1006000020329046FFF7C2FF04460F4640EA0A0038
:1006100041EA0B0153465A46084313D0114653EAA8
:10062000010019D0C8F140025046FFF77BFD054696
:100630000E46504659464246FFF7A8FF084305D0EC
:10064000012004E020463946BDE8F08D0020054336
:1006500046EAE0762C4337430A986305E40AA0EBA8
:1006600008000022FD0A44EA47540A3002D500205F
:100670000146E9E7010510196941DDE9084500195E
:100680006941BDE8F04DA2E7054810B5006805498D
:100690000840B0F1005F01D000F01EF8002010BD4E
:1006A000004000080000FE2F72B6044804490860AC
:1006B000016881F308884068004700000040000896
:1006C00008ED00E0FEE70000014800F00FB8000070
:1006D000700800207047000002A001F0B1F872B667
:1006E000FEE700004572726F720000002DE9F05FB6
:1006F000C16B0C6801680B68D0F840C0042202FA94
:100700000CF2494DDFF824A1494E4A4FDFF828B1D9
:10071000DFF828E122422CD05A072AD50A6892062F
:1007200003D40A6822F004020A600168A94201D1D8
:10073000042219E0514501D1402215E0B14202D115
:100740004FF4806210E0B94202D14FF480420BE0D6
:10075000594502D14FF4802206E0714502D14FF491
:10076000800201E04FF080622F4908394A60C16A77
:100770003BE04FF0020808FA0CF818EA040F4FF0BB
:1007800000094FF0010235D05FEA837832D50B685B
:100790009B0605D40B6823F00A030B6080F8212028
:1007A0000168A94201D1022219E0514501D120225C
:1007B00015E0B14202D14FF4007210E0B94202D10B
:1007C0004FF400520BE0594502D14FF4003206E0DD
:1007D000714502D14FF4001201E04FF0007212494E
:1007E00008394A6080F82090816A00291AD0BDE853
:1007F000F05F0847082505FA0CF5254212D01B07C3
:1008000010D50B6823F00E030B6090F84010C36BFB
:1008100002FA01F15960826380F8212080F820906B
:10082000016BE2E7BDE8F09F080002401C000240B7
:100830003000024044000240580002406C00024078
:1008400030B528B308C8134914221944B1FBF2F19A
:100850008900C16310498163022141771A6843F618
:10086000F0718A43D0E900142143D0E902452C43BA
:10087000214304692143446921438469214311438D
:10088000196000214163012242770177084630BD9B
:10089000012030BDF8FFFDBF0000024070B50446E6
:1008A00000F004F90546601C02D0044800780444B6
:1008B00000F0FCF8401BA042FAD370BD0C000020F1
:1008C0002DE9F84FDFF8B8910024A9F1040B234675
:1008D0000F2709F1040AABF1040EC9E00125A54078
:1008E0002A40AA427DD1674ED1F804C0ACEB06087D
:1008F000B44532D014DCBCF1030F3AD009DCBCF1B2
:10090000000F2AD0BCF1010F1CD0BCF1020F31D175
:100910001DE0BCF1110F17D0BCF1120F2AD119E064
:10092000B8F5881F19D006DCB8F5803F15D0B8F5AA
:10093000801F1FD111E0B8F5001F0ED0B8F5041FBD
:1009400018D10AE0CB6815E0CB681B1D12E0CB681C
:1009500008330FE0CB680C330CE08B682BB1012B14
:100960004FF0080303D0456104E0042302E0056171
:1009700000E00023FF2A01D8064601E000F104064A
:100980004FEA840501D9A5F12005D6F8008007FAC1
:1009900005FC28EA0C0803FA05F548EA0508C6F83C
:1009A00000804D68ED0062D5374DAE6946F0010616
:1009B000AE61AD6924F0030605F001050095334DE5
:1009C00006EB050CDCF80850A607360F07FA06F808
:1009D00025EA0805DFF8B880404503D14FF000084C
:1009E00017E044E0DFF8AC80404502D14FF0010849
:1009F0000FE0DFF8A480404502D14FF0020808E084
:100A0000DFF89880404502D14FF0030801E04FF035
:100A1000040808FA06F848EA0508CCF808804D688A
:100A2000D9F80060ED024D4601D5164300E096432B
:100A30002E604D68DAF80060AD02554601D51643C8
:100A400000E096432E604D68DBF80060AD035D4624
:100A500001D5164300E096432E604D68DEF8006035
:100A6000ED03754601D5164300E096432E60641CE5
:100A70000D682A46E5407FF431AFBDE8F88F0000ED
:100A80000804014000001110001002400000014065
:100A900000080140000C014000100140001401401A
:100AA0000AB1016170470904FBE700000148806852
:100AB000704700000C000020024881680278114451
:100AC000816070470C000020074810B5016841F0B4
:100AD00010010160032000F075F80F2000F006F807
:100AE00000F024F8002010BD0020024070B50D4D2C
:100AF00004464FF47A712878B1FBF0F00A4909688E
:100B0000B1FBF0F000F0DCFA48B9102C07D200225B
:100B10002146501E00F036F800206C6070BD0120A8
:100B200070BD00000C000020180000200C4808B523
:100B3000816941F001018161816901F00101009148
:100B4000C16941F08051C161C06900F080500090DE
:100B50000448416821F0E06141F00071416008BD46
:100B60000010024000000140002809DB00F01F02D5
:100B7000012191404009800000F1E020C0F80011FF
:100B800070470000F0B40E4B1B680C46C3F3022301
:100B9000C3F10705042D00D90425191D072901D229
:100BA000002300E0DB1E012606FA05F1491E214064
:100BB00099409E40761E16403143F0BC00F050BE76
:100BC0000CED00E0064900F0070208684FF6FF034D
:100BD000184040EA0220034A1043086070470000B2
:100BE0000CED00E00000FA052DE9F0470F46050086
:100BF00061D0434E306800F00700B84209D2306837
:100C000020F0070038433060306800F00700B84239
:100C100051D128683B4C810712D5400703D5606845
:100C200040F4E06060602878000703D5606840F415
:100C3000605060606068A96820F0F0000843606060
:100C40002878C00728D06868012810D021680228B9
:100C500010D0890700292EDA616821F003010143D1
:100C60006160FFF723FF804641F288390DE021687B
:100C70008903EFE78901EDE7FFF718FFA0EB080113
:100C8000494502D90320BDE8F0876068696800F033
:100C90000C00B0EB810FEFD1306800F00700B842D4
:100CA0000BD9306820F0070038433060306800F01E
:100CB0000700B84201D00120E5E72878400705D5B4
:100CC0006068E96820F4E060084360602878000705
:100CD00006D56068296920F4605040EAC100606070
:100CE00000F038F86168084AC1F30311515CC8404C
:100CF0000649086006480068FFF7F8FE0020C2E7D2
:100D000000200240001002406E2900081800002058
:100D1000100000200448054900684968044AC1F3EE
:100D20000221515CC84070471800002000100240AA
:100D30007E2900080448054900684968044AC1F34F
:100D4000C221515CC84070471800002000100240CA
:100D50007E2900080E4A51680E4801F00C03042B4E
:100D600011D0082B0FD10C48C1F38343C903C05CD9
:100D70000AD55168084AC1F34041921E515C054AA8
:100D80005043B0FBF1F070470449484370470000FE
:100D90000010024000127A005E29000800093D00A0
:100DA0002DE9F84F040070D02078C04DC00749D01D
:100DB0006868C0F38100012807D06868C0F381002B
:100DC000022809D16868C00306D52868800339D590
:100DD00060680028E7D035E06068B0F5803F0BD050
:100DE00010B1B0F5A02F11D0286820F48030286011
:100DF000286820F4802002E0286840F480302860D1
:100E0000606890B1FFF752FE06460AE0286840F499
:100E100080202860F0E700BFFFF748FE801B6428B1
:100E200073D828688003F7D50CE0FFF73FFE06462D
:100E300005E000BFFFF73AFE801B6428F0D8286861
:100E40008003F7D420789A4E80074FF001094FF0C5
:100E5000000839D5686810F00C0F07D06868C0F337
:100E60008100022809D16868C00306D42868800779
:100E700014D52069012808D110E02069B0B1C6F866
:100E80000090FFF713FE074605E00AE1FFF70EFEAC
:100E9000C01B0228C4D828688007F7D52868616974
:100EA00020F0F80040EAC10028600DE0C6F800809C
:100EB000FFF7FCFD074604E0FFF7F8FDC01B022822
:100EC00023D828688007F7D4207800072CD57948E4
:100ED000A169D9B1C0F80090FFF7E8FD074604E02A
:100EE000FFF7E4FDC01B02280FD8686A8007F7D51A
:100EF00071484FF4FA510068B0FBF1F0009000BF68
:100F00000098411E0091FAD20EE080E0C0F8008007
:100F1000FFF7CCFD074604E0FFF7C8FDC01B022821
:100F200075D8686A8007F7D42078400760D5E869EB
:100F30000027C00008D4E86940F08050E861E86903
:100F4000012700F0805000905C480168C90513D467
:100F50000168834641F480710160FFF7A7FD824676
:100F600006E000BFFFF7A2FDA0EB0A0064284ED800
:100F7000DBF80000C005F5D5E06801280AD008B10B
:100F8000052813D0286A20F001002862286A20F082
:100F9000040002E0286A40F001002862E06841F2A3
:100FA000883B98B1FFF782FD82460BE0286A40F04B
:100FB00004002862EEE700BFFFF778FDA0EB0A010E
:100FC00059455AD8286A8007F6D50CE0FFF76EFD20
:100FD000824605E0FFF76AFDA0EB0A0159454CD8AF
:100FE000286A8007F6D41FB1E86920F08050E861D4
:100FF000E06988B36968C1F38101022944D00228FD
:10100000C6F8608004D0FFF751FD044638E034E0B4
:10101000FFF74CFD074604E0FFF748FDC01B022820
:101020002BD828688001F7D4206AB0F5803F05D11D
:101030006868A16820F4003008436860D4E90801BA
:101040000843696821F4741108436860C6F8609029
:10105000FFF72CFD044606E025E000BFFFF726FD64
:10106000001B022809D828688001F7D51BE000BFC3
:10107000FFF71CFD001B022802D90320BDE8F88FF2
:1010800028688001F4D40EE00128F7D06868226A4D
:1010900000F48031914204D1616A00F470108842FA
:1010A00001D00120EAE70020E8E70000001002403C
:1010B00000004242800442421800002000700040BC
:1010C00010B5401EB0F1807F01D3012010BD4FF05C
:1010D000E02460610F21601700F0C2FB0020A061D6
:1010E00007202061002010BD70B5040004D094F8E2
:1010F0004100002510B106E0012070BD84F8405089
:10110000204600F023F8242084F841002068C168BC
:1011100021F40051C160204600F0ECFA206801691A
:1011200021F4904101612068416921F02A01416167
:101130002068C16841F40051C1606564202084F8D2
:10114000410084F842006563002070BD30B585B071
:101150000024009401940294039400682349884277
:1011600042D12348C16941F40031C161C16901F430
:1011700000310491816941F00401816180691D4D54
:1011800000F004000490042000900220019003204D
:10119000039069462846FFF793FB0820CDE9000439
:1011A000694628460294FFF78BFB144D1248C5E9A7
:1011B00000048020C5E902402C616C61AC612846C6
:1011C000EC61FFF73DFB08B1FFF786FA286801687C
:1011D00041F0020101602868016841F004010160EA
:1011E00006484430C563686205B030BD0044004025
:1011F00000100240000801406C000240700800200E
:101200002DE9F843044690F84100984616460D46ED
:10121000202802D00220BDE8F88385B17EB10020ED
:101220006064212084F84100FFF740FCA6848146D9
:10123000E684A0682027B0F5805F02D003E001209B
:10124000E9E7206910B12E4600250EE000260CE0EB
:101250008021204600F0AAFAA8B9C6B116F8010B01
:1012600021684860E08C401EE084E08C4B464FF0E3
:101270000002CDF800800028EAD14FF0400120465E
:1012800000F094FA40B184F841700320C3E735F8C8
:10129000020BC0F30800E3E784F841700020BAE7CE
:1012A000FEE7000030B585B0002424480094019486
:1012B00002940394816941F010018161816901F018
:1012C00010010491816941F020018161816901F07F
:1012D00020010491816941F004018161816901F07B
:1012E00004010491816941F0080181618069144D14
:1012F00000F008000490002210212846FFF7D0FBE0
:101300000122E0212846FFF7CBFB3020009001208E
:10131000CDE901040220039069462846FFF7D0FA80
:10132000C02000901120CDE90104032003906946FC
:101330002846FFF7C5FA05B030BD00000010024096
:10134000000C0140FEE7FEE770B5002400212046B6
:1013500000F0FCF80025002000F062F96D1CEDB2F1
:10136000802DF8D3641CE4B2082CEFD370BD0000CC
:1013700010B5FFF797FF0D4C012220212046FFF703
:101380008FFB002210212046FFF78AFB012240211B
:101390002046FFF785FB012280212046FFF780FBD6
:1013A000BDE8104002A000F04BBA0000000C014064
:1013B0005B4F4C45445D3A496E6974204F766572C7
:1013C0000A0000002DE9F0410024144D0746802654
:1013D00026FA04F0384201D0012200E000228021E8
:1013E0002846FFF75DFB012240212846FFF758FB06
:1013F000002240212846FFF753FB641CE4B2082C6E
:10140000E6D3012240212846FFF74AFB2846BDE8E3
:10141000F04100224021FFF743BB0000000C0140D7
:1014200010B50B4C012280212046FFF739FB012229
:1014300040212046FFF734FB002280212046FFF7A1
:101440002FFB20460022BDE810404021FFF728BBBB
:10145000000C014010B5094C002280212046FFF706
:101460001FFB012240212046FFF71AFB20460122E4
:10147000BDE810408021FFF713BB0000000C0140C5
:1014800010B500204FF47A720021491C9142FCD320
:10149000401C9042F8D3FFF76BFFAE2000F0AFF88E
:1014A000D52000F0ACF8802000F0A9F8A82000F0CA
:1014B000A6F83F2000F0A3F8FFF7B2FF7820FFF76F
:1014C00081FF0020FFF77EFF2020FFF77BFF002039
:1014D000FFF778FFFFF7BEFFD32000F090F8002061
:1014E00000F08DF8402000F08AF8A12000F087F885
:1014F000C82000F084F8DA2000F081F8122000F013
:101500007EF8812000F07BF8CF2000F078F8D92019
:1015100000F075F8F12000F072F8DB2000F06FF8B1
:10152000302000F06CF8A42000F069F8A62000F04C
:1015300066F88D2000F063F8142000F060F8AF200A
:1015400000F05DF8BDE81040FFF7FEBE10B50C4698
:1015500040F0B00000F053F8102040EA141000F002
:101560004EF804F00F00BDE8104000F048B800004D
:101570002DE9F0410746CE004000083E801E15468A
:101580004FF0FF38F1B2C0B2FFF7E0FF114800247E
:1015900000EB05152819A0F5805090F8000E00F01A
:1015A0003FF8641CE4B2082CF4D308EB4700F1B216
:1015B000C0B2FFF7CBFF00242819A0F5805090F8A7
:1015C000080E00F02DF8641CE4B2082CF4D3BDE83A
:1015D000F08100006C2300082DE9F04115460E460D
:1015E0000746002406E03019C1B23846FFF7C0FFB5
:1015F000641CE4B22A5D002AF5D1BDE8F08110B583
:101600000446FFF70DFF7820FFF7DCFE0020FFF710
:10161000D9FE2046FFF7D6FEBDE81040FFF71ABFFF
:1016200010B50446FFF7FCFE7820FFF7CBFE402004
:10163000FFF7C8FE2046FFF7C5FEBDE81040FFF7E4
:1016400009BF70477047FFF737BA30B58FB0282110
:101650006846FEF77EFD14210AA8FEF77AFD0121F7
:101660000804CDE900100024029402250491CDE97C
:1016700007504FF4E01009906846FFF791FB60B9FE
:101680000F20CDE90A056802CDE90C4002210AA825
:101690000E94FFF7A9FA002801D0FFF71DF80FB04C
:1016A00030BD704701680C3151E8002F22F4907270
:1016B00041E80023002BF5D10168143151E8002FD7
:1016C00022F0010241E80023002BF5D1016B012932
:1016D00009D101680C3151E8002F22F0100241E8D5
:1016E0000023002BF5D1202180F842100021016356
:1016F0007047000070B5044600680169E26821F493
:101700004051114301612169A068084361690843A0
:101710002168CA6841F20C639A430243CA60206898
:101720004169A26921F44071114341611E49206859
:10173000884202D1FFF7FEFA01E0FFF7EBFA00EB77
:10174000C00101EB0012606864218000B2FBF0F37D
:10175000B3FBF1F36FF018067343B2FBF0F5B2FB85
:10176000F0F605EB8305322303EB0515B5FBF1F528
:10177000B6FBF1F605F0F00505EB0615B2FBF0F649
:10178000B2FBF0F0B0FBF1F06FF01802504306EB43
:10179000800003EB0010B0FBF1F0216800F00F00B7
:1017A0002844886070BD0000003801402DE9F843EE
:1017B000984617460D460446089E24E0701C22D029
:1017C000FFF774F9A0EB0800B0421AD8CEB1206838
:1017D000C168490717D5802D15D0402D13D0016859
:1017E000C94309070FD401680025406800902046CE
:1017F000FFF758FF0820606484F840500120BDE8DE
:10180000F8830320FBE72068006835EA000004D075
:101810000020B842D2D00020F1E70120F9E7000013
:10182000044800680068C043C00602D40249012091
:1018300008707047B408002002000020FEE7000096
:101840000FB4054B10B503A9044A029800F0EAF85A
:1018500010BC5DF814FB0000552100081C0000209E
:101860000907090E002804DB00F1E02080F80014CD
:10187000704700F00F0000F1E02080F8141D704761
:1018800002E008C8121F08C1002AFAD17047704749
:10189000002001E001C1121F002AFBD170470000A7
:1018A0002DE9FF5F82B00021DDE90430020DDDF893
:1018B00040B0034318D044F61050A2F2FF32424326
:1018C0001514119801281FD0A5EB0B00401C5FEAEE
:1018D000000A4FF000064E4FDFF83891B0465046F0
:1018E00015D5CAF1000413E0119801244AA3012878
:1018F00001D16FEA0B010298119AC0E90031C0E9E9
:10190000024206B0BDE8F09FCBF10000DFE70446DD
:101910000021404A491842EB0450CDE9001012E082
:10192000E00707D032463B4640464946FEF70AFDEF
:101930008046894632463B4610461946FEF702FD70
:1019400006460F466410002CEAD1DDE90401DDE90A
:101950000023BAF1000F06DAFEF7F4FC42464B46CC
:10196000FEF7F0FC05E0FEF75FFD42464B46FEF752
:101970005BFD04460E460022284BFEF7DDFD03D832
:101980004FF0FF30014607E00022254B204631464C
:10199000FEF731FCFEF7B7FD102409E0002C0ADB4E
:1019A0000A220023FEF7F6FB039B30321A55641E11
:1019B00050EA0102F2D1641C039AC4F111031444E9
:1019C000119A012A03D0012208430DD10AE00843ED
:1019D00004D000204FF0110B119072E7A3EB0B0520
:1019E0006D1E0DE05B4504DD4FF0000205F10105C1
:1019F00004E003DA4FF00002A5F10105002AECD063
:101A000002981199C0E90231C0E9004579E7000068
:101A1000000014400000F03F300000000000F043E0
:101A20000000E03F2DE9FF4F95B09B4689460646F2
:101A300000250FE2252877D100242746F84A012106
:101A4000059400E0044316F8013F203B01FA03F03F
:101A50001042F7D130782A2811D06FF02F03307858
:101A6000A0F13002092A16D8059A44F0020402EBCC
:101A7000820203EB42021044761C0590EFE759F80E
:101A8000042B0592002A03DA504244F400540590D6
:101A900044F00204761C30782E2816D116F8010F77
:101AA00044F004042A280DD06FF02F023078A0F102
:101AB0003003092B09D807EB870302EB4303C71850
:101AC000761CF3E759F8047B761C30786C280FD02D
:101AD00006DC4C2817D068280DD06A2814D104E001
:101AE000742810D07A280FD10DE044F400140AE0D5
:101AF00044F4801401E044F440147278824202D12C
:101B000004F58014761C761C307866280BD013DC24
:101B1000582877D009DC002875D04528F6D046280B
:101B2000F4D047281AD19DE118E0632835D0642805
:101B300079D0652812D195E1702873D008DC672828
:101B4000F1D069286FD06E280DD06F2806D1B5E08E
:101B500073282CD0752875D0782874D05A461799D8
:101B600090476D1C75E1C4F30250022809D0032888
:101B70000DD0D9F8001004280DD00D6009F104092A
:101B800067E1D9F80010EA17C1E90052F6E7D9F881
:101B900000100D80F2E70D70F0E719F8041B8DF8C6
:101BA000001000208DF80100EA46012003E059F8FA
:101BB00004AB4FF0FF3061074FF0000102D40DE09D
:101BC00008F101018846B9420FDA8045F8DB1AF8BE
:101BD00008100029F4D108E008F10101884681428B
:101BE000FADB1AF808100029F6D105985B46A0EB3D
:101BF000080721463846179A00F094FA284400EB6B
:101C0000080507E04DE029E10DE01AF8010B5A46FE
:101C100017999047B8F10108F7D25B46214638463C
:101C2000179A13E142E00A220092C4F302524FF0E5
:101C3000000A022A08D059F804CB032A4FEAEC71B3
:101C40000AD00DE029E02AE009F1070121F007029E
:101C5000F2E802C1914609E00FFA8CFC4FEAEC7100
:101C6000042A03D14FFA8CFC4FEAEC71002907DA01
:101C70000A460021DCF1000C61EB02012D2202E09A
:101C8000220504D52B228DF80420012203E0E2076F
:101C900001D02022F7E7904659E00A2102E0102205
:101CA0000DE010214FF0000A00910BE010224FF0E0
:101CB000000A44F004040827009203E008224FF0D1
:101CC000000A0092C4F30252022A05D059F804CB4C
:101CD0000021032A08D009E009F1070121F00702D9
:101CE000F2E802C1914605E01FFA8CFC042A01D1FA
:101CF0000CF0FF0C4FF00008220728D5702806D002
:101D0000009B83F0100353EA0A0305D00EE0402243
:101D10008DF80420012208E05CEA010206D030229E
:101D20008DF804208DF8050002229046009B83F078
:101D3000080353EA0A030AD15CEA010201D16207EF
:101D400005D530228DF804204FF001087F1E582859
:101D500004D034A003900EA802900DE036A0F9E75D
:101D600053466046009AFEF715FA84460398825C53
:101D70000298401E029002705CEA0100F0D10298C5
:101D800006A9081A00F1200A600702D524F480345D
:101D900000E00127574502DDA7EB0A0000E0002024
:101DA00000EB0A01009005984144401A0590E003B9
:101DB00006D45B462146179A059800F0B3F905440E
:101DC000002706E001A85A46C05D179990476D1C90
:101DD0007F1C4745F6DBE0030CD55B462146179A8E
:101DE000059800F09FF9054404E030205A46179901
:101DF00090476D1C0099481E00900029F5DC08E012
:101E0000029802995A460078491C02911799904706
:101E10006D1CBAF10001AAF1010AF1DC65E10000D4
:101E200009280100303132333435363738396162B0
:101E30006364656600000000303132333435363774
:101E400038394142434445460000000000F058F94B
:101E50000544761C307800287FF4ECAD19B0284694
:101E6000BDE8F08F620700D4062709F1070222F0CF
:101E7000070CFCE80223E14603F000485FEA080C87
:101E800002D00FF2702C0DE05FEA045C02D50FF275
:101E9000682C07E05FEAC47C02D00FF2602C01E0FE
:101EA000AFF2700C4FF0FF3823F00043CDF850C074
:101EB00065280CD006DC452809D046281DD04728C7
:101EC0003DD13DE0662818D067287ED138E000215A
:101ED000112F01DB112000E0781CCDE9000106A9DB
:101EE0000EA8FFF7DDFCDDE90F010E9A039100213A
:101EF000009207F1010A04914DE04FF00040009775
:101F0000CDE9011006A90EA8FFF7CAFCDDE90F0212
:101F100003920E9B11990022DDF80CA0009304920D
:101F200011B9791C00EB010AB7EB0A0004D4C0F127
:101F3000FF3007F1010A0490AAEB0700019044E08A
:101F4000012F00DA01270021112F01DD112000E00F
:101F50003846CDE9000106A90EA8FFF7A1FCDDE98E
:101F60000F010E9A0391002104910092BA462107B5
:101F70000CD40399514500DA8A46BAF1010F05DD08
:101F8000009AAAF10101515C302908D0B84202DA66
:101F900010F1040F06DA0121CDE9011015E0AAF1D4
:101FA0000101E9E7002805DC049901440491AAEB4A
:101FB000000102E0411C514500DD8A460499401AA7
:101FC000401C01904FF000400290200704D401987B
:101FD000504501DBCDF8048000208DF84F000298B9
:101FE0000DF14F07B0F1004F25D02B200E90029835
:101FF0004FF0020800280CDA404202902D200E908B
:1020000007E00A210298FEF7AFF83031029007F896
:10201000011DB8F10001A8F10108F2DC02980028C6
:10202000EFD1791E0E980870307800F0200040F053
:10203000450007F8020D12A8C01B00F1070814980C
:10204000007800B1012000EB0A01019801EBE0717A
:1020500005984144401A401E0590E00306D45B46B3
:102060002146179A059800F05DF805441498007809
:1020700018B15A46179990476D1CE00324D55B466A
:102080002146179A059800F04DF805441CE0049885
:10209000002807DBDDE90301884203DD0098405C8E
:1020A000179901E0179930205A469047049805F196
:1020B0000105401C04900198401E019004D12E207F
:1020C0005A46179990476D1CBAF10001AAF1010A0E
:1020D000DDDC05E017F8010B5A46179990476D1C97
:1020E000B8F10001A8F10108F4DC5B462146179A1B
:1020F0000598ABE62D0000002B000000200000003A
:102100002DE9F041044600251E461746880404D4F4
:1021100005E039462020B0476D1C641EF9D52846DD
:10212000BDE8F0812DE9F041044600251E469046A9
:10213000C80301D5302700E02027880404D505E036
:1021400041463846B0476D1C641EF9D52846BDE8A7
:10215000F08100002DE9F843C7B280468DF8007089
:102160000023012269462D48FFF74AF82B4E2C4CDC
:102170000325743E4FF00009B8F10A0F18D0A0688B
:102180003A46401EB0FBF5F105FB110006EB0011CD
:102190006068014401F8017CC1B20320FFF7E8F94F
:1021A00060680F2809D2401C606001281AD02AE01C
:1021B000606801282DD00F206060FFF7C5F8A16886
:1021C0004A46491CC4E901911046491EB1FBF5F38A
:1021D00005FB131306EB03131A54401C0F28F5D903
:1021E000012060600027A0683844B0FBF5F105FBD2
:1021F000110006EB0012781CC0B20121FFF7ECF9C8
:102200007F1C032FEFDB3220FEF748FB4046BDE882
:10221000F8834846C4F80490C5E70000B4080020DD
:102220000000002008B5FEF74FFCFFF70EFAFFF79D
:1022300027F928A0FFF704FB2C48816941F0200111
:102240008161816901F020010091816941F00401FF
:102250008161816901F004010091416941F001014E
:1022600041614069002200F001000090052110202A
:10227000FEF788FC1020FEF777FC1E481C490C2254
:1022800001604FF41651416000218160C160C0E9D6
:1022900004128161C161FEF727FF40B916A0FFF764
:1022A000CFFA1CA0FFF7CCFAFEF7EEF908B1FEF763
:1022B00013FA1EA0FFF7C4FAFEF7F6F9FEF7F6FBD5
:1022C000014620A0FFF7BCFA274A01210420FFF7AE
:1022D00083F9F9E75B426F6F746C6F61645D3A4537
:1022E0006E746572206D61696E200A0000100240F4
:1022F00000440040B40800205B426F6F746C6F6153
:10230000645D3A436865636B205570446174652071
:102310000A0000005B426F6F746C6F61645D3A434A
:102320006865636B20415050200A00005B426F6F6C
:10233000746C6F61645D3A617070206E6F726D6174
:102340006C200A005B426F6F746C6F61645D3A428F
:102350004F4F544C4F41442057494C4C2052455309
:1023600045542025640A00003000002000000000D1
:10237000000000000000000000000000000000F865
:1023800000000000000000333000000000100C06C8
:10239000100C0600000000000000000040C0784063
:1023A000C0784000043F04043F040400007088FC2F
:1023B00008300000001820FF211E0000F008F00087
:1023C000E018000000211C031E211E0000F00888F8
:1023D000700000001E2123241927211010160E0062
:1023E000000000000000000000000000000000E00D
:1023F0001804020000000007182040000002041822
:10240000E00000000040201807000000404080F07D
:10241000804040000202010F01020200000000F0B3
:10242000000000000101011F010101000000000087
:102430000000000080B070000000000000000000FC
:102440000000000000010101010101010000000085
:10245000000000000030300000000000000000001C
:1024600080601804006018060100000000E01008F9
:102470000810E000000F102020100F00001010F8CE
:10248000000000000020203F20200000007008080D
:10249000088870000030282422213000003008888D
:1024A000884830000018202020110E000000C020B5
:1024B00010F8000000070424243F240000F80888D6
:1024C000880808000019212020110E0000E0108863
:1024D00088180000000F112020110E000038080895
:1024E000C83808000000003F0000000000708808A5
:1024F00008887000001C222121221C0000E0100826
:102500000810E0000000312222110F00000000C07E
:10251000C00000000000003030000000000000801B
:10252000000000000000806000000000000080400B
:102530002010080000010204081020004040404024
:102540004040400004040404040404000008102077
:1025500040800000002010080402010000704808BC
:102560000808F0000000003036010000C030C82824
:10257000E810E0000718272423140B000000C038DF
:10258000E0000000203C23020227382008F8888859
:1025900088700000203F202020110E00C030080865
:1025A00008083800071820202010080008F808083C
:1025B0000810E000203F202020100F0008F8888835
:1025C000E8081000203F20202320180008F8888801
:1025D000E8081000203F200003000000C030080879
:1025E0000838000007182020221E020008F8080002
:1025F0000008F808203F210101213F20000808F8C9
:10260000080800000020203F2020000000000808EB
:10261000F8080800C08080807F00000008F888C0AB
:1026200028180800203F20012638200008F808005C
:1026300000000000203F20202020300008F8F80093
:10264000F8F80800203F003F003F200008F830C0A5
:102650000008F808203F200007183F00E010080895
:102660000810E0000F10202020100F0008F80808C4
:102670000808F000203F210101010000E0100808D7
:102680000810E0000F18242438504F0008F88888FC
:1026900088887000203F2000030C302000708808DC
:1026A000080838000038202121221C00180808F8EA
:1026B000080818000000203F2000000008F808006B
:1026C0000008F808001F202020201F00087888003C
:1026D00000C83808000007380E010000F80800F8AC
:1026E0000008F800033C0700073C03000818688056
:1026F0008068180820302C03032C30200838C800CC
:10270000C83808000000203F20000000100808081A
:10271000C83808002038262120201800000000FEBC
:10272000020202000000007F40404000000C30C068
:1027300000000000000000010638C0000002020294
:10274000FE000000004040407F0000000000040246
:102750000202040000000000000000000000000071
:102760000000000080808080808080800002020461
:102770000000000000000000000000000000808059
:10278000808000000019242222223F2008F80080C7
:1027900080000000003F112020110E00000000808A
:1027A00080800000000E1120202011000000008019
:1027B0008088F800000E112020103F20000080804B
:1027C00080800000001F222222221300008080F05F
:1027D000888888180020203F20200000000080808A
:1027E00080808000006B94949493600008F80080CF
:1027F00080800000203F210000203F20008098982A
:10280000000000000020203F202000000000008089
:102810009898000000C08080807F000008F80000C9
:1028200080808000203F24022D302000000808F81E
:10283000000000000020203F2020000080808080D9
:1028400080808000203F20003F20003F808000806B
:1028500080800000203F210000203F200000808079
:1028600080800000001F202020201F00808000802A
:102870008000000080FFA12020110E0000000080D9
:1028800080808000000E112020A0FF8080808000CA
:102890008080800020203F212000010000008080F7
:1028A000808080000033242424241900008080E0EC
:1028B000808000000000001F2020000080800000B9
:1028C00000808000001F202020103F20808080009A
:1028D0000080808000010E300806010080800080AA
:1028E000008080800F300C030C300F0000808000CF
:1028F000808080000020312E0E31200080808000FA
:102900000080808080818E701806010000808080A9
:10291000808080000021302C222130000000000047
:10292000807C020200000000003F404000000000E8
:10293000FF00000000000000FF0000000002027C19
:10294000800000000040403F000000000006010140
:102950000202040400000000000000000102020363
:102960000405060708090A0B0C0D0E0F10100000D5
:10297000000000000000010203040607080900002F
:102980000000010203040000A82900080000002044
:102990002000000080180008C8290008200000203E
:1029A000E00C00009018000800000000010000008A
:1029B0000400000001000000100000000000000002
:0829C00000127A000000000083
:04000005080000ED02
:00000001FF
