:020000040800F2
:100000003023002099010008A5290008FF200008DE
:10001000A1290008B1020008013300080000000017
:1000200000000000000000000000000001010008C6
:10003000C50200080000000045010008EF2F00087D
:10004000B3010008B3010008B3010008B3010008C0
:10005000B3010008B3010008B3010008B3010008B0
:10006000B3010008B3010008B3010008B50200089D
:10007000B3010008B3010008B3010008B301000890
:10008000B3010008B3010008B3010008B301000880
:10009000B3010008B3010008B3010008B301000870
:1000A000B301000879300008B3010008B30100086B
:1000B000B3010008B3010008B3010008B301000850
:1000C000B3010008B3010008B3010008B301000840
:1000D000B3010008B3010008B3010008B301000830
:1000E000B3010008B3010008B3010008DFF80CD029
:1000F00000F09EF800480047E93500083023002052
:10010000224B19680868B0E8F00F80F30988BFF344
:100110006F8F4FF0000080F311884EF00D0E704786
:100120000000000006480068006880F3088862B696
:1001300061B6BFF34F8FBFF36F8F00DF00BF00BF0B
:1001400008ED00E0EFF30980BFF36F8F0F4B1A68E3
:1001500020E9F00F106008B54FF0500080F31188CF
:10016000BFF34F8FBFF36F8F04F020FB4FF0000001
:1001700080F31188BDE8084019680868B0E8F00FFE
:1001800080F30988BFF36F8F704700BF38000020ED
:10019000EFF3058070470000064880470648004797
:1001A000FEE7FEE7FEE7FEE7FEE7FEE7FEE7FEE727
:1001B000FEE7FEE777300008ED00000840EA0103A3
:1001C0009B0703D009E008C9121F08C0042AFAD20D
:1001D00003E011F8013B00F8013B521EF9D27047D1
:1001E000D2B201E000F8012B491EFBD27047002279
:1001F000F6E710B513460A4604461946FFF7F0FF26
:10020000204610BD30B50B460146002020220124B7
:1002100009E021FA02F59D4205D303FA02F5491BD4
:1002200004FA02F52844151EA2F10102F1DC30BDEA
:10023000064C074D06E0E06840F0010394E8070033
:1002400098471034AC42F6D3FFF754FF945C000893
:10025000B45C000870B5044600252068806800F092
:10026000010018B32068806820F0010021688860D0
:1002700000F082FC054613E000F07EFC401B0228E3
:100280000ED92068806800F0010048B1A06A40F0F3
:100290001000A062E06A40F00100E062012070BD41
:1002A0002068806800F001000028E5D10020F6E712
:1002B00000BFFEE710B5024800F0B2F910BD000023
:1002C00030050020704772B600BFFEE738B5024621
:1002D00000230020009000BF92F82400012801D1E3
:1002E000022038BD012082F8240000BF486807289A
:1002F00012D21068406B0C79641E04EB84051F2435
:10030000AC40A0430D796D1E05EB85050C68AC4033
:1003100020431468606327E048680D2812D21068F3
:10032000006B0C79E41F04EB84051F24AC40A04350
:100330000D79ED1F05EB85050C68AC402043146872
:10034000206311E01068C06A0C790D3C04EB840551
:100350001F24AC40A0430D790D3D05EB85050C68CD
:10036000AC4020431468E06208680A2812D3106881
:10037000C0680C780A3C04EB44050724AC40A04359
:100380000D780A3D05EB45058C68AC4020431468A8
:10039000E0600FE0106800690C7804EB4405072466
:1003A000AC40A0430D7805EB45058C68AC4020437C
:1003B000146820610868102802D00868112827D125
:1003C000174C1068A0421ED11068806800F400002D
:1003D000F0B91068806840F400001468A0600868F4
:1003E000102815D10F4800680F4CB0FBF4F000EB5B
:1003F00080004000009002E00098401E00900098AD
:100400000028F9D104E0906A40F0200090620123B6
:1004100000BF002082F8240000BF184661E70000FA
:10042000002401403400002040420F002DE9F0413B
:100430000446002700250026A84614B90120BDE87F
:10044000F081A06810B1207D00B100BFA06A30B972
:100450000020E06284F82400204600F089F820465D
:10046000FFF7F8FE0746A06A00F01000002873D1DD
:10047000002F71D1A06A20F4885040F00200A062E1
:10048000E16960680843217B40EA41000643A068B7
:10049000B0F5807F02D0A068012802D14FF48070AF
:1004A00000E000200543207D012811D1207B38B9D0
:1004B000A069401E4FF4006141EA4030054307E067
:1004C000A06A40F02000A062E06A40F00100E06213
:1004D0002068406820F4694028432168486020680B
:1004E000806821490840304321688860A068B0F5E1
:1004F000807F02D0A068012802D14FF4807000E014
:100500000020B0F5807F03D1208A401E4FEA0058BA
:100510002068C06A20F4700040EA08002168C862C0
:100520002068806811490840B04208D10020E0628C
:10053000A06A20F0020040F00100A06211E0A06A71
:1005400020F0020040F01000A062E06A40F00100DC
:10055000E062012705E0FFE7A06A40F01000A0621A
:10056000012738466BE70000FDF7E1FFFE0E1FFF95
:1005700010B586B0044600200290039004900590C8
:100580002249206888423ED100BF2148806940F45A
:1005900000701F4988610846806900F4007001906E
:1005A00000BF00BF00BF0846806940F004008861BA
:1005B0000846806900F00400019000BF00BF0120E0
:1005C00002900320039002A9124800F03FF912485C
:1005D0001249086000204860002110488160C16015
:1005E0004FF4807101618900416120218161002106
:1005F000C16100F0E3F808B1FFF765FE00BF0748EE
:100600002062446200BF06B010BD0000002401401B
:1006100000100240000801400800024030050020A0
:1006200070B50446E06B05682068066894F84010D1
:10063000042088402840002846D006F00400002806
:1006400042D02068006800F0200028B920680068C7
:1006500020F004002168086057492068884201D1D1
:10066000042027E0544914312068884201D14020F9
:1006700020E0514928312068884201D1001519E055
:100680004D493C312068884202D14FF4804011E04E
:10069000494950312068884202D14FF4802009E056
:1006A000454964312068884202D14FF4800001E05E
:1006B0004FF08060404908394860E06A00287AD0ED
:1006C0002046E16A884776E094F84010022088408E
:1006D0002840A0B306F0020088B32068006800F04C
:1006E000200040B92068006820F00A0021680860F6
:1006F000012084F8210030492068884201D102207D
:1007000028E02D4914312068884201D1202021E0C1
:10071000294928312068884201D140151AE026492C
:100720003C312068884202D14FF4005012E0224947
:1007300050312068884203D14FF400300AE017E0BE
:100740001D4964312068884202D14FF4001001E055
:100750004FF0007018490839486000BF002084F845
:10076000200000BFA06A30B32046A16A884722E07B
:1007700094F84010082088402840E0B106F00800B6
:10078000C8B12068006820F00E002168086094F865
:10079000401001208840E16B48600120A06384F88C
:1007A000210000BF002084F8200000BF206B10B1A2
:1007B0002046216B884770BD080002400146002298
:1007C00009B901207047164B0868C01A1423B0FB02
:1007D000F3F08000086412480838C863022081F8EA
:1007E00021000868026843F6F0708243D1E90103F2
:1007F0001843CB6818430B6918434B6918438B693E
:100800001843CB69184302430868026000208863DC
:10081000012081F82100002081F8200000BFD1E7ED
:100820000800024070B5044600F0A6F906462546C9
:10083000681C10B104480078054400BF00F09CF922
:10084000801BA842FAD370BD300000202DE9F84784
:100850000346002294466EE14FF0010808FA02F4C4
:10086000D1F8008008EA0400A0427DD1DFF8DCA2C4
:10087000D1F80480A8EB0A09D0453AD014DCB8F1CD
:10088000030F50D009DCB8F1000F31D0B8F1010FDF
:100890001CD0B8F1020F49D120E0B8F1110F18D0E7
:1008A000B8F1120F42D11EE0B9F5881F25D006DC41
:1008B000B9F5803F20D0B9F5801F37D11AE0B9F5DE
:1008C000001F18D0B9F5041F30D117E0D1F80CC0C3
:1008D0002DE0D1F80C8008F1040C28E0D1F80C8050
:1008E00008F1080C23E0D1F80C8008F10C0C1EE094
:1008F00000BF00BF00BF00BF00BF00BFD1F808802D
:10090000B8F1000F02D14FF0040C0BE0D1F80880D1
:10091000B8F1010F03D14FF0080C1C6102E04FF059
:10092000080C5C6103E04FF0000C00E000BF00BF6A
:10093000FF2801D8984601E003F104084646FF2845
:1009400002D84FEA820803E0A2F108084FEA8808BB
:100950004746D6F800804FF00F0909FA07F928EA50
:1009600009080CFA07F900E088E048EA0908C6F827
:100970000080D1F8048008F08058B8F1805F7DD104
:1009800000BFDFF8CC81D8F8188048F00108DFF804
:10099000C091C9F81880C846D8F8188008F0010836
:1009A000CDF8008000BF00BF4FEAB9384FEA920986
:1009B00058F829504FEA82784FEA18794FF00F081B
:1009C00008FA09F825EA0805DFF88881434502D1CD
:1009D0004FF0000816E0DFF88081434502D14FF068
:1009E00001080FE0DFF87481434502D14FF002089F
:1009F00008E0DFF86C81434502D14FF0030801E0C5
:100A00004FF004084FEA82794FEA197908FA09F899
:100A100048EA0505DFF84C814FEA920948F8295069
:100A2000D1F8048008F48018B8F5801F0AD1DFF8E7
:100A30003881D8F8008048EA0008DFF82C91C9F81E
:100A4000008009E0DFF82081D8F8008028EA00085B
:100A5000DFF81491C9F80080D1F8048008F4001878
:100A6000B8F5001F10D1DFF8008108F10408D8F8AC
:100A7000008048EA0008DFF8F09000E05AE009F151
:100A80000409C9F800800DE0DFF8DC8008F10408F3
:100A9000D8F8008028EA0008DFF8CC9009F10409B2
:100AA000C9F80080D1F8048008F40038B8F5003F98
:100AB0000ED1DFF8B480A8F10408D8F8008048EA25
:100AC0000008DFF8A490A9F10409C9F800800DE03E
:100AD000DFF89480A8F10408D8F8008028EA00081C
:100AE000DFF88490A9F10409C9F80080D1F80480E6
:100AF00008F48038B8F5803F0ED1DFF86C80A8F19B
:100B00000808D8F8008048EA0008DFF85C90A9F1EE
:100B10000809C9F800800DE0DFF84C80A8F108084A
:100B2000D8F8008028EA0008DFF83C90A9F108090D
:100B3000C9F80080521CD1F8008028FA02F8B8F1F8
:100B4000000F7FF489AEBDE8F887000000001110A7
:100B50000010024000080140000C0140001001405C
:100B60000014014008000140080401400AB101617D
:100B700001E00B0403617047014800687047000002
:100B80002800002070B504460CB9012070BD94F80F
:100B90003D0028B9002084F83C00204600F04CFBC2
:100BA000242084F83D002068006820F001002168BE
:100BB00008602068006840F40040216808602068F0
:100BC000006820F400402168086000F0F9FD054647
:100BD0005C496068884206D85B48854201D20120A2
:100BE00007E0002005E05948854201D2012000E0DD
:100BF0000020012800D1C9E75548B5FBF0F6206870
:100C0000406820F03F003043216848604D496068EB
:100C1000884201D8701C07E04FF4967070434FF47F
:100C20007A71B0FBF1F0401C2168096A21F03F01A4
:100C300008432168086243496068884214D8681EE6
:100C400061684900B0FBF1F0401CC0F30B000428C0
:100C500001D204203DE0681E61684900B0FBF1F05C
:100C6000401CC0F30B0034E0A06838B9681E61680E
:100C700001EB4101B0FBF1F0401C0AE0681E616825
:100C800001EBC10202EB0111B0FBF1F0401C40F49A
:100C90008040C0F30B0008B901201AE0A06848B9F1
:100CA000681E616801EB4101B0FBF1F0401CC0F32C
:100CB0000B000CE0681E616801EBC10202EB011140
:100CC000B0FBF1F0401CC0F30B0040F4804040F456
:100CD00000402168C9694CF6FF72914308432168BE
:100CE000C861D4E9070108432168096821F0C001FF
:100CF000084321680860D4E9031008432168896823
:100D000048F2FF329143084321688860D4E9050125
:100D100008432168C96821F0FF0108432168C860C1
:100D20002068006840F0010021680860002020640D
:100D3000202084F83D000020206384F83E0000BF9E
:100D400024E70000A086010080841E0000093D0009
:100D500040420F002DE9F8430446894616461F46D7
:100D6000DDF82080FFF708FF054694F83D002028B5
:100D70007ED11923012251492046009501F023FB21
:100D800010B10220BDE8F88300BF94F83C000128B0
:100D900001D10220F6E7012084F83C0000BF206862
:100DA000006800F0010028B92068006840F00100E8
:100DB000216808602068006820F4006021680860ED
:100DC000212084F83D00102084F83E00002020649B
:100DD00066626785608D20853948E0622B46424611
:100DE0004946204601F0ACF908B10120CAE700BF2E
:100DF0000020009020684069009020688069009081
:100E000000BF00BF44E02A464146204601F0FCFBFB
:100E100050B1206C042805D12068006840F40070AF
:100E2000216808600120ADE7606A007821680861E8
:100E3000606A401C6062608D401E6085208D401E8F
:100E4000208520684069C0F3800070B1208D60B1BA
:100E5000606A007821680861606A401C6062608D89
:100E6000401E6085208D401E20852A46414600E0B8
:100E700022E0204601F074FA50B1206C042805D11C
:100E80002068006840F4007021680860012079E75C
:100E9000208D0028B7D12068006840F400702168D8
:100EA0000860202084F83D00002084F83E0000BF48
:100EB00084F83C0000BF65E7022063E702001000F1
:100EC0000000FFFF2DE9FE4F04460F46904699466D
:100ED000DDE90CAB0E9E00200290FFF74DFE0546AB
:100EE00094F83D00202872D119230122CE492046D2
:100EF000009501F068FA10B10220BDE8FE8F00BF36
:100F000094F83C00012801D10220F6E7012084F882
:100F10003C0000BF2068006800F0010028B920688C
:100F2000006840F00100216808602068006820F433
:100F3000006021680860222084F83D00402084F889
:100F40003E0000202064C4F824A0A4F82AB0608DDC
:100F50002085B648E0624B46424639462046CDE9F8
:100F6000006501F04DF908B10120C6E7208D88B970
:100F700000BF0020019020684069019020688069CE
:100F8000019000BF00BF2068006840F40070216835
:100F900008604BE0208D01281AD12068006820F4F9
:100FA00080602168086072B600BF00200190206850
:100FB0004069019020688069019000BF00BF2068EF
:100FC000006840F400702168086062B62EE029E1F4
:100FD000208D022819D12068006840F40060216843
:100FE000086072B600BF002001902068406901903F
:100FF00020688069019000BF00BF2068006820F46D
:1010000080602168086062B610E02068006840F4E3
:1010100080602168086000BF00200190206840695E
:10102000019020688069019000BF00BFEBE0208D37
:1010300003287DD8208D012815D12A463146204627
:1010400001F09DFA08B1012057E720680069616A44
:101050000870606A401C6062208D401E2085608D93
:10106000401E6085CFE0208D02282CD1334600221F
:101070006F492046009501F0A6F908B101203CE730
:1010800072B62068006840F400702168086020682B
:101090000069616A0870606A401C6062208D401EB1
:1010A0002085608D401E608562B620680069616A97
:1010B0000870606A401C6062208D401E2085608D33
:1010C000401E60859FE03346002259492046009526
:1010D00001F079F908B101200FE72068006820F4D9
:1010E00080602168086072B620680069616A0870D3
:1010F000606A401C6062208D401E2085608D401E0D
:1011000060854C4800681921B0FBF1F04FF47A710A
:10111000B0FBF1F0C0EBC00000EB8000029000BF1C
:101120000298401E02900298A8B90020206300E0B7
:1011300039E0202084F83D00002084F83E00206C37
:1011400040F02000206462B600BF002084F83C001C
:1011500000BF0120D1E620684069C0F3800000286C
:10116000DED02068006840F40070216808602068C4
:101170000069616A0870606A401C6062208D401ED0
:101180002085608D401E608562B620680069616AB6
:101190000870606A401C6062208D401E2085608D52
:1011A000401E60852FE02A463146204601F0E7F9CF
:1011B00008B10120A1E620680069616A0870606AD0
:1011C000401C6062208D401E2085608D401E608521
:1011D00020684069C0F38000A8B1208D032805D1A4
:1011E0002068006820F48060216808602068006939
:1011F000616A0870606A401C6062208D401E208514
:10120000608D401E6085208D00287FF410AF202067
:1012100084F83D00002084F83E0000BF84F83C00C4
:1012200000BF6AE6022068E6020010000000FFFF2F
:10123000040001003400002010B586B004460020F0
:10124000029003900490059016492068884226D1A8
:1012500000BF1548806940F00800134988610846BE
:10126000806900F00800019000BF00BF4FF44060AB
:101270000290122003900320059002A90B48FFF76B
:10128000E5FA00BF0848C06940F480000649C8611B
:101290000846C06900F48000019000BF00BF06B09E
:1012A00010BD00000058004000100240000C01403A
:1012B00003480068034909780844014908607047F9
:1012C000280000203000002010B50848006840F0D9
:1012D000100006490860032000F0D8F80F2000F045
:1012E00007F800F055F8002010BD00000020024073
:1012F000F0B587B0044600260027002500BF1F4830
:10130000806940F400601D4988610846806900F4E6
:101310000060009000BF00BF01A902A800F028FAF9
:1013200000F05EFA06461648B6FBF0F0471E154878
:101330001549086040F2E7311348C1604760002159
:1013400001618160816100F0C7FC054695B90E48D6
:1013500000F0F6FC05466DB9192000F049F8102C94
:1013600007D200222146192000F052F807480460F5
:1013700000E00125284607B0F0BD00000010024043
:1013800040420F00002C0140100600202C000020DD
:1013900008B500BF1448806940F001001249886117
:1013A0000846806900F00100009000BF00BF00BF48
:1013B0000846C06940F08050C8610846C06900F026
:1013C0008050009000BF00BF00220F21901E00F04F
:1013D0001FF800BF0549486820F0E06040F0007049
:1013E000486000BF08BD000000100240000001403E
:1013F00001460846002809DB00F01F0301229A403D
:1014000043099B0003F1E023C3F8002100BF7047AC
:101410002DE9F05F80460D461646002701F082FF59
:10142000074639462A46334601F00700C0F1070A4D
:10143000BAF1040F02D94FF0040A01E0C0F1070A23
:10144000D14600F1040ABAF1070F02D24FF0000AA8
:1014500001E0A0F1030AD4464FF0010A0AFA09FAA2
:10146000AAF1010A0AEA020A0AFA0CFA4FF0010B81
:101470000BFA0CFBABF1010B0BEA030B4AEA0B0472
:101480002146404601F056FFBDE8F09F00BF00F046
:101490000702064B19684FF6FF031940044B0B4334
:1014A00043EA0221014B196000BF70470CED00E0D8
:1014B0000000FA05F8B5044600260025207800F063
:1014C000010000286BD000274348C06900F080501D
:1014D00070B900BF4048C06940F080503E49C861C3
:1014E0000846C06900F08050009000BF00BF01278F
:1014F0003A48006800F48070B0B93848006840F499
:10150000807036490860FFF737FB064606E0FFF7B4
:1015100033FB801B642801D90320F8BD2F480068E5
:1015200000F480700028F2D02B48006A00F4407567
:101530002DB3A08800F44070A84220D02648006A4D
:1015400020F44075012026490860002008602248E8
:10155000056205F0010090B1FFF70EFB064608E0BA
:10156000FFF70AFB801B41F28831884201D9032032
:10157000D3E71948006A00F002000028F0D01648AE
:10158000006A20F440706168084313490862012F23
:1015900004D10846C06920F08050C86100BF20789F
:1015A00000F00200022807D10B48406820F44040B8
:1015B000A168084308494860207800F0100010280E
:1015C00007D10548406820F48000E16808430249DB
:1015D00048600020A1E700000010024000700040B9
:1015E0004004424270B504460D460CB9012070BD5E
:1015F0005A48006800F00700A8420ED25748006819
:1016000020F007002843554908600846006800F0AC
:101610000700A84201D00120E9E7207800F002008D
:1016200002281DD1207800F00400042805D14C4880
:10163000406840F4E0604A494860207800F00800C3
:10164000082805D14648406840F460504449486045
:101650004348406820F0F000A168084340494860D2
:10166000207800F0010078B36068012806D13C487A
:10167000006800F4003090B90120B8E760680228E3
:1016800006D13748006800F0007040B90120AEE78D
:101690003348006800F0020008B90120A7E730488D
:1016A000406820F00300616808432D494860FFF757
:1016B00063FA064609E0FFF75FFA801B41F28831C2
:1016C000884202D9032092E707E02548406800F0ED
:1016D0000C006168B0EB810FEDD12048006800F08C
:1016E0000700A8420ED91D48006820F007002843D3
:1016F0001A4908600846006800F00700A84201D0B7
:10170000012074E7207800F00400042807D1144871
:10171000406820F4E060E16808431149486020789F
:1017200000F00800082808D10D48406820F46050F7
:10173000216940EAC1000A49486000F061F808499F
:101740004968C1F30311074A515CC8400649086063
:1017500006480068FFF7CCFD002048E70020024063
:1017600000100240125C0008340000202C00002011
:101770000F2202600D4A526802F0030242600B4AD7
:10178000526802F0F0028260084A526802F4E06295
:10179000C260064A526802F46052D2080261044AEA
:1017A000126802F007020A60704700000010024051
:1017B000002002400148006870470000340000200B
:1017C00000B5FFF7F7FF04494968C1F30221034A56
:1017D000515CC84000BD000000100240225C0008BF
:1017E00000B5FFF7E7FF04494968C1F3C221034A86
:1017F000515CC84000BD000000100240225C00089F
:1018000070B500210022002400230020134D6968D8
:1018100001F00C05F5B1042D02D0082D19D101E01D
:101820000F4819E00F4DC1F38346AB5D01F48035DD
:1018300055B10A4D6D68C5F340450B4E725D084DBC
:101840005D43B5FBF2F402E0084D03FB05F42046CE
:1018500002E000BF024800BF00BF70BD00100240A0
:1018600000127A00005C0008105C000800093D00CE
:10187000F8B504460CB90120F8BD207800F001004D
:10188000002878D0F848406800F00C0004280CD0FC
:10189000F548406800F00C00082811D1F248406873
:1018A00000F48030B0F5803F0AD1EF48006800F4C2
:1018B000003000285FD0606800285CD10120DBE7A1
:1018C00000BF6068B0F5803F06D1E748006840F48B
:1018D0008030E549086028E0606858B9E24800684F
:1018E00020F48030E04908600846006820F4802039
:1018F00008601AE06068B0F5A02F0BD1DA480068E4
:1019000040F48020D84908600846006840F48030E0
:1019100008600AE0D448006820F48030D2490860AA
:101920000846006820F48020086000BF606888B125
:10193000FFF722F9054606E0FFF71EF9401B642871
:1019400001D9032098E7C848006800F40030002857
:10195000F2D010E0FFF710F9054606E0FFF70CF9AA
:10196000401B642801D9032086E7BF48006800F4C3
:1019700000300028F2D1207800F00200022857D170
:10198000B948406800F00C0050B1B748406800F01A
:101990000C00082818D1B448406800F4803098B989
:1019A000B148006800F0020020B12069012801D090
:1019B000012061E7AC48006820F0F800616940EA66
:1019C000C100A949086033E02069E8B10120A749B6
:1019D0000860FFF7D1F8054606E0FFF7CDF8401B99
:1019E000022801D9032047E79F48006800F0020061
:1019F0000028F2D09C48006820F0F800616940EAB5
:101A0000C1009949086013E0002098490860FFF779
:101A1000B3F8054606E0FFF7AFF8401B022801D9EE
:101A2000032029E79048006800F002000028F2D166
:101A3000207800F0080008282DD1A069B8B1012055
:101A40008B490860FFF798F8054606E0FFF794F821
:101A5000401B022801D903200EE78348406A00F0AA
:101A600002000028F2D0012001F05AFA13E0002011
:101A70007F490860FFF780F8054606E0FFF77CF82D
:101A8000401B022801D90320F6E67748406A00F09F
:101A900002000028F2D1207800F00400042873D15D
:101AA00000277148C06900F0805070B900BF6E48CF
:101AB000C06940F080506C49C8610846C06900F0B8
:101AC0008050009000BF00BF01276A48006800F402
:101AD0008070B0B96748006840F48070654908605C
:101AE000FFF74AF8054606E0FFF746F8401B642872
:101AF00001D90320C0E65F48006800F48070002828
:101B0000F2D000BFE068012806D15748006A40F0D3
:101B100001005549086227E0E06858B95248006A58
:101B200020F00100504908620846006A20F00400D5
:101B3000086219E0E06805280BD14B48006A40F0C4
:101B40000400494908620846006A40F00100086242
:101B50000AE04548006A20F001004349086208464F
:101B6000006A20F00400086200BFE068A0B1FFF73F
:101B700003F8054609E0FEF7FFFF401B41F28831FC
:101B8000884202D9032077E622E03748006A00F055
:101B900002000028EFD012E0FEF7EEFF054608E055
:101BA000FEF7EAFF401B41F28831884201D9032049
:101BB00062E62D48006A00F002000028F0D1012FF3
:101BC00005D12948C06920F080502749C86100BF6D
:101BD000E069C8B32448406800F00C00082860D0D1
:101BE000E069022848D1002020490866FEF7C4FFBA
:101BF000054606E0FEF7C0FF401B022801D903207E
:101C00003AE61948006800F000700028F2D1206A16
:101C1000B0F5803F07D11448406820F40030A16837
:101C2000084311494860D4E9080108430E4949684E
:101C300021F4741108430C49486001200B490866DF
:101C4000FEF79AFF054607E03DE0FEF795FF401BD3
:101C5000022801D903200FE60348006800F0007055
:101C60000028F2D02FE000000010024000004242A5
:101C70008004424200700040002014490866FEF7CC
:101C80007BFF054606E0FEF777FF401B022801D9DF
:101C90000320F1E50E48006800F000700028F2D142
:101CA00011E0E069012800D1E6E50948466806F43C
:101CB0008031206A814204D106F47011606A814249
:101CC00001D00120D8E50020D6E500000000424206
:101CD000001002407047704710B504460CB901204F
:101CE00010BD94F83D0028B9002084F83C0020463F
:101CF00000F025F8022084F83D00211D206801F045
:101D0000C3F9012084F8460000BF84F83E00012199
:101D10003F200155402001554120015500BF00BF23
:101D2000012084F8420043200155442001554520FC
:101D3000015500BF012084F83D000020D0E7704726
:101D4000014691F83D00012801D001207047022092
:101D500081F83D000868C06840F001000B68D86059
:101D6000124B086898420BD00868B0F1804F07D03A
:101D70000F4B0868984203D00E4B086898420CD16C
:101D80000868806800F00702062A0CD0086800681E
:101D900040F001000B68186005E00868006840F03A
:101DA00001000B6818600020D0E70000002C014003
:101DB0000004004000080040704770B504462068E9
:101DC000C5682068066906F00200022819D105F0EE
:101DD0000200022815D1401F2168086101202077E8
:101DE0002068806900F0030018B12046FFF7E4FF87
:101DF00005E0204600F097F8204600F095F8002016
:101E0000207706F00400042819D105F00400042806
:101E100015D1C043216808610220207720688069BD
:101E200000F4407018B12046FFF7C6FF05E02046D9
:101E300000F079F8204600F077F80020207706F0CF
:101E40000800082819D105F00800082815D1C0435A
:101E500021680861042020772068C06900F0030031
:101E600018B12046FFF7A8FF05E0204600F05BF818
:101E7000204600F059F80020207706F010001028C6
:101E800019D105F01000102815D1C0432168086150
:101E9000082020772068C06900F4407018B12046FF
:101EA000FFF78AFF05E0204600F03DF8204600F0ED
:101EB0003BF80020207706F0010048B105F0010052
:101EC00030B16FF0010021680861204600F02EF863
:101ED00006F08000802809D105F08000802805D117
:101EE000C043216808612046FFF7F4FE06F0400079
:101EF000402809D105F04000402805D1C0432168A1
:101F00000861204600F01EF806F02000202809D1C4
:101F100005F02000202805D1C04321680861204633
:101F2000FFF7D9FE70BD70477047000010B504463A
:101F300003492068884201D1FFF7BAF910BD0000BB
:101F4000002C0140704710B504460CB9012010BDAB
:101F5000A06900B100E000BF94F8410028B900205A
:101F600084F84000204600F029F8242084F841003D
:101F70002068C06820F400502168C860204601F045
:101F8000FBF82068006920F490402168086120680F
:101F9000406920F02A00216848612068C06840F448
:101FA00000502168C86000206064202084F841004F
:101FB00084F842000020606300BFC8E710B586B017
:101FC000044600200290039004900590194920686F
:101FD00088422DD100BF1848C06940F4003016492E
:101FE000C8610846C06900F40030019000BF00BF1E
:101FF00000BF0846806940F0040088610846806997
:1020000000F00400019000BF00BF042002900220F5
:1020100003900320059002A90848FEF717FC08204A
:10202000029000200390049002A90448FEF70EFCE1
:1020300006B010BD004400400010024000080140FE
:102040002DE9F84F04460E46174699464FF0000A10
:1020500094F84100202850D106B117B90120BDE8FD
:10206000F88F00206064212084F84100FEF784FD91
:102070008246A784E784A068B0F5805F04D1206918
:1020800010B90025B04602E035464FF000081EE0CA
:102090005346002280212046CDF8009001F0EAF856
:1020A00020B1202084F841000320D8E745B9B8F8D2
:1020B0000000C0F308002168486008F1020803E04E
:1020C0002878216848606D1CE08C401EE084E08C1C
:1020D0000028DDD15346002240212046CDF8009053
:1020E00001F0C8F820B1202084F841000320B6E7B1
:1020F000202084F841000020B1E70220AFE700BFB4
:10210000FEE7014608684069C0F38020B0B16FF473
:1021100080600A68506100200863202081F83D003B
:10212000002081F83E00086C40F00400086400BF05
:10213000002081F83C0000BF012070470020FCE730
:102140002DE9F84304460D4617469846E66A082EE0
:1021500004D0012E02D016F5803F06D12068006819
:1021600040F480702168086008E0206B122805D1D7
:102170002068006840F48070216808603B460022B7
:102180004FF001112046CDF8008000F01CF960B13D
:102190002068006800F48070B0F5807F02D14FF4B1
:1021A000007020640320BDE8F8832069B0F5804FFB
:1021B00004D105F0FE002168086112E005F44070CA
:1021C000F02141EAE0102168086143463A460B4994
:1021D000204600F057F908B10120E4E7E8B2216891
:1021E000086143463A460549891F204600F04AF9EE
:1021F00008B10120D7E70020D5E700000800010062
:102200002DE9F84304460F4615469946DDE9088650
:102210002068006840F480602168086020680068D9
:1022200040F4807021680860434600224FF001119D
:102230002046009600F0C7F860B12068006800F4FE
:102240008070B0F5807F02D14FF4007020640320CD
:10225000BDE8F88307F0FE00216808613346424676
:102260003E49204600F00EF908B10120F0E700BF1A
:1022700000200090206840690090206880690090EC
:1022800000BF00BF32464146204600F0BDF950B1C4
:10229000206C042805D12068006840F40070216893
:1022A00008600120D4E7B9F1010F03D1E8B2216839
:1022B000086117E0C5F307202168086132464146EE
:1022C000204600F0A1F950B1206C042805D1206807
:1022D000006840F40070216808600120B8E7E8B2A7
:1022E0002168086132464146204600F08DF950B120
:1022F000206C042805D12068006840F40070216833
:1023000008600120A4E72068006840F4807021681C
:102310000860434600224FF001112046009600F06D
:1023200052F858B12068006800F48070B0F5807FE2
:1023300002D14FF400702064032089E7F8B240F026
:10234000010021680861334642460449204600F0F6
:1023500099F808B101207BE7002079E7020001002D
:1023600070B504460D46164625E02046FFF7C9FE27
:1023700008B1012070BD681CE8B1FEF7FDFB801BB1
:10238000A84200D8BDB920684069C0F3800090B968
:1023900000202063202084F83D00002084F83E00C7
:1023A000206C40F02000206400BF002084F83C0036
:1023B00000BF0120DEE720684069C0F380000028EC
:1023C000D3D00020D6E72DE9F04104460D4617464C
:1023D0001E46DDF8188038E0701CA8B3FEF7CCFB71
:1023E000A0EB0800B04200D876BBC5F30740012837
:1023F0000AD120684069A9B20840A9B2884201D137
:1024000001200BE0002009E020688069A9B20840A3
:10241000A9B2884201D1012000E00020B84214D1C5
:1024200000202063202084F83D00002084F83E0036
:10243000206C40F02000206400BF002084F83C00A5
:1024400000BF0120BDE8F081FFE7C5F30740012888
:102450000AD120684069A9B20840A9B2884201D1D6
:1024600001200BE0002009E020688069A9B2084043
:10247000A9B2884201D1012000E00020B842ABD0CF
:102480000020DFE72DE9F04104460D4616461F46C1
:1024900058E020684069C0F38020E8B120680068F7
:1024A00040F40070216808606FF480602168486122
:1024B00000202063202084F83D00002084F83E00A6
:1024C000206C40F00400206400BF002084F83C0031
:1024D00000BF0120BDE8F081701C90B3FEF74CFBFB
:1024E000C01BB04200D866BBC5F3074001280AD123
:1024F00020684069A9B20840A9B2884201D10120F0
:102500000BE0002009E020688069A9B20840A9B268
:10251000884201D1012000E0002090B90020206312
:10252000202084F83D00002084F83E00206C40F01C
:102530002000206400BF002084F83C0000BF012080
:10254000C8E7FFE7C5F3074001280AD120684069C2
:10255000A9B20840A9B2884201D101200BE00020B5
:1025600009E020688069A9B20840A9B2884201D177
:10257000012000E0002000288BD00020AAE770B5E1
:1025800004460D46164637E020684069C0F3001047
:10259000A0B16FF010002168486100202063202066
:1025A00084F83D00002084F83E00206C206400BFC9
:1025B000002084F83C0000BF012070BDFEF7DCFA6B
:1025C000801BA84200D8BDB920684069C0F38010C4
:1025D00090B900202063202084F83D00002084F87A
:1025E0003E00206C40F02000206400BF002084F8F2
:1025F0003C0000BF0120E0E720684069C0F3801084
:102600000028C1D00020D8E770B504460D46164614
:1026100025E02046FFF775FD08B1012070BD681C5C
:10262000E8B1FEF7A9FA801BA84200D8BDB920681E
:102630004069C0F3C01090B900202063202084F8C6
:102640003D00002084F83E00206C40F02000206413
:1026500000BF002084F83C0000BF0120DEE72068B6
:102660004069C0F3C0100028D3D00020D6E7000096
:102670001FB500226B21D02000F048F80AA000F01E
:1026800041FE4FF0FF30012103AA0B46CDE90021A6
:1026900002907522D0210948FEF714FC9DF80C1019
:1026A00007A000F02FFE1FBD5B4D50555D3A496EEF
:1026B0006974204F7665720A0000000074050020DE
:1026C0005B4D50555D3A446576696365732041649E
:1026D00064726573732069732025640A000000002A
:1026E0007FB504460D464FF0FF30012103AA0B468B
:1026F000CDE9002102902A4621460348FEF7E2FB7D
:102700009DF80C0004B070BD740500207CB5044633
:102710000E4615468DF804608DF805504FF0FF30D9
:10272000022301AA214600900148FEF713FB7CBD5D
:10273000740500200EB50020009001900290124810
:1027400012490860002111488160017301754FF43E
:102750006021C16100200D49486001210B480161E1
:10276000FDF764FE08B1FDF7AEFD002000900120EA
:1027700001900020029069460448FDF7A7FD08B1CA
:10278000FDF7A1FD0EBD0000002401400005002062
:1027900008B500BF0A48406940F001000849486197
:1027A0000846406900F00100009000BF00BF002211
:1027B00005210B20FEF72CFE0B20FEF719FE08BDAD
:1027C0000010024010B51A4800F0AEFF1949086029
:1027D000194800F0A9FF19490860194A0121084663
:1027E00000F0F0FF17490860174A0021022000F0AE
:1027F000E9FF16490860164A0221012000F050FF47
:1028000014490860144A0021144801F035F81449AD
:102810000860144A0021144801F02EF8134908609A
:10282000134A0021134801F027F81349086010BD2E
:10283000C05B000818000020D05B00081C000020CE
:10284000E05B000820000020F05B0008240000206E
:10285000A85B0008140000203C5B0008492F00081A
:1028600008000020605B0008552F00080C000020C5
:10287000845B0008E52F00081000002000B585B03B
:102880000020019002900390049000BF25488069C9
:1028900040F02000234988610846806900F020004C
:1028A000009000BF00BF00BF0846806940F00400F0
:1028B00088610846806900F00400009000BF00BFF6
:1028C00000BF0846806940F00800886108468069BA
:1028D00000F00800009000BF00BF00221021124845
:1028E000FEF744F90122E0210F48FEF73FF93020BE
:1028F000019001200290002003900220049001A981
:102900000948FDF7A3FFC02001901120029000208C
:1029100003900220049001A90348FDF797FF05B03A
:1029200000BD000000100240000C014010B50B4833
:102930000B4908600B484860002109488160C1606C
:102940004FF480410161002141618161C1610162F7
:10295000FEF718F908B1FDF7B6FC10BD00580040AD
:1029600074050020801A060010B50B480B4908605A
:102970004FF416504860002108488160C160016131
:102980000C21416100218161C161FFF7DCFA08B1CE
:10299000FDF799FC10BD000000440040C805002070
:1029A00000BFFEE700BFFEE770B500240EE0002187
:1029B000204600F00EFA002504E0002000F0A0FA06
:1029C000681CC5B2802DF8DB601CC4B2082CEEDB9D
:1029D00070BD00002DE9FE4F80460F469246002450
:1029E00044F620615144490144F6206291FBF2F023
:1029F000C11700EB91618911A0EB8116B1464FF42C
:102A0000FA60029001904FF480618448FDF7EFFB7B
:102A1000029880451ADC02984042804516DB0198F6
:102A2000874213DC0198404287420FDBBAF1000F66
:102A300006D0FF224FF480617848FDF7D1FBB2E069
:102A40004FF480617548FDF7D2FBACE00025A7E0AC
:102A5000B8F1000F4DDC002F0DDBA5EB49017943E8
:102A600091FBF8F13046F21706EB92629211A6EB59
:102A700082128C180EE0A5F1800101EB4901794327
:102A800091FBF8F13046F21706EB92629211A6EB39
:102A900082128C18002C00DA81E0402C07DD5F499F
:102AA00001EBC500FF220821FDF79AFB76E0A34663
:102AB000E21704EB5272D110584A02EBC500FF2214
:102AC000FDF78EFB2046E21704EB5272D210A4EB06
:102AD000C202C2F10803FF229A402146E31704EB29
:102AE0005373DB10DFF834C10CEBC50C0CF803207A
:102AF00054E0002F0EDBA5EB4901794391FBF8F17F
:102B0000C6F14000C21700EB92629211A0EB821254
:102B10008C180FE0A5F1800101EB4901794391FB8D
:102B2000F8F1C6F14000C21700EB92629211A0EBDF
:102B300082128C18002C07DA384901EBC500FF22FD
:102B40000821FDF74DFB29E0402C00DD27E0A346DE
:102B5000E21704EB5272D210C2F10801E21704EB43
:102B600052722E4B03EBC50303EBE200FF220094ED
:102B7000FDF736FB2046E21704EB5272D210A4EBAD
:102B8000C203FF221A412146E31704EB5373DB1003
:102B9000DFF888C00CEBC50C0CF8032000BF6D1CDF
:102BA000802DFFF655AF1D4890F8FB01C043C1B220
:102BB0001A4880F8FB1190F8FA01C043C1B21748D7
:102BC00080F8FA1190F80302C043C1B2134880F8AC
:102BD000031290F80202C043C1B2104880F80212FA
:102BE000372014E00D4901EBC001897881F0010123
:102BF0000A4A02EBC0029170084901EBC001C97892
:102C000081F08001054A02EBC002D170401C4828C7
:102C1000E8DD00F029F9BDE8FE8F0000BC000020CF
:102C200010B5FFF72BFE012220210948FDF79EFF7A
:102C3000002210210648FDF799FF01224021044897
:102C4000FDF794FF012280210148FDF78FFF10BDA1
:102C5000000C014070B50546002417E0802020419B
:102C6000284008B1012000E00020024680210E48E3
:102C7000FDF77CFF012240210B48FDF777FF002282
:102C800040210948FDF772FF601CC4B2082CE5DB47
:102C9000012240210448FDF769FF0022402102483B
:102CA000FDF764FF70BD0000000C014010B501226B
:102CB00080210948FDF75AFF012240210648FDF70F
:102CC00055FF002280210448FDF750FF00224021DB
:102CD0000148FDF74BFF10BD000C014010B500226C
:102CE00080210748FDF742FF012240210448FDF7FB
:102CF0003DFF012280210248FDF738FF10BD000092
:102D0000000C014070B5002406E0002500E06D1CB9
:102D1000B5F57A7FFBD3641CB4F57A7FF5D3FFF762
:102D20007FFFAE2000F0DCF8D52000F0D9F880203D
:102D300000F0D6F8A82000F0D3F83F2000F0D0F83B
:102D4000FFF7B4FF7820FFF785FF0020FFF782FF31
:102D50002020FFF77FFF0020FFF77CFFFFF7BEFF7B
:102D6000D32000F0BDF8002000F0BAF8402000F0B9
:102D7000B7F8A12000F0B4F8C82000F0B1F8DA20CC
:102D800000F0AEF8122000F0ABF8812000F0A8F8B7
:102D9000CF2000F0A5F8D92000F0A2F8F12000F033
:102DA0009FF8DB2000F09CF8302000F099F8A42078
:102DB00000F096F8A62000F093F88D2000F090F82F
:102DC000142000F08DF8AF2000F08AF8FFF7ECFD3A
:102DD00070BD70B505460C4645F0B00000F080F8B7
:102DE000102141EA141000F07BF804F00F0000F00D
:102DF00077F870BD2DE9F04105460E461746721E64
:102E0000D206110E6A1E5206100EFFF7E2FF0024D2
:102E100009E0A7F12001134A02EB0111085D00F05F
:102E20006FF8601CC4B2082CF3DB721ED206110EC0
:102E30006A1E012303EB4202D0B2FFF7CAFF00244F
:102E40000BE0A7F12001074A02EB011204F108018F
:102E5000505C00F055F8601CC4B2082CF1DBBDE8F2
:102E6000F08100004C55000870B5B02000F038F833
:102E7000102000F035F8002000F032F8FFF716FFC0
:102E80007820FFF7E7FE4020FFF7E4FE07240BE081
:102E9000002506E0074901EBC501085DFFF7DAFEF2
:102EA0006D1C802DF6DB641E002CF1DAFFF716FF97
:102EB00070BD0000BC0000202DE9F04107460E4621
:102EC0001546002407E02A5D3019C1B23846FFF7E5
:102ED00091FF601CC4B2285D0028F4D1BDE8F081E8
:102EE00010B50446FFF7E2FE7820FFF7B3FE00209E
:102EF000FFF7B0FE2046FFF7ADFEFFF7EFFE10BD77
:102F000010B50446FFF7D2FE7820FFF7A3FE40205D
:102F1000FFF7A0FE2046FFF79DFEFFF7DFFE10BD86
:102F200008B508490968C9084FF47A72B1FBF2F193
:102F30004143009100BF00BF00994A1E0092002942
:102F4000F9D108BD3400002000BF012000F068FB6B
:102F5000FBE700000EB5002400BF00BF4FF0FF31BB
:102F60001F48006801F080FF00242CE03B21D020A6
:102F7000FFF7B6FB8DF809003C21D020FFF7B0FB2E
:102F80008DF808003D21D020FFF7AAFB8DF8050041
:102F90003E21D020FFF7A4FB8DF804003F21D02074
:102FA000FFF79EFB8DF801004021D020FFF798FB32
:102FB0008DF80000BDF90020BDF90410BDF908002E
:102FC000FFF708FD641C322CD0DD00231A46194699
:102FD0000348006801F08CFD012001F0DFFABDE735
:102FE0002000002000BF012000F01AFBFBE710B515
:102FF0004FF0E020006902F09FF8012803D0BDE8FF
:10300000104001F063BC10BD00B593B0282109A8A1
:10301000FDF7EDF8142104A8FDF7E9F80020009071
:103020000190029003900220099001200D90102041
:103030000E900020109009A8FEF71AFC08B1FDF7C9
:1030400042F90F2004900020059006900790089008
:10305000002104A8FEF7C6FA08B1FDF734F90220F2
:103060000090002002906846FEF724FA08B1FDF7B0
:103070002AF913B000BD704710B50248FEF79DFE57
:1030800010BD00001006002010B502681C4B9842CD
:1030900008D0B0F1804F05D01A4B984202D01A4B9D
:1030A000984203D122F070024B681A43144B9842A5
:1030B00008D0B0F1804F05D0124B984202D0124B8D
:1030C000984203D122F44072CB681A4322F0800365
:1030D0004C6943EA040202608B68C3620B68836236
:1030E000074B984201D10B690363012343610369D4
:1030F00003F001031BB1036923F00103036110BD59
:10310000002C0140000400400008004000BF00BF48
:1031100002680C3252E8002F22F4907102680C32DF
:1031200042E80013002BF3D100BF00BF00BF0268CC
:10313000143252E8002F22F001010268143242E8F2
:103140000013002BF3D100BF016B01290ED100BF8A
:1031500000BF02680C3252E8002F22F01001026812
:103160000C3242E80013002BF3D100BF202180F87D
:10317000421000210163704770B504462168096957
:1031800021F44051E2681143226811612269A1686B
:103190001143626941EA02052168C96841F20C6283
:1031A000914329432268D1602168496921F4407123
:1031B000A2691143226851612D4A2168914202D1CE
:1031C000FEF70EFB01E0FEF7FBFA00EBC00101EB9E
:1031D000001162689200B1FBF2F100EBC00202EB59
:1031E000001263689B00B2FBF3F26423B2FBF3F2BC
:1031F00002EBC20303EB0212A1EB8201322202EBCB
:1032000001116422B1FBF2F101F0F00100EBC00208
:1032100002EB001263689B00B2FBF3F26423B2FB83
:10322000F3F201EB021200EBC00101EB0011636845
:103230009B00B1FBF3F100EBC00303EB00136668E6
:10324000B600B3FBF6F36426B3FBF6F303EBC30659
:1032500006EB0313A1EB8301322303EB011164237B
:10326000B1FBF3F101F00F0111442268916070BDD0
:10327000003801402DE9F84304460D4617469846AC
:10328000089E31E0701C70B3FDF776FCA0EB0800DF
:10329000B04200D816B90320BDE8F8832068C068A2
:1032A00000F00400F8B1802D1ED0402D1CD0206805
:1032B0000068C0F3C000B0B100BF002000902068DB
:1032C0000068009020684068009000BF00BF204662
:1032D000FFF71CFF0820606400BF002084F8400056
:1032E00000BF0120D8E7FFE7206800682840A84217
:1032F00001D1012000E00020B842C3D00020CBE77C
:1033000000BFFEE70FB4054B10B503A9044A0298AD
:1033100000F034F810BC5DF814FB0000D134000854
:10332000B800002002480068C0F302207047000087
:103330000CED00E010B5002804DB0A07130E054A67
:10334000135406E00A07140E034A00F00F031B1F74
:10335000D45410BD00E400E018ED00E002E008C81D
:10336000121F08C1002AFAD170477047002001E0FF
:1033700001C1121F002AFBD1704700002DE9FF4F49
:1033800089B09B460446002506E025280BD05A4606
:103390000B999047641C6D1C20780028F5D10DB066
:1033A0002846BDE8F08F0027B8460122474900E0D3
:1033B000074314F8013F203B02FA03F00842F7D11B
:1033C00020782E2819D114F8010F47F004072A2875
:1033D0000ED06FF02F022078A0F1300109290CD80F
:1033E00008EB880102EB410100EB0108641CF2E7E5
:1033F0000A98641C50F8048B0A9020780028CED0DC
:10340000642808D0692806D075281ED05A460B9922
:1034100090476D1C58E00A994FF00A0901C90A91BA
:10342000002802DA40422D2102E0390504D52B2183
:103430008DF82010012103E0F90704D02021F7E7DF
:103440008A4608AE0DE00021FAE70A994FF00A0912
:1034500001C90A91F7E74946FCF7D4FE303106F876
:10346000011D0028F7D1ADEB060000F12009780717
:1034700001D44FF00108C84502DDA8EB090000E0C7
:1034800000208046002706E008A85A46C05D0B9938
:1034900090476D1C7F1C5745F6DB04E030205A46F0
:1034A0000B9990476D1CB8F10001A8F10108F5DCFB
:1034B00005E016F8010B5A460B9990476D1CB9F1BF
:1034C0000001A9F10109F4DC641C65E70928010089
:1034D00038B504460D46E0B200900023012269464B
:1034E0003D48FEF7ADFD0A2C0BD13C480068012891
:1034F00003D00F203949086015E0002037490860E3
:1035000011E037480078401E00F00300354A02EB16
:10351000001232480068401E1454E2B22F4801786D
:103520000420FFF767FC2D4800680F2805D22B48C0
:103530000068401C2949086022E0FFF735FA284856
:103540000068401C2649086000202449086010E0FB
:10355000002123480078401E00F00300214A02EBBE
:1035600000101E4A126881541C480068401C1B4908
:1035700008601A4800680F28EAD901201749086036
:1035800016480068012822D11548007800F0030091
:10359000144901EB001201210846FFF78DFC104889
:1035A0000078401C00F003000E4901EB00120121DD
:1035B0000220FFF781FC0A480078801C00F003001D
:1035C000084901EB001201210320FFF775FC0A20D6
:1035D000FDF728F9204638BDC8050020000000206E
:1035E00004000020C0040020FDF76EFEFFF70CFD74
:1035F000FFF744F9FFF7CCF8FFF798F9FFF7B4F9B4
:10360000FFF798F8FFF77EFBFFF732F800F018F8A5
:10361000FFF7D8F800F028F8FFF7C6F900BFFEE77B
:1036200010B50146EFF3058010B16FF0050404E01A
:10363000002411B1084600F0B1FF204610BD000083
:10364000EFF30580002802D06FF0050070470548B1
:10365000016811B14FF0FF30704701210160002077
:10366000704700008800002010B5EFF305800028A7
:1036700002D06FF0050010BD07480168012902D093
:103680004FF0FF3010BD054A00211170022101608A
:1036900001F03CF8002010BD880000201FED00E084
:1036A000F8B5844614464FF00005EFF30580002876
:1036B00038D1BCF1000F35D0002933D0421EB4B14F
:1036C000A06858B1E368502B08D3236933B163690C
:1036D0000CFB01F6B34201D3012209E040B9E068D6
:1036E00030B9206920B9606910B9002200E00022D9
:1036F000012A01D04AB10DE0002000906046A36885
:10370000226901F074F9054604E00022604601F0E8
:103710004CF9054635B10CB1216800E0002128467E
:1037200000F0D4FE2846F8BD70B504464FF0000501
:10373000EFF30580002843D10CB1606800E0002061
:1037400010F0010F01D0012600E0002610F0080F54
:1037500036D14FF0FF305CB1A16821B1E268502A48
:1037600001D3012005E021B9E16811B9002000E092
:103770000020012801D068B116E02EB10420A16814
:1037800001F005F905460FE00120A16801F0FFF8FE
:10379000054609E026B1042001F0EDF8054603E0F6
:1037A000012001F0E8F8054635B10CB1216800E0D0
:1037B0000021284600F08AFE15B10EB145F0010542
:1037C000284670BDF8B50E4614464FF00005EFF3DD
:1037D000058100294ED100284CD086424AD84A1E85
:1037E0005CB1A36823B1E168502901D3012205E04F
:1037F00023B9E16811B9002200E00022B2F1FF3FD5
:1038000038D0012809D0012A2AD0314601F074F8B5
:1038100005467DB354B3216829E0012A16D003225E
:103820000021012001F0C1F80546002DF1D0002E45
:10383000EFD000231A461946284601F059F901280D
:10384000E7D0284600F056FE0025E2E7032000906E
:10385000002211460120A36801F0C9F80546E4E7FB
:103860003146A26801F066F80546D2E700212846F5
:1038700000F02CFE2846F8BD2DE9F04385B00B463C
:103880004FF000070497EFF3058100294ED100287F
:103890004CD080244FF0180C8946491E52B316684C
:1038A00006B1B146956905B1AC46ACF10105382DBC
:1038B00003D2157915F0010F03D005B00020BDE843
:1038C000F083556905B1AC08D2F80880B8F1000F53
:1038D00007D0D6685C2E04D3166916B10DB101214C
:1038E00009E0B8F1000F06D1D56825B9156915B9F9
:1038F000002100E00021012901D061B116E09168AA
:10390000126901920291CDF800C02246494601F0A9
:10391000E3FB04900AE004A90191A2B2CDF800C033
:10392000494601F0A3FB012800D00497049805B094
:10393000BDE8F0832DE9F04104460F46134EF568CB
:103940003068001D00F0BEFCB4F1FF3F07D137B175
:103950003068BDE8F041011D0D4800F006BD2C4463
:1039600030684460AC4206D23068011DB06BBDE8DF
:10397000F04100F0DFBC3068011D706B00F0DAFC34
:10398000B06A844200D2B462BDE8F0813800002001
:10399000480B002070B5044600F0F4FC1C4DA868EC
:1039A000401CA860286810B1686938B10CE02C6030
:1039B000A868012808D100F0A9F905E02868E16AA3
:1039C000C06A884200D82C60686A401C68626064E3
:1039D000E06A2969884200D928610E4900EB80001D
:1039E00001EB8000211D00F0C0FC00F0EBFC6869D9
:1039F00000280CD02868E16AC06A884207D20649CC
:103A00004FF080500860BFF34F8FBFF36F8F70BDD2
:103A1000380000209806002004ED00E038B500F0E2
:103A2000B1FC0F4C2068B8B90E4800F075FC0E4888
:103A300000F072FC0B48E0601430206100200B4B5A
:103A4000009003F1500210210A2000F0D0FF206006
:103A500010B107A100F03AFDBDE8384000F0B2BC5B
:103A6000740000204C0C0020600C00205C0B002037
:103A7000546D72510000000070B50D4C6068002854
:103A800015D00C4E00F07EFCF068C568281D00F0D3
:103A900019FCA068401EA0606068401E606000F0D5
:103AA00091FC284600F051F860680028EAD170BD0A
:103AB00038000020340B00200B46026C002A0CD08A
:103AC000C1681144C160D0F808C0614501D30168E4
:103AD000C160C1681846FCF771BB70472DE9F04121
:103AE000044616460027A56B226C002A10D0C6B1EA
:103AF000E068FCF763FBE168206C091AE16022686A
:103B0000914202D2A168081AE060022E16D017E096
:103B10002068A8B9A06801F089FB07460020A060D2
:103B20000EE06068FCF74AFB216C60680844606046
:103B3000A168884204D32068606001E005B16D1E71
:103B4000681CA0633846BDE8F08110B5044694F8BF
:103B5000591000290BD0012911D0022914D050206E
:103B600080F31188BFF34F8FBFF36F8FFEE7206B99
:103B700000F03EFC2046BDE8104000F039BC204675
:103B8000BDE8104000F034BC10BD416A002904D0EB
:103B9000006B0068C0F138007047002070470000DB
:103BA0000749CA681168002904D00021016019B1D1
:103BB000002070470121F9E7D068006870470000D5
:103BC000740000204FF44061104810F0070F06D039
:103BD000C01D20F007000D49411AC1F540610C4A93
:103BE0001060002353600144083921F00701183A9E
:103BF00011604B600B600B1A43600160406890607D
:103C000050604FF000405061704700002C130020BE
:103C1000A4000020074E4FF08054074DFFF72CFF03
:103C200030680128FAD92C60BFF34F8FBFF36F8F34
:103C3000F4E700009806002004ED00E0002808D01A
:103C4000002181600160C16000231A46194600F01E
:103C50004FBF704770B51D46049C002909D02260F3
:103C6000E06321640121204600F0FAFE84F84C5004
:103C700070BD2460F4E72DE9F05F82460B9F0A9D3A
:103C80000C9C0E4690469B464FEA8801A522206B6D
:103C9000FCF7A6FA206BA8F1010100EB810020F0EF
:103CA00007094FF0000866B100202218315C82F845
:103CB0003410315C11B1401C1028F6D384F84380D5
:103CC00001E084F83480382D00D33725E562E564BF
:103CD000C4F85080201D00F02AFB04F1180000F009
:103CE00026FB2461C5F13800A0616462C4F85480E9
:103CF00084F858805A465146484600F0D1FA206070
:103D0000002F00D03C60BDE8F09F000070B500249B
:103D10000F4D04EB840005EB800000F0FDFA641CFD
:103D2000382CF6D30B4800F0F7FA0B4800F0F4FA01
:103D30000A4800F0F1FA0A4800F0EEFA094800F0EB
:103D4000EBFA0948034941631431816370BD0000F7
:103D500098060020F80A00200C0B0020200B002001
:103D6000340B0020480B00203800002010B4144908
:103D700000E011460A688242FBD34B6803EB010C5A
:103D8000844503D140681844486008460C68D0F860
:103D900004C00CEB0003A3420CD10A4B1B689A42EF
:103DA00006D05268624442600A681268026002E00B
:103DB000036000E00260814200D0086010BC7047E0
:103DC000A40000208C00002010B500244160006198
:103DD000DFF838C091420BD8D11A8269914201D3E1
:103DE000012410E0011DDCF8100000F0A3FA0AE045
:103DF0009A4203D2994201D3012404E0011DDCF868
:103E00000C0000F097FA204610BD0000740000205E
:103E100010B5044600F0B6FAA06B20B1002400F003
:103E2000D1FA204610BD0124F9E710B5044600F090
:103E3000A9FAA06BE16B884201D1012400E00024C3
:103E400000F0C0FA204610BDF8B505460E461748EA
:103E5000C068C068C468201D00F034FA94F82800D7
:103E600010F0040F18D0A0692B46411932462046A5
:103E7000FFF7AAFFA0B100200346014600902A46A2
:103E8000204601F029FB58B9502080F31188BFF378
:103E90004F8FBFF36F8FFEE720F0010084F82800FA
:103EA000216A01B02046BDE8F040084774000020B8
:103EB00030B587B0414D002202A9286800F030FFDC
:103EC000002875D00298002803DA039A059904980F
:103ED00090470298002864DB049C606910B1201DA3
:103EE00000F0F0F901A800F0B3F8024602980A28A1
:103EF00057D2DFE800F00505052F364D05052F36B2
:103F000094F8280040F0010084F828000398A16983
:103F1000034601442046FFF757FF002841D0216A9D
:103F20002046884794F8280010F0040F39D000206C
:103F300000900398A169002342181946204601F019
:103F4000CBFA70BB502080F31188BFF34F8FBFF3C3
:103F50006F8FFEE794F8280020F0010084F8280015
:103F60001FE094F8280040F0010084F8280003982E
:103F7000A06128B1811813462046FFF725FF10E005
:103F8000502080F31188BFF34F8FBFF36F8FFEE790
:103F900094F8280010F0020F0CD020F0010084F8F3
:103FA0002800002202A9286800F0BAFE002889D162
:103FB00007B030BD204600F01BFAF2E77400002085
:103FC000F8B505460C4600F0E9FB684600F040F8FD
:103FD0000646009810B101F0E5F9F8BD44B9B542C4
:103FE00006D801F0DFF931462846FFF72DFFF8BD6E
:103FF0000C481CB10169096891B10024A91B224633
:10400000006800F0A5FA01F0CDF90028EFD10649CB
:104010004FF080500860BFF34F8FBFF36F8FF8BD34
:104020000124EBE77400002004ED00E00749486B31
:104030000068002805D0486BC068C0684068886286
:1040400070474FF0FF308862704700003800002052
:1040500070B5044601F07EF80546074EB06885420B
:1040600004D200F00BF80120206001E00020206065
:10407000B560284670BD000074000020F8B51C4EE5
:10408000F0680068002826D00027F068C06805683E
:10409000C468201D00F016F9216A2046884794F86C
:1040A000280010F0040F12D0A0692844A84206D9B5
:1040B00060602461211DF06800F03CF907E00023F6
:1040C0002A4619462046009701F006FA40B1F068EA
:1040D00000680028D9D1F0683169F1603061F8BD1D
:1040E000502080F31188BFF34F8FBFF36F8FFEE72F
:1040F000740000200A484068B0F1FF3F07D050200C
:1041000080F31188BFF34F8FBFF36F8FFEE750200E
:1041100080F31188BFF34F8FBFF36F8FFEE700006E
:10412000AC00002082B001A8FFF73AFD0199FFF72B
:1041300047FFFFF7BDFEF6E770B5044600F022F931
:1041400094F94550002D0CDD606A50B104F1240053
:1041500001F0ECF808B100F051FA681E45B2002DEC
:10416000F2DC4FF0FF3684F8456000F02BF900F0E8
:1041700009F994F94450002D0CDD206950B104F187
:10418000100001F0D3F808B100F038FA681E45B20B
:10419000002DF2DC84F84460BDE8704000F012B9F4
:1041A0002DE9F0410546002600F0F8FA344F386852
:1041B00008B9FFF707FD7869054251D19DB108356F
:1041C00015F0070F0FD005F00700C0F108000544F7
:1041D00015F0070F07D0502080F31188BFF34F8FE1
:1041E000BFF36F8FFEE7002D3AD07868854237D84D
:1041F00024490846046801E0214604466068A84254
:1042000002D220680028F7D13868844228D0086894
:1042100000F10806206808606068411B10290FD96A
:10422000601910F0070F07D0502080F31188BFF3FA
:104230004F8FBFF36F8FFEE741606560FFF796FD1C
:1042400061687868401A7860BA68904200D2B860B5
:1042500078690843606000202060F868401CF860BE
:1042600001F0A0F816F0070F07D0502080F3118856
:10427000BFF34F8FBFF36F8FFEE73046BDE8F0818D
:104280008C000020A400002004490868002803D006
:104290000868026D521C02650868704738000020EB
:1042A000001F4FF080730360001F21F001010160C7
:1042B000001F034901601438026020387047000075
:1042C000F54000080169436882689A608368426823
:1042D0005A604A68824201D182684A6000220261C3
:1042E0000868401E0860086870470000034B0360C0
:1042F00003F15C000860802010607047740C00209F
:10430000044B036003F15C0008604FF480701060A0
:1043100070470000D00E002000F1080141604FF00E
:10432000FF328260C160016100210160704700219D
:104330000161704710B4D1F800C0BCF1FF3F02D05A
:1043400000F1080202E0026904E01A4653681C68A2
:104350006445FAD953684B6099608A60516008617E
:104360000168491C016010BC704742684A6093684C
:104370008B6093685960916008610168491C016015
:1043800070470000502080F31188BFF34F8FBFF3B8
:104390006F8F0A494868401C486001280CD10848C2
:1043A000006810F0FF0F07D0502080F31188BFF392
:1043B0004F8FBFF36F8FFEE770470000AC00002007
:1043C00004ED00E009494868002806D0401E486016
:1043D000002801D180F311887047502080F31188A4
:1043E000BFF34F8FBFF36F8FFEE70000AC000020DC
:1043F00070B500282AD0A0F10804154D60686969DD
:10440000084207D1502080F31188BFF34F8FBFF3CC
:104410006F8FFEE722683AB1502080F31188BFF316
:104420004F8FBFF36F8FFEE78843606000F0B6F9EF
:1044300060686968084468602046FFF797FC28694F
:10444000401C2861BDE8704000F0ACBF70BD0000AA
:104450008C0000204FF0E0200021016181610549BE
:104460004FF47A720968B1FBF2F1491E41610721EC
:10447000016170473400002010B5FBF789FE114937
:1044800010280ED300F1E02090F8F0030A78904253
:1044900007D2502080F31188BFF34F8FBFF36F8F87
:1044A000FEE709480068896800F4E060884207D99F
:1044B000502080F31188BFF34F8FBFF36F8FFEE75B
:1044C00010BD0000AC0000200CED00E00022084B05
:1044D00053F832C0BCF1000F03D0521C082AF7D3A6
:1044E000704743F8321003EBC20148607047000088
:1044F0005806002010B50446002C0BD0204600F0D2
:1045000013F894F8460000280CD12046BDE810406E
:10451000FFF76EBF502080F31188BFF34F8FBFF3BA
:104520006F8FFEE710BD00000021084A02EBC103B7
:104530005B68834206D1002042F8310002EBC101E2
:1045400048607047491C0829F0D37047580600207E
:1045500070B504460D461646FFF714FF94F9440063
:10456000B0F1FF3F4FF0000001D184F8440094F90E
:104570004510B1F1FF3F01D184F84500FFF722FF5C
:10458000A06B28B93246294604F1240000F056F801
:104590002046BDE87040FFF7CFBD000010B50246D1
:1045A0000020002A12D00F48006B38B1502080F351
:1045B0001188BFF34F8FBFF36F8FFEE700F0EEF867
:1045C00000211046FFF7B6F900F0ECFE002807D1F5
:1045D00005494FF080500860BFF34F8FBFF36F8FD6
:1045E00010BD00003800002004ED00E002490A6A16
:1045F0000260C9684160704738000020014901200D
:10460000C86170473800002010B50C4600280BD058
:10461000094A126802F11801FFF78CFE2046BDE836
:1046200010400121FFF786B9502080F31188BFF3B5
:104630004F8FBFF36F8FFEE73800002070B50D4637
:10464000144600280DD00B4909681831FFF78DFE7C
:104650000CB14FF0FF3521462846BDE87040FFF70A
:1046600069B9502080F31188BFF34F8FBFF36F8F6C
:10467000FEE700003800002070B5044600283FD057
:10468000226DA2B1E06C884200D30146E06A884204
:1046900036D0012A34D11B4D2A6894420FD15020C4
:1046A00080F31188BFF34F8FBFF36F8FFEE7502069
:1046B00080F31188BFF34F8FBFF36F8FFEE7E16286
:1046C000A26912F0004F02D1C1F13801A1610E4E72
:1046D00000EB8000616906EB8000814210D1201D53
:1046E000FFF7F0FDE06A2969884200D9286100EBF4
:1046F000800006EB8000211DBDE87040FFF735BE4D
:1047000070BD0000380000209806002030B587B04A
:1047100000250695059504AA05A906A8FFF7E6FD5C
:1047200006980599019102900023009517A1194858
:10473000049A00F0D1FC184CE06208B1012000E0BE
:104740000020012801D100F093FE01280AD0B0F129
:10475000FF3F19D1502080F31188BFF34F8FBFF373
:104760006F8FFEE7502080F31188BFF34F8FBFF3A8
:104770006F8F4FF0FF30A06201206061E56007B0ED
:10478000BDE8304000F048B807B030BD49444C4562
:1047900000000000153C0008380000200248016BB2
:1047A000491C01637047000038000020184B186B4B
:1047B000002802D00120D86170470020D861186914
:1047C000144900EB800251F822203AB9C0B1401ED2
:1047D00000EB800251F82220002AF7D000EB800283
:1047E00001EB82014A6852684A6001F1080C624597
:1047F00001D152684A604968C968196018617047F8
:10480000502080F31188BFF34F8FBFF36F8FFEE707
:10481000380000209806002010B582B0284908789A
:104820000190FF200870087800909DF800009DF826
:10483000002000F0F000904207D0502080F3118853
:10484000BFF34F8FBFF36F8FFEE79DF800001D4C45
:1048500000F0500020700720A0609DF8000010F0CC
:10486000800F0BD0A068401EA0609DF800004000A3
:1048700000909DF8000010F0800FF3D1A06803288D
:1048800007D0502080F31188BFF34F8FBFF36F8F95
:10489000FEE74FF44070A060019808700A48016874
:1048A00041F470010160016841F070410160FFF75F
:1048B000D1FD00206060FBF735FC02B0002010BD88
:1048C00000E400E0AC00002020ED00E010B5502036
:1048D00080F31188BFF34F8FBFF36F8F00F040FC60
:1048E00018B104494FF080500860002080F311880F
:1048F00010BD000004ED00E010B50C46002809D002
:1049000084420FD9502080F31188BFF34F8FBFF33B
:104910006F8FFEE7502080F31188BFF34F8FBFF3F6
:104920006F8FFEE70222002100F03FF8002800D040
:10493000846310BD38B50C46002809D084420FD9D5
:10494000502080F31188BFF34F8FBFF36F8FFEE7C6
:10495000502080F31188BFF34F8FBFF36F8FFEE7B6
:104960000221134600220091114600F040F8002871
:1049700000D0846338BD10B502460021012000F04C
:1049800014F804462046FFF759F9204610BD38B503
:104990000B46002200901146012000F028F8044642
:1049A0002046FFF74BF9204638BDF8B505460E46C0
:1049B0001746002D13D005FB06F05030FFF7F0FB33
:1049C000044654B104F15002002084F846003B46EE
:1049D000314628460094FFF73DF92046F8BD5020A7
:1049E00080F31188BFF34F8FBFF36F8FFEE738B5A9
:1049F000049D002804D05BB102B189B1C2B120E0AE
:104A0000502080F31188BFF34F8FBFF36F8FFEE705
:104A1000502080F31188BFF34F8FBFF36F8FFEE7F5
:104A2000502080F31188BFF34F8FBFF36F8FFEE7E5
:104A300039B1502080F31188BFF34F8FBFF36F8FD0
:104A4000FEE74FF0500CCDF800C01C46012384F85F
:104A500046302B460094FFF7FDF8204638BD000095
:104A600070B504460D46002C25D0FFF78BFC226C58
:104A7000E16B206801FB0200A0600020A0632068B9
:104A80006060E16B226C2068491E01FB0200E0605F
:104A90004FF0FF3084F8440084F845009DB104F1E4
:104AA0001000FFF739FC04F12400FFF735FCFFF795
:104AB00089FC012070BD502080F31188BFF34F8F17
:104AC000BFF36F8FFEE720690028F0D004F11000DB
:104AD00000F02CFC0028EAD004494FF08050086018
:104AE000BFF34F8FBFF36F8FE1E7000004ED00E0ED
:104AF0002DE9FF4782B004468A461F460025002C58
:104B000003D0BAF1000F08D011E0502080F31188D3
:104B1000BFF34F8FBFF36F8FFEE7206C38B150208B
:104B200080F31188BFF34F8FBFF36F8FFEE7022F23
:104B30000AD1E06B012807D0502080F31188BFF321
:104B40004F8FBFF36F8FFEE700F0F6FA48B9049875
:104B500038B1502080F31188BFF34F8FBFF36F8FB0
:104B6000FEE700264FF08058DFF8F090FFF70AFCD0
:104B7000A06BE16B884205D3022F03D0049808B3E1
:104B800035B329E03A4651462046FEF7A7FF616A51
:104B900059B104F1240000F0C9FB68B1C9F80080E4
:104BA000BFF34F8FBFF36F8F06E028B1C9F80080C5
:104BB000BFF34F8FBFF36F8FFFF704FC06B00120E8
:104BC000BDE8F087FFF7FEFB06B00020BDE8F087E8
:104BD0006846FFF70BFD0125FFF7F4FBFFF7DEFD4D
:104BE000FFF7D0FB94F94400B0F1FF3F01D184F806
:104BF000446094F94500B0F1FF3F01D184F845606D
:104C0000FFF7E0FB04A9684600F0F0F940B1204648
:104C1000FFF792FA00F0C6FB06B00020BDE8F0876F
:104C20002046FFF702F990B104F110000499FFF754
:104C3000EBFC2046FFF780FA00F0B4FB002895D18A
:104C4000C9F80080BFF34F8FBFF36F8F8EE7204608
:104C5000FFF772FA00F0A6FB88E7000004ED00E021
:104C60002DE9F0470446894617461E46002C03D01E
:104C7000B9F1000F08D011E0502080F31188BFF384
:104C80004F8FBFF36F8FFEE7206C38B1502080F359
:104C90001188BFF34F8FBFF36F8FFEE7022E0AD14B
:104CA000E06B012807D0502080F31188BFF34F8FAD
:104CB000BFF36F8FFEE7FFF7DFFB5020EFF31188A4
:104CC00080F31188BFF34F8FBFF36F8FA06BE16B41
:104CD000884206D3022E04D0002088F31188BDE854
:104CE000F08794F94550A06B324649462046FEF7BE
:104CF000F5FEB5F1FF3F04D0681C84F845000120A3
:104D0000EBE7606A0028FAD004F1240000F00EFB03
:104D10000028F4D0002FF2D001203860EFE7000027
:104D20002DE9F74783B004468A460025002C03D0BE
:104D3000BAF1000F08D011E0502080F31188BFF3C2
:104D40004F8FBFF36F8FFEE7206C38B1502080F398
:104D50001188BFF34F8FBFF36F8FFEE700F0ECF9C0
:104D600048B9059838B1502080F31188BFF34F8FB0
:104D7000BFF36F8FFEE700274FF08058DFF8E49015
:104D8000FFF700FBA66BC6B151462046FEF794FE26
:104D9000701EA063206950B104F1100000F0C6FA43
:104DA00028B1C9F80080BFF34F8FBFF36F8FFFF7B3
:104DB00009FB06B00120BDE8F087059808B135B1C0
:104DC00009E0FFF7FFFA06B00020BDE8F08768466B
:104DD000FFF70CFC0125FFF7F5FAFFF7DFFCFFF703
:104DE000D1FA94F94400B0F1FF3F01D184F8447046
:104DF00094F94500B0F1FF3F01D184F84570FFF709
:104E0000E1FA05A9684600F0F1F868B12046FFF71D
:104E100093F900F0C7FA2046FEF7FAFF0028AFD05A
:104E200006B00020BDE8F0872046FEF7F1FF90B104
:104E300004F124000599FFF7E7FB2046FFF77CF912
:104E400000F0B0FA00289BD1C9F80080BFF34F8F63
:104E5000BFF36F8F94E72046FFF76EF900F0A2FAD8
:104E60008EE7000004ED00E02DE9F34383B0044633
:104E700000250026002C09D0206C78B1502080F34A
:104E80001188BFF34F8FBFF36F8FFEE7502080F381
:104E90001188BFF34F8FBFF36F8FFEE700F04CF91F
:104EA00048B9049838B1502080F31188BFF34F8F70
:104EB000BFF36F8FFEE700274FF08058DFF828918F
:104EC000FFF760FAA06BC8B1401EA063206810B95C
:104ED000FFF7DAF9A060206950B104F1100000F08A
:104EE00025FA28B1C9F80080BFF34F8FBFF36F8F49
:104EF000FFF768FA05B00120BDE8F083049808B117
:104F00007DB112E03EB1502080F31188BFF34F8F86
:104F1000BFF36F8FFEE7FFF755FA05B00020BDE83D
:104F2000F0836846FFF762FB0125FFF74BFAFFF7B6
:104F300035FCFFF727FA94F94400B0F1FF3F01D1A7
:104F400084F8447094F94500B0F1FF3F01D184F832
:104F50004570FFF737FA04A9684600F047F8D0B16A
:104F60002046FFF7E9F800F01DFA2046FEF750FF53
:104F70000028A5D05EB1FFF705FA2046FEF705FE32
:104F8000A26801461046FFF777FBFFF71BFA05B052
:104F90000020BDE8F0832046FEF73AFFE8B1206824
:104FA00038B9FFF7EFF9A06800F080F90646FFF77F
:104FB00009FA04F124000499FFF726FB2046FFF7C5
:104FC000BBF800F0EFF900287FF47AAFC9F8008051
:104FD000BFF34F8FBFF36F8F72E72046FFF7ACF838
:104FE00000F0E0F96CE7000004ED00E070B5054664
:104FF0000C46002D15D0E4B1FFF7C4F9DFF868C006
:10500000DCF80C006B68C11A2268B2F1FF3F18D0BF
:105010002E68DCF820C0664515D0834213D80124E1
:105020001DE0502080F31188BFF34F8FBFF36F8FC7
:10503000FEE7502080F31188BFF34F8FBFF36F8FCF
:10504000FEE700240BE08A4206D9501A2060284669
:10505000FFF7CCFA002402E0002020600124FFF7D3
:10506000B1F9204670BD0000380000202DE9F04F56
:1050700085B081460F9F0E9E8A4690469B464FEA1A
:105080008800FFF78DF8054628000AD05C20FFF75E
:1050900087F804460CB1256304E02846FFF7A8F919
:1050A00000E000249CB1002084F8590003905B4686
:1050B000424651460197009602944846FEF7DBFDB2
:1050C0002046FEF767FC05B00120BDE8F08F05B073
:1050D0004FF0FF30BDE8F08F70B586B00646DDF8C2
:1050E00028C00C9C0B98002816D0ECB15C250495C8
:1050F0002063022084F85900002005AD0390CDF80C
:1051000000C0019502943046FEF7B5FD2046FEF73B
:1051100041FC059806B070BD502080F31188BFF3A4
:105120004F8FBFF36F8FFEE7502080F31188BFF3DE
:105130004F8FBFF36F8FFEE705484169002903D009
:10514000006B18B1002070470120704702207047A3
:10515000380000200148C068704700003800002077
:105160002DE9F04100262F4F386B002805D0B86993
:10517000401CB8613046BDE8F081F868451CFD6010
:105180009DB9786B006838B1502080F31188BFF367
:105190004F8FBFF36F8FFEE7786BB96B7963B8639E
:1051A000386A401C3862FEF741FFB86ADFF8788041
:1051B00085420DD3786B006838B1786BC068C468DD
:1051C0006068854212D2B86202E04FF0FF30B862E8
:1051D0003868C06A00EB800058F82000012800D928
:1051E0000126F8690028C5D00126C3E7201DFFF776
:1051F00069F8A06A18B104F11800FFF763F8E16AD2
:105200003869814200D9396101EB810008EB8000E7
:10521000211DFFF7AAF8E06A3968C96A8842C9D334
:105220000126C7E7380000209806002070B5044624
:105230000021002833D01B4D2868844207D050201D
:1052400080F31188BFF34F8FBFF36F8FFEE7206DA0
:1052500038B1401E2065E36CE26A9A421FD040B12B
:105260001DE0502080F31188BFF34F8FBFF36F8F85
:10527000FEE7201DFFF726F8E06CE062C0F1380081
:10528000A061E06A2969884200D92861064900EBDB
:10529000800001EB8000211DFFF767F8012108461F
:1052A00070BD0000380000209806002070B504464C
:1052B0000020002C2DD01B4DE16A2A68D26A914251
:1052C00028D2A06910F0004F04D12868C06AC0F14C
:1052D0003800A061E06A144E00EB8000616906EBC3
:1052E0008000814211D1201DFEF7ECFF2868C06AC2
:1052F000E0622969884200D9286100EB800006EB52
:105300008000211DFFF731F802E02868C06AE062E2
:10531000012070BDE16C2A68D26A9142F9D2012065
:1053200070BD0000380000209806002070B5C068ED
:10533000C468002C14D004F11800FEF7C3FF164D0A
:10534000286BA8B104F118011448FFF70EF8E06AC1
:105350002968C96A88421CD901200121E96170BD10
:10536000502080F31188BFF34F8FBFF36F8FFEE79C
:10537000201DFEF7A7FFE06A2969884200D928614D
:10538000074900EB800001EB8000211DFEF7EDFFD7
:10539000DDE7002070BD000038000020200B002059
:1053A000980600202DE9F047002400272D4D286B9A
:1053B000002807D0FEF7E6FF286B401E2863286B05
:1053C00040B149E0502080F31188BFF34F8FBFF305
:1053D0006F8FFEE7A86800283ED0234E30684FF05C
:1053E000010800B3A6F59169F068C46804F11800DB
:1053F000FEF768FF201DFEF765FFE06A2969884215
:1054000000D9286100EB800009EB8000211DFEF728
:10541000ACFFE06A2968C96A884201D3C5F81C80DC
:1054200030680028E0D10CB1FEF700FEAC694CB149
:10543000FFF796FE08B1C5F81C80641E002CF7D15A
:105440000020A861E86938B10127084938070860D9
:10545000BFF34F8FBFF36F8FFEF7B4FF3846BDE841
:10546000F087000038000020200B002004ED00E051
:1054700030B587B00024FEF7D1FA134D2868B0B1DB
:1054800000200690059004AA05A906A8FEF738FF9B
:1054900005990698022200920191029000230BA127
:1054A0000C48049AFFF718FE686000B1012414B19B
:1054B00007B0204630BD502080F31188BFF34F8FD6
:1054C000BFF36F8FFEE7000074000020546D722060
:1054D0005376630025410008F0B585B084460A9DE7
:1054E00016461F460022BCF1000F14D0164C20684F
:1054F00000B300910196CDF808C006291BDAFFF72A
:105500001BFE02280FD000231A4669462068FFF7C9
:10551000EFFA024615E0502080F31188BFF34F8F59
:10552000BFF36F8FFEE700232A4669462068FFF726
:10553000DFFA024605E000233A466946FFF790FB92
:10554000024605B01046F0BD7400002000000000C7
:10555000000000000000000000000000000000F853
:1055600000000000000000333000000000100C06B6
:10557000100C0600000000000000000040C0784051
:10558000C0784000043F04043F040400007088FC1D
:1055900008300000001820FF211E0000F008F00075
:1055A000E018000000211C031E211E0000F00888E6
:1055B000700000001E2123241927211010160E0050
:1055C000000000000000000000000000000000E0FB
:1055D0001804020000000007182040000002041810
:1055E000E00000000040201807000000404080F06C
:1055F000804040000202010F01020200000000F0A2
:10560000000000000101011F010101000000000075
:105610000000000080B070000000000000000000EA
:105620000000000000010101010101010000000073
:10563000000000000030300000000000000000000A
:1056400080601804006018060100000000E01008E7
:105650000810E000000F102020100F00001010F8BC
:10566000000000000020203F2020000000700808FB
:10567000088870000030282422213000003008887B
:10568000884830000018202020110E000000C020A3
:1056900010F8000000070424243F240000F80888C4
:1056A000880808000019212020110E0000E0108851
:1056B00088180000000F112020110E000038080883
:1056C000C83808000000003F000000000070880893
:1056D00008887000001C222121221C0000E0100814
:1056E0000810E0000000312222110F00000000C06D
:1056F000C00000000000003030000000000000800A
:1057000000000000000080600000000000008040F9
:105710002010080000010204081020004040404012
:105720004040400004040404040404000008102065
:1057300040800000002010080402010000704808AA
:105740000808F0000000003036010000C030C82812
:10575000E810E0000718272423140B000000C038CD
:10576000E0000000203C23020227382008F8888847
:1057700088700000203F202020110E00C030080853
:1057800008083800071820202010080008F808082A
:105790000810E000203F202020100F0008F8888823
:1057A000E8081000203F20202320180008F88888EF
:1057B000E8081000203F200003000000C030080867
:1057C0000838000007182020221E020008F80800F0
:1057D0000008F808203F210101213F20000808F8B7
:1057E000080800000020203F2020000000000808DA
:1057F000F8080800C08080807F00000008F888C09A
:1058000028180800203F20012638200008F808004A
:1058100000000000203F20202020300008F8F80081
:10582000F8F80800203F003F003F200008F830C093
:105830000008F808203F200007183F00E010080883
:105840000810E0000F10202020100F0008F80808B2
:105850000808F000203F210101010000E0100808C5
:105860000810E0000F18242438504F0008F88888EA
:1058700088887000203F2000030C302000708808CA
:10588000080838000038202121221C00180808F8D8
:10589000080818000000203F2000000008F8080059
:1058A0000008F808001F202020201F00087888002A
:1058B00000C83808000007380E010000F80800F89A
:1058C0000008F800033C0700073C03000818688044
:1058D0008068180820302C03032C30200838C800BA
:1058E000C83808000000203F200000001008080809
:1058F000C83808002038262120201800000000FEAB
:10590000020202000000007F40404000000C30C056
:1059100000000000000000010638C0000002020282
:10592000FE000000004040407F0000000000040234
:10593000020204000000000000000000000000005F
:10594000000000008080808080808080000202044F
:105950000000000000000000000000000000808047
:10596000808000000019242222223F2008F80080B5
:1059700080000000003F112020110E000000008078
:1059800080800000000E1120202011000000008007
:105990008088F800000E112020103F200000808039
:1059A00080800000001F222222221300008080F04D
:1059B000888888180020203F202000000000808078
:1059C00080808000006B94949493600008F80080BD
:1059D00080800000203F210000203F200080989818
:1059E000000000000020203F202000000000008078
:1059F0009898000000C08080807F000008F80000B8
:105A000080808000203F24022D302000000808F80C
:105A1000000000000020203F2020000080808080C7
:105A200080808000203F20003F20003F8080008059
:105A300080800000203F210000203F200000808067
:105A400080800000001F202020201F008080008018
:105A50008000000080FFA12020110E0000000080C7
:105A600080808000000E112020A0FF8080808000B8
:105A70008080800020203F212000010000008080E5
:105A8000808080000033242424241900008080E0DA
:105A9000808000000000001F2020000080800000A7
:105AA00000808000001F202020103F208080800088
:105AB0000080808000010E30080601008080008098
:105AC000008080800F300C030C300F0000808000BD
:105AD000808080000020312E0E31200080808000E8
