:020000040800F2
:1000000068050020450100085F210008551B000815
:100010005D21000863090008D326000800000000E5
:100020000000000000000000000000005124000853
:1000300065090008000000004F2400085324000850
:100040005F0100085F0100085F0100085F01000810
:100050005F0100085F0100085F0100085F01000800
:100060005F0100085F0100085F0100085F010008F0
:100070005F0100085F0100085F0100085F010008E0
:100080005F0100085F0100085F0100085F010008D0
:100090005F0100085F0100085F0100085F010008C0
:1000A0005F0100085F0100085F0100085F010008B0
:1000B0005F010008B12400085F0100085F0100082B
:1000C0005F0100085F0100085F0100085F01000890
:1000D0005F0100085F0100085F0100085F01000880
:1000E0005F0100085F0100085F0100085F01000870
:1000F0005F0100085F0100085F0100085F01000860
:100100005F0100085F0100085F0100085F0100084F
:100110005F0100085F0100085F0100085F0100083F
:100120005F0100085F0100085F0100085F0100082F
:10013000DFF80CD000F0E2FB00480047D1300008A7
:10014000680500200648804706480047FEE7FEE7AE
:10015000FEE7FEE7FEE7FEE7FEE7FEE7FEE7FEE777
:10016000AD24000831010008202A04DB203A21FADE
:1001700002F00021704721FA02F3D040C2F12002C0
:100180009140084319467047D2B201E000F8012BB4
:10019000491EFBD270470022F6E710B513460A4607
:1001A00004461946FFF7F0FF204610BDF0B480EA80
:1001B0000102D40F4200B2EB410F02D202460846C0
:1001C00011464A0042D0C30DDDB2C1F3C752AD1A89
:1001D000202D35DAC1F3160141F4000204B1524278
:1001E000C5F1200602FA06F12A411044B3EBD05FB4
:1001F00023D0C4B1012DA0EBC35009DCF0BC4FF0FB
:10020000004202EAC352DBB200F5000000F0E1B8A0
:10021000400000F1807000EBC350A0F1807040EA14
:10022000D170490009E0490841EAC071A0EBC35010
:1002300000F50000400800EBC350F0BC00F0C0B86F
:100240006142012202EB4101001BF6E7F0BC70475E
:1002500081F00041AAE780F00040A7E780EA0102B0
:1002600010B502F00043400022D04A001FD0010E1A
:1002700001EB1261C0F35600C2F3560240F40000D5
:1002800042F40002A0FB022000047F39140400D0D5
:10029000401C50EA124001D44000491EC2B20C0674
:1002A00004EBD010401C4008802A02D003E000205C
:1002B00010BD20F00100002900DA0020184310BD15
:1002C000420005D0C0F3C7525242914201DC0020E7
:1002D000704700EBC1507047C10F80EAE0700844DE
:1002E000CA079623002100F074B80EB5C10F80EA4A
:1002F000E0700844CA07002140F233438DE80E0045
:100300000A460B4600F0A2F803B000BD00F0004220
:1003100030F000400AD0C10D01F56071C0F3160045
:1003200042EA0151C20840071143704700200146CC
:10033000704730B50B46014600202022012409E019
:1003400021FA02F59D4205D303FA02F5491B04FA8E
:1003500002F52844151EA2F10102F1DC30BD2DE9A1
:10036000F05F0546002092469B4688460646814639
:1003700040241BE02846414647462246FFF7F4FE4C
:1003800053465A46C01A914110D311461846224688
:1003900000F0C6FA2D1A67EB01084F4622460120ED
:1003A000002100F0BDFA17EB00094E41201EA4F118
:1003B0000104DFDC484631462A464346BDE8F09F4B
:1003C0000029A8BF7047401C490008BF20F0010069
:1003D000704710B4B0FA80FC00FA0CF050EA010447
:1003E00004BF10BC704749B1CCF1200421FA04F4D9
:1003F00011FA0CF118BF012121430843A3EB0C01B2
:10040000CB1D4FEA00614FEA102042BF002010BC14
:10041000704700EBC35010440029A4BF10BC7047C4
:10042000401C490008BF20F0010010BC704710B507
:10043000141E73F1000408DA401C41F10001921807
:100440005B411A4301D120F0010010BD2DE9F04DB0
:1004500092469B4611B1B1FA81F202E0B0FA80F205
:100460002032904600F05CFA04460F4640EA0A004B
:1004700041EA0B0153465A46084313D0114653EA4A
:10048000010019D0C8F140025046FFF76DFE054645
:100490000E4650465946424600F042FA084305D0FF
:1004A000012004E020463946BDE8F08D00200543D8
:1004B00046EAE0762C4337430A986305E40AA0EB4A
:1004C00008000022FD0A44EA47540A3002D5002001
:1004D0000146E9E7010510196941DDE90845001900
:1004E0006941BDE8F04DA2E72DE9FE4F804681EA63
:1004F0000300C00F0C46009021F0004123F000459E
:10050000B8EB0200A94105D24046214690461C4660
:100510000B46024623F00040104347D0270DC7F397
:100520000A00C3F30A510290401A019040286BDA86
:10053000C3F3130040F4801B0098924620B10023BF
:10054000D2EB030A63EB0B0B01985946C0F1400252
:10055000504600F0E5F906460D4650465946019AC8
:1005600000F0EDF910EB08006141002487EA115218
:1005700084EAE7731A4340D0009A62B3019A012AD1
:100580004FEA075215DC001B61EB02014FF00042FD
:1005900002EA0752CDE90042001C41F580113246C3
:1005A0002B46FFF753FF03B0BDE8F08F40462146CE
:1005B000F9E7001B61EB0201001C41F580130018F4
:1005C0005B412018A2F5001747EB030140EAD57004
:1005D000B6196D4111E06D084FEA360645EAC0755F
:1005E0004FEA0752001B61EB0201001C41F580112C
:1005F00049084FEA30000019514132462B4603B0FA
:10060000BDE8F04FFFF713BF009801224000002320
:10061000D0EB020263EBE073009821464FEAE074EE
:10062000B8EB000061EB0401E9E783F000435BE70E
:1006300081F0004158E72DE9FE4F81EA030404F000
:10064000004421F0004100944FF0000B23F00043E0
:1006500050EA01045ED052EA03045BD0C3F30A54AB
:10066000C1F30A552C44A4F2F3340194A0FB0254C4
:10067000C1F3130141F48011C3F3130343F4801356
:1006800001FB024400FB034E840A970A44EA8154AA
:1006900047EA8357A4FB076802958D0A05FB078587
:1006A0004FEA932C04FB0C542705029D4FEA065891
:1006B00047EA1637B5EB08056EEB070C870E920E6E
:1006C00047EA811742EA8312A7FB0201B6EB0B014E
:1006D00064EB00042B0D43EA0C335E1844EB1C5012
:1006E000DA465146E7FB0201C5F313044FEA0B3328
:1006F00043EA14534FEA0432019C43EA0603A4F18F
:100700000C040294009CCDE900B4FFF79FFE03B0F7
:10071000BDE8F08F00200146F9E72DE9F04D81EAB0
:10072000030404F0004B21F0004514464FF0000A8A
:1007300023F0004150EA050220D054EA01021DD006
:10074000C5F30A570246C5F31303C1F31300C1F3FF
:100750000A5640F4801543F48013A7EB0608101BDB
:10076000D64608F2FD3873EB050002D308F1010804
:1007700001E092185B41B8F1000F03DA0020014656
:10078000BDE8F08D00204FF48011064684460EE04F
:10079000171B73EB050705D3121B63EB0503064319
:1007A0004CEA010C49084FEA300092185B4150EACC
:1007B0000107EDD152EA030012D082EA040083EA75
:1007C0000501084305D0101BAB4106D201220023CE
:1007D00006E000224FF0004302E06FF001025310E8
:1007E0001AEB06004CEB085110EB0A0041EB0B0131
:1007F000BDE8F04DFFF71BBE2DE9F04D00231A4672
:100800001B1A8A4103DB00200146BDE8F08DC1F3CD
:100810000A52C1F3130141F480154FF0000BD107C8
:1008200002D100186D41521E0027044640F2FF110C
:10083000384601EB620A3E468046024600204FF4ED
:100840008011FFF791FCC2197141BB1846EB010002
:10085000B4EB030C75EB000C04D3E41A65EB000554
:1008600017460E46241908F101006D4180463428D0
:10087000E3DDF91946EB0600091BA84103D24FF04E
:10088000FF32134601E0002213461BEB070046EB44
:100890000A51BDE8F04DFFF7CABDC1F30A52C1F3DA
:1008A000130140F2FF3341F480119A4202DA002032
:1008B0000146704740F233439A42A2F2334202DCCF
:1008C0005242FFF751BC00F02BB8000030B5041EB7
:1008D00071F1000404DB4FF00044404264EB01017D
:1008E000141E73F1000405DB1C464FF00043524216
:1008F00063EB0403994208BF904230BD064C074D9C
:1009000006E0E06840F0010394E8070098471034DF
:10091000AC42F6D3FFF710FC4C3800086C380008E6
:10092000202A04DB203A00FA02F1002070479140AF
:10093000C2F1200320FA03F3194390407047202AA4
:1009400006DBCB17203A41FA02F043EAE07306E0F7
:1009500041FA02F3D040C2F1200291400843194607
:100960007047FEE77047000072B602A001F0B2FEC9
:10097000FEE700005B44656275675D3A4572726F21
:100980007200000070B5044600F010F90546601CC6
:1009900002D004480078044400F008F9401BA0424B
:1009A000FAD370BD0C0000202DE9F84FDFF8C89194
:1009B0000024A9F1040B23460F2709F1040AABF127
:1009C000040ED1E00125A54006EA0502AA4276D12F
:1009D000DFF8A8C14E68A6EB0C0866452BD00DDCED
:1009E000032E34D005DC36B3012E19D0022E2FD1C0
:1009F0001BE0112E16D0122E2AD119E0B8F5881F4F
:100A000019D006DCB8F5803F15D0B8F5801F1FD18E
:100A100011E0B8F5001F0ED0B8F5041F18D10AE098
:100A2000CB6815E0CB681B1D12E0CB6808330FE0E4
:100A3000CB680C330CE08B682BB1012B4FF0080313
:100A400003D0456104E0042302E0056100E00023D7
:100A5000FF2A01D8064601E000F104064FEA8405AA
:100A600001D9A5F12005D6F8008007FA05FC28EA8F
:100A70000C0803FA05F548EA0508C6F800804D6839
:100A8000ED0070D53E4DAE6946F00106AE61AD6930
:100A900024F0030605F0010500953A4D06EB050C20
:100AA000DCF80850A607360F07FA06F825EA08050D
:100AB000DFF8D480404503D14FF0000825E052E034
:100AC000DFF8C880404502D14FF001081DE0DFF893
:100AD000C080404502D14FF0020816E0DFF8B48034
:100AE000404502D14FF003080FE0DFF8AC804045ED
:100AF00002D14FF0040808E0DFF8A080404502D1A1
:100B00004FF0050801E04FF0060808FA06F848EA39
:100B10000508CCF808804D68D9F80060ED024D4614
:100B200001D5164300E096432E604D68DAF8006068
:100B3000AD02554601D5164300E096432E604D6840
:100B4000DBF80060AD035D4601D5164300E0964337
:100B50002E604D68DEF80060ED03754601D5164342
:100B600000E096432E60641C0A681646E2407FF45B
:100B700029AFBDE8F88F0000080401400000111003
:100B8000001002400000014000080140000C01403C
:100B9000001001400014014000180140001C0140F9
:100BA0000AB1016170470904FBE700000148806851
:100BB000704700000C00002070B5040025D094F8A8
:100BC0003D00002520B984F83C50204600F07CFA16
:100BD000242084F83D002068016821F001010160B3
:100BE0002068016841F4004101602068016821F437
:100BF0000041016000F010FC4D4A6168914201D84B
:100C00004C4900E04C49884201D2012070BD4B495B
:100C10002368B0FBF1F15E6826F03F060E435E608C
:100C20006368934206D94FF4967359434FF47A732D
:100C3000B1FBF3F12368491C1E6A26F03F063143DD
:100C400019626168914210D84900401EB0FBF1F270
:100C5000521CC2F30B02042A01D2042022E0B0FB92
:100C6000F1F0401CC0F30B001CE0A268F2B301EBF2
:100C7000C10303EB0116431EB3FBF6F35B1C43F405
:100C800080431B0549D092B301EBC10202EB011175
:100C9000401EB0FBF1F0401CC0F30B0040F480405C
:100CA00040F400402168CA694CF6FF739A43104330
:100CB000C861D4E9071001432068026822F0C0022D
:100CC00011430160D4E9030101432068826848F2BE
:100CD000FF339A4311438160D4E905010843216839
:100CE000CA6822F0FF021043C86001E00EE016E07F
:100CF0002068016841F0010101602564202084F82A
:100D00003D00256384F83E50002070BD01EB410694
:100D1000431EB3FBF6F35B1CB3E70120C2E701EB14
:100D20004101401EB0FBF1F0401CC0F30B00B7E7DF
:100D3000A086010080841E0000093D0040420F0093
:100D40002DE9F84F1F4690468A460446DDF8289064
:100D5000FFF72CFF054694F83D0020287FD119238A
:100D6000012240492046009501F004F8002876D180
:100D700094F83C00012872D0012084F83C002068DF
:100D80000168C90703D1016841F0010101602068D1
:100D9000016821F400610160212084F83D001020E9
:100DA00084F83E0000262664C4F824806785608DA0
:100DB00020852D48E0622B464A465146204600F0E9
:100DC000E1FE90B9206841698069009036E02A46CA
:100DD0004946204601F0ACF850B1206C042804D1FB
:100DE0002068016841F4007101600120BDE8F88FBE
:100DF000606A216800780861606A401C6062618DE9
:100E0000491E6185218D491E89B221852268536959
:100E1000DB435B070BD451B100781061606A401C62
:100E20006062608D401E6085208D401E20852A46B0
:100E30004946204600F072FF0028CED1208D0028C0
:100E4000C5D154F83D0B016841F4007101602020C8
:100E500004F81E09E67766770020C7E7FFE702205F
:100E6000C4E70000020010000000FFFF2DE9FF4F63
:100E700083B00025DDE910799A4693460446DDF8F3
:100E800048800095FFF792FE064694F83D00202822
:100E90007CD11923012288492046009600F06AFF80
:100EA0000028F5D194F83C0001286FD0012084F887
:100EB0003C0020680168C90703D1016841F00101C5
:100EC00001602068016821F400610160222084F83B
:100ED0003D00402084F83E0025646762A4F82A9013
:100EE000608D20857548E062CDE9008653465A46FC
:100EF0002046049900F094FE00287CD1208DDFF874
:100F0000C091202768B1012814D002282068016808
:100F10001ED041F4806101602068416980690090C1
:100F2000BCE02068416981690091016841F4007169
:100F30000160B3E02068016821F48061016072B64D
:100F40002068416981690091016841F400710AE0FB
:100F500041F40061016072B62068416981690091C5
:100F6000016821F48061016062B697E0032865D8CA
:100F700001280CD0022843464FF000024946204683
:100F800000960BD000F0F6FEA8BB0CE091E03246D4
:100F90004146204600F094FF68BB72E000F0EAFE94
:100FA00048BB72B633E02068016821F480610160BB
:100FB00072B620680069616A0870606A401C6062ED
:100FC000208D401E2085608D401E60853D4846F284
:100FD000A8110068B0FBF1F0C0EBC00000EB80008E
:100FE0000090401E009007D020684069C043400731
:100FF0000DD50098F5E727E044F8305F6773A573D7
:10100000206940F02000206162B625731CE0206852
:10101000016841F40071016020680069616A08702C
:10102000606A401C6062218D491E2185618D491EC8
:10103000618562B621680969017026E03246414641
:10104000204600F03DFF18B1012007B0BDE8F08F49
:1010500020680069616A0870606A401C6062208DC7
:10106000401E81B22185608D401E608520684269E6
:10107000D243520712D4032903D1016821F48061BD
:10108000016020680069616A0870606A401C6062E3
:10109000208D401E2085608D401E6085208D00289B
:1010A0007FF464AF84F83D7084F83E5084F83C507F
:1010B000CBE70220C9E70000020010000000FFFF9C
:1010C000040001001800002010B586B00021009136
:1010D00001910291039100680F4988421AD10F4C87
:1010E000A06940F00800A061A069694600F008000E
:1010F0000490C02000901220019003200390084823
:10110000FFF752FCE06940F40010E061E06900F490
:101110000010049006B010BD0054004000100240C2
:10112000000C0140024881680278114481607047D8
:101130000C000020074810B5016841F01001016063
:10114000032000F0A1F80F2000F006F800F050F89E
:10115000002010BD0020024030B505461F4887B072
:10116000C16941F00201C161C06906A900F0020035
:10117000009001A800F030F90498B0B100F04CF9EB
:1011800040001749174AB0FBF1F11748491E0260A9
:10119000416040F2E7320021C0E9032181608161B2
:1011A00000F012FB040003D015E000F035F9E8E789
:1011B0000D4800F037FB04000DD11D2000F036F87B
:1011C000102D07D2002229461D2000F03DF80748C7
:1011D000056000E0012407B0204630BD0010024049
:1011E00040420F00000400401C01002010000020BD
:1011F0000C4808B5816941F001018161816901F004
:1012000001010091C16941F08051C161C06900F0E4
:10121000805000900448416821F0E06141F0007185
:10122000416008BD0010024000000140002809DBB9
:1012300000F01F02012191404009800000F1E020F0
:10124000C0F8001170470000F0B40E4B1B680C464C
:10125000C3F30223C3F10705042D00D90425191D8A
:10126000072901D2002300E0DB1E012606FA05F162
:10127000491E214099409E40761E16403143F0BCE5
:1012800001F038BA0CED00E0064900F007020868EA
:101290004FF6FF03184040EA0220034A104308605B
:1012A000704700000CED00E00000FA052DE9F04762
:1012B0000F46050061D0434E306800F00700B84289
:1012C00009D2306820F0070038433060306800F001
:1012D0000700B84251D128683B4C810712D540071E
:1012E00003D5606840F4E06060602878000703D5AB
:1012F000606840F4605060606068A96820F0F000A9
:10130000084360602878C00728D06868012810D09A
:101310002168022810D0890700292EDA616821F09F
:10132000030101436160FFF741FC804641F28839C7
:101330000DE021688903EFE78901EDE7FFF736FC4F
:10134000A0EB0801494502D90320BDE8F087606899
:10135000696800F00C00B0EB810FEFD1306800F04D
:101360000700B8420BD9306820F0070038433060DE
:10137000306800F00700B84201D00120E5E7287886
:10138000400705D56068E96820F4E06008436060C4
:101390002878000706D56068296920F4605040EA83
:1013A000C100606000F058F86168084AC1F3031199
:1013B000515CC8400649086006480068FFF7CCFE4B
:1013C0000020C2E700200240001002404232000824
:1013D00018000020100000200F2202600C4A536801
:1013E00003F003034360536803F0F0038360536822
:1013F00003F4E063C36052684FF4E06303EAD2028F
:1014000002610448006800F00700086070470000AF
:101410000010024000200240044805490068496865
:10142000044AC1F30221515CC840704718000020F3
:10143000001002405232000804480549006849681B
:10144000044AC1F3C221515CC84070471800002013
:1014500000100240523200080E4A51680E4801F056
:101460000C03042B11D0082B0FD10C48C1F383437C
:10147000C903C05C0AD55168084AC1F34041921EB5
:10148000515C054A5043B0FBF1F0704704494843B2
:10149000704700000010024000127A00323200084B
:1014A00000093D002DE9F84F040070D02078C04DB0
:1014B000C00749D06868C0F38100012807D0686878
:1014C000C0F38100022809D16868C00306D52868E6
:1014D000800339D560680028E7D035E06068B0F552
:1014E000803F0BD010B1B0F5A02F11D0286820F4A8
:1014F00080302860286820F4802002E0286840F4CA
:1015000080302860606890B1FFF750FB06460AE023
:10151000286840F480202860F0E700BFFFF746FB12
:10152000801B642873D828688003F7D50CE0FFF788
:101530003DFB064605E000BFFFF738FB801B642833
:10154000F0D828688003F7D420789A4E80074FF0AF
:1015500001094FF0000839D5686810F00C0F07D06A
:101560006868C0F38100022809D16868C00306D406
:101570002868800714D52069012808D110E0206967
:10158000B0B1C6F80090FFF711FB074605E00AE18D
:10159000FFF70CFBC01B0228C4D828688007F7D5CA
:1015A0002868616920F0F80040EAC10028600DE079
:1015B000C6F80080FFF7FAFA074604E0FFF7F6FAEC
:1015C000C01B022823D828688007F7D4207800079A
:1015D0002CD57948A169D9B1C0F80090FFF7E6FA97
:1015E000074604E0FFF7E2FAC01B02280FD8686A3A
:1015F0008007F7D571484FF4FA510068B0FBF1F05D
:10160000009000BF0098411E0091FAD20EE080E0E9
:10161000C0F80080FFF7CAFA074604E0FFF7C6FAF1
:10162000C01B022875D8686A8007F7D42078400765
:1016300060D5E8690027C00008D4E86940F0805010
:10164000E861E869012700F0805000905C4801687B
:10165000C90513D40168834641F480710160FFF726
:10166000A5FA824606E000BFFFF7A0FAA0EB0A0049
:1016700064284ED8DBF80000C005F5D5E0680128E5
:101680000AD008B1052813D0286A20F0010028628A
:10169000286A20F0040002E0286A40F00100286275
:1016A000E06841F2883B98B1FFF780FA82460BE090
:1016B000286A40F004002862EEE700BFFFF776FAE0
:1016C000A0EB0A0159455AD8286A8007F6D50CE0E4
:1016D000FFF76CFA824605E0FFF768FAA0EB0A0113
:1016E00059454CD8286A8007F6D41FB1E86920F024
:1016F0008050E861E06988B36968C1F3810102291B
:1017000044D00228C6F8608004D0FFF74FFA0446A0
:1017100038E034E0FFF74AFA074604E0FFF746FAFC
:10172000C01B02282BD828688001F7D4206AB0F5A6
:10173000803F05D16868A16820F4003008436860E4
:10174000D4E908010843696821F47411084368600A
:10175000C6F86090FFF72AFA044606E025E000BFCD
:10176000FFF724FA001B022809D828688001F7D562
:101770001BE000BFFFF71AFA001B022802D9032062
:10178000BDE8F88F28688001F4D40EE00128F7D076
:101790006868226A00F48031914204D1616A00F4E1
:1017A0007010884201D00120EAE70020E8E700003D
:1017B0000010024000004242800442421800002013
:1017C000007000407047704710B5040003D094F8D3
:1017D0003D0010B107E0012010BD002084F83C005E
:1017E000204600F01EF8022084F83D00211D2068EC
:1017F00000F064FE012084F8460084F83E0084F87E
:101800003F0084F8400084F8410084F8420084F8E6
:10181000430084F8440084F8450084F83D0000202B
:1018200010BD704790F83D10012901D0012070478C
:10183000022180F83D100168CA6842F00102CA60C6
:1018400000680E4988420ED00D4988420BD0B0F195
:10185000804F08D00B49884205D00B49884202D0FE
:101860000A49884204D1816801F00701062903D0A2
:10187000016841F00101016000207047002C014027
:10188000003401400004004000080040000C00400B
:1018900070472DE9F04104460068C66805694FF0BD
:1018A0000007A90713D5B10711D5F91E0161012061
:1018B0002077206880698007204602D0FFF7E8FF84
:1018C00004E000F07EF8204600F07CF827776807F7
:1018D00016D5700714D521686FF004000861022046
:1018E00020772068806910F4407F204602D0FFF7FF
:1018F000CFFF04E000F065F8204600F063F827779A
:10190000280715D5300713D521686FF00800086146
:10191000042020772068C0698007204602D0FFF7A6
:10192000B7FF04E000F04DF8204600F04BF82777B1
:10193000E80616D5F00614D521686FF0100008618E
:10194000082020772068C06910F4407F204602D02C
:10195000FFF79EFF04E000F034F8204600F032F874
:101960002777E80708D0F00706D021686FF001005C
:101970000861204600F028F8280608D5300606D56C
:1019800021686FF0800008612046FFF71BFF6806A2
:1019900008D5700606D521686FF040000861204622
:1019A00000F01CF8A8060AD5B00608D521686FF02B
:1019B000200008612046BDE8F041FFF704BFBDE804
:1019C000F08170477047000000680349884201D1E8
:1019D000FFF7A8BB7047000000040040704770B5D7
:1019E000040004D094F84100002510B106E0012065
:1019F00070BD84F84050204600F024F8242084F87C
:101A000041002068C16821F40051C160204600F007
:101A1000CBFD2068016921F4904101612068416992
:101A200021F02A0141612068C16841F40051C16080
:101A30006564202084F8410084F84200656300203A
:101A400070BD000030B585B000240094019402946C
:101A5000039400681449884223D11448C16941F4B1
:101A60000031C161C16901F400310491816941F023
:101A70000401816180690E4D00F00400049004208F
:101A80000090022001900320039069462846FEF74B
:101A90008BFF0820CDE90004694628460294FEF732
:101AA00083FF05B030BD000000440040001002403C
:101AB000000801402DE9F843044690F8410098469B
:101AC00016460D46202802D00220BDE8F88385B1D5
:101AD0007EB100206064212084F84100FFF766F8A1
:101AE000A6848146E684A0682027B0F5805F02D0F6
:101AF00003E00120E9E7206910B12E4600250EE041
:101B000000260CE08021204600F0AAFDA8B9C6B14D
:101B100016F8010B21684860E08C401EE084E08CE0
:101B20004B464FF00002CDF800800028EAD14FF07C
:101B30004001204600F094FD40B184F8417003203C
:101B4000C3E735F8020BC0F30800E3E784F84170FF
:101B50000020BAE7FEE701684A69D24352050FD474
:101B60006FF480624A61002140F8301F20224273E6
:101B70008173026942F0040202610173012070471F
:101B800000207047F8B50446C06A1E460D46174649
:101B9000082807D0012805D010F5803F02D0206B1F
:101BA000122804D12068016841F480710160134655
:101BB00000224FF001112046009600F0DBF840B102
:101BC00020680068C00502D54FF40070206403202F
:101BD000F8BD2069B0F5804F0ED00620216800EADC
:101BE000D51040F0F000086133463A460B492046D4
:101BF00000F008F978B902E005F0FE0000E0E8B274
:101C000021680861054933463A46891F204600F09D
:101C1000F9F80028DCD00120F8BD00000800010020
:101C20002DE9F84F0446006889460B9D01689846E7
:101C3000174641F4806101602068016841F48071B9
:101C4000016000954FF0011B0022594620460A9B77
:101C500000F090F84FF4007A40B120680068C005A9
:101C600001D5C4F840A00320BDE8F88F216809F031
:101C7000FE0008612B46284920460A9A00F0C2F867
:101C8000F0BB20684169806900902A4620460A9985
:101C900000F04EF940B1206C04283AD12068016868
:101CA00041F40071016034E0FEB2B8F1010F09D0D7
:101CB0002168380A08612A4620460A9900F038F956
:101CC0000028E8D1206806612A4620460A9900F0DB
:101CD0002FF90028DFD12068016841F4807101608C
:101CE00000950022594620460A9B00F043F8002840
:101CF000B3D1216809F0FF0040F00100086100E065
:101D000007E02B46044920460A9A00F07BF8002899
:101D1000AAD00120A8E700000200010070B5164615
:101D20000D4604461EE02046FFF715FF08B10120CE
:101D300070BD681C16D0FEF739FF801BA84200D882
:101D400085B920684069C04340070BD5002044F89E
:101D5000300F20216173A073216941F020012161BE
:101D60002073E4E720684069C0434007DBD40020CB
:101D700070BD00002DE9F047984617460D46044611
:101D8000C1F30746DDF820902AE000BFB8F1FF3F1D
:101D900026D0FEF70BFFA0EB0901414502D8B8F1B0
:101DA000000F1DD12068012E16D0806925EA0000A1
:101DB0000004000C12D00020B84211D1002044F8D9
:101DC000300F20216173A073216941F0200121614E
:101DD00020730120BDE8F0874069E7E70120EBE7C9
:101DE0002068012E0AD0806925EA00000004000C5A
:101DF00006D00020B842C9D00020EBE74069F3E7E5
:101E00000120F7E72DE9F047984616460D460446AF
:101E10004FF000094FF0200AC1F3074723E0206884
:101E20004069C043400515D42068016841F4007141
:101E3000016021686FF480604861C4F8309084F8D4
:101E40003DA084F83E90216C41F00401216484F8A7
:101E50003C9021E0701C06D0FEF7A8FEA0EB080025
:101E6000B04203D816B1012F1FD021E02068012F06
:101E700015D0806925EA00000004000C18D000BFCE
:101E800044F8309F84F80DA084F80E90216941F049
:101E90002001216184F80C900120BDE8F0874069A1
:101EA00025EA00000004000CEAD12068406901E046
:101EB0002068806925EA00000004000CAFD1ECE73F
:101EC0002DE9F041002590460E460446202728E0E3
:101ED0004069C043C0060CD454F8301B6FF01000AA
:101EE000486144F810596777A577206A2062257702
:101EF00014E0FEF75BFEA0EB0800B04200D886B904
:101F000020684069C04340060BD544F8305F6773D2
:101F1000A573206940F02000206125730120BDE8F1
:101F2000F08120684169C9434906D1D40020F6E711
:101F300070B516460D4604461EE02046FFF70BFE20
:101F400008B1012070BD681C16D0FEF72FFE801B63
:101F5000A84200D885B920684069C04300060BD567
:101F6000002044F8300F20216173A073216941F0F3
:101F7000200121612073E4E720684069C043000626
:101F8000DBD4002070BD00001FB500226B21D020E3
:101F900000F044F80AA000F09DFB01214FF0FF3251
:101FA00003A88DE807000B467522D0210948FEF7EB
:101FB0005DFF9DF80C1008A000F08CFB1FBD000019
:101FC0005B4D50555D3A496E6974204F76657220BD
:101FD0000A000000800000205B4D50555D3A4465CA
:101FE00076696365732041646472657373206973F5
:101FF000202564200A0000001FB54FF0FF340123A4
:1020000003AA8DE81C000A4601460348FEF72EFF8E
:102010009DF80C0004B010BD800000201CB5022308
:102020008DF804104FF0FF3100918DF80520014626
:1020300001AA0248FEF784FE1CBD000080000020BB
:1020400070B586B00024254800940194029403944E
:10205000816941F010018161816901F010010491F1
:10206000816941F020018161816901F020010491C1
:10207000816941F004018161816901F004010491E9
:10208000816941F0080181618069154E00F0080006
:10209000049001224FF460613046FEF781FD00227A
:1020A000B1153046FEF77CFD4FF44060009001AA68
:1020B0001120022582E8310069463046FEF774FCA3
:1020C0004FF44070009001AA012082E83100694677
:1020D0003046FEF769FC06B070BD000000100240FB
:1020E000000C01400D4810B50B4901600C494160DE
:1020F00000214FF480428160C0E903124161816197
:10210000C1610162FEF758FD002803D0BDE8104010
:10211000FEF72ABC10BD00000054004080000020E3
:10212000801A06000C4810B50A4901604FF4165198
:102130004160002181600C22C160C0E9041281610C
:10214000C161FFF74CFC002803D0BDE81040FEF74A
:102150000BBC10BD00440040D4000020FEE7FEE7A9
:1021600070B500240021204600F0F6F8002500207C
:1021700000F05CF96D1CEDB2802DF8D3641CE4B264
:10218000082CEFD370BD000010B5FFF759FF0B4CC2
:10219000012251022046FEF703FD0022A115204630
:1021A000FEF7FEFC012291022046FEF7F9FC2046D4
:1021B0000122BDE81040D102FEF7F2BC000C014044
:1021C0002DE9F047164E002407464FF080084FF4E3
:1021D0000069351528FA04F0384201D0012200E0E8
:1021E000002249463046FEF7DBFC012229463046F4
:1021F000FEF7D6FC002229463046FEF7D1FC641CCF
:10220000E4B2082CE6D3012229463046FEF7C8FC8A
:1022100029463046BDE8F0470022FEF7C1BC000069
:10222000000C014070B501220B4DD4022146284616
:10223000FEF7B6FC0122960231462846FEF7B0FCB6
:10224000002221462846FEF7ABFC31462846BDE871
:1022500070400022FEF7A4BC000C014070B50A4D8E
:102260004FF40064002221462846FEF799FC012223
:1022700091022846FEF794FC21462846BDE87040AE
:102280000122FEF78DBC0000000C014010B50020BB
:102290004FF47A720021491C9142FCD3401C9042B9
:1022A000F8D3FFF771FFAE2000F0AFF8D52000F0B3
:1022B000ACF8802000F0A9F8A82000F0A6F83F2094
:1022C00000F0A3F8FFF7AEFF7820FFF779FF0020BA
:1022D000FFF776FF2020FFF773FF0020FFF770FF66
:1022E000FFF7BCFFD32000F090F8002000F08DF83D
:1022F000402000F08AF8A12000F087F8C82000F004
:1023000084F8DA2000F081F8122000F07EF88120B5
:1023100000F07BF8CF2000F078F8D92000F075F8B5
:10232000F12000F072F8DB2000F06FF8302000F0B0
:102330006CF8A42000F069F8A62000F066F88D2063
:1023400000F063F8142000F060F8AF2000F05DF8B2
:10235000BDE81040FFF704BF10B50C4640F0B000D8
:1023600000F053F8102040EA141000F04EF804F08A
:102370000F00BDE8104000F048B800002DE9F04122
:102380000746CE004000083E801E15464FF0FF383D
:10239000F1B2C0B2FFF7E0FF1148002400EB0515D1
:1023A0002819A0F5805090F8000E00F03FF8641C4A
:1023B000E4B2082CF4D308EB4700F1B2C0B2FFF747
:1023C000CBFF00242819A0F5805090F8080E00F0EB
:1023D0002DF8641CE4B2082CF4D3BDE8F0810000B1
:1023E0005A3200082DE9F04115460E4607460024F2
:1023F00006E03019C1B23846FFF7C0FF641CE4B2F2
:102400002A5D002AF5D1BDE8F08110B50446FFF73A
:1024100009FF7820FFF7D4FE0020FFF7D1FE204609
:10242000FFF7CEFEBDE81040FFF718BF10B5044619
:10243000FFF7F8FE7820FFF7C3FE4020FFF7C0FE4D
:102440002046FFF7BDFEBDE81040FFF707BF70470D
:102450007047704730B58FB028216846FDF79BFE66
:1024600014210AA8FDF797FE01210804CDE9001008
:102470000024029402250491CDE907504FF4E010A6
:1024800009906846FFF70EF860B90F20CDE90A05FC
:102490006802CDE90C4002210AA80E94FEF706FF5F
:1024A000002801D0FEF760FA0FB030BD7047000081
:1024B0000148FFF7EEB900001C010020F0B50268EA
:1024C000204C214D214E224F224B4FF0804CA042F8
:1024D00009D0984207D0604505D0A84203D0B04249
:1024E00001D0B84204D122F0700E4A6842EA0E02CE
:1024F000A04209D0984207D0604505D0A84203D039
:10250000B04201D0B84203D122F44075CA682A43D0
:102510004D6922F080022A4302608A68C2620A681A
:102520008262A04201D0984201D109690163012170
:1025300041610169C90703D0016921F0010101610D
:10254000F0BD0000002C01400004004000080040E5
:10255000000C00400034014001680C3151E8002FAC
:1025600022F4907241E80023002BF5D10168143168
:1025700051E8002F22F0010241E80023002BF5D1A1
:10258000016B012909D101680C3151E8002F22F0BB
:10259000100241E80023002BF5D1202180F84210E1
:1025A000002101637047000070B5044600680169AE
:1025B000E26821F44051114301612169A068084398
:1025C000616908432168CA6841F20C639A43024377
:1025D000CA6020684169A26921F4407111434161D8
:1025E0001E492068884202D1FEF726FF01E0FEF76F
:1025F00013FF00EBC00101EB001260686421800052
:10260000B2FBF0F3B3FBF1F36FF018067343B2FBC8
:10261000F0F5B2FBF0F605EB8305322303EB05156D
:10262000B5FBF1F5B6FBF1F605F0F00505EB061587
:10263000B2FBF0F6B2FBF0F0B0FBF1F06FF0180275
:10264000504306EB800003EB0010B0FBF1F0216873
:1026500000F00F002844886070BD00000038014081
:102660002DE9F843984617460D460446089E24E097
:10267000701C22D0FEF79AFAA0EB0800B0421AD8DC
:10268000CEB12068C168490717D5802D15D0402DDF
:1026900013D00168C94309070FD4016800254068B9
:1026A00000902046FFF758FF0820606484F84050EF
:1026B0000120BDE8F8830320FBE72068006835EAC5
:1026C000000004D00020B842D2D00020F1E7012061
:1026D000F9E7FEE70FB4054B10B503A9044A0298C9
:1026E00000F0F0F810BC5DF814FB0000F52F0008B6
:1026F0001C0000200907090E002804DB00F1E0207F
:1027000080F80014704700F00F0000F1E02080F81E
:10271000141D704702E008C8121F08C1002AFAD130
:1027200070477047002001E001C1121F002AFBD151
:102730007047000001490860704700002000002039
:102740002DE9FF5F82B00021DDE90430020DDDF8E4
:1027500040B0034318D044F61050A2F2FF32424377
:102760001514119801281FD0A5EB0B00401C5FEA3F
:10277000000A4FF000064E4FDFF83891B046504641
:1027800015D5CAF1000413E0119801244AA30128C9
:1027900001D16FEA0B010298119AC0E90031C0E93A
:1027A000024206B0BDE8F09FCBF10000DFE704462F
:1027B0000021404A491842EB0450CDE9001012E0D4
:1027C000E00707D032463B4640464946FDF733FF17
:1027D0008046894632463B4610461946FDF72BFF98
:1027E00006460F466410002CEAD1DDE90401DDE95C
:1027F0000023BAF1000F06DAFDF71DFF42464B46F3
:10280000FDF719FF05E0FDF788FF42464B46FDF74F
:1028100084FF04460E460022284BFEF757F803D8E3
:102820004FF0FF30014607E00022254B204631469D
:10283000FDF75AFEFEF731F8102409E0002C0ADB00
:102840000A220023FDF78BFD039B30321A55641ECC
:1028500050EA0102F2D1641C039AC4F1110314443A
:10286000119A012A03D0012208430DD10AE008433E
:1028700004D000204FF0110B119072E7A3EB0B0571
:102880006D1E0DE05B4504DD4FF0000205F1010512
:1028900004E003DA4FF00002A5F10105002AECD0B4
:1028A00002981199C0E90231C0E9004579E70000BA
:1028B000000014400000F03F300000000000F04332
:1028C0000000E03F2DE9FF4F95B09B468946064644
:1028D00000250FE2252877D100242746F84A012158
:1028E000059400E0044316F8013F203B01FA03F091
:1028F0001042F7D130782A2811D06FF02F033078AA
:10290000A0F13002092A16D8059A44F0020402EB1D
:10291000820203EB42021044761C0590EFE759F85F
:10292000042B0592002A03DA504244F40054059027
:1029300044F00204761C30782E2816D116F8010FC8
:1029400044F004042A280DD06FF02F023078A0F153
:102950003003092B09D807EB870302EB4303C718A1
:10296000761CF3E759F8047B761C30786C280FD07E
:1029700006DC4C2817D068280DD06A2814D104E052
:10298000742810D07A280FD10DE044F400140AE026
:1029900044F4801401E044F440147278824202D17D
:1029A00004F58014761C761C307866280BD013DC76
:1029B000582877D009DC002875D04528F6D046285D
:1029C000F4D047281AD19DE118E0632835D0642857
:1029D00079D0652812D195E1702873D008DC67287A
:1029E000F1D069286FD06E280DD06F2806D1B5E0E0
:1029F00073282CD0752875D0782874D05A4617992A
:102A000090476D1C75E1C4F30250022809D00328D9
:102A10000DD0D9F8001004280DD00D6009F104097B
:102A200067E1D9F80010EA17C1E90052F6E7D9F8D2
:102A300000100D80F2E70D70F0E719F8041B8DF817
:102A4000001000208DF80100EA46012003E059F84B
:102A500004AB4FF0FF3061074FF0000102D40DE0EE
:102A600008F101018846B9420FDA8045F8DB1AF80F
:102A700008100029F4D108E008F1010188468142DC
:102A8000FADB1AF808100029F6D105985B46A0EB8E
:102A9000080721463846179A00F094FA284400EBBC
:102AA000080507E04DE029E10DE01AF8010B5A4650
:102AB00017999047B8F10108F7D25B46214638468E
:102AC000179A13E142E00A220092C4F302524FF037
:102AD000000A022A08D059F804CB032A4FEAEC7105
:102AE0000AD00DE029E02AE009F1070121F00702F0
:102AF000F2E802C1914609E00FFA8CFC4FEAEC7152
:102B0000042A03D14FFA8CFC4FEAEC71002907DA52
:102B10000A460021DCF1000C61EB02012D2202E0EB
:102B2000220504D52B228DF80420012203E0E207C0
:102B300001D02022F7E7904659E00A2102E0102256
:102B40000DE010214FF0000A00910BE010224FF031
:102B5000000A44F004040827009203E008224FF022
:102B6000000A0092C4F30252022A05D059F804CB9D
:102B70000021032A08D009E009F1070121F007022A
:102B8000F2E802C1914605E01FFA8CFC042A01D14B
:102B90000CF0FF0C4FF00008220728D5702806D053
:102BA000009B83F0100353EA0A0305D00EE0402295
:102BB0008DF80420012208E05CEA010206D03022F0
:102BC0008DF804208DF8050002229046009B83F0CA
:102BD000080353EA0A030AD15CEA010201D1620741
:102BE00005D530228DF804204FF001087F1E5828AB
:102BF00004D034A003900EA802900DE036A0F9E7AF
:102C000053466046009AFDF7AAFB84460398825C0F
:102C10000298401E029002705CEA0100F0D1029816
:102C200006A9081A00F1200A600702D524F48034AE
:102C300000E00127574502DDA7EB0A0000E0002075
:102C400000EB0A01009005984144401A0590E0030A
:102C500006D45B462146179A059800F0B3F905445F
:102C6000002706E001A85A46C05D179990476D1CE1
:102C70007F1C4745F6DBE0030CD55B462146179ADF
:102C8000059800F09FF9054404E030205A46179952
:102C900090476D1C0099481E00900029F5DC08E063
:102CA000029802995A460078491C02911799904758
:102CB0006D1CBAF10001AAF1010AF1DC65E1000026
:102CC0000928010030313233343536373839616202
:102CD00063646566000000003031323334353637C6
:102CE00038394142434445460000000000F058F99D
:102CF0000544761C307800287FF4ECAD19B02846E6
:102D0000BDE8F08F620700D4062709F1070222F020
:102D1000070CFCE80223E14603F000485FEA080CD8
:102D200002D00FF2702C0DE05FEA045C02D50FF2C6
:102D3000682C07E05FEAC47C02D00FF2602C01E04F
:102D4000AFF2700C4FF0FF3823F00043CDF850C0C5
:102D500065280CD006DC452809D046281DD0472818
:102D60003DD13DE0662818D067287ED138E00021AB
:102D7000112F01DB112000E0781CCDE9000106A92C
:102D80000EA8FFF7DDFCDDE90F010E9A039100218B
:102D9000009207F1010A04914DE04FF000400097C6
:102DA000CDE9011006A90EA8FFF7CAFCDDE90F0264
:102DB00003920E9B11990022DDF80CA0009304925F
:102DC00011B9791C00EB010AB7EB0A0004D4C0F179
:102DD000FF3007F1010A0490AAEB0700019044E0DC
:102DE000012F00DA01270021112F01DD112000E061
:102DF0003846CDE9000106A90EA8FFF7A1FCDDE9E0
:102E00000F010E9A0391002104910092BA46210706
:102E10000CD40399514500DA8A46BAF1010F05DD59
:102E2000009AAAF10101515C302908D0B84202DAB7
:102E300010F1040F06DA0121CDE9011015E0AAF125
:102E40000101E9E7002805DC049901440491AAEB9B
:102E5000000102E0411C514500DD8A460499401AF8
:102E6000401C01904FF000400290200704D40198CC
:102E7000504501DBCDF8048000208DF84F0002980A
:102E80000DF14F07B0F1004F25D02B200E90029886
:102E90004FF0020800280CDA404202902D200E90DC
:102EA00007E00A210298FDF744FA3031029007F852
:102EB000011DB8F10001A8F10108F2DC0298002818
:102EC000EFD1791E0E980870307800F0200040F0A5
:102ED000450007F8020D12A8C01B00F1070814985E
:102EE000007800B1012000EB0A01019801EBE071CC
:102EF00005984144401A401E0590E00306D45B4605
:102F00002146179A059800F05DF80544149800785A
:102F100018B15A46179990476D1CE00324D55B46BB
:102F20002146179A059800F04DF805441CE00498D6
:102F3000002807DBDDE90301884203DD0098405CDF
:102F4000179901E0179930205A469047049805F1E7
:102F50000105401C04900198401E019004D12E20D0
:102F60005A46179990476D1CBAF10001AAF1010A5F
:102F7000DDDC05E017F8010B5A46179990476D1CE8
:102F8000B8F10001A8F10108F4DC5B462146179A6C
:102F90000598ABE62D0000002B000000200000008B
:102FA0002DE9F041044600251E461746880404D446
:102FB00005E039462020B0476D1C641EF9D528462F
:102FC000BDE8F0812DE9F041044600251E469046FB
:102FD000C80301D5302700E02027880404D505E088
:102FE00041463846B0476D1C641EF9D52846BDE8F9
:102FF000F08100002DE9F843C7B206468DF8007055
:103000000023012269462F48FEF754FD2E4D2F4C18
:103010004FF000080A2E16D0207A3A46401E00F0E3
:10302000030005EB00116068014401F8017CC1B2A6
:103030000420FFF7A3F960680F2809D2401C6060E4
:10304000012818D034E06068012837D00F20606074
:10305000FFF786F8A0684146401CC4E90180401E85
:1030600000F003000A4605EB00104254491C0F29EA
:10307000FBD901206060207A012100F0030005EBFC
:1030800000120846FFF7AEF9207A0121401C00F03B
:10309000030005EB00120220FFF7A4F9207A0121BA
:1030A000801C00F0030005EB00120320FFF79AF9E3
:1030B0000A20FDF767FC3046BDE8F8834046C4F8B7
:1030C0000480BBE7D4000020400000200000002066
:1030D000FEF730F8FFF7BEF9FEF7B2FFFFF722F870
:1030E000FFF700F8FFF7D2F83548017835A0FFF771
:1030F000F1FAFEF749FF31B2494320B200FB00115B
:1031000028B200FB0010FDF7F0F800F06BF86FF04C
:103110000D0A3B21D020FEF76FFF60F30F263C2104
:10312000D020FEF769FF60F307063D21D020FEF7AF
:1031300063FF60F30F243E21D020FEF75DFF60F3B4
:1031400007043F21D020FEF757FF60F30F254021F1
:10315000D020FEF751FF60F3070530B2FDF7BCF851
:10316000D1465146FDF7ACF8804620B2FDF7B4F8E1
:103170004946FDF7A5F8074628B2FDF7ADF84946E0
:10318000FDF79EF80146FDF769F881463946084685
:10319000FDF764F8074641460846FDF75FF83946F3
:1031A000FDF704F84946FDF701F8FDF7AFF800F028
:1031B00019F802460B4608A0FFF78CFAA9E70000B1
:1031C000000000205349204D4120534855204449D8
:1031D000414E2025640A0000616C6C20613A25662E
:1031E000200A00002DE9F04106460F46FDF704FBDA
:1031F000041E0D4618BF0120284320F00040C0F1F6
:103200007F6000F1E040C00F0ED0301C18BF0120DD
:10321000384320F00040C0F17F6000F1E040C00F73
:1032200004BF0120FFF786FA20462946BDE8F08159
:10323000010202030405060708090A0B0C0D0E0F14
:103240001010000000000000000001020304060747
:103250000809000000000102030400000000000053
:1032600000000000000000000000000000F8000066
:103270000000000000333000000000100C06100CAD
:103280000600000000000000000040C07840C07848
:103290004000043F04043F040400007088FC083030
:1032A0000000001820FF211E0000F008F000E018C8
:1032B000000000211C031E211E0000F00888700081
:1032C00000001E2123241927211010160E000000D3
:1032D00000000000000000000000000000E01804F2
:1032E0000200000000071820400000020418E0005F
:1032F00000000040201807000000404080F080409F
:1033000040000202010F01020200000000F0000074
:1033100000000101011F0101010000000000000088
:10332000000080B0700000000000000000000000FD
:103330000000000101010101010100000000000086
:10334000000000303000000000000000000080603D
:103350001804006018060100000000E010080810C2
:10336000E000000F102020100F00001010F80000E7
:1033700000000020203F202000000070080808887E
:10338000700000302824222130000030088888484E
:1033900030000018202020110E000000C02010F87E
:1033A000000000070424243F240000F8088888084F
:1033B00008000019212020110E0000E01088881854
:1033C0000000000F112020110E0000380808C83836
:1033D00008000000003F0000000000708808088816
:1033E0007000001C222121221C0000E0100808109F
:1033F000E0000000312222110F00000000C0C000D8
:1034000000000000003030000000000000800000DC
:1034100000000000806000000000000080402010DC
:1034200008000001020408102000404040404040D5
:103430004000040404040404040000081020408038
:10344000000000201008040201000070480808086D
:10345000F0000000003036010000C030C828E8103D
:10346000E0000718272423140B000000C038E000F8
:103470000000203C23020227382008F88888887042
:103480000000203F202020110E00C030080808084E
:103490003800071820202010080008F80808081035
:1034A000E000203F202020100F0008F88888E8085E
:1034B0001000203F20202320180008F88888E80802
:1034C0001000203F200003000000C030080808382A
:1034D000000007182020221E020008F8080000083B
:1034E000F808203F210101213F20000808F80808C2
:1034F00000000020203F2020000000000808F808FD
:103500000800C08080807F00000008F888C028186C
:103510000800203F20012638200008F8080000009D
:103520000000203F20202020300008F8F800F8F8A4
:103530000800203F003F003F200008F830C000088E
:10354000F808203F200007183F00E0100808081086
:10355000E0000F10202020100F0008F808080808CD
:10356000F000203F210101010000E01008080810D0
:10357000E0000F18242438504F0008F88888888805
:103580007000203F2000030C3020007088080808DD
:1035900038000038202121221C00180808F80808EB
:1035A00018000000203F2000000008F80800000874
:1035B000F808001F202020201F000878880000C87D
:1035C0003808000007380E010000F80800F800086D
:1035D000F800033C0700073C030008186880806877
:1035E000180820302C03032C30200838C800C838B5
:1035F00008000000203F2000000010080808C8381C
:1036000008002038262120201800000000FE0202B9
:1036100002000000007F40404000000C30C000006D
:103620000000000000010638C00000020202FE0097
:103630000000004040407F00000000000402020241
:103640000400000000000000000000000000000076
:103650000000808080808080808000020204000062
:10366000000000000000000000000000808080805A
:1036700000000019242222223F2008F80080800048
:103680000000003F112020110E000000008080800B
:103690000000000E11202020110000000080808812
:1036A000F800000E112020103F2000008080808054
:1036B0000000001F222222221300008080F0888850
:1036C00088180020203F202000000000808080809B
:1036D0008000006B94949493600008F800808080D0
:1036E0000000203F210000203F200080989800002B
:1036F00000000020203F202000000000008098985B
:10370000000000C08080807F000008F800008080FA
:103710008000203F24022D302000000808F800001F
:1037200000000020203F20200000808080808080DA
:103730008000203F20003F20003F8080008080806C
:103740000000203F210000203F200000808080807A
:103750000000001F202020201F00808000808000AB
:10376000000080FFA12020110E000000008080805A
:103770008000000E112020A0FF80808080008080CB
:10378000800020203F2120000100000080808080F8
:1037900080000033242424241900008080E08080ED
:1037A00000000000001F202000008080000000803A
:1037B0008000001F202020103F208080800000809B
:1037C000808000010E3008060100808000800080AB
:1037D00080800F300C030C300F0000808000808050
:1037E00080000020312E0E3120008080800000807B
:1037F000808080818E70180601000080808080802B
:1038000080000021302C2221300000000000807C4C
:10381000020200000000003F404000000000FF00E6
:10382000000000000000FF0000000002027C800099
:1038300000000040403F00000000000601010202BD
:103840000404000000000000000000006C380008C4
:103850000000002024000000142700089038000811
:103860002400002044050000242700080000000078
:103870000100000005000000010000001000000031
:103880000000000000127A000000000000000000AC
:0400000508000131BD
:00000001FF
