:020000040800F2
:10000000A0070020D50100086B1D00080D1C00088A
:10001000691D00081D0600081923000800000000E3
:100020000000000000000000000000003D2000086B
:1000300057060008000000003B2000083F20000891
:10004000EF010008EF010008EF010008EF010008D0
:10005000EF010008EF010008EF010008EF010008C0
:10006000EF010008EF010008EF0100082106000879
:10007000EF010008EF010008EF010008EF010008A0
:10008000EF010008EF010008EF010008EF01000890
:10009000EF010008EF010008EF010008EF01000880
:1000A000EF010008EF010008EF010008EF01000870
:1000B000EF010008EF010008EF010008EF01000860
:1000C000EF010008EF010008EF010008EF01000850
:1000D000EF010008EF0100080D230008EF01000800
:1000E000EF010008EF010008EF010008EF01000830
:1000F000EF010008EF010008EF010008EF01000820
:10010000EF010008EF010008EF010008EF0100080F
:10011000EF010008EF010008EF010008EF010008FF
:10012000EF010008EF010008EF010008EF010008EF
:1001300000F002F800F03FF80AA090E8000C8244BA
:100140008344AAF10107DA4501D100F034F8AFF297
:10015000090EBAE80F0013F0010F18BFFB1A43F0A5
:10016000010318477829000098290000103A24BF9D
:1001700078C878C1FAD8520724BF30C830C144BF0C
:1001800004680C607047000000230024002500264E
:10019000103A28BF78C1FBD8520728BF30C148BFEA
:1001A0000B607047642900F07780002070471FB50E
:1001B0001FBD10B510BD00F05DF91146FFF7F7FF48
:1001C00002F03AF900F07BF903B4FFF7F2FF03BC49
:1001D00002F0B3F80948804709480047FEE7FEE708
:1001E000FEE7FEE7FEE7FEE7FEE7FEE7FEE7FEE7E7
:1001F00004480549054A064B70470000BD20000829
:1002000031010008A0010020A0070020A003002069
:10021000A0030020704700000FB4044910B503AAE2
:10022000029800F0F9F810BC5DF814FB10000020F3
:100230002DE9F0410E460446002020622046E16888
:10024000884730B3252805D0D4E901219047206A9A
:10025000401CF2E7E168204600278847050018D0D7
:10026000A5F14100192802D820354FF40067324625
:10027000294620462760FFF795FF40B1012804D0AA
:10028000F61D26F007060836D8E7361DD6E72846BD
:10029000DAE7206ABDE8F0812DE9F0410646002446
:1002A00010687529314616A510D0AFF300800028DC
:1002B00002DA404213A507E031688A0701D512A58A
:1002C00002E0490704D511A5012401E0AFF3008045
:1002D00000210A2206F1240709E0B0FBF2FCB0FB82
:1002E000F2F302FB1C00303078541846491C0028F9
:1002F000F3D123462A463046BDE8F04100F033B83A
:10030000000000002D0000002B0000002000000075
:100310004FF0000200B5134694469646203922BF9E
:10032000A0E80C50A0E80C50B1F12001BFF4F7AFE9
:10033000090728BFA0E80C5048BF0CC05DF804EBCB
:10034000890028BF40F8042B08BF704748BF20F839
:10035000022B11F0804F18BF00F8012B7047704737
:100360007047704770472DE9F0470D469946924611
:10037000044600F124080168880604D5E06921F0EC
:100380001001216000E00120A84201DD471B00E0D0
:100390000027A1697A1902EB0900081AA0612078E8
:1003A000C00602D42046AFF30080002608E0D4E95E
:1003B00001211AF806009047206A401C761C206232
:1003C0004E45F4DB2078C0060AD52046AFF3008006
:1003D00006E0D4E9012130209047206A401C2062C9
:1003E000381EA7F10107F4DC07E0D4E9012118F871
:1003F00005009047206A401C2062281EA5F10105D7
:10040000F3DC2046AFF300802078000602D50220FE
:10041000BDE8F0870120FBE7074B70B50D467B4434
:1004200000F011F80446284600F020F810B14FF013
:10043000FF3070BD204670BD1B1F000001694A1CC3
:1004400002610878704700B58FB0CDE90131002115
:10045000059105497944CDE9031011466846FFF737
:10046000E7FE0FB000BD0000E5FFFFFF007B00F0DE
:1004700080007047754600F02BF8AE4605006946CF
:10048000534620F00700854618B020B5FFF7B0FEB0
:10049000BDE820404FF000064FF000074FF0000885
:1004A0004FF0000B21F00701AC46ACE8C009ACE806
:1004B000C009ACE8C009ACE8C0098D46704710B56A
:1004C0000446AFF300802046BDE81040FFF77CBE35
:1004D000004870473C01002070B504460068816800
:1004E000C943C90717D1816821F00101816000F07B
:1004F000FDFD05460AE000BF00F0F8FD401B0228A4
:1005000004D920688068C043C00706D0206880688E
:10051000C043C007F0D0002070BDA06A40F01000BA
:10052000A062E06A40F00100E062012070BD10B5F9
:100530000146406A826A12F0500F05D0006A026BD1
:10054000BDE8104008461047816A41F4007181629D
:1005500001688968C1F3424107290CD1017B51B977
:10056000816A21F480718162816AC90403D4816A3D
:1005700041F00101816200F0EFF810BD10B5406A52
:10058000816A41F040018162C16A41F00401C162A7
:1005900000F0E4F810BD10B5406A00F0DEF810BDC0
:1005A000F8B500260446009600688168C943C9076B
:1005B0002DD0816841F0010181601648164900681C
:1005C000B0FBF1F000E0401E00900028FBD100F0ED
:1005D0008DFD054616E000BF00F088FD401B022897
:1005E00010D920688068C043C0070BD0A06A40F0D3
:1005F0001000A062E06A40F00100E06284F824602C
:100600000120F8BD20688068C043C007E4D1002005
:10061000F8BD00002000002040420F00FEE700006F
:10062000014800F0B5BA0000B000002030B590F8E5
:1006300040500124AC40C56B6C6004686360436843
:10064000102B036803D099600068C26030BD9A60C7
:100650000068C16030BD704772B6FEE7F8B500248F
:10066000009490F824202546012A12D0012280F817
:1006700024204A681F23072A0DD20668776B521E72
:1006800002EB820293409F430B6893401F437763C2
:1006900019E00220F8BD06680D2A0AD2376BD21F76
:1006A00002EB820293409F430B6893401F433763E2
:1006B00009E0F76A0D3A02EB820293409F430B6810
:1006C00093401F43F7620A68072306680A2A0AD381
:1006D000F7680A3A02EB420293409F438B689340CB
:1006E0001F43F76008E0376902EB420293409F43E3
:1006F0008B6893401F4337610A68102A01D0112A82
:1007000020D1124B02689A4217D193681B0219D468
:10071000936843F4000393600968102912D10C49CF
:100720000C4A0968B1FBF2F101EB8101490000E0DC
:10073000491E00910029FBD104E0816A41F02001AB
:100740008162012480F824502046F8BD0024014035
:100750002000002040420F007047704770470000A3
:100760002DE9F04104004FF000057FD0A06A00267B
:1007700028B9E66284F82460204600F081F820461B
:10078000FFF7AAFEA16AC90600D420B1A06A40F012
:100790001000A0626AE0A16A21F4885141F00201D0
:1007A000A162334923688B42E16904D1B1F5402F3E
:1007B00001D14FF40021277B4FF4807C41EA4702AE
:1007C00061680A43A168614508D0012906D000216B
:1007D00094F814E0BEF1010F02D00AE06146F7E799
:1007E000C7B1A76A47F02007A762E76A47F0010789
:1007F000E7625F6827F469470F435F602368996881
:100800001C4F394011439960A16861450BD0012903
:1008100009D00CE0DFF860E0A7690EEB47370F4323
:1008200047F40061E5E7218A0D05A5F580152168EB
:10083000CB6A23F470032B43CB62216889680F4B8A
:100840001940914208D1E662A16A21F0020141F00B
:100850000101A162BDE8F081A06A20F0020040F031
:100860001000A062E06A40F00100E0620120F1E7C0
:10087000003C0140FDF7E1FF00E0FFFFFE0E1FFF1F
:1008800070B586B000250646009501950295039542
:100890000068194988422DD11849886940F40070D0
:1008A0008861886900F400700490886940F0040051
:1008B00088618869694600F0040004900320009074
:1008C00001900F4800F010FB0F4C0E48C4E90005E2
:1008D0008020C4E9025080002061800060612020F7
:1008E000C4E90605204600F077FA08B1FFF7B4FE28
:1008F0003462666206B070BD002401400010024000
:100900000008014008000240B00000202DE9F04737
:10091000894604463B4900683B4F0E1D904688427D
:1009200001D0B84207D1306810F4702F03D00125F0
:100930002846BDE8F08794F8240001280CD0012057
:1009400084F824002046FFF72BFE05004FF000003E
:1009500004D084F82400EBE70220EAE7A16A40F61D
:100960000162914341F48071A1622168B94218D1BA
:10097000326812F4702F14D0A16A41F48011A16280
:100980003168490505D5A16A21F4005141F480512F
:10099000A162A16AC9040AD5E16A21F00601E162F7
:1009A00006E0A26A22F48012A2624968E9E7E062E6
:1009B00084F82400216A15488862216A1448C862B4
:1009C000216A1448086321686FF0020008602068FB
:1009D000816841F480718160216843464A464C3108
:1009E000206A00F037FA20688168C1F34241072984
:1009F000816803D041F48011816099E741F4A0013E
:100A0000FAE7000000240140002801402F050008FB
:100A1000970500087D05000810B590F82110002208
:100A2000022905D00421816380F82020012010BD17
:100A300001680B6823F00E030B6001680B6823F05C
:100A400001030B6090F84030C46B012101FA03F3FD
:100A5000636080F8211080F82020104610BD00004F
:100A60002DE9F05F90F821100024022903D0042121
:100A70008163012485E001680A6822F00E020A60A1
:100A800001680A6822F001020A603F4E3E4FB2152B
:100A9000DFF8F4C0DFF8F090DFF8ECA0DFF8E8B0A2
:100AA000DFF8E4E00168783F13011502ACF1640C53
:100AB000A9F15009AAF13C0AABF1280BAEF1140ED2
:100AC0004FF48018B14227D9B9420ED0614512D0F7
:100AD00049451DD0514518D0594518D0714501D10F
:100AE000424615E0294EB14201D1012210E0274EC5
:100AF0001436B14201D110220AE0244E2836B14208
:100B000006D0224A3C32914201D11A4600E02A46E0
:100B10001E49091F0A602BE0B94213D0614517D066
:100B2000494522D051451DD059451DD0714501D1AF
:100B300042461AE0B14202D14FF0807215E0134EE6
:100B4000B14201D1012210E0104E1436B14201D160
:100B500010220AE00D4E2836B14206D00B4A3C3234
:100B6000914201D11A4600E02A46074980394A607D
:100B7000012180F82110002180F82010416B01B183
:100B800088472046BDE8F09F8000024008040240EC
:100B90002DE9F05FC16B0A6801680B68046C4FF0C7
:100BA000040808FA04F8844D844E854FDFF814C217
:100BB000DFF81492DFF814A2DFF814B2DFF814E2C1
:100BC00018EA020F65D05FEA437862D50A68920698
:100BD00003D40A6822F004020A60DFF8F0814FF4BF
:100BE0008062016808F1140813011402414524D9F8
:100BF000A9420DD0B1420FD0B9421AD0614515D0EB
:100C0000494515D0514501D1120312E0594501D192
:100C100004220EE0714501D140220AE06D4D1435E9
:100C2000A94206D06B4A2832914201D11A4600E00F
:100C300022466749091F0A6029E0A94213D0B14240
:100C400015D0B94220D061451BD049451BD0514534
:100C500002D14FF4800217E0414502D14FF080628B
:100C600012E0594501D104220EE0714501D1402224
:100C70000AE0584D1435A94206D0564A283291420E
:100C800001D11A4600E022464B4908394A60C16A40
:100C900071E04FF0020808FA04F818EA020F70D069
:100CA0005FEA83786DD50A68920606D40A6822F056
:100CB0000A020A60012180F82110DFF810814FF448
:100CC0000072016808F1140813011402414524D987
:100CD000A9420DD0B1420FD0B9421AD0614515D00A
:100CE000494515D0514501D1120312E0594501D1B2
:100CF00002220EE0714501D120220AE0354D143563
:100D0000A94206D0334A2832914201D11A4600E066
:100D100022462F49091F0A6029E0A94213D0B14297
:100D200015D0B94220D061451BD049451BD0514553
:100D300002D14FF4001217E0414502D14FF000728A
:100D400012E0594501D102220EE0714501D1202265
:100D50000AE0204D1435A94206D01E4A283291429D
:100D600001D11A4600E02246134908394A600021A1
:100D700080F82010816A00291CD0BDE8F05F084788
:100D8000FFE70825A540154214D01A0712D50A68B6
:100D900022F00E020A6090F84020C36B012101FA94
:100DA00002F25A60816380F82110002180F820103F
:100DB000016BE0E7BDE8F09F080002401C00024024
:100DC0003000024044000240580002406C000240E3
:100DD000080402401C04024030B560B11A4B02689E
:100DE00014219A4209D2194B1344B3FBF1F1890043
:100DF000016417490AE0012030BD134B5B421344E4
:100E0000B3FBF1F1890001640F490839C163022184
:100E100080F82110136843F6F0718B43F0E9011458
:100E20002143D0E902452C4321430469214344690D
:100E30002143846921431943116000214163012248
:100E400042770177084630BD08040240F8FFFDBF35
:100E50000000024070B5044690F8200000250128EB
:100E60000CD0012084F8200094F821600020012E8D
:100E700006D084F820000225284670BD022070BDEF
:100E8000022684F82160A0632068066826F0010627
:100E900006602046FFF7CAFBE06A00282068016868
:100EA00002D041F00E0106E021F00401016020684B
:100EB000016841F00A0101602068016841F0010108
:100EC0000160D9E770B5044600F010F90546601CD2
:100ED00002D004480078044400F008F9401BA04206
:100EE000FAD370BD140000202DE9F84FDFF8C89147
:100EF0000024A9F1040B23460F2709F1040AABF1E2
:100F0000040ED1E00125A54006EA0502AA4276D1E9
:100F1000DFF8A8C14E68A6EB0C0866452BD00DDCA7
:100F2000032E34D005DC36B3012E19D0022E2FD17A
:100F30001BE0112E16D0122E2AD119E0B8F5881F09
:100F400019D006DCB8F5803F15D0B8F5801F1FD149
:100F500011E0B8F5001F0ED0B8F5041F18D10AE053
:100F6000CB6815E0CB681B1D12E0CB6808330FE09F
:100F7000CB680C330CE08B682BB1012B4FF00803CE
:100F800003D0456104E0042302E0056100E0002392
:100F9000FF2A01D8064601E000F104064FEA840565
:100FA00001D9A5F12005D6F8008007FA05FC28EA4A
:100FB0000C0803FA05F548EA0508C6F800804D68F4
:100FC000ED0070D53E4DAE6946F00106AE61AD69EB
:100FD00024F0030605F0010500953A4D06EB050CDB
:100FE000DCF80850A607360F07FA06F825EA0805C8
:100FF000DFF8D480404503D14FF0000825E052E0EF
:10100000DFF8C880404502D14FF001081DE0DFF84D
:10101000C080404502D14FF0020816E0DFF8B480EE
:10102000404502D14FF003080FE0DFF8AC804045A7
:1010300002D14FF0040808E0DFF8A080404502D15B
:101040004FF0050801E04FF0060808FA06F848EAF4
:101050000508CCF808804D68D9F80060ED024D46CF
:1010600001D5164300E096432E604D68DAF8006023
:10107000AD02554601D5164300E096432E604D68FB
:10108000DBF80060AD035D4601D5164300E09643F2
:101090002E604D68DEF80060ED03754601D51643FD
:1010A00000E096432E60641C0A681646E2407FF416
:1010B00029AFBDE8F88F00000804014000001110BE
:1010C000001002400000014000080140000C0140F7
:1010D000001001400014014000180140001C0140B4
:1010E0000AB1016170470904FBE70000014880680C
:1010F0007047000014000020024881680278114403
:101100008160704714000020074810B5016841F065
:1011100010010160032000F075F80F2000F006F8C0
:1011200000F024F8002010BD0020024070B50D4DE5
:1011300004464FF47A712878B1FBF0F00A49096847
:10114000B1FBF0F000F052FB48B9102C07D200229E
:101150002146501E00F036F800206C6070BD012062
:1011600070BD000014000020200000200C4808B5CD
:10117000816941F001018161816901F00101009102
:10118000C16941F08051C161C06900F08050009098
:101190000448416821F0E06141F00071416008BD00
:1011A0000010024000000140002809DB00F01F028F
:1011B000012191404009800000F1E020C0F80011B9
:1011C00070470000F0B40E4B1B680C46C3F30223BB
:1011D000C3F10705042D00D90425191D072901D2E3
:1011E000002300E0DB1E012606FA05F1491E21401E
:1011F00099409E40761E16403143F0BC01F08DB8F8
:101200000CED00E0064900F0070208684FF6FF0306
:10121000184040EA0220034A10430860704700006B
:101220000CED00E00000FA052DE9F84305460078D2
:10123000354CC00754D0E0690026C00008D4E069EE
:1012400040F08050E061E069012600F0805000909D
:101250002E480168C90512D40168804641F48071A6
:101260000160FFF743FF074605E000BFFFF73EFFC1
:10127000C01B642823D8D8F80000C005F6D5206A22
:1012800010F4407021D0A98801F4407181421CD033
:10129000206A1F49012220F440700A6000220A607F
:1012A0002062C00711D0FFF721FF074641F28838BE
:1012B00008E000BFFFF71AFFC11B414502D9032018
:1012C000BDE8F883206A8007F4D5206A696820F4B5
:1012D0004070084320621EB1E06920F08050E06158
:1012E0002878800705D56068A96820F44040084345
:1012F00060602878C00605D56068696920F48000C0
:10130000084360600020DBE70010024000700040EE
:10131000400442422DE9F0470F46050061D0434E9C
:10132000306800F00700B84209D2306820F00700AA
:1013300038433060306800F00700B84251D1286867
:101340003B4C810712D5400703D5606840F4E0604C
:1013500060602878000703D5606840F460506060E2
:101360006068A96820F0F000084360602878C00732
:1013700028D06868012810D02168022810D0890779
:1013800000292EDA616821F0030101436160FFF753
:10139000ADFE804641F288390DE021688903EFE710
:1013A0008901EDE7FFF7A2FEA0EB0801494502D94C
:1013B0000320BDE8F0876068696800F00C00B0EBBE
:1013C000810FEFD1306800F00700B8420BD93068C8
:1013D00020F0070038433060306800F00700B84262
:1013E00001D00120E5E72878400705D56068E96865
:1013F00020F4E060084360602878000706D5606844
:10140000296920F4605040EAC100606000F038F8BB
:101410006168084AC1F30311515CC840064908607D
:1014200006480068FFF782FE0020C2E70020024065
:1014300000100240D22400082000002018000020E4
:101440000448054900684968044AC1F30221515C17
:10145000C84070472000002000100240E22400082D
:101460000448054900684968044AC1F3C221515C37
:10147000C84070472000002000100240E22400080D
:101480000E4A51680E4801F00C03042B11D0082BB2
:101490000FD10C48C1F38343C903C05C0AD551681E
:1014A000084AC1F34041921E515C054A5043B0FBCB
:1014B000F1F07047044948437047000000100240B3
:1014C00000127A00C224000800093D002DE9F84FFF
:1014D000040070D02078C04DC00749D06868C0F3C0
:1014E0008100012807D06868C0F38100022809D173
:1014F0006868C00306D52868800339D5606800286D
:10150000E7D035E06068B0F5803F0BD010B1B0F5A2
:10151000A02F11D0286820F480302860286820F49B
:10152000802002E0286840F480302860606890B134
:10153000FFF7DCFD06460AE0286840F480202860BA
:10154000F0E700BFFFF7D2FD801B642873D828683E
:101550008003F7D50CE0FFF7C9FD064605E000BFA4
:10156000FFF7C4FD801B6428F0D828688003F7D4F7
:1015700020789A4E80074FF001094FF0000839D5C6
:10158000686810F00C0F07D06868C0F3810002286B
:1015900009D16868C00306D42868800714D520697B
:1015A000012808D110E02069B0B1C6F80090FFF71B
:1015B0009DFD074605E00AE1FFF798FDC01B0228E4
:1015C000C4D828688007F7D52868616920F0F8003A
:1015D00040EAC10028600DE0C6F80080FFF786FDF4
:1015E000074604E0FFF782FDC01B022823D82868C5
:1015F0008007F7D4207800072CD57948A169D9B1A4
:10160000C0F80090FFF772FD074604E0FFF76EFD9B
:10161000C01B02280FD8686A8007F7D571484FF4BD
:10162000FA510068B0FBF1F0009000BF0098411E35
:101630000091FAD20EE080E0C0F80080FFF756FD7E
:10164000074604E0FFF752FDC01B022875D8686A00
:101650008007F7D42078400760D5E8690027C000EC
:1016600008D4E86940F08050E861E869012700F09B
:10167000805000905C480168C90513D40168834616
:1016800041F480710160FFF731FD824606E000BF42
:10169000FFF72CFDA0EB0A0064284ED8DBF8000011
:1016A000C005F5D5E06801280AD008B1052813D097
:1016B000286A20F001002862286A20F0040002E075
:1016C000286A40F001002862E06841F2883B98B146
:1016D000FFF70CFD82460BE0286A40F00400286208
:1016E000EEE700BFFFF702FDA0EB0A0159455AD80B
:1016F000286A8007F6D50CE0FFF7F8FC824605E083
:10170000FFF7F4FCA0EB0A0159454CD8286A800782
:10171000F6D41FB1E86920F08050E861E06988B331
:101720006968C1F38101022944D00228C6F86080AB
:1017300004D0FFF7DBFC044638E034E0FFF7D6FCCA
:10174000074604E0FFF7D2FCC01B02282BD828680C
:101750008001F7D4206AB0F5803F05D16868A168A0
:1017600020F4003008436860D4E908010843696840
:1017700021F4741108436860C6F86090FFF7B6FC66
:10178000044606E025E000BFFFF7B0FC001B02287E
:1017900009D828688001F7D51BE000BFFFF7A6FC39
:1017A000001B022802D90320BDE8F88F28688001B9
:1017B000F4D40EE00128F7D06868226A00F4803182
:1017C000914204D1616A00F47010884201D0012076
:1017D000EAE70020E8E70000001002400000424273
:1017E00080044242200000200070004010B5401EDE
:1017F000B0F1807F01D3012010BD4FF0E024606183
:101800000F21601700F089FD0020A06107202061F2
:10181000002010BD70477047F8B50168044608689D
:10182000CA684B6910F00F0F4FF0000559D003F054
:10183000010602F49077374365D0C10705D0D10582
:1018400003D5616C41F001016164410705D5D907F9
:1018500003D0616C41F002016164810705D5D907AD
:1018600003D0616C41F004016164010707D502F007
:101870002001314303D0616C41F008016164616C67
:1018800000293AD0800604D5900602D5204600F003
:1018900045FC20684069616CC0F38010090700D4E2
:1018A00060B3204600F013FC20684069400621D553
:1018B0002068143050E8001F21F0400140E8001279
:1018C000002AF5D1E06BA8B16D494163E06BFFF7E9
:1018D000C7F8002811D0E06B416B01B0BDE8F040C3
:1018E000084783060FD593060DD52046BDE8F8407E
:1018F00000F014BC2046FFF78EFFF8BD2046FFF72E
:101900008AFF6564F8BD266B2023012E7CD1C606B4
:101910007AD5D60678D508684868009048694FF0AF
:101920000206400640D5E16B086840680004000CE0
:10193000E8D0A28D8242E5D9E085886920282DD0A3
:1019400020680C3050E8001F21F4807140E800123C
:10195000002AF5D12068143050E8001F21F0010161
:1019600040E80012002AF5D12068143050E8001F2A
:1019700021F0400140E80012002AF5D184F84230FD
:10198000256320680C3050E8001F21F0100140E86A
:101990000012002AF5D1E06BFFF73EF86663A08DD8
:1019A000E18D401A81B22AE0A08DE18D401A81B20A
:1019B000E08D0028A6D00029A4D022680C3252E87D
:1019C000000F20F4907042E80007002FF5D1206846
:1019D000143050E8002F22F0010240E80027002FC9
:1019E000F5D184F84230256320680C3050E8002F90
:1019F00022F0100240E80023002BF5D16663204658
:101A0000FFF708FFF8BDFFE705062BD5150629D51A
:101A100094F841002128F5D1A068B0F5805F01D18C
:101A20002069B0B1206A411C2162216800784860B9
:101A3000E08C401E0004000CE084E3D12068C16803
:101A400021F08001C1602068C16841F04001C1609F
:101A5000D8E7206A0088C0F308004860206A801C2C
:101A60002062E5E74006CDD55006CBD5CA682046B2
:101A700022F04002CA6084F8413000F0C6F8C1E7A5
:101A8000BF20000870B5040004D094F84100002580
:101A900010B106E0012070BD84F84050204600F0EF
:101AA00023F8242084F841002068C16821F4005103
:101AB000C160204600F094FB2068016921F4904148
:101AC00001612068416921F02A0141612068C168F3
:101AD00041F40051C1606564202084F8410084F81D
:101AE00042006563002070BD30B585B000240094CD
:101AF0000194029403940068184988422BD1184835
:101B0000C16941F40031C161C16901F4003104913E
:101B1000816941F0040181618069124D00F0040087
:101B20000490042000900220019003200390694655
:101B30002846FFF7D9F90820CDE900046946284670
:101B40000294FFF7D1F9002211462620FFF73AFB55
:101B50002620FFF729FB05B030BD000000440040FF
:101B6000001002400008014070472DE9F843044688
:101B700090F84100984616460D46202802D00220D3
:101B8000BDE8F88385B17EB100206064212084F82F
:101B90004100FFF7ABFAA6848146E684A0682027BF
:101BA000B0F5805F02D003E00120E9E7206910B1C1
:101BB0002E4600250EE000260CE08021204600F095
:101BC0006BFBA8B9C6B116F8010B21684860E08C20
:101BD000401EE084E08C4B464FF00002CDF80080C0
:101BE0000028EAD14FF04001204600F055FB40B1FB
:101BF00084F841700320C3E735F8020BC0F30800F6
:101C0000E3E784F841700020BAE77047FEE7000080
:101C10003EB500241148009401940F4902940160DC
:101C20008915816004730475022505614FF46021F4
:101C30004460C161FEF794FD08B1FEF70DFD01207F
:101C4000CDE90005694602940448FEF707FD002827
:101C500001D0FEF701FD3EBD0024014080000020C0
:101C6000094808B5416941F001014161406900221C
:101C700000F00100009011460B20FFF7A3FABDE829
:101C800008400B20FFF790BA0010024070B586B0F4
:101C9000002425480094019402940394816941F042
:101CA00010018161816901F010010491816941F0A5
:101CB00020018161816901F020010491816941F075
:101CC00004018161816901F004010491816941F09D
:101CD000080181618069154E00F00800049001221E
:101CE0004FF460613046FFF7FBF90022B115304632
:101CF000FFF7F6F94FF44060009001AA1120022589
:101D000082E8310069463046FFF7EEF84FF4407044
:101D1000009001AA012082E8310069463046FFF7B1
:101D2000E3F806B070BD000000100240000C014056
:101D30000C4810B50A4901604FF41651416000216A
:101D400081600C22C160C0E904128161C161FFF7AA
:101D500099FE002803D0BDE81040FEF77DBC10BD01
:101D600000440040F4000020FEE7FEE770B50024C8
:101D70000021204600F0E6F80025002000F04CF994
:101D80006D1CEDB2802DF8D3641CE4B2082CEFD3A7
:101D900070BD000010B5FFF779FF0B4C0122510216
:101DA0002046FFF79DF90022A1152046FFF798F97C
:101DB000012291022046FFF793F920460122BDE857
:101DC0001040D102FFF78CB9000C01402DE9F0471B
:101DD000164E002407464FF080084FF40069351571
:101DE00028FA04F0384201D0012200E000224946DE
:101DF0003046FFF775F9012229463046FFF770F9A2
:101E0000002229463046FFF76BF9641CE4B2082C27
:101E1000E6D3012229463046FFF762F929463046CB
:101E2000BDE8F0470022FFF75BB90000000C01405D
:101E300070B501220B4DD40221462846FFF750F918
:101E40000122960231462846FFF74AF90022214630
:101E50002846FFF745F931462846BDE87040002284
:101E6000FFF73EB9000C014070B50A4D4FF4006415
:101E7000002221462846FFF733F901229102284625
:101E8000FFF72EF921462846BDE870400122FFF7F2
:101E900027B90000000C014010B500204FF47A7201
:101EA0000021491C9142FCD3401C9042F8D3FFF71B
:101EB00071FFAE2000F09FF8D52000F09CF8802044
:101EC00000F099F8A82000F096F83F2000F093F871
:101ED000D32000F090F8002000F08DF8402000F0B2
:101EE0008AF8A12000F087F8C82000F084F8DA20F2
:101EF00000F081F8122000F07EF8812000F07BF8DD
:101F0000CF2000F078F8D92000F075F8F12000F02B
:101F100072F8DB2000F06FF8302000F06CF8A4209D
:101F200000F069F8A62000F066F88D2000F063F854
:101F3000142000F060F8AF2000F05DF8BDE810401C
:101F4000FFF714BF10B50C4640F0B00000F053F896
:101F5000102040EA141000F04EF804F00F00BDE825
:101F6000104000F048B800002DE9F0410746CE00CF
:101F70004000083E801E15464FF0FF38F1B2C0B257
:101F8000FFF7E0FF1148002400EB05152819A0F524
:101F9000805090F8000E00F03FF8641CE4B2082C6A
:101FA000F4D308EB4700F1B2C0B2FFF7CBFF002437
:101FB0002819A0F5805090F8080E00F02DF8641C48
:101FC000E4B2082CF4D3BDE8F0810000EA24000854
:101FD0002DE9F04115460E460746002406E030196B
:101FE000C1B23846FFF7C0FF641CE4B22A5D002A84
:101FF000F5D1BDE8F08110B50446FFF719FF782050
:10200000FFF7E4FE0020FFF7E1FE2046FFF7DEFECB
:10201000BDE81040FFF728BF10B50446FFF708FFE2
:102020007820FFF7D3FE4020FFF7D0FE2046FFF7D1
:10203000CDFEBDE81040FFF717BF70477047FFF7B0
:102040005BB830B595B028216846FEF761F91421D8
:102050000AA8FEF75DF918210FA8FEF759F901212A
:102060000804CDE900100025029502240491CDE971
:1020700007404FF4E01009906846FFF727FA08B1CF
:1020800072B6FEE70AA90F2081E831004FF48060A4
:10209000CDE90D0502210AA8FFF73CF908B172B697
:1020A000FEE74FF4004011900F940FA8FFF7BCF823
:1020B000002801D072B6FEE715B030BD704710B5EC
:1020C000406A0021C185C184FFF7A5FB10BD0168EE
:1020D0000C3151E8002F22F4907241E80023002BCC
:1020E000F5D10168143151E8002F22F0010241E8D6
:1020F0000023002BF5D1016B012909D101680C31B6
:1021000051E8002F22F0100241E80023002BF5D106
:10211000202180F8421000210163704708B590F833
:102120004210222901D0022008BD82684FF480535A
:102130009A4201D1016921B1816A9A421BD04AB108
:102140000AE00268816A5268C2F308020A80816A62
:10215000891C08E0026972B10268526802F07F02CD
:102160000A70816A491C8162C18D491E0904090CEB
:10217000C18503D01BE002685268F1E70168CA68B4
:1021800022F02002CA600168CA6822F48072CA6024
:1021900001684A6922F001024A61202180F8421058
:1021A00000214163026B012A03D0FFF7DDFC002010
:1021B00008BD016301680C3151E8002F22F01002C4
:1021C00041E80023002BF5D101680A68D20602D548
:1021D0000A6849680091818DFFF71CFBE7E7000062
:1021E00070B5044600680169E26821F4405111436A
:1021F00001612169A0680843616908432168CA68D0
:1022000041F20C639A430243CA6020684169A269A3
:1022100021F44071114341611E492068884202D176
:10222000FFF71EF901E0FFF70BF900EBC00101EB2E
:102230000012606864218000B2FBF0F3B3FBF1F39D
:102240006FF018067343B2FBF0F5B2FBF0F605EB46
:102250008305322303EB0515B5FBF1F5B6FBF1F66B
:1022600005F0F00505EB0615B2FBF0F6B2FBF0F059
:10227000B0FBF1F06FF01802504306EB800003EB67
:102280000010B0FBF1F0216800F00F0028448860D6
:1022900070BD0000003801402DE9F843984617460C
:1022A0000D460446089E24E0701C22D0FEF71EFF57
:1022B000A0EB0800B0421AD8CEB12068C168490727
:1022C00017D5802D15D0402D13D00168C9430907BB
:1022D0000FD401680025406800902046FFF7F7FE04
:1022E0000820606484F840500120BDE8F883032092
:1022F000FBE72068006835EA000004D00020B842FF
:10230000D2D00020F1E70120F9E700000148FFF7F3
:1023100083BA0000F4000020FEE70907090E002838
:1023200004DB00F1E02080F80014704700F00F009B
:1023300000F1E02080F8141D7047FEE72DE9F84316
:10234000C5B207468DF80050002301226946374880
:10235000FFF70BFC364C374E4FF000080A2F12D017
:1023600020792A46401E00F0030006EB0011206889
:10237000014401F8015CC1B20420FFF7F5FD2068BB
:1023800001280AD034E02068012802D00F20206004
:1023900033E04046C4F800802DE02079401E00F074
:1023A0000305681CC11700EB917121F00301401A6D
:1023B00006EB001201210846FFF70AFEA81CC11710
:1023C00000EB917121F00301401A06EB001201218C
:1023D0000220FFF7FDFDED1CE81705EB907020F0E3
:1023E0000300281A06EB001201210320FFF7F0FD7D
:1023F00020680F2801D2401C11E0FFF7B7FC61688C
:102400004046491CC4E90081491E01F0030102460F
:1024100006EB01110A54401C0F28FBD90120206053
:102420000A20FEF74FFD3846BDE8F883F40000208F
:102430000000002040000020FEF766FEFFF701FECE
:10244000FFF724FCFFF70CFCFFF7E2FBFFF770FC43
:10245000FFF722FD08A0FDF7DFFE0CA0FDF7DCFE74
:10246000114C022210491148FEF750FAD4E900122B
:102470000FA0FDF7D1FEF4E75B44656275675D6D03
:1024800061696E3A626567696E0A00005B44656265
:1024900075675D6D61696E3A656E747279207768F3
:1024A000696C650A00000000080000208000002020
:1024B00063313A25642063323A25640A0000000043
:1024C000010202030405060708090A0B0C0D0E0F92
:1024D00010100000000000000000010203040607C5
:1024E00008090000000001020304000000000000D1
:1024F00000000000000000000000000000F80000E4
:102500000000000000333000000000100C06100C2A
:102510000600000000000000000040C07840C078C5
:102520004000043F04043F040400007088FC0830AD
:102530000000001820FF211E0000F008F000E01845
:10254000000000211C031E211E0000F008887000FE
:1025500000001E2123241927211010160E00000050
:1025600000000000000000000000000000E018046F
:102570000200000000071820400000020418E000DC
:1025800000000040201807000000404080F080401C
:1025900040000202010F01020200000000F00000F2
:1025A00000000101011F0101010000000000000006
:1025B000000080B07000000000000000000000007B
:1025C0000000000101010101010100000000000004
:1025D00000000030300000000000000000008060BB
:1025E0001804006018060100000000E01008081040
:1025F000E000000F102020100F00001010F8000065
:1026000000000020203F20200000007008080888FB
:1026100070000030282422213000003008888848CB
:1026200030000018202020110E000000C02010F8FB
:10263000000000070424243F240000F808888808CC
:1026400008000019212020110E0000E010888818D1
:102650000000000F112020110E0000380808C838B3
:1026600008000000003F0000000000708808088893
:102670007000001C222121221C0000E0100808101C
:10268000E0000000312222110F00000000C0C00055
:10269000000000000030300000000000008000005A
:1026A000000000008060000000000000804020105A
:1026B0000800000102040810200040404040404053
:1026C00040000404040404040400000810204080B6
:1026D00000000020100804020100007048080808EB
:1026E000F0000000003036010000C030C828E810BB
:1026F000E0000718272423140B000000C038E00076
:102700000000203C23020227382008F888888870BF
:102710000000203F202020110E00C03008080808CB
:102720003800071820202010080008F808080810B2
:10273000E000203F202020100F0008F88888E808DB
:102740001000203F20202320180008F88888E8087F
:102750001000203F200003000000C03008080838A7
:10276000000007182020221E020008F808000008B8
:10277000F808203F210101213F20000808F808083F
:1027800000000020203F2020000000000808F8087A
:102790000800C08080807F00000008F888C02818EA
:1027A0000800203F20012638200008F8080000001B
:1027B0000000203F20202020300008F8F800F8F822
:1027C0000800203F003F003F200008F830C000080C
:1027D000F808203F200007183F00E0100808081004
:1027E000E0000F10202020100F0008F8080808084B
:1027F000F000203F210101010000E010080808104E
:10280000E0000F18242438504F0008F88888888882
:102810007000203F2000030C30200070880808085A
:1028200038000038202121221C00180808F8080868
:1028300018000000203F2000000008F808000008F1
:10284000F808001F202020201F000878880000C8FA
:102850003808000007380E010000F80800F80008EA
:10286000F800033C0700073C0300081868808068F4
:10287000180820302C03032C30200838C800C83832
:1028800008000000203F2000000010080808C83899
:1028900008002038262120201800000000FE020237
:1028A00002000000007F40404000000C30C00000EB
:1028B0000000000000010638C00000020202FE0015
:1028C0000000004040407F000000000004020202BF
:1028D00004000000000000000000000000000000F4
:1028E00000008080808080808080000202040000E0
:1028F00000000000000000000000000080808080D8
:1029000000000019242222223F2008F800808000C5
:102910000000003F112020110E0000000080808088
:102920000000000E1120202011000000008080888F
:10293000F800000E112020103F20000080808080D1
:102940000000001F222222221300008080F08888CD
:1029500088180020203F2020000000008080808018
:102960008000006B94949493600008F8008080804D
:102970000000203F210000203F20008098980000A8
:1029800000000020203F20200000000000809898D8
:10299000000000C08080807F000008F80000808078
:1029A0008000203F24022D302000000808F800009D
:1029B00000000020203F2020000080808080808058
:1029C0008000203F20003F20003F808000808080EA
:1029D0000000203F210000203F20000080808080F8
:1029E0000000001F202020201F0080800080800029
:1029F000000080FFA12020110E00000000808080D8
:102A00008000000E112020A0FF8080808000808048
:102A1000800020203F212000010000008080808075
:102A200080000033242424241900008080E080806A
:102A300000000000001F20200000808000000080B7
:102A40008000001F202020103F2080808000008018
:102A5000808000010E300806010080800080008028
:102A600080800F300C030C300F00008080008080CD
:102A700080000020312E0E312000808080000080F8
:102A8000808080818E7018060100008080808080A8
:102A900080000021302C2221300000000000807CCA
:102AA000020200000000003F404000000000FF0064
:102AB000000000000000FF0000000002027C800017
:102AC00000000040403F000000000006010102023B
:102AD000040400000000000000000000FC2A0008C0
:102AE00000000020240000006C010008202B0008DA
:102AF000240000207C07000088010008010000007D
:102B000005000000000000000000000000000000C0
:102B100001000000100000000000000000127A0018
:0400000508000131BD
:00000001FF
